{
  "_format": "hh-sol-artifact-1",
  "contractName": "PokemonGame",
  "sourceName": "contracts/Pokemon/PokemonGame.sol",
  "abi": [
    {
      "inputs": [
        {
          "internalType": "address",
          "name": "_gameRewardsAddress",
          "type": "address"
        }
      ],
      "stateMutability": "nonpayable",
      "type": "constructor"
    },
    {
      "anonymous": false,
      "inputs": [
        {
          "indexed": true,
          "internalType": "address",
          "name": "owner",
          "type": "address"
        },
        {
          "indexed": true,
          "internalType": "address",
          "name": "approved",
          "type": "address"
        },
        {
          "indexed": true,
          "internalType": "uint256",
          "name": "tokenId",
          "type": "uint256"
        }
      ],
      "name": "Approval",
      "type": "event"
    },
    {
      "anonymous": false,
      "inputs": [
        {
          "indexed": true,
          "internalType": "address",
          "name": "owner",
          "type": "address"
        },
        {
          "indexed": true,
          "internalType": "address",
          "name": "operator",
          "type": "address"
        },
        {
          "indexed": false,
          "internalType": "bool",
          "name": "approved",
          "type": "bool"
        }
      ],
      "name": "ApprovalForAll",
      "type": "event"
    },
    {
      "anonymous": false,
      "inputs": [
        {
          "indexed": false,
          "internalType": "uint256",
          "name": "level",
          "type": "uint256"
        },
        {
          "components": [
            {
              "internalType": "uint256",
              "name": "hp",
              "type": "uint256"
            },
            {
              "internalType": "uint256",
              "name": "maxHp",
              "type": "uint256"
            },
            {
              "internalType": "uint256",
              "name": "attack",
              "type": "uint256"
            }
          ],
          "indexed": false,
          "internalType": "struct LPokemonData.Stats",
          "name": "stats",
          "type": "tuple"
        },
        {
          "indexed": false,
          "internalType": "address",
          "name": "sender",
          "type": "address"
        },
        {
          "indexed": false,
          "internalType": "uint256",
          "name": "timestamp",
          "type": "uint256"
        }
      ],
      "name": "LevelUp",
      "type": "event"
    },
    {
      "anonymous": false,
      "inputs": [
        {
          "indexed": true,
          "internalType": "address",
          "name": "previousOwner",
          "type": "address"
        },
        {
          "indexed": true,
          "internalType": "address",
          "name": "newOwner",
          "type": "address"
        }
      ],
      "name": "OwnershipTransferred",
      "type": "event"
    },
    {
      "anonymous": false,
      "inputs": [
        {
          "indexed": false,
          "internalType": "address",
          "name": "sender",
          "type": "address"
        },
        {
          "indexed": false,
          "internalType": "uint256",
          "name": "tokenId",
          "type": "uint256"
        },
        {
          "indexed": false,
          "internalType": "uint256",
          "name": "pokemonId",
          "type": "uint256"
        }
      ],
      "name": "PokemonNFTMinted",
      "type": "event"
    },
    {
      "anonymous": false,
      "inputs": [
        {
          "indexed": true,
          "internalType": "address",
          "name": "from",
          "type": "address"
        },
        {
          "indexed": true,
          "internalType": "address",
          "name": "to",
          "type": "address"
        },
        {
          "indexed": true,
          "internalType": "uint256",
          "name": "tokenId",
          "type": "uint256"
        }
      ],
      "name": "Transfer",
      "type": "event"
    },
    {
      "inputs": [
        {
          "internalType": "address",
          "name": "to",
          "type": "address"
        },
        {
          "internalType": "uint256",
          "name": "tokenId",
          "type": "uint256"
        }
      ],
      "name": "approve",
      "outputs": [],
      "stateMutability": "nonpayable",
      "type": "function"
    },
    {
      "inputs": [
        {
          "internalType": "address",
          "name": "owner",
          "type": "address"
        }
      ],
      "name": "balanceOf",
      "outputs": [
        {
          "internalType": "uint256",
          "name": "",
          "type": "uint256"
        }
      ],
      "stateMutability": "view",
      "type": "function"
    },
    {
      "inputs": [
        {
          "internalType": "uint256",
          "name": "",
          "type": "uint256"
        }
      ],
      "name": "bosses",
      "outputs": [
        {
          "internalType": "contract PokemonData",
          "name": "",
          "type": "address"
        }
      ],
      "stateMutability": "view",
      "type": "function"
    },
    {
      "inputs": [
        {
          "internalType": "uint256",
          "name": "pokemonIndex",
          "type": "uint256"
        },
        {
          "internalType": "address",
          "name": "account",
          "type": "address"
        },
        {
          "internalType": "uint256",
          "name": "hp",
          "type": "uint256"
        },
        {
          "internalType": "bool",
          "name": "isIncrement",
          "type": "bool"
        }
      ],
      "name": "changeHpOf",
      "outputs": [],
      "stateMutability": "nonpayable",
      "type": "function"
    },
    {
      "inputs": [
        {
          "internalType": "uint256[]",
          "name": "bossesIds",
          "type": "uint256[]"
        },
        {
          "internalType": "uint256[]",
          "name": "bossesLevel",
          "type": "uint256[]"
        }
      ],
      "name": "createBossesData",
      "outputs": [],
      "stateMutability": "nonpayable",
      "type": "function"
    },
    {
      "inputs": [
        {
          "internalType": "uint256[]",
          "name": "pokemonIndexes",
          "type": "uint256[]"
        },
        {
          "internalType": "string[]",
          "name": "pokemonNames",
          "type": "string[]"
        },
        {
          "internalType": "string[]",
          "name": "pokemonImageURIs",
          "type": "string[]"
        },
        {
          "internalType": "uint256[]",
          "name": "pokemonHp",
          "type": "uint256[]"
        },
        {
          "internalType": "uint256[]",
          "name": "pokemonAttack",
          "type": "uint256[]"
        }
      ],
      "name": "createPokemonsData",
      "outputs": [],
      "stateMutability": "nonpayable",
      "type": "function"
    },
    {
      "inputs": [],
      "name": "gameRewardsAddress",
      "outputs": [
        {
          "internalType": "address",
          "name": "",
          "type": "address"
        }
      ],
      "stateMutability": "view",
      "type": "function"
    },
    {
      "inputs": [],
      "name": "getAllPokemons",
      "outputs": [
        {
          "internalType": "contract PokemonData[]",
          "name": "",
          "type": "address[]"
        }
      ],
      "stateMutability": "view",
      "type": "function"
    },
    {
      "inputs": [
        {
          "internalType": "uint256",
          "name": "tokenId",
          "type": "uint256"
        }
      ],
      "name": "getApproved",
      "outputs": [
        {
          "internalType": "address",
          "name": "",
          "type": "address"
        }
      ],
      "stateMutability": "view",
      "type": "function"
    },
    {
      "inputs": [
        {
          "internalType": "uint256",
          "name": "id",
          "type": "uint256"
        }
      ],
      "name": "getBoss",
      "outputs": [
        {
          "internalType": "contract PokemonData",
          "name": "",
          "type": "address"
        }
      ],
      "stateMutability": "view",
      "type": "function"
    },
    {
      "inputs": [
        {
          "internalType": "uint256",
          "name": "id",
          "type": "uint256"
        }
      ],
      "name": "getPokemon",
      "outputs": [
        {
          "internalType": "contract PokemonData",
          "name": "",
          "type": "address"
        }
      ],
      "stateMutability": "view",
      "type": "function"
    },
    {
      "inputs": [
        {
          "internalType": "uint256",
          "name": "pokemonIndex",
          "type": "uint256"
        },
        {
          "internalType": "address",
          "name": "sender",
          "type": "address"
        }
      ],
      "name": "getPokemonByIndexOf",
      "outputs": [
        {
          "internalType": "contract PokemonData",
          "name": "",
          "type": "address"
        }
      ],
      "stateMutability": "view",
      "type": "function"
    },
    {
      "inputs": [
        {
          "internalType": "uint256",
          "name": "tokenId",
          "type": "uint256"
        }
      ],
      "name": "getPokemonNft",
      "outputs": [
        {
          "internalType": "contract PokemonData",
          "name": "",
          "type": "address"
        }
      ],
      "stateMutability": "view",
      "type": "function"
    },
    {
      "inputs": [
        {
          "internalType": "contract PokemonData",
          "name": "pokemonData",
          "type": "address"
        }
      ],
      "name": "getPokemonReadable",
      "outputs": [
        {
          "components": [
            {
              "components": [
                {
                  "internalType": "uint256",
                  "name": "id",
                  "type": "uint256"
                },
                {
                  "internalType": "string",
                  "name": "name",
                  "type": "string"
                },
                {
                  "internalType": "string",
                  "name": "imageURI",
                  "type": "string"
                }
              ],
              "internalType": "struct LPokemonData.Info",
              "name": "info",
              "type": "tuple"
            },
            {
              "components": [
                {
                  "internalType": "uint256",
                  "name": "hp",
                  "type": "uint256"
                },
                {
                  "internalType": "uint256",
                  "name": "maxHp",
                  "type": "uint256"
                },
                {
                  "internalType": "uint256",
                  "name": "attack",
                  "type": "uint256"
                }
              ],
              "internalType": "struct LPokemonData.Stats",
              "name": "stats",
              "type": "tuple"
            },
            {
              "internalType": "uint256",
              "name": "level",
              "type": "uint256"
            },
            {
              "internalType": "uint256",
              "name": "experience",
              "type": "uint256"
            },
            {
              "internalType": "uint256",
              "name": "totalExperience",
              "type": "uint256"
            }
          ],
          "internalType": "struct LPokemonData.Data",
          "name": "",
          "type": "tuple"
        }
      ],
      "stateMutability": "view",
      "type": "function"
    },
    {
      "inputs": [
        {
          "internalType": "address",
          "name": "sender",
          "type": "address"
        },
        {
          "internalType": "uint256",
          "name": "pokemonIndex",
          "type": "uint256"
        }
      ],
      "name": "getPokemonSelected",
      "outputs": [
        {
          "components": [
            {
              "components": [
                {
                  "internalType": "uint256",
                  "name": "id",
                  "type": "uint256"
                },
                {
                  "internalType": "string",
                  "name": "name",
                  "type": "string"
                },
                {
                  "internalType": "string",
                  "name": "imageURI",
                  "type": "string"
                }
              ],
              "internalType": "struct LPokemonData.Info",
              "name": "info",
              "type": "tuple"
            },
            {
              "components": [
                {
                  "internalType": "uint256",
                  "name": "hp",
                  "type": "uint256"
                },
                {
                  "internalType": "uint256",
                  "name": "maxHp",
                  "type": "uint256"
                },
                {
                  "internalType": "uint256",
                  "name": "attack",
                  "type": "uint256"
                }
              ],
              "internalType": "struct LPokemonData.Stats",
              "name": "stats",
              "type": "tuple"
            },
            {
              "internalType": "uint256",
              "name": "level",
              "type": "uint256"
            },
            {
              "internalType": "uint256",
              "name": "experience",
              "type": "uint256"
            },
            {
              "internalType": "uint256",
              "name": "totalExperience",
              "type": "uint256"
            }
          ],
          "internalType": "struct LPokemonData.Data",
          "name": "",
          "type": "tuple"
        }
      ],
      "stateMutability": "view",
      "type": "function"
    },
    {
      "inputs": [
        {
          "internalType": "address",
          "name": "sender",
          "type": "address"
        }
      ],
      "name": "getPokemonsOf",
      "outputs": [
        {
          "components": [
            {
              "components": [
                {
                  "internalType": "uint256",
                  "name": "id",
                  "type": "uint256"
                },
                {
                  "internalType": "string",
                  "name": "name",
                  "type": "string"
                },
                {
                  "internalType": "string",
                  "name": "imageURI",
                  "type": "string"
                }
              ],
              "internalType": "struct LPokemonData.Info",
              "name": "info",
              "type": "tuple"
            },
            {
              "components": [
                {
                  "internalType": "uint256",
                  "name": "hp",
                  "type": "uint256"
                },
                {
                  "internalType": "uint256",
                  "name": "maxHp",
                  "type": "uint256"
                },
                {
                  "internalType": "uint256",
                  "name": "attack",
                  "type": "uint256"
                }
              ],
              "internalType": "struct LPokemonData.Stats",
              "name": "stats",
              "type": "tuple"
            },
            {
              "internalType": "uint256",
              "name": "level",
              "type": "uint256"
            },
            {
              "internalType": "uint256",
              "name": "experience",
              "type": "uint256"
            },
            {
              "internalType": "uint256",
              "name": "totalExperience",
              "type": "uint256"
            }
          ],
          "internalType": "struct LPokemonData.Data[]",
          "name": "",
          "type": "tuple[]"
        }
      ],
      "stateMutability": "view",
      "type": "function"
    },
    {
      "inputs": [],
      "name": "getTotalPokemons",
      "outputs": [
        {
          "internalType": "uint256",
          "name": "",
          "type": "uint256"
        }
      ],
      "stateMutability": "view",
      "type": "function"
    },
    {
      "inputs": [],
      "name": "hasNft",
      "outputs": [
        {
          "components": [
            {
              "components": [
                {
                  "internalType": "uint256",
                  "name": "id",
                  "type": "uint256"
                },
                {
                  "internalType": "string",
                  "name": "name",
                  "type": "string"
                },
                {
                  "internalType": "string",
                  "name": "imageURI",
                  "type": "string"
                }
              ],
              "internalType": "struct LPokemonData.Info",
              "name": "info",
              "type": "tuple"
            },
            {
              "components": [
                {
                  "internalType": "uint256",
                  "name": "hp",
                  "type": "uint256"
                },
                {
                  "internalType": "uint256",
                  "name": "maxHp",
                  "type": "uint256"
                },
                {
                  "internalType": "uint256",
                  "name": "attack",
                  "type": "uint256"
                }
              ],
              "internalType": "struct LPokemonData.Stats",
              "name": "stats",
              "type": "tuple"
            },
            {
              "internalType": "uint256",
              "name": "level",
              "type": "uint256"
            },
            {
              "internalType": "uint256",
              "name": "experience",
              "type": "uint256"
            },
            {
              "internalType": "uint256",
              "name": "totalExperience",
              "type": "uint256"
            }
          ],
          "internalType": "struct LPokemonData.Data",
          "name": "",
          "type": "tuple"
        }
      ],
      "stateMutability": "view",
      "type": "function"
    },
    {
      "inputs": [
        {
          "internalType": "uint256",
          "name": "",
          "type": "uint256"
        }
      ],
      "name": "holders",
      "outputs": [
        {
          "internalType": "address",
          "name": "",
          "type": "address"
        }
      ],
      "stateMutability": "view",
      "type": "function"
    },
    {
      "inputs": [
        {
          "internalType": "address",
          "name": "owner",
          "type": "address"
        },
        {
          "internalType": "address",
          "name": "operator",
          "type": "address"
        }
      ],
      "name": "isApprovedForAll",
      "outputs": [
        {
          "internalType": "bool",
          "name": "",
          "type": "bool"
        }
      ],
      "stateMutability": "view",
      "type": "function"
    },
    {
      "inputs": [],
      "name": "itemAddress",
      "outputs": [
        {
          "internalType": "address",
          "name": "",
          "type": "address"
        }
      ],
      "stateMutability": "view",
      "type": "function"
    },
    {
      "inputs": [
        {
          "internalType": "uint256",
          "name": "_pokemonId",
          "type": "uint256"
        }
      ],
      "name": "mint",
      "outputs": [],
      "stateMutability": "nonpayable",
      "type": "function"
    },
    {
      "inputs": [],
      "name": "name",
      "outputs": [
        {
          "internalType": "string",
          "name": "",
          "type": "string"
        }
      ],
      "stateMutability": "view",
      "type": "function"
    },
    {
      "inputs": [
        {
          "internalType": "address",
          "name": "",
          "type": "address"
        },
        {
          "internalType": "uint256",
          "name": "",
          "type": "uint256"
        }
      ],
      "name": "nftsOfHolder",
      "outputs": [
        {
          "internalType": "uint256",
          "name": "",
          "type": "uint256"
        }
      ],
      "stateMutability": "view",
      "type": "function"
    },
    {
      "inputs": [],
      "name": "owner",
      "outputs": [
        {
          "internalType": "address",
          "name": "",
          "type": "address"
        }
      ],
      "stateMutability": "view",
      "type": "function"
    },
    {
      "inputs": [
        {
          "internalType": "uint256",
          "name": "tokenId",
          "type": "uint256"
        }
      ],
      "name": "ownerOf",
      "outputs": [
        {
          "internalType": "address",
          "name": "",
          "type": "address"
        }
      ],
      "stateMutability": "view",
      "type": "function"
    },
    {
      "inputs": [
        {
          "internalType": "uint256",
          "name": "",
          "type": "uint256"
        }
      ],
      "name": "pokemons",
      "outputs": [
        {
          "internalType": "contract PokemonData",
          "name": "",
          "type": "address"
        }
      ],
      "stateMutability": "view",
      "type": "function"
    },
    {
      "inputs": [
        {
          "internalType": "uint256",
          "name": "",
          "type": "uint256"
        }
      ],
      "name": "pokemonsNft",
      "outputs": [
        {
          "internalType": "contract PokemonData",
          "name": "",
          "type": "address"
        }
      ],
      "stateMutability": "view",
      "type": "function"
    },
    {
      "inputs": [],
      "name": "renounceOwnership",
      "outputs": [],
      "stateMutability": "nonpayable",
      "type": "function"
    },
    {
      "inputs": [
        {
          "internalType": "address",
          "name": "from",
          "type": "address"
        },
        {
          "internalType": "address",
          "name": "to",
          "type": "address"
        },
        {
          "internalType": "uint256",
          "name": "tokenId",
          "type": "uint256"
        }
      ],
      "name": "safeTransferFrom",
      "outputs": [],
      "stateMutability": "nonpayable",
      "type": "function"
    },
    {
      "inputs": [
        {
          "internalType": "address",
          "name": "from",
          "type": "address"
        },
        {
          "internalType": "address",
          "name": "to",
          "type": "address"
        },
        {
          "internalType": "uint256",
          "name": "tokenId",
          "type": "uint256"
        },
        {
          "internalType": "bytes",
          "name": "_data",
          "type": "bytes"
        }
      ],
      "name": "safeTransferFrom",
      "outputs": [],
      "stateMutability": "nonpayable",
      "type": "function"
    },
    {
      "inputs": [
        {
          "internalType": "address",
          "name": "operator",
          "type": "address"
        },
        {
          "internalType": "bool",
          "name": "approved",
          "type": "bool"
        }
      ],
      "name": "setApprovalForAll",
      "outputs": [],
      "stateMutability": "nonpayable",
      "type": "function"
    },
    {
      "inputs": [
        {
          "internalType": "bytes4",
          "name": "interfaceId",
          "type": "bytes4"
        }
      ],
      "name": "supportsInterface",
      "outputs": [
        {
          "internalType": "bool",
          "name": "",
          "type": "bool"
        }
      ],
      "stateMutability": "view",
      "type": "function"
    },
    {
      "inputs": [],
      "name": "symbol",
      "outputs": [
        {
          "internalType": "string",
          "name": "",
          "type": "string"
        }
      ],
      "stateMutability": "view",
      "type": "function"
    },
    {
      "inputs": [
        {
          "internalType": "uint256",
          "name": "_tokenId",
          "type": "uint256"
        }
      ],
      "name": "tokenURI",
      "outputs": [
        {
          "internalType": "string",
          "name": "",
          "type": "string"
        }
      ],
      "stateMutability": "view",
      "type": "function"
    },
    {
      "inputs": [
        {
          "internalType": "address",
          "name": "from",
          "type": "address"
        },
        {
          "internalType": "address",
          "name": "to",
          "type": "address"
        },
        {
          "internalType": "uint256",
          "name": "tokenId",
          "type": "uint256"
        }
      ],
      "name": "transferFrom",
      "outputs": [],
      "stateMutability": "nonpayable",
      "type": "function"
    },
    {
      "inputs": [
        {
          "internalType": "address",
          "name": "newOwner",
          "type": "address"
        }
      ],
      "name": "transferOwnership",
      "outputs": [],
      "stateMutability": "nonpayable",
      "type": "function"
    },
    {
      "inputs": [
        {
          "internalType": "address",
          "name": "_itemAddress",
          "type": "address"
        }
      ],
      "name": "updateItemAddress",
      "outputs": [],
      "stateMutability": "nonpayable",
      "type": "function"
    }
  ],
  "bytecode": "0x60806040523480156200001157600080fd5b50604051620058f4380380620058f4833981016040819052620000349162000208565b604051806040016040528060078152602001662837b5b2b6b7b760c91b81525060405180604001604052806003815260200162504b4d60e81b8152506200008a62000084620000f260201b60201c565b620000f6565b81516200009f9060089060208501906200014f565b508051620000b59060099060208401906200014f565b5050600f80546001600160a01b0319166001600160a01b03841617905550620000eb600e62000146602090811b62001b9c17901c565b50620002a2565b3390565b600080546001600160a01b038381166001600160a01b0319831681178455604051919092169283917f8be0079c531659141344cd1fd0a4f28419497f9722a3daafe3b4186f6b6457e09190a35050565b80546001019055565b8280546200015d9062000241565b90600052602060002090601f016020900481019282620001815760008555620001cc565b82601f106200019c57805160ff1916838001178555620001cc565b82800160010185558215620001cc579182015b82811115620001cc578251825591602001919060010190620001af565b50620001da929150620001de565b5090565b5b80821115620001da5760008155600101620001df565b8051620002028162000288565b92915050565b6000602082840312156200021a578081fd5b6200022883828401620001f5565b9392505050565b60006001600160a01b03821662000202565b6002810460018216806200025657607f821691505b602082108114156200026c576200026c62000272565b50919050565b634e487b7160e01b600052602260045260246000fd5b62000293816200022f565b81146200029f57600080fd5b50565b61564280620002b26000396000f3fe60806040523480156200001157600080fd5b5060043610620002c75760003560e01c806385831079116200017c578063c87b56dd11620000e9578063f0b305db1162000097578063f2fde38b116200007a578063f2fde38b14620006a6578063f8b8158a14620006bd578063f962c56c14620006e957600080fd5b8063f0b305db1462000663578063f246f6c9146200068f57600080fd5b8063e89f8a4311620000cc578063e89f8a4314620005f6578063e985e9c5146200060d578063eb814671146200064c57600080fd5b8063c87b56dd14620005b9578063e0714ffa14620005d057600080fd5b8063a0712d681162000147578063a67fcf46116200012a578063a67fcf461462000574578063b88d4fde146200058b578063c704781514620005a257600080fd5b8063a0712d681462000546578063a22cb465146200055d57600080fd5b80638583107914620004ea5780638da5cb5b146200051657806395d89b4114620005285780639744256b146200053257600080fd5b80632a11ced011620002385780636352211e11620001e6578063715018a611620001c9578063715018a6146200049d578063792300f414620004a75780637ec5995614620004be57600080fd5b80636352211e146200046f57806370a08231146200048657600080fd5b80634e4b7dcd116200021b5780634e4b7dcd146200042a5780635e9167901462000443578063628a1310146200045c57600080fd5b80632a11ced014620003fc57806342842e0e146200041357600080fd5b8063095ea7b311620002965780631de3044311620002795780631de3044314620003a5578063204597e014620003b957806323b872dd14620003e557600080fd5b8063095ea7b314620003535780630e63c7ad146200036a57600080fd5b806301ffc9a714620002cc57806306fdde0314620002fb578063081812fc146200031457806308cd3abc146200033a575b600080fd5b620002e3620002dd366004620030f9565b62000700565b604051620002f2919062003ff1565b60405180910390f35b62000305620007e7565b604051620002f2919062004011565b6200032b62000325366004620031cb565b62000881565b604051620002f2919062003f18565b620003516200034b36600462002de7565b620008dd565b005b620003516200036436600462002f49565b62000939565b620003966200037b366004620031cb565b6000908152600760205260409020546001600160a01b031690565b604051620002f2919062004001565b600f546200032b906001600160a01b031681565b62000396620003ca366004620031cb565b6007602052600090815260409020546001600160a01b031681565b62000351620003f636600462002e44565b620009cc565b6200032b6200040d366004620031cb565b62000a04565b620003516200042436600462002e44565b62000a2f565b6200043462000a4c565b604051620002f2919062004168565b6200044d62000b54565b604051620002f2919062003fcb565b6002545b604051620002f291906200417b565b6200032b62000480366004620031cb565b62000c3f565b620004606200049736600462002de7565b62000c77565b6200035162000cbe565b62000396620004b83660046200320b565b62000cf9565b62000396620004cf366004620031cb565b6000908152600460205260409020546001600160a01b031690565b62000396620004fb366004620031cb565b6003602052600090815260409020546001600160a01b031681565b6000546001600160a01b03166200032b565b6200030562000d6d565b6001546200032b906001600160a01b031681565b6200035162000557366004620031cb565b62000d7e565b620003516200056e36600462002f16565b62000fd6565b620003516200058536600462002f7c565b62000fe7565b620003516200059c36600462002e96565b62001207565b62000460620005b336600462002f49565b62001246565b62000305620005ca366004620031cb565b62001278565b620005e7620005e136600462002de7565b62001592565b604051620002f2919062003fde565b62000351620006073660046200322c565b62001789565b620002e36200061e36600462002e07565b6001600160a01b039182166000908152600d6020908152604080832093909416825291909152205460ff1690565b620004346200065d36600462003139565b620018d1565b6200039662000674366004620031cb565b6000908152600360205260409020546001600160a01b031690565b62000351620006a036600462003074565b6200195d565b62000351620006b736600462002de7565b62001a08565b62000396620006ce366004620031cb565b6004602052600090815260409020546001600160a01b031681565b62000434620006fa36600462002f49565b62001a6c565b60007fffffffff0000000000000000000000000000000000000000000000000000000082167f80ac58cd0000000000000000000000000000000000000000000000000000000014806200079457507fffffffff0000000000000000000000000000000000000000000000000000000082167f5b5e139f00000000000000000000000000000000000000000000000000000000145b80620007e157507f01ffc9a7000000000000000000000000000000000000000000000000000000007fffffffff000000000000000000000000000000000000000000000000000000008316145b92915050565b606060088054620007f89062004451565b80601f0160208091040260200160405190810160405280929190818152602001828054620008269062004451565b8015620008775780601f106200084b5761010080835404028352916020019162000877565b820191906000526020600020905b8154815290600101906020018083116200085957829003601f168201915b5050505050905090565b6000818152600a60205260408120546001600160a01b0316620008c15760405162461bcd60e51b8152600401620008b8906200410e565b60405180910390fd5b506000908152600c60205260409020546001600160a01b031690565b6000546001600160a01b031633146200090a5760405162461bcd60e51b8152600401620008b89062004120565b6001805473ffffffffffffffffffffffffffffffffffffffff19166001600160a01b0392909216919091179055565b6000620009468262000c3f565b9050806001600160a01b0316836001600160a01b031614156200097d5760405162461bcd60e51b8152600401620008b89062004144565b336001600160a01b03821614806200099c57506200099c81336200061e565b620009bb5760405162461bcd60e51b8152600401620008b890620040c6565b620009c7838362001ba5565b505050565b620009d8338262001c22565b620009f75760405162461bcd60e51b8152600401620008b89062004156565b620009c783838362001cda565b6006818154811062000a1557600080fd5b6000918252602090912001546001600160a01b0316905081565b620009c78383836040518060200160405280600081525062001207565b62000a566200298a565b33600090815260056020526040902054801562000b4a573360009081526005602052604081208054829062000a9b57634e487b7160e01b600052603260045260246000fd5b90600052602060002001549050600062000aca826000908152600460205260409020546001600160a01b031690565b6001600160a01b0316633bc5de306040518163ffffffff1660e01b815260040160006040518083038186803b15801562000b0357600080fd5b505afa15801562000b18573d6000803e3d6000fd5b505050506040513d6000823e601f3d908101601f1916820160405262000b42919081019062003192565b949350505050565b620007e16200298a565b6060600062000b6260025490565b905060008167ffffffffffffffff81111562000b8e57634e487b7160e01b600052604160045260246000fd5b60405190808252806020026020018201604052801562000bb8578160200160208202803683370190505b50905060015b82811162000c38576000818152600360205260409020546001600160a01b03168262000bec600184620043dd565b8151811062000c0b57634e487b7160e01b600052603260045260246000fd5b6001600160a01b03909216602092830291909101909101528062000c2f81620044b2565b91505062000bbe565b5092915050565b6000818152600a60205260408120546001600160a01b031680620007e15760405162461bcd60e51b8152600401620008b890620040ea565b60006001600160a01b03821662000ca25760405162461bcd60e51b8152600401620008b890620040d8565b506001600160a01b03166000908152600b602052604090205490565b6000546001600160a01b0316331462000ceb5760405162461bcd60e51b8152600401620008b89062004120565b62000cf7600062001e17565b565b6001600160a01b038116600090815260056020526040812080548291908590811062000d3557634e487b7160e01b600052603260045260246000fd5b90600052602060002001549050600062000d64826000908152600460205260409020546001600160a01b031690565b95945050505050565b606060098054620007f89062004451565b3360009081526005602052604090205460011162000db05760405162461bcd60e51b8152600401620008b89062004090565b600062000dbc600e5490565b905062000dca338262001e74565b60408051600180825281830190925260009160208083019080368337019050509050338160008151811062000e0f57634e487b7160e01b600052603260045260246000fd5b6001600160a01b039290921660209283029190910190910152604080516001808252818301909252600091816020016020820280368337019050509050682086ac3510526000008160008151811062000e7857634e487b7160e01b600052603260045260246000fd5b6020908102919091010152600f546040517f5422bdb50000000000000000000000000000000000000000000000000000000081526001600160a01b0390911690635422bdb59062000ed0908590859060040162003fa2565b602060405180830381600087803b15801562000eeb57600080fd5b505af115801562000f00573d6000803e3d6000fd5b505050506040513d601f19601f8201168201806040525081019062000f269190620030d9565b5060008481526003602090815260408083205486845260048352818420805473ffffffffffffffffffffffffffffffffffffffff19166001600160a01b039092169190911790553383526005825282208054600181810183559184529190922001849055600e805490910190557f60e1f0c62ae107984ff8409b83c23d1025c9e003037cf8d4fb479c49645b314033848660405162000fc89392919062003f74565b60405180910390a150505050565b62000fe333838362001e90565b5050565b6000546001600160a01b03163314620010145760405162461bcd60e51b8152600401620008b89062004120565b60005b8551811015620011e55760008682815181106200104457634e487b7160e01b600052603260045260246000fd5b602002602001015190508682815181106200106f57634e487b7160e01b600052603260045260246000fd5b60200260200101518683815181106200109857634e487b7160e01b600052603260045260246000fd5b6020026020010151868481518110620010c157634e487b7160e01b600052603260045260246000fd5b60200260200101516040518060600160405280888781518110620010f557634e487b7160e01b600052603260045260246000fd5b602002602001015181526020018887815181106200112357634e487b7160e01b600052603260045260246000fd5b602002602001015181526020018787815181106200115157634e487b7160e01b600052603260045260246000fd5b60200260200101518152506040516200116a90620029f4565b6200117994939291906200418b565b604051809103906000f08015801562001196573d6000803e3d6000fd5b50600091825260036020526040909120805473ffffffffffffffffffffffffffffffffffffffff19166001600160a01b0390921691909117905580620011dc81620044b2565b91505062001017565b50845160026000828254620011fb91906200424a565b90915550505050505050565b62001213338362001c22565b620012325760405162461bcd60e51b8152600401620008b89062004156565b620012408484848462001f56565b50505050565b600560205281600052604060002081815481106200126357600080fd5b90600052602060002001600091509150505481565b600081815260046020526040812054606091906001600160a01b03169050600062001317826001600160a01b031663abd708ef6040518163ffffffff1660e01b815260040160206040518083038186803b158015620012d657600080fd5b505afa158015620012eb573d6000803e3d6000fd5b505050506040513d601f19601f82011682018060405250810190620013119190620031eb565b62001f90565b9050600062001359836001600160a01b031663296f23f96040518163ffffffff1660e01b815260040160206040518083038186803b158015620012d657600080fd5b905060006200139b846001600160a01b031663f6a0e8676040518163ffffffff1660e01b815260040160206040518083038186803b158015620012d657600080fd5b90506000620013dd856001600160a01b031663a5985e8c6040518163ffffffff1660e01b815260040160206040518083038186803b158015620012d657600080fd5b905060006200141f866001600160a01b031663ed73fc4b6040518163ffffffff1660e01b815260040160206040518083038186803b158015620012d657600080fd5b905060006200142e8962001f90565b905060006200155c886001600160a01b03166317d7de7c6040518163ffffffff1660e01b815260040160006040518083038186803b1580156200147057600080fd5b505afa15801562001485573d6000803e3d6000fd5b505050506040513d6000823e601f3d908101601f19168201604052620014af919081019062003159565b838a6001600160a01b03166346bd9a666040518163ffffffff1660e01b815260040160006040518083038186803b158015620014ea57600080fd5b505afa158015620014ff573d6000803e3d6000fd5b505050506040513d6000823e601f3d908101601f1916820160405262001529919081019062003159565b8a8a8a898b6040516020016200154798979695949392919062003c86565b604051602081830303815290604052620020f2565b905060008160405160200162001573919062003ee6565b60408051601f198184030181529190529b9a5050505050505050505050565b6001600160a01b0381166000908152600560209081526040808320805482518185028101850190935280835260609493830182828015620015f357602002820191906000526020600020905b815481526020019060010190808311620015de575b505050505090506000815167ffffffffffffffff8111156200162557634e487b7160e01b600052604160045260246000fd5b6040519080825280602002602001820160405280156200166257816020015b6200164e6200298a565b815260200190600190039081620016445790505b50905060005b8251811015620017815760008382815181106200169557634e487b7160e01b600052603260045260246000fd5b602002602001015190506004600082815260200190815260200160002060009054906101000a90046001600160a01b03166001600160a01b0316633bc5de306040518163ffffffff1660e01b815260040160006040518083038186803b158015620016ff57600080fd5b505afa15801562001714573d6000803e3d6000fd5b505050506040513d6000823e601f3d908101601f191682016040526200173e919081019062003192565b8383815181106200175f57634e487b7160e01b600052603260045260246000fd5b60200260200101819052505080806200177890620044b2565b91505062001668565b509392505050565b6001546001600160a01b03163314620017b65760405162461bcd60e51b8152600401620008b890620040b4565b6000620017c4858562000cf9565b905081156200184e576040517fb2823c9f0000000000000000000000000000000000000000000000000000000081526001600160a01b0382169063b2823c9f90620018149086906004016200417b565b600060405180830381600087803b1580156200182f57600080fd5b505af115801562001844573d6000803e3d6000fd5b50505050620018ca565b6040517fe2b767360000000000000000000000000000000000000000000000000000000081526001600160a01b0382169063e2b7673690620018959086906004016200417b565b600060405180830381600087803b158015620018b057600080fd5b505af1158015620018c5573d6000803e3d6000fd5b505050505b5050505050565b620018db6200298a565b6000826001600160a01b0316633bc5de306040518163ffffffff1660e01b815260040160006040518083038186803b1580156200191757600080fd5b505afa1580156200192c573d6000803e3d6000fd5b505050506040513d6000823e601f3d908101601f1916820160405262001956919081019062003192565b9392505050565b6000546001600160a01b031633146200198a5760405162461bcd60e51b8152600401620008b89062004120565b60005b8251811015620009c757620019f3838281518110620019bc57634e487b7160e01b600052603260045260246000fd5b6020026020010151838381518110620019e557634e487b7160e01b600052603260045260246000fd5b602002602001015162002264565b80620019ff81620044b2565b9150506200198d565b6000546001600160a01b0316331462001a355760405162461bcd60e51b8152600401620008b89062004120565b6001600160a01b03811662001a5e5760405162461bcd60e51b8152600401620008b89062004036565b62001a698162001e17565b50565b62001a766200298a565b6001600160a01b03831660009081526005602052604090205482111562001ab15760405162461bcd60e51b8152600401620008b89062004132565b6001600160a01b038316600090815260056020526040812080548490811062001aea57634e487b7160e01b600052603260045260246000fd5b600091825260208083209091015480835260049182905260408084205481517f3bc5de3000000000000000000000000000000000000000000000000000000000815291519295506001600160a01b031692633bc5de309282820192869290829003018186803b15801562001b5d57600080fd5b505afa15801562001b72573d6000803e3d6000fd5b505050506040513d6000823e601f3d908101601f1916820160405262000d64919081019062003192565b80546001019055565b6000818152600c60205260409020805473ffffffffffffffffffffffffffffffffffffffff19166001600160a01b038416908117909155819062001be98262000c3f565b6001600160a01b03167f8c5be1e5ebec7d5bd14f71427d1e84f3dd0314c0f7b2291e5b200ac8c7c3b92560405160405180910390a45050565b6000818152600a60205260408120546001600160a01b031662001c595760405162461bcd60e51b8152600401620008b890620040a2565b600062001c668362000c3f565b9050806001600160a01b0316846001600160a01b0316148062001ca45750836001600160a01b031662001c998462000881565b6001600160a01b0316145b8062000b4257506001600160a01b038082166000908152600d602090815260408083209388168352929052205460ff1662000b42565b826001600160a01b031662001cef8262000c3f565b6001600160a01b03161462001d185760405162461bcd60e51b8152600401620008b89062004048565b6001600160a01b03821662001d415760405162461bcd60e51b8152600401620008b8906200406c565b62001d4e60008262001ba5565b6001600160a01b0383166000908152600b6020526040812080546001929062001d79908490620043dd565b90915550506001600160a01b0382166000908152600b6020526040812080546001929062001da99084906200424a565b90915550506000818152600a6020526040808220805473ffffffffffffffffffffffffffffffffffffffff19166001600160a01b0386811691821790925591518493918716917fddf252ad1be2c89b69c2b068fc378daa952ba7f163c4a11628f55a4df523b3ef91a4505050565b600080546001600160a01b0383811673ffffffffffffffffffffffffffffffffffffffff19831681178455604051919092169283917f8be0079c531659141344cd1fd0a4f28419497f9722a3daafe3b4186f6b6457e09190a35050565b62000fe38282604051806020016040528060008152506200263f565b816001600160a01b0316836001600160a01b0316141562001ec55760405162461bcd60e51b8152600401620008b8906200407e565b6001600160a01b038381166000818152600d60209081526040808320948716808452949091529081902080547fffffffffffffffffffffffffffffffffffffffffffffffffffffffffffffff0016851515179055517f17307eab39ab6107e8899845ad3d59bd9653f200f220920489ca2b5937696c319062001f4990859062003ff1565b60405180910390a3505050565b62001f6384848462001cda565b62001f718484848462002679565b620012405760405162461bcd60e51b8152600401620008b89062004024565b60608162001fd157505060408051808201909152600181527f3000000000000000000000000000000000000000000000000000000000000000602082015290565b8160005b811562002001578062001fe881620044b2565b915062001ff99050600a8362004265565b915062001fd5565b60008167ffffffffffffffff8111156200202b57634e487b7160e01b600052604160045260246000fd5b6040519080825280601f01601f19166020018201604052801562002056576020820181803683370190505b5090505b841562000b42576200206e600183620043dd565b91506200207d600a86620044d0565b6200208a9060306200424a565b60f81b818381518110620020ae57634e487b7160e01b600052603260045260246000fd5b60200101907effffffffffffffffffffffffffffffffffffffffffffffffffffffffffffff1916908160001a905350620020ea600a8662004265565b94506200205a565b60608151600014156200211357505060408051602081019091526000815290565b6000604051806060016040528060408152602001620055cd60409139905060006003845160026200214591906200424a565b62002151919062004265565b6200215e906004620043bb565b67ffffffffffffffff8111156200218557634e487b7160e01b600052604160045260246000fd5b6040519080825280601f01601f191660200182016040528015620021b0576020820181803683370190505b509050600182016020820185865187015b808210156200221e576003820191508151603f8160121c168501518453600184019350603f81600c1c168501518453600184019350603f8160061c168501518453600184019350603f8116850151845350600183019250620021c1565b50506003865106600181146200223d5760028114620022515762002259565b603d6001830353603d600283035362002259565b603d60018303535b509195945050505050565b6000828152600360205260408120546001600160a01b03166040517f0b5270a70000000000000000000000000000000000000000000000000000000081529091506001600160a01b03821690630b5270a790620022c69085906004016200417b565b600060405180830381600087803b158015620022e157600080fd5b505af1158015620022f6573d6000803e3d6000fd5b50505050806001600160a01b03166306d8652f83836001600160a01b031663296f23f96040518163ffffffff1660e01b815260040160206040518083038186803b1580156200234457600080fd5b505afa15801562002359573d6000803e3d6000fd5b505050506040513d601f19601f820116820180604052508101906200237f9190620031eb565b6200238b91906200424a565b6040518263ffffffff1660e01b8152600401620023a991906200417b565b600060405180830381600087803b158015620023c457600080fd5b505af1158015620023d9573d6000803e3d6000fd5b50505050806001600160a01b0316635143e01a83836001600160a01b031663f6a0e8676040518163ffffffff1660e01b815260040160206040518083038186803b1580156200242757600080fd5b505afa1580156200243c573d6000803e3d6000fd5b505050506040513d601f19601f82011682018060405250810190620024629190620031eb565b6200246e91906200424a565b6040518263ffffffff1660e01b81526004016200248c91906200417b565b600060405180830381600087803b158015620024a757600080fd5b505af1158015620024bc573d6000803e3d6000fd5b50505050806001600160a01b031663e2b76736826001600160a01b031663296f23f96040518163ffffffff1660e01b815260040160206040518083038186803b1580156200250957600080fd5b505afa1580156200251e573d6000803e3d6000fd5b505050506040513d601f19601f82011682018060405250810190620025449190620031eb565b6040518263ffffffff1660e01b81526004016200256291906200417b565b600060405180830381600087803b1580156200257d57600080fd5b505af115801562002592573d6000803e3d6000fd5b50505050806001600160a01b0316639be55e00620025b084620027de565b6040518263ffffffff1660e01b8152600401620025ce91906200417b565b600060405180830381600087803b158015620025e957600080fd5b505af1158015620025fe573d6000803e3d6000fd5b50505060009384525060076020526040909220805473ffffffffffffffffffffffffffffffffffffffff19166001600160a01b039093169290921790915550565b6200264b83836200281b565b6200265a600084848462002679565b620009c75760405162461bcd60e51b8152600401620008b89062004024565b60006001600160a01b0384163b15620027d3576040517f150b7a020000000000000000000000000000000000000000000000000000000081526001600160a01b0385169063150b7a0290620026d990339089908890889060040162003f28565b602060405180830381600087803b158015620026f457600080fd5b505af192505050801562002727575060408051601f3d908101601f19168201909252620027249181019062003119565b60015b62002787573d80801562002758576040519150601f19603f3d011682016040523d82523d6000602084013e6200275d565b606091505b5080516200277f5760405162461bcd60e51b8152600401620008b89062004024565b805181602001fd5b7fffffffff00000000000000000000000000000000000000000000000000000000167f150b7a020000000000000000000000000000000000000000000000000000000014905062000b42565b506001949350505050565b60008060015b8381101562000c3857620027f88162002912565b6200280490836200424a565b9150806200281281620044b2565b915050620027e4565b6001600160a01b038216620028445760405162461bcd60e51b8152600401620008b890620040fc565b6000818152600a60205260409020546001600160a01b0316156200287c5760405162461bcd60e51b8152600401620008b8906200405a565b6001600160a01b0382166000908152600b60205260408120805460019290620028a79084906200424a565b90915550506000818152600a6020526040808220805473ffffffffffffffffffffffffffffffffffffffff19166001600160a01b03861690811790915590518392907fddf252ad1be2c89b69c2b068fc378daa952ba7f163c4a11628f55a4df523b3ef908290a45050565b60008062002922836002620043bb565b600a62002931600286620042cb565b6200293e906008620043bb565b6200294a919062004265565b606462002959600387620042cb565b62002966906004620043bb565b62002972919062004265565b6200297e91906200424a565b6200195691906200424a565b604080516101008101909152600060a08201908152606060c0830181905260e083015281908152602001620029d960405180606001604052806000815260200160008152602001600081525090565b81526020016000815260200160008152602001600081525090565b611032806200459b83390190565b600062002a1962002a1384620041f5565b620041d6565b9050808382526020820190508285602086028501111562002a3957600080fd5b60005b8581101562002a8257813567ffffffffffffffff81111562002a5d57600080fd5b850162002a6b888262002be0565b845250602092830192919091019060010162002a3c565b5050509392505050565b600062002a9d62002a1384620041f5565b9050808382526020820190508285602086028501111562002abd57600080fd5b60005b8581101562002a825762002ad5878362002dcd565b8352602092830192919091019060010162002ac0565b600062002afc62002a13846200421c565b90508281526020810184848401111562002b1557600080fd5b6200178184828562004416565b600062002b3362002a13846200421c565b90508281526020810184848401111562002b4c57600080fd5b6200178184828562004422565b8035620007e1816200453f565b600082601f83011262002b77578081fd5b813562000b4284826020860162002a02565b600082601f83011262002b9a578081fd5b813562000b4284826020860162002a8c565b8035620007e18162004556565b8051620007e18162004556565b8035620007e1816200455f565b8051620007e1816200455f565b600082601f83011262002bf1578081fd5b813562000b4284826020860162002aeb565b8035620007e18162004588565b600082601f83011262002c21578081fd5b815162000b4284826020860162002b22565b600060e0828403121562002c45578081fd5b62002c5160a0620041d6565b825190915067ffffffffffffffff81111562002c6c57600080fd5b62002c7a8482850162002cd8565b825250602062002c8d8484830162002d6d565b90820152608062002ca18484830162002dda565b604083015260a062002cb68582860162002dda565b60608401525060c062002ccc8582860162002dda565b82840152505092915050565b60006060828403121562002cea578081fd5b62002cf66060620041d6565b9050600062002d06848462002dda565b81830152602083015167ffffffffffffffff81111562002d24578182fd5b62002d328582860162002c10565b602084015250604083015167ffffffffffffffff81111562002d52578182fd5b62002d608582860162002c10565b6040840152505092915050565b60006060828403121562002d7f578081fd5b62002d8b6060620041d6565b9050600062002d9b848462002dda565b90820152602062002daf8484830162002dda565b90820152604062002dc38484830162002dda565b9082015292915050565b8035620007e18162004593565b8051620007e18162004593565b60006020828403121562002df9578081fd5b620019568382840162002b59565b6000806040838503121562002e1a578081fd5b62002e288482850162002b59565b9150602062002e3a8582860162002b59565b9150509250929050565b60008060006060848603121562002e59578081fd5b62002e678582860162002b59565b9250602062002e798682870162002b59565b925050604062002e8c8682870162002dcd565b9150509250925092565b6000806000806080858703121562002eac578182fd5b62002eba8683870162002b59565b9350602062002ecc8782880162002b59565b935050604062002edf8782880162002dcd565b925050606085013567ffffffffffffffff81111562002efc578182fd5b62002f0a8782880162002be0565b91505092959194509250565b6000806040838503121562002f29578182fd5b62002f378483850162002b59565b9150602062002e3a8582860162002bac565b6000806040838503121562002f5c578182fd5b62002f6a8483850162002b59565b9150602062002e3a8582860162002dcd565b600080600080600060a0868803121562002f94578283fd5b8286013567ffffffffffffffff81111562002fad578384fd5b62002fbb8882890162002b89565b955050602086013567ffffffffffffffff81111562002fd8578384fd5b62002fe68882890162002b66565b945050604086013567ffffffffffffffff81111562003003578384fd5b620030118882890162002b66565b935050606086013567ffffffffffffffff8111156200302e578182fd5b6200303c8882890162002b89565b925050608086013567ffffffffffffffff81111562003059578182fd5b620030678882890162002b89565b9150509295509295909350565b6000806040838503121562003087578182fd5b8183013567ffffffffffffffff811115620030a0578283fd5b620030ae8582860162002b89565b925050602083013567ffffffffffffffff811115620030cb578182fd5b62002e3a8582860162002b89565b600060208284031215620030eb578081fd5b620019568382840162002bb9565b6000602082840312156200310b578081fd5b620019568382840162002bc6565b6000602082840312156200312b578081fd5b620019568382840162002bd3565b6000602082840312156200314b578081fd5b620019568382840162002c03565b6000602082840312156200316b578081fd5b8082015167ffffffffffffffff81111562003184578182fd5b62000b428482850162002c10565b600060208284031215620031a4578081fd5b8082015167ffffffffffffffff811115620031bd578182fd5b62000b428482850162002c33565b600060208284031215620031dd578081fd5b620019568382840162002dcd565b600060208284031215620031fd578081fd5b620019568382840162002dda565b600080604083850312156200321e578182fd5b62002e288483850162002dcd565b6000806000806080858703121562003242578182fd5b620032508683870162002dcd565b93506020620032628782880162002b59565b9350506040620032758782880162002dcd565b925050606062002f0a8782880162002bac565b620032948282620032c1565b5060200190565b62003294828262003446565b600062001956838362003b90565b62003294828262003c7f565b620032cc81620043f7565b82525050565b6000620032dd825190565b8084526020938401938301825b828110156200331357815162003301878262003288565b965050602082019150600101620032ea565b5093949350505050565b600062003328825190565b8084526020938401938301825b82811015620033135781516200334c87826200329b565b96505060208201915060010162003335565b600062003369825190565b80845260208401935083602082028501620033848560200190565b845b84811015620033bb5783830388528151620033a28482620032a7565b9350506020820160209890980197915060010162003386565b50909695505050505050565b6000620033d2825190565b8084526020938401938301825b8281101562003313578151620033f68782620032b5565b965050602082019150600101620033df565b801515620032cc565b60006200341c825190565b8084526020840193506200343581856020860162004422565b601f01601f19169290920192915050565b620032cc8162004409565b60006200345c825190565b6200346c81856020860162004422565b9290920192915050565b7f7d2c00000000000000000000000000000000000000000000000000000000000081525b60020190565b60328152602081017f4552433732313a207472616e7366657220746f206e6f6e20455243373231526581527f63656976657220696d706c656d656e7465720000000000000000000000000000602082015290505b60400190565b7f7b202274726169745f74797065223a20224865616c746820506f696e7473222c81527f202276616c7565223a200000000000000000000000000000000000000000000060208201525b602a0190565b60268152602081017f4f776e61626c653a206e6577206f776e657220697320746865207a65726f206181527f646472657373000000000000000000000000000000000000000000000000000060208201529050620034f4565b7f222c00000000000000000000000000000000000000000000000000000000000081526200349a565b60258152602081017f4552433732313a207472616e736665722066726f6d20696e636f72726563742081527f6f776e657200000000000000000000000000000000000000000000000000000060208201529050620034f4565b601c8152602081017f4552433732313a20746f6b656e20616c7265616479206d696e74656400000000815290505b60200190565b60248152602081017f4552433732313a207472616e7366657220746f20746865207a65726f2061646481527f726573730000000000000000000000000000000000000000000000000000000060208201529050620034f4565b60198152602081017f4552433732313a20617070726f766520746f2063616c6c6572000000000000008152905062003653565b60308152602081017f506f6b656d6f6e47616d653a204f6e6c792063616e2065786563757465206f6e81527f65206d696e742062792077616c6c65740000000000000000000000000000000060208201529050620034f4565b602c8152602081017f4552433732313a206f70657261746f7220717565727920666f72206e6f6e657881527f697374656e7420746f6b656e000000000000000000000000000000000000000060208201529050620034f4565b7f7b202274726169745f74797065223a202241747461636b2044616d616765222c81527f202276616c7565223a2000000000000000000000000000000000000000000000602082015262003544565b602d8152602081017f506f6b656d6f6e466163746f72793a2063616c6c6572206973206e6f7420746881527f65206974656d416464726573730000000000000000000000000000000000000060208201529050620034f4565b60388152602081017f4552433732313a20617070726f76652063616c6c6572206973206e6f74206f7781527f6e6572206e6f7220617070726f76656420666f7220616c6c000000000000000060208201529050620034f4565b602a8152602081017f4552433732313a2062616c616e636520717565727920666f7220746865207a6581527f726f20616464726573730000000000000000000000000000000000000000000060208201529050620034f4565b60298152602081017f4552433732313a206f776e657220717565727920666f72206e6f6e657869737481527f656e7420746f6b656e000000000000000000000000000000000000000000000060208201529050620034f4565b7f7d205d7d0000000000000000000000000000000000000000000000000000000081525b60040190565b60208082527f4552433732313a206d696e7420746f20746865207a65726f2061646472657373910190815262003653565b602c8152602081017f4552433732313a20617070726f76656420717565727920666f72206e6f6e657881527f697374656e7420746f6b656e000000000000000000000000000000000000000060208201529050620034f4565b60208082527f4f776e61626c653a2063616c6c6572206973206e6f7420746865206f776e6572910190815262003653565b7f7b226e616d65223a20220000000000000000000000000000000000000000000081525b600a0190565b7f20233a200000000000000000000000000000000000000000000000000000000081526200396e565b60028152602081017f47540000000000000000000000000000000000000000000000000000000000008152905062003653565b60218152602081017f4552433732313a20617070726f76616c20746f2063757272656e74206f776e6581527f720000000000000000000000000000000000000000000000000000000000000060208201529050620034f4565b60318152602081017f4552433732313a207472616e736665722063616c6c6572206973206e6f74206f81527f776e6572206e6f7220617070726f76656400000000000000000000000000000060208201529050620034f4565b7f22696d616765223a202200000000000000000000000000000000000000000000815262003a53565b805160e08084526000919084019062003baa828262003c00565b915050602083015162003bc1602086018262003c4c565b50604083015162003bd6608086018262003c7f565b50606083015162003beb60a086018262003c7f565b5060808301516200178160c086018262003c7f565b8051600090606084019062003c16858262003c7f565b506020830151848203602086015262003c30828262003411565b9150506040830151848203604086015262000d64828262003411565b805162003c5a838262003c7f565b50602081015162003c6f602084018262003c7f565b506040810151620009c760408401825b80620032cc565b62003c918162003a2f565b905062003c9f818a62003451565b905062003cac8162003a59565b905062003cba818962003451565b905062003cc781620035a3565b7f226465736372697074696f6e223a20225468697320697320616e204e4654207481527f686174206c6574732070656f706c6520706c617920696e207468652067616d6560208201527f20506f6b656d6f6e204e465421222c00000000000000000000000000000000006040820152604f01905062003d468162003b67565b905062003d54818862003451565b905062003d6181620035a3565b7f2261747472696275746573223a205b00000000000000000000000000000000008152600f01905062003d9481620034fa565b905062003da2818762003451565b7f2c20226d61785f76616c7565223a0000000000000000000000000000000000008152600e01905062003dd6818662003451565b905062003de38162003476565b905062003df08162003797565b905062003dfe818562003451565b905062003e0b8162003476565b7f7b202274726169745f74797065223a2022546f74616c20457870657269656e6381527f65222c202276616c7565223a20000000000000000000000000000000000000006020820152602d01905062003e65818462003451565b905062003e728162003476565b7f7b202274726169745f74797065223a20224c6576656c222c202276616c75652281527f3a000000000000000000000000000000000000000000000000000000000000006020820152602101905062003ecc818362003451565b905062003ed9816200394a565b9998505050505050505050565b7f646174613a6170706c69636174696f6e2f6a736f6e3b6261736536342c0000008152601d01620007e1818362003451565b60208101620007e18284620032c1565b6080810162003f388287620032c1565b62003f476020830186620032c1565b62003f56604083018562003c7f565b818103606083015262003f6a818462003411565b9695505050505050565b6060810162003f848286620032c1565b62003f93602083018562003c7f565b62000b42604083018462003c7f565b6040808252810162003fb58185620032d2565b9050818103602083015262000b428184620033c7565b602080825281016200195681846200331d565b602080825281016200195681846200335e565b60208101620007e1828462003408565b60208101620007e1828462003446565b6020808252810162001956818462003411565b60208082528101620007e181620034a0565b60208082528101620007e1816200354a565b60208082528101620007e181620035cc565b60208082528101620007e18162003625565b60208082528101620007e18162003659565b60208082528101620007e181620036b2565b60208082528101620007e181620036e5565b60208082528101620007e1816200373e565b60208082528101620007e181620037e6565b60208082528101620007e1816200383f565b60208082528101620007e18162003898565b60208082528101620007e181620038f1565b60208082528101620007e18162003974565b60208082528101620007e181620039a5565b60208082528101620007e181620039fe565b60208082528101620007e18162003a82565b60208082528101620007e18162003ab5565b60208082528101620007e18162003b0e565b6020808252810162001956818462003b90565b60208101620007e1828462003c7f565b60c081016200419b828762003c7f565b8181036020830152620041af818662003411565b90508181036040830152620041c5818562003411565b905062000d64606083018462003c4c565b6000620041e260405190565b9050620041f0828262004482565b919050565b600067ffffffffffffffff82111562004212576200421262004529565b5060209081020190565b600067ffffffffffffffff82111562004239576200423962004529565b601f19601f83011660200192915050565b60008219821115620042605762004260620044e7565b500190565b600082620042775762004277620044fd565b500490565b80825b6001851115620042c2578086048111156200429e576200429e620044e7565b6001851615620042ad57908102905b8002620042ba8560011c90565b94506200427f565b94509492505050565b60ff821691506000620019566000198484600082620042ed5750600162001956565b81620042fc5750600062001956565b8160018114620043155760028114620043205762004354565b600191505062001956565b60ff841115620043345762004334620044e7565b8360020a9150848211156200434d576200434d620044e7565b5062001956565b5060208310610133831016604e8410600b84101617156200438c575081810a83811115620043865762004386620044e7565b62001956565b6200439b84848460016200427c565b92509050818404811115620043b457620043b4620044e7565b0292915050565b6000816000190483118215151615620043d857620043d8620044e7565b500290565b600082821015620043f257620043f2620044e7565b500390565b60006001600160a01b038216620007e1565b6000620007e182620043f7565b82818337506000910152565b60005b838110156200443f57818101518382015260200162004425565b83811115620012405750506000910152565b6002810460018216806200446657607f821691505b602082108114156200447c576200447c62004513565b50919050565b601f19601f830116810181811067ffffffffffffffff82111715620044ab57620044ab62004529565b6040525050565b6000600019821415620044c957620044c9620044e7565b5060010190565b600082620044e257620044e2620044fd565b500690565b634e487b7160e01b600052601160045260246000fd5b634e487b7160e01b600052601260045260246000fd5b634e487b7160e01b600052602260045260246000fd5b634e487b7160e01b600052604160045260246000fd5b6200454a81620043f7565b811462001a6957600080fd5b8015156200454a565b7fffffffff0000000000000000000000000000000000000000000000000000000081166200454a565b6200454a8162004409565b806200454a56fe60806040523480156200001157600080fd5b5060405162001032380380620010328339810160408190526200003491620001fa565b62000042848484846200004c565b5050505062000394565b6000849055825162000066906001906020860190620000a5565b5081516200007c906002906020850190620000a5565b508051600355604081015160055560200151600455505060016006555060006007819055600855565b828054620000b39062000308565b90600052602060002090601f016020900481019282620000d7576000855562000122565b82601f10620000f257805160ff191683800117855562000122565b8280016001018555821562000122579182015b828111156200012257825182559160200191906001019062000105565b506200013092915062000134565b5090565b5b8082111562000130576000815560010162000135565b6000620001626200015c84620002a8565b62000289565b9050828152602081018484840111156200017b57600080fd5b62000188848285620002d5565b509392505050565b600082601f830112620001a1578081fd5b8151620001b38482602086016200014b565b949350505050565b600060608284031215620001cd578081fd5b620001d9606062000289565b82518152602080840151908201526040928301519281019290925250919050565b60008060008060c0858703121562000210578384fd5b8484015160208601519094506001600160401b0381111562000230578384fd5b6200023e8782880162000190565b604087015190945090506001600160401b038111156200025c578283fd5b6200026a8782880162000190565b92505060606200027d87828801620001bb565b91505092959194509250565b60006200029560405190565b9050620002a3828262000339565b919050565b60006001600160401b03821115620002c457620002c46200037e565b601f19601f83011660200192915050565b60005b83811015620002f2578181015183820152602001620002d8565b8381111562000302576000848401525b50505050565b6002810460018216806200031d57607f821691505b6020821081141562000333576200033362000368565b50919050565b601f19601f83011681016001600160401b03811182821017156200036157620003616200037e565b6040525050565b634e487b7160e01b600052602260045260246000fd5b634e487b7160e01b600052604160045260246000fd5b610c8e80620003a46000396000f3fe608060405234801561001057600080fd5b50600436106101775760003560e01c80638ce802e0116100d8578063c59d48471161008c578063ed73fc4b11610066578063ed73fc4b146102c3578063ede641a4146102cb578063f6a0e867146102de57600080fd5b8063c59d484714610293578063cdb986cc146102a8578063e2b76736146102b057600080fd5b8063a5985e8c116100bd578063a5985e8c14610270578063abd708ef14610278578063b2823c9f1461028057600080fd5b80638ce802e0146102395780639be55e001461025d57600080fd5b806346bd9a661161012f5780635a9b0b89116101145780635a9b0b89146102035780635d1ca6311461021857806373d4a13a1461022057600080fd5b806346bd9a66146101e85780635143e01a146101f057600080fd5b806317d7de7c1161016057806317d7de7c146101a4578063296f23f9146101c25780633bc5de30146101d357600080fd5b806306d8652f1461017c5780630b5270a714610191575b600080fd5b61018f61018a366004610983565b600455565b005b61018f61019f366004610983565b600655565b6101ac6102e6565b6040516101b99190610a96565b60405180910390f35b6004545b6040516101b99190610b4c565b6101db61037a565b6040516101b99190610aa7565b6101ac61051e565b61018f6101fe366004610983565b600555565b61020b61052f565b6040516101b99190610ab8565b6000546101c6565b610228610690565b6040516101b9959493929190610ac9565b61018f61024736600461095f565b8051600355602081015160045560400151600555565b61018f61026b366004610983565b600855565b6006546101c6565b6003546101c6565b61018f61028e366004610983565b610810565b61029b61084d565b6040516101b99190610b2b565b6007546101c6565b61018f6102be366004610983565b600355565b6008546101c6565b61018f6102d9366004610983565b600755565b6005546101c6565b60018054606091906102f790610bbc565b80601f016020809104026020016040519081016040528092919081815260200182805461032390610bbc565b80156103705780601f1061034557610100808354040283529160200191610370565b820191906000526020600020905b81548152906001019060200180831161035357829003601f168201915b5050505050905090565b610382610896565b6040805161010081019091526000805460a0830190815260018054849291849160c0850191906103b190610bbc565b80601f01602080910402602001604051908101604052809291908181526020018280546103dd90610bbc565b801561042a5780601f106103ff5761010080835404028352916020019161042a565b820191906000526020600020905b81548152906001019060200180831161040d57829003601f168201915b5050505050815260200160028201805461044390610bbc565b80601f016020809104026020016040519081016040528092919081815260200182805461046f90610bbc565b80156104bc5780601f10610491576101008083540402835291602001916104bc565b820191906000526020600020905b81548152906001019060200180831161049f57829003601f168201915b505050505081525050815260200160038201604051806060016040529081600082015481526020016001820154815260200160028201548152505081526020016006820154815260200160078201548152602001600882015481525050905090565b60028054606091906102f790610bbc565b61055360405180606001604052806000815260200160608152602001606081525090565b60408051606081019091526000805482526001805460208401919061057790610bbc565b80601f01602080910402602001604051908101604052809291908181526020018280546105a390610bbc565b80156105f05780601f106105c5576101008083540402835291602001916105f0565b820191906000526020600020905b8154815290600101906020018083116105d357829003601f168201915b5050505050815260200160028201805461060990610bbc565b80601f016020809104026020016040519081016040528092919081815260200182805461063590610bbc565b80156106825780601f1061065757610100808354040283529160200191610682565b820191906000526020600020905b81548152906001019060200180831161066557829003601f168201915b505050505081525050905090565b600080600001604051806060016040529081600082015481526020016001820180546106bb90610bbc565b80601f01602080910402602001604051908101604052809291908181526020018280546106e790610bbc565b80156107345780601f1061070957610100808354040283529160200191610734565b820191906000526020600020905b81548152906001019060200180831161071757829003601f168201915b5050505050815260200160028201805461074d90610bbc565b80601f016020809104026020016040519081016040528092919081815260200182805461077990610bbc565b80156107c65780601f1061079b576101008083540402835291602001916107c6565b820191906000526020600020905b8154815290600101906020018083116107a957829003601f168201915b505050919092525050604080516060810182526003850154815260048501546020820152600585015491810191909152600684015460078501546008909501549394919390925085565b600454600354610821908390610b74565b11156108305760045460035550565b60038054829190600090610845908490610b74565b909155505050565b61087160405180606001604052806000815260200160008152602001600081525090565b5060408051606081018252600354815260045460208201526005549181019190915290565b604080516101008101909152600060a08201908152606060c0830181905260e0830152819081526020016108e460405180606001604052806000815260200160008152602001600081525090565b81526020016000815260200160008152602001600081525090565b600060608284031215610910578081fd5b61091a6060610b58565b905060006109288484610956565b90820152602061093a84848301610956565b90820152604061094c84848301610956565b9082015292915050565b80355b92915050565b600060608284031215610970578081fd5b61097c838284016108ff565b9392505050565b600060208284031215610994578081fd5b61097c83828401610956565b60006109aa825190565b8084526020840193506109c1818560208601610b8c565b601f01601f19169290920192915050565b805160e0808452600091908401906109ea8282610a51565b9150506020830151610a1360208601828051825260208082015190830152604090810151910152565b506040830151610a2560808601829052565b506060830151610a3760a08601829052565b506080830151610a4960c08601829052565b509392505050565b805182526020808201516060918401829052600091840190610a7382826109a0565b91505060408301518482036040860152610a8d82826109a0565b95945050505050565b6020808252810161097c81846109a0565b6020808252810161097c81846109d2565b6020808252810161097c8184610a51565b60e08082528101610ada8188610a51565b9050610afd60208301878051825260208082015190830152604090810151910152565b610b0960808301869052565b610b1560a08301859052565b610b2160c08301849052565b9695505050505050565b81518152602080830151908201526040808301519082015260608101610959565b81815260208101610959565b6000610b6360405190565b9050610b6f8282610be9565b919050565b60008219821115610b8757610b87610c16565b500190565b60005b83811015610ba7578181015183820152602001610b8f565b83811115610bb6576000848401525b50505050565b600281046001821680610bd057607f821691505b60208210811415610be357610be3610c2c565b50919050565b601f19601f830116810181811067ffffffffffffffff82111715610c0f57610c0f610c42565b6040525050565b634e487b7160e01b600052601160045260246000fd5b634e487b7160e01b600052602260045260246000fd5b634e487b7160e01b600052604160045260246000fdfea26469706673582212207655b06cba78ea27b04919a2ce7b54bcfc2052ee52986a7eb1548b5419940a0c64736f6c634300080400334142434445464748494a4b4c4d4e4f505152535455565758595a6162636465666768696a6b6c6d6e6f707172737475767778797a303132333435363738392b2fa264697066735822122080b9bc37c211c5f94cfc7cc5e2b9b01ff303cc82960663e2e9ef957ebd22dd6364736f6c63430008040033",
  "linkReferences": {},
  "deployedLinkReferences": {}
}