{
  "_format": "hh-sol-artifact-1",
  "contractName": "PokemonFactory",
  "sourceName": "contracts/Pokemon/PokemonFactory.sol",
  "abi": [
    {
      "anonymous": false,
      "inputs": [
        {
          "indexed": false,
          "internalType": "uint256",
          "name": "level",
          "type": "uint256"
        },
        {
          "components": [
            {
              "internalType": "uint256",
              "name": "hp",
              "type": "uint256"
            },
            {
              "internalType": "uint256",
              "name": "maxHp",
              "type": "uint256"
            },
            {
              "internalType": "uint256",
              "name": "attack",
              "type": "uint256"
            }
          ],
          "indexed": false,
          "internalType": "struct LPokemonData.Stats",
          "name": "stats",
          "type": "tuple"
        }
      ],
      "name": "LevelUp",
      "type": "event"
    },
    {
      "inputs": [
        {
          "internalType": "uint256",
          "name": "",
          "type": "uint256"
        }
      ],
      "name": "bosses",
      "outputs": [
        {
          "internalType": "contract PokemonData",
          "name": "",
          "type": "address"
        }
      ],
      "stateMutability": "view",
      "type": "function"
    },
    {
      "inputs": [
        {
          "internalType": "uint256",
          "name": "pokemonIndex",
          "type": "uint256"
        },
        {
          "internalType": "address",
          "name": "account",
          "type": "address"
        },
        {
          "internalType": "uint256",
          "name": "hp",
          "type": "uint256"
        },
        {
          "internalType": "bool",
          "name": "isIncrement",
          "type": "bool"
        }
      ],
      "name": "changeHpOf",
      "outputs": [],
      "stateMutability": "nonpayable",
      "type": "function"
    },
    {
      "inputs": [
        {
          "internalType": "uint256[]",
          "name": "bossesIds",
          "type": "uint256[]"
        },
        {
          "internalType": "uint256[]",
          "name": "bossesLevel",
          "type": "uint256[]"
        }
      ],
      "name": "createBossesData",
      "outputs": [],
      "stateMutability": "nonpayable",
      "type": "function"
    },
    {
      "inputs": [
        {
          "internalType": "uint256[]",
          "name": "pokemonIndexes",
          "type": "uint256[]"
        },
        {
          "internalType": "string[]",
          "name": "pokemonNames",
          "type": "string[]"
        },
        {
          "internalType": "string[]",
          "name": "pokemonImageURIs",
          "type": "string[]"
        },
        {
          "internalType": "uint256[]",
          "name": "pokemonHp",
          "type": "uint256[]"
        },
        {
          "internalType": "uint256[]",
          "name": "pokemonAttack",
          "type": "uint256[]"
        }
      ],
      "name": "createPokemonsData",
      "outputs": [],
      "stateMutability": "nonpayable",
      "type": "function"
    },
    {
      "inputs": [],
      "name": "getAllPokemons",
      "outputs": [
        {
          "internalType": "contract PokemonData[]",
          "name": "",
          "type": "address[]"
        }
      ],
      "stateMutability": "view",
      "type": "function"
    },
    {
      "inputs": [
        {
          "internalType": "uint256",
          "name": "id",
          "type": "uint256"
        }
      ],
      "name": "getBoss",
      "outputs": [
        {
          "internalType": "contract PokemonData",
          "name": "",
          "type": "address"
        }
      ],
      "stateMutability": "view",
      "type": "function"
    },
    {
      "inputs": [
        {
          "internalType": "uint256",
          "name": "id",
          "type": "uint256"
        }
      ],
      "name": "getPokemon",
      "outputs": [
        {
          "internalType": "contract PokemonData",
          "name": "",
          "type": "address"
        }
      ],
      "stateMutability": "view",
      "type": "function"
    },
    {
      "inputs": [
        {
          "internalType": "uint256",
          "name": "pokemonIndex",
          "type": "uint256"
        },
        {
          "internalType": "address",
          "name": "sender",
          "type": "address"
        }
      ],
      "name": "getPokemonByIndexOf",
      "outputs": [
        {
          "internalType": "contract PokemonData",
          "name": "",
          "type": "address"
        }
      ],
      "stateMutability": "view",
      "type": "function"
    },
    {
      "inputs": [
        {
          "internalType": "uint256",
          "name": "tokenId",
          "type": "uint256"
        }
      ],
      "name": "getPokemonNft",
      "outputs": [
        {
          "internalType": "contract PokemonData",
          "name": "",
          "type": "address"
        }
      ],
      "stateMutability": "view",
      "type": "function"
    },
    {
      "inputs": [
        {
          "internalType": "contract PokemonData",
          "name": "pokemonData",
          "type": "address"
        }
      ],
      "name": "getPokemonReadable",
      "outputs": [
        {
          "components": [
            {
              "components": [
                {
                  "internalType": "uint256",
                  "name": "id",
                  "type": "uint256"
                },
                {
                  "internalType": "string",
                  "name": "name",
                  "type": "string"
                },
                {
                  "internalType": "string",
                  "name": "imageURI",
                  "type": "string"
                }
              ],
              "internalType": "struct LPokemonData.Info",
              "name": "info",
              "type": "tuple"
            },
            {
              "components": [
                {
                  "internalType": "uint256",
                  "name": "hp",
                  "type": "uint256"
                },
                {
                  "internalType": "uint256",
                  "name": "maxHp",
                  "type": "uint256"
                },
                {
                  "internalType": "uint256",
                  "name": "attack",
                  "type": "uint256"
                }
              ],
              "internalType": "struct LPokemonData.Stats",
              "name": "stats",
              "type": "tuple"
            },
            {
              "internalType": "uint256",
              "name": "level",
              "type": "uint256"
            },
            {
              "internalType": "uint256",
              "name": "experience",
              "type": "uint256"
            },
            {
              "internalType": "uint256",
              "name": "totalExperience",
              "type": "uint256"
            }
          ],
          "internalType": "struct LPokemonData.Data",
          "name": "",
          "type": "tuple"
        }
      ],
      "stateMutability": "view",
      "type": "function"
    },
    {
      "inputs": [
        {
          "internalType": "address",
          "name": "sender",
          "type": "address"
        },
        {
          "internalType": "uint256",
          "name": "pokemonIndex",
          "type": "uint256"
        }
      ],
      "name": "getPokemonSelected",
      "outputs": [
        {
          "components": [
            {
              "components": [
                {
                  "internalType": "uint256",
                  "name": "id",
                  "type": "uint256"
                },
                {
                  "internalType": "string",
                  "name": "name",
                  "type": "string"
                },
                {
                  "internalType": "string",
                  "name": "imageURI",
                  "type": "string"
                }
              ],
              "internalType": "struct LPokemonData.Info",
              "name": "info",
              "type": "tuple"
            },
            {
              "components": [
                {
                  "internalType": "uint256",
                  "name": "hp",
                  "type": "uint256"
                },
                {
                  "internalType": "uint256",
                  "name": "maxHp",
                  "type": "uint256"
                },
                {
                  "internalType": "uint256",
                  "name": "attack",
                  "type": "uint256"
                }
              ],
              "internalType": "struct LPokemonData.Stats",
              "name": "stats",
              "type": "tuple"
            },
            {
              "internalType": "uint256",
              "name": "level",
              "type": "uint256"
            },
            {
              "internalType": "uint256",
              "name": "experience",
              "type": "uint256"
            },
            {
              "internalType": "uint256",
              "name": "totalExperience",
              "type": "uint256"
            }
          ],
          "internalType": "struct LPokemonData.Data",
          "name": "",
          "type": "tuple"
        }
      ],
      "stateMutability": "view",
      "type": "function"
    },
    {
      "inputs": [
        {
          "internalType": "address",
          "name": "sender",
          "type": "address"
        }
      ],
      "name": "getPokemonsOf",
      "outputs": [
        {
          "components": [
            {
              "components": [
                {
                  "internalType": "uint256",
                  "name": "id",
                  "type": "uint256"
                },
                {
                  "internalType": "string",
                  "name": "name",
                  "type": "string"
                },
                {
                  "internalType": "string",
                  "name": "imageURI",
                  "type": "string"
                }
              ],
              "internalType": "struct LPokemonData.Info",
              "name": "info",
              "type": "tuple"
            },
            {
              "components": [
                {
                  "internalType": "uint256",
                  "name": "hp",
                  "type": "uint256"
                },
                {
                  "internalType": "uint256",
                  "name": "maxHp",
                  "type": "uint256"
                },
                {
                  "internalType": "uint256",
                  "name": "attack",
                  "type": "uint256"
                }
              ],
              "internalType": "struct LPokemonData.Stats",
              "name": "stats",
              "type": "tuple"
            },
            {
              "internalType": "uint256",
              "name": "level",
              "type": "uint256"
            },
            {
              "internalType": "uint256",
              "name": "experience",
              "type": "uint256"
            },
            {
              "internalType": "uint256",
              "name": "totalExperience",
              "type": "uint256"
            }
          ],
          "internalType": "struct LPokemonData.Data[]",
          "name": "",
          "type": "tuple[]"
        }
      ],
      "stateMutability": "view",
      "type": "function"
    },
    {
      "inputs": [],
      "name": "getTotalPokemons",
      "outputs": [
        {
          "internalType": "uint256",
          "name": "",
          "type": "uint256"
        }
      ],
      "stateMutability": "view",
      "type": "function"
    },
    {
      "inputs": [],
      "name": "hasNft",
      "outputs": [
        {
          "components": [
            {
              "components": [
                {
                  "internalType": "uint256",
                  "name": "id",
                  "type": "uint256"
                },
                {
                  "internalType": "string",
                  "name": "name",
                  "type": "string"
                },
                {
                  "internalType": "string",
                  "name": "imageURI",
                  "type": "string"
                }
              ],
              "internalType": "struct LPokemonData.Info",
              "name": "info",
              "type": "tuple"
            },
            {
              "components": [
                {
                  "internalType": "uint256",
                  "name": "hp",
                  "type": "uint256"
                },
                {
                  "internalType": "uint256",
                  "name": "maxHp",
                  "type": "uint256"
                },
                {
                  "internalType": "uint256",
                  "name": "attack",
                  "type": "uint256"
                }
              ],
              "internalType": "struct LPokemonData.Stats",
              "name": "stats",
              "type": "tuple"
            },
            {
              "internalType": "uint256",
              "name": "level",
              "type": "uint256"
            },
            {
              "internalType": "uint256",
              "name": "experience",
              "type": "uint256"
            },
            {
              "internalType": "uint256",
              "name": "totalExperience",
              "type": "uint256"
            }
          ],
          "internalType": "struct LPokemonData.Data",
          "name": "",
          "type": "tuple"
        }
      ],
      "stateMutability": "view",
      "type": "function"
    },
    {
      "inputs": [
        {
          "internalType": "uint256",
          "name": "",
          "type": "uint256"
        }
      ],
      "name": "holders",
      "outputs": [
        {
          "internalType": "address",
          "name": "",
          "type": "address"
        }
      ],
      "stateMutability": "view",
      "type": "function"
    },
    {
      "inputs": [
        {
          "internalType": "address",
          "name": "",
          "type": "address"
        },
        {
          "internalType": "uint256",
          "name": "",
          "type": "uint256"
        }
      ],
      "name": "nftsOfHolder",
      "outputs": [
        {
          "internalType": "uint256",
          "name": "",
          "type": "uint256"
        }
      ],
      "stateMutability": "view",
      "type": "function"
    },
    {
      "inputs": [
        {
          "internalType": "uint256",
          "name": "",
          "type": "uint256"
        }
      ],
      "name": "pokemons",
      "outputs": [
        {
          "internalType": "contract PokemonData",
          "name": "",
          "type": "address"
        }
      ],
      "stateMutability": "view",
      "type": "function"
    },
    {
      "inputs": [
        {
          "internalType": "uint256",
          "name": "",
          "type": "uint256"
        }
      ],
      "name": "pokemonsNft",
      "outputs": [
        {
          "internalType": "contract PokemonData",
          "name": "",
          "type": "address"
        }
      ],
      "stateMutability": "view",
      "type": "function"
    }
  ],
  "bytecode": "0x608060405234801561001057600080fd5b50613068806100206000396000f3fe60806040523480156200001157600080fd5b50600436106200014f5760003560e01c8063a67fcf4611620000c0578063eb814671116200008b578063f246f6c9116200006e578063f246f6c9146200034e578063f8b8158a1462000365578063f962c56c146200039157600080fd5b8063eb814671146200030b578063f0b305db146200032257600080fd5b8063a67fcf46146200029e578063c704781514620002b7578063e0714ffa14620002ce578063e89f8a4314620002f457600080fd5b80635e916790116200011e578063792300f41162000101578063792300f4146200022f5780637ec59956146200024657806385831079146200027257600080fd5b80635e9167901462000203578063628a1310146200021c57600080fd5b80630e63c7ad1462000154578063204597e014620001985780632a11ced014620001c45780634e4b7dcd14620001ea575b600080fd5b6200018062000165366004620018d5565b6000908152600560205260409020546001600160a01b031690565b6040516200018f919062001c02565b60405180910390f35b62000180620001a9366004620018d5565b6005602052600090815260409020546001600160a01b031681565b620001db620001d5366004620018d5565b620003a8565b6040516200018f919062001bcc565b620001f4620003d3565b6040516200018f919062001c4e565b6200020d620004e1565b6040516200018f919062001bdc565b6000545b6040516200018f919062001c61565b620001806200024036600462001915565b620005d0565b6200018062000257366004620018d5565b6000908152600260205260409020546001600160a01b031690565b6200018062000283366004620018d5565b6001602052600090815260409020546001600160a01b031681565b620002b5620002af3660046200171f565b62000644565b005b62000220620002c8366004620016e2565b62000841565b620002e5620002df366004620016c2565b62000873565b6040516200018f919062001bef565b620002b56200030536600462001948565b62000a71565b620001f46200031c3660046200187c565b62000b8c565b6200018062000333366004620018d5565b6000908152600160205260409020546001600160a01b031690565b620002b56200035f36600462001817565b62000c18565b6200018062000376366004620018d5565b6002602052600090815260409020546001600160a01b031681565b620001f4620003a2366004620016e2565b62000c9b565b60048181548110620003b957600080fd5b6000918252602090912001546001600160a01b0316905081565b620003dd6200128c565b336000908152600360205260409020548015620004d157336000908152600360205260408120805482906200042257634e487b7160e01b600052603260045260246000fd5b90600052602060002001549050600062000451826000908152600260205260409020546001600160a01b031690565b6001600160a01b0316633bc5de306040518163ffffffff1660e01b815260040160006040518083038186803b1580156200048a57600080fd5b505afa1580156200049f573d6000803e3d6000fd5b505050506040513d6000823e601f3d908101601f19168201604052620004c991908101906200189c565b949350505050565b620004db6200128c565b92915050565b60606000620004ef60005490565b905060008167ffffffffffffffff8111156200051b57634e487b7160e01b600052604160045260246000fd5b60405190808252806020026020018201604052801562000545578160200160208202803683370190505b50905060015b828111620005c9576000818152600160208190526040909120546001600160a01b03169083906200057d908462001ec3565b815181106200059c57634e487b7160e01b600052603260045260246000fd5b6001600160a01b039092166020928302919091019091015280620005c08162001f6b565b9150506200054b565b5092915050565b6001600160a01b03811660009081526003602052604081208054829190859081106200060c57634e487b7160e01b600052603260045260246000fd5b9060005260206000200154905060006200063b826000908152600260205260409020546001600160a01b031690565b95945050505050565b60005b8551811015620008205760008682815181106200067457634e487b7160e01b600052603260045260246000fd5b602002602001015190508682815181106200069f57634e487b7160e01b600052603260045260246000fd5b6020026020010151868381518110620006c857634e487b7160e01b600052603260045260246000fd5b6020026020010151868481518110620006f157634e487b7160e01b600052603260045260246000fd5b602002602001015160405180606001604052808887815181106200072557634e487b7160e01b600052603260045260246000fd5b602002602001015181526020018887815181106200075357634e487b7160e01b600052603260045260246000fd5b602002602001015181526020018787815181106200078157634e487b7160e01b600052603260045260246000fd5b60200260200101518152506040516200079a90620012f6565b620007a9949392919062001c71565b604051809103906000f080158015620007c6573d6000803e3d6000fd5b5060009182526001602052604090912080547fffffffffffffffffffffffff0000000000000000000000000000000000000000166001600160a01b0390921691909117905580620008178162001f6b565b91505062000647565b50845160008082825462000835919062001d30565b90915550505050505050565b600360205281600052604060002081815481106200085e57600080fd5b90600052602060002001600091509150505481565b6001600160a01b0381166000908152600360209081526040808320805482518185028101850190935280835260609493830182828015620008d457602002820191906000526020600020905b815481526020019060010190808311620008bf575b505050505090506000815167ffffffffffffffff8111156200090657634e487b7160e01b600052604160045260246000fd5b6040519080825280602002602001820160405280156200094357816020015b6200092f6200128c565b815260200190600190039081620009255790505b50905060005b825181101562000a695760008382815181106200097657634e487b7160e01b600052603260045260246000fd5b6020908102919091018101516000818152600290925260408083205481517f3bc5de3000000000000000000000000000000000000000000000000000000000815291519294506001600160a01b031692633bc5de3092600480840193829003018186803b158015620009e757600080fd5b505afa158015620009fc573d6000803e3d6000fd5b505050506040513d6000823e601f3d908101601f1916820160405262000a2691908101906200189c565b83838151811062000a4757634e487b7160e01b600052603260045260246000fd5b602002602001018190525050808062000a609062001f6b565b91505062000949565b509392505050565b600062000a7f8585620005d0565b9050811562000b09576040517fb2823c9f0000000000000000000000000000000000000000000000000000000081526001600160a01b0382169063b2823c9f9062000acf90869060040162001c61565b600060405180830381600087803b15801562000aea57600080fd5b505af115801562000aff573d6000803e3d6000fd5b5050505062000b85565b6040517fe2b767360000000000000000000000000000000000000000000000000000000081526001600160a01b0382169063e2b767369062000b5090869060040162001c61565b600060405180830381600087803b15801562000b6b57600080fd5b505af115801562000b80573d6000803e3d6000fd5b505050505b5050505050565b62000b966200128c565b6000826001600160a01b0316633bc5de306040518163ffffffff1660e01b815260040160006040518083038186803b15801562000bd257600080fd5b505afa15801562000be7573d6000803e3d6000fd5b505050506040513d6000823e601f3d908101601f1916820160405262000c1191908101906200189c565b9392505050565b60005b825181101562000c965762000c8183828151811062000c4a57634e487b7160e01b600052603260045260246000fd5b602002602001015183838151811062000c7357634e487b7160e01b600052603260045260246000fd5b602002602001015162000df1565b8062000c8d8162001f6b565b91505062000c1b565b505050565b62000ca56200128c565b6001600160a01b03831660009081526003602052604090205482111562000d03576040517f08c379a000000000000000000000000000000000000000000000000000000000815260040162000cfa9062001c12565b60405180910390fd5b6001600160a01b038316600090815260036020526040812080548490811062000d3c57634e487b7160e01b600052603260045260246000fd5b6000918252602080832090910154808352600290915260408083205481517f3bc5de3000000000000000000000000000000000000000000000000000000000815291519294506001600160a01b031691633bc5de30916004808201928692909190829003018186803b15801562000db257600080fd5b505afa15801562000dc7573d6000803e3d6000fd5b505050506040513d6000823e601f3d908101601f191682016040526200063b91908101906200189c565b6000828152600160205260408120546001600160a01b03166040517f0b5270a70000000000000000000000000000000000000000000000000000000081529091506001600160a01b03821690630b5270a79062000e5390859060040162001c61565b600060405180830381600087803b15801562000e6e57600080fd5b505af115801562000e83573d6000803e3d6000fd5b50505050806001600160a01b03166306d8652f83836001600160a01b031663296f23f96040518163ffffffff1660e01b815260040160206040518083038186803b15801562000ed157600080fd5b505afa15801562000ee6573d6000803e3d6000fd5b505050506040513d601f19601f8201168201806040525081019062000f0c9190620018f5565b62000f18919062001d30565b6040518263ffffffff1660e01b815260040162000f36919062001c61565b600060405180830381600087803b15801562000f5157600080fd5b505af115801562000f66573d6000803e3d6000fd5b50505050806001600160a01b0316635143e01a83836001600160a01b031663f6a0e8676040518163ffffffff1660e01b815260040160206040518083038186803b15801562000fb457600080fd5b505afa15801562000fc9573d6000803e3d6000fd5b505050506040513d601f19601f8201168201806040525081019062000fef9190620018f5565b62000ffb919062001d30565b6040518263ffffffff1660e01b815260040162001019919062001c61565b600060405180830381600087803b1580156200103457600080fd5b505af115801562001049573d6000803e3d6000fd5b50505050806001600160a01b031663e2b76736826001600160a01b031663296f23f96040518163ffffffff1660e01b815260040160206040518083038186803b1580156200109657600080fd5b505afa158015620010ab573d6000803e3d6000fd5b505050506040513d601f19601f82011682018060405250810190620010d19190620018f5565b6040518263ffffffff1660e01b8152600401620010ef919062001c61565b600060405180830381600087803b1580156200110a57600080fd5b505af11580156200111f573d6000803e3d6000fd5b50505050806001600160a01b0316639be55e006200113d84620011d7565b6040518263ffffffff1660e01b81526004016200115b919062001c61565b600060405180830381600087803b1580156200117657600080fd5b505af11580156200118b573d6000803e3d6000fd5b5050506000938452506005602052604090922080547fffffffffffffffffffffffff0000000000000000000000000000000000000000166001600160a01b039093169290921790915550565b60008060015b83811015620005c957620011f18162001214565b620011fd908362001d30565b9150806200120b8162001f6b565b915050620011dd565b6000806200122483600262001ea1565b600a6200123360028662001db1565b6200124090600862001ea1565b6200124c919062001d4b565b60646200125b60038762001db1565b6200126890600462001ea1565b62001274919062001d4b565b62001280919062001d30565b62000c11919062001d30565b604080516101008101909152600060a08201908152606060c0830181905260e083015281908152602001620012db60405180606001604052806000815260200160008152602001600081525090565b81526020016000815260200160008152602001600081525090565b611032806200200183390190565b60006200131b620013158462001cdb565b62001cbc565b905080838252602082019050828560208602850111156200133b57600080fd5b60005b858110156200138457813567ffffffffffffffff8111156200135f57600080fd5b85016200136d8882620014c8565b84525060209283019291909101906001016200133e565b5050509392505050565b60006200139f620013158462001cdb565b90508083825260208201905082856020860285011115620013bf57600080fd5b60005b858110156200138457620013d78783620016a8565b83526020928301929190910190600101620013c2565b6000620013fe620013158462001d02565b9050828152602081018484840111156200141757600080fd5b62000a6984828562001efc565b600062001435620013158462001d02565b9050828152602081018484840111156200144e57600080fd5b62000a6984828562001f08565b8035620004db8162001fcb565b600082601f83011262001479578081fd5b8135620004c984826020860162001304565b600082601f8301126200149c578081fd5b8135620004c98482602086016200138e565b8035620004db8162001fe5565b8035620004db8162001fee565b600082601f830112620014d9578081fd5b8135620004c9848260208601620013ed565b600082601f830112620014fc578081fd5b8151620004c984826020860162001424565b600060e0828403121562001520578081fd5b6200152c60a062001cbc565b825190915067ffffffffffffffff8111156200154757600080fd5b6200155584828501620015b3565b8252506020620015688484830162001648565b9082015260806200157c84848301620016b5565b604083015260a06200159185828601620016b5565b60608401525060c0620015a785828601620016b5565b82840152505092915050565b600060608284031215620015c5578081fd5b620015d1606062001cbc565b90506000620015e18484620016b5565b81830152602083015167ffffffffffffffff811115620015ff578182fd5b6200160d85828601620014eb565b602084015250604083015167ffffffffffffffff8111156200162d578182fd5b6200163b85828601620014eb565b6040840152505092915050565b6000606082840312156200165a578081fd5b62001666606062001cbc565b90506000620016768484620016b5565b9082015260206200168a84848301620016b5565b9082015260406200169e84848301620016b5565b9082015292915050565b8035620004db8162001ff9565b8051620004db8162001ff9565b600060208284031215620016d4578081fd5b62000c11838284016200145b565b60008060408385031215620016f5578081fd5b62001703848285016200145b565b915060206200171585828601620016a8565b9150509250929050565b600080600080600060a0868803121562001737578081fd5b8086013567ffffffffffffffff81111562001750578182fd5b6200175e888289016200148b565b955050602086013567ffffffffffffffff8111156200177b578182fd5b620017898882890162001468565b945050604086013567ffffffffffffffff811115620017a6578182fd5b620017b48882890162001468565b935050606086013567ffffffffffffffff811115620017d1578182fd5b620017df888289016200148b565b925050608086013567ffffffffffffffff811115620017fc578182fd5b6200180a888289016200148b565b9150509295509295909350565b600080604083850312156200182a578182fd5b8183013567ffffffffffffffff81111562001843578283fd5b62001851858286016200148b565b925050602083013567ffffffffffffffff8111156200186e578182fd5b62001715858286016200148b565b6000602082840312156200188e578081fd5b62000c1183828401620014bb565b600060208284031215620018ae578081fd5b8082015167ffffffffffffffff811115620018c7578182fd5b620004c9848285016200150e565b600060208284031215620018e7578081fd5b62000c1183828401620016a8565b60006020828403121562001907578081fd5b62000c1183828401620016b5565b6000806040838503121562001928578182fd5b6200193684838501620016a8565b9150602062001715858286016200145b565b600080600080608085870312156200195e578182fd5b6200196c86838701620016a8565b935060206200197e878288016200145b565b93505060406200199187828801620016a8565b9250506060620019a487828801620014ae565b91505092959194509250565b620019bc828262001a96565b5060200190565b600062000c11838362001ad6565b620019dc8162001edd565b82525050565b6000620019ed825190565b8084526020938401938301825b8281101562001a2357815162001a118782620019b0565b965050602082019150600101620019fa565b5093949350505050565b600062001a38825190565b8084526020840193508360208202850162001a538560200190565b845b8481101562001a8a578383038852815162001a718482620019c3565b9350506020820160209890980197915060010162001a55565b50909695505050505050565b620019dc8162001eef565b600062001aac825190565b80845260208401935062001ac581856020860162001f08565b601f01601f19169290920192915050565b805160e08084526000919084019062001af0828262001b46565b915050602083015162001b07602086018262001b92565b50604083015162001b1c608086018262001bc5565b50606083015162001b3160a086018262001bc5565b50608083015162000a6960c086018262001bc5565b8051600090606084019062001b5c858262001bc5565b506020830151848203602086015262001b76828262001aa1565b915050604083015184820360408601526200063b828262001aa1565b805162001ba0838262001bc5565b50602081015162001bb5602084018262001bc5565b50604081015162000c9660408401825b80620019dc565b60208101620004db8284620019d1565b6020808252810162000c118184620019e2565b6020808252810162000c11818462001a2d565b60208101620004db828462001a96565b60208082528101620004db81600281527f4754000000000000000000000000000000000000000000000000000000000000602082015260400190565b6020808252810162000c11818462001ad6565b60208101620004db828462001bc5565b60c0810162001c81828762001bc5565b818103602083015262001c95818662001aa1565b9050818103604083015262001cab818562001aa1565b90506200063b606083018462001b92565b600062001cc860405190565b905062001cd6828262001f3b565b919050565b600067ffffffffffffffff82111562001cf85762001cf862001fb5565b5060209081020190565b600067ffffffffffffffff82111562001d1f5762001d1f62001fb5565b601f19601f83011660200192915050565b6000821982111562001d465762001d4662001f89565b500190565b60008262001d5d5762001d5d62001f9f565b500490565b80825b600185111562001da85780860481111562001d845762001d8462001f89565b600185161562001d9357908102905b800262001da08560011c90565b945062001d65565b94509492505050565b60ff82169150600062000c11600019848460008262001dd35750600162000c11565b8162001de25750600062000c11565b816001811462001dfb576002811462001e065762001e3a565b600191505062000c11565b60ff84111562001e1a5762001e1a62001f89565b8360020a91508482111562001e335762001e3362001f89565b5062000c11565b5060208310610133831016604e8410600b841016171562001e72575081810a8381111562001e6c5762001e6c62001f89565b62000c11565b62001e81848484600162001d62565b9250905081840481111562001e9a5762001e9a62001f89565b0292915050565b600081600019048311821515161562001ebe5762001ebe62001f89565b500290565b60008282101562001ed85762001ed862001f89565b500390565b60006001600160a01b038216620004db565b6000620004db8262001edd565b82818337506000910152565b60005b8381101562001f2557818101518382015260200162001f0b565b8381111562001f35576000848401525b50505050565b601f19601f830116810181811067ffffffffffffffff8211171562001f645762001f6462001fb5565b6040525050565b600060001982141562001f825762001f8262001f89565b5060010190565b634e487b7160e01b600052601160045260246000fd5b634e487b7160e01b600052601260045260246000fd5b634e487b7160e01b600052604160045260246000fd5b62001fd68162001edd565b811462001fe257600080fd5b50565b80151562001fd6565b62001fd68162001eef565b8062001fd656fe60806040523480156200001157600080fd5b5060405162001032380380620010328339810160408190526200003491620001fa565b62000042848484846200004c565b5050505062000394565b6000849055825162000066906001906020860190620000a5565b5081516200007c906002906020850190620000a5565b508051600355604081015160055560200151600455505060016006555060006007819055600855565b828054620000b39062000308565b90600052602060002090601f016020900481019282620000d7576000855562000122565b82601f10620000f257805160ff191683800117855562000122565b8280016001018555821562000122579182015b828111156200012257825182559160200191906001019062000105565b506200013092915062000134565b5090565b5b8082111562000130576000815560010162000135565b6000620001626200015c84620002a8565b62000289565b9050828152602081018484840111156200017b57600080fd5b62000188848285620002d5565b509392505050565b600082601f830112620001a1578081fd5b8151620001b38482602086016200014b565b949350505050565b600060608284031215620001cd578081fd5b620001d9606062000289565b82518152602080840151908201526040928301519281019290925250919050565b60008060008060c0858703121562000210578384fd5b8484015160208601519094506001600160401b0381111562000230578384fd5b6200023e8782880162000190565b604087015190945090506001600160401b038111156200025c578283fd5b6200026a8782880162000190565b92505060606200027d87828801620001bb565b91505092959194509250565b60006200029560405190565b9050620002a3828262000339565b919050565b60006001600160401b03821115620002c457620002c46200037e565b601f19601f83011660200192915050565b60005b83811015620002f2578181015183820152602001620002d8565b8381111562000302576000848401525b50505050565b6002810460018216806200031d57607f821691505b6020821081141562000333576200033362000368565b50919050565b601f19601f83011681016001600160401b03811182821017156200036157620003616200037e565b6040525050565b634e487b7160e01b600052602260045260246000fd5b634e487b7160e01b600052604160045260246000fd5b610c8e80620003a46000396000f3fe608060405234801561001057600080fd5b50600436106101775760003560e01c80638ce802e0116100d8578063c59d48471161008c578063ed73fc4b11610066578063ed73fc4b146102c3578063ede641a4146102cb578063f6a0e867146102de57600080fd5b8063c59d484714610293578063cdb986cc146102a8578063e2b76736146102b057600080fd5b8063a5985e8c116100bd578063a5985e8c14610270578063abd708ef14610278578063b2823c9f1461028057600080fd5b80638ce802e0146102395780639be55e001461025d57600080fd5b806346bd9a661161012f5780635a9b0b89116101145780635a9b0b89146102035780635d1ca6311461021857806373d4a13a1461022057600080fd5b806346bd9a66146101e85780635143e01a146101f057600080fd5b806317d7de7c1161016057806317d7de7c146101a4578063296f23f9146101c25780633bc5de30146101d357600080fd5b806306d8652f1461017c5780630b5270a714610191575b600080fd5b61018f61018a366004610983565b600455565b005b61018f61019f366004610983565b600655565b6101ac6102e6565b6040516101b99190610a96565b60405180910390f35b6004545b6040516101b99190610b4c565b6101db61037a565b6040516101b99190610aa7565b6101ac61051e565b61018f6101fe366004610983565b600555565b61020b61052f565b6040516101b99190610ab8565b6000546101c6565b610228610690565b6040516101b9959493929190610ac9565b61018f61024736600461095f565b8051600355602081015160045560400151600555565b61018f61026b366004610983565b600855565b6006546101c6565b6003546101c6565b61018f61028e366004610983565b610810565b61029b61084d565b6040516101b99190610b2b565b6007546101c6565b61018f6102be366004610983565b600355565b6008546101c6565b61018f6102d9366004610983565b600755565b6005546101c6565b60018054606091906102f790610bbc565b80601f016020809104026020016040519081016040528092919081815260200182805461032390610bbc565b80156103705780601f1061034557610100808354040283529160200191610370565b820191906000526020600020905b81548152906001019060200180831161035357829003601f168201915b5050505050905090565b610382610896565b6040805161010081019091526000805460a0830190815260018054849291849160c0850191906103b190610bbc565b80601f01602080910402602001604051908101604052809291908181526020018280546103dd90610bbc565b801561042a5780601f106103ff5761010080835404028352916020019161042a565b820191906000526020600020905b81548152906001019060200180831161040d57829003601f168201915b5050505050815260200160028201805461044390610bbc565b80601f016020809104026020016040519081016040528092919081815260200182805461046f90610bbc565b80156104bc5780601f10610491576101008083540402835291602001916104bc565b820191906000526020600020905b81548152906001019060200180831161049f57829003601f168201915b505050505081525050815260200160038201604051806060016040529081600082015481526020016001820154815260200160028201548152505081526020016006820154815260200160078201548152602001600882015481525050905090565b60028054606091906102f790610bbc565b61055360405180606001604052806000815260200160608152602001606081525090565b60408051606081019091526000805482526001805460208401919061057790610bbc565b80601f01602080910402602001604051908101604052809291908181526020018280546105a390610bbc565b80156105f05780601f106105c5576101008083540402835291602001916105f0565b820191906000526020600020905b8154815290600101906020018083116105d357829003601f168201915b5050505050815260200160028201805461060990610bbc565b80601f016020809104026020016040519081016040528092919081815260200182805461063590610bbc565b80156106825780601f1061065757610100808354040283529160200191610682565b820191906000526020600020905b81548152906001019060200180831161066557829003601f168201915b505050505081525050905090565b600080600001604051806060016040529081600082015481526020016001820180546106bb90610bbc565b80601f01602080910402602001604051908101604052809291908181526020018280546106e790610bbc565b80156107345780601f1061070957610100808354040283529160200191610734565b820191906000526020600020905b81548152906001019060200180831161071757829003601f168201915b5050505050815260200160028201805461074d90610bbc565b80601f016020809104026020016040519081016040528092919081815260200182805461077990610bbc565b80156107c65780601f1061079b576101008083540402835291602001916107c6565b820191906000526020600020905b8154815290600101906020018083116107a957829003601f168201915b505050919092525050604080516060810182526003850154815260048501546020820152600585015491810191909152600684015460078501546008909501549394919390925085565b600454600354610821908390610b74565b11156108305760045460035550565b60038054829190600090610845908490610b74565b909155505050565b61087160405180606001604052806000815260200160008152602001600081525090565b5060408051606081018252600354815260045460208201526005549181019190915290565b604080516101008101909152600060a08201908152606060c0830181905260e0830152819081526020016108e460405180606001604052806000815260200160008152602001600081525090565b81526020016000815260200160008152602001600081525090565b600060608284031215610910578081fd5b61091a6060610b58565b905060006109288484610956565b90820152602061093a84848301610956565b90820152604061094c84848301610956565b9082015292915050565b80355b92915050565b600060608284031215610970578081fd5b61097c838284016108ff565b9392505050565b600060208284031215610994578081fd5b61097c83828401610956565b60006109aa825190565b8084526020840193506109c1818560208601610b8c565b601f01601f19169290920192915050565b805160e0808452600091908401906109ea8282610a51565b9150506020830151610a1360208601828051825260208082015190830152604090810151910152565b506040830151610a2560808601829052565b506060830151610a3760a08601829052565b506080830151610a4960c08601829052565b509392505050565b805182526020808201516060918401829052600091840190610a7382826109a0565b91505060408301518482036040860152610a8d82826109a0565b95945050505050565b6020808252810161097c81846109a0565b6020808252810161097c81846109d2565b6020808252810161097c8184610a51565b60e08082528101610ada8188610a51565b9050610afd60208301878051825260208082015190830152604090810151910152565b610b0960808301869052565b610b1560a08301859052565b610b2160c08301849052565b9695505050505050565b81518152602080830151908201526040808301519082015260608101610959565b81815260208101610959565b6000610b6360405190565b9050610b6f8282610be9565b919050565b60008219821115610b8757610b87610c16565b500190565b60005b83811015610ba7578181015183820152602001610b8f565b83811115610bb6576000848401525b50505050565b600281046001821680610bd057607f821691505b60208210811415610be357610be3610c2c565b50919050565b601f19601f830116810181811067ffffffffffffffff82111715610c0f57610c0f610c42565b6040525050565b634e487b7160e01b600052601160045260246000fd5b634e487b7160e01b600052602260045260246000fd5b634e487b7160e01b600052604160045260246000fdfea26469706673582212207655b06cba78ea27b04919a2ce7b54bcfc2052ee52986a7eb1548b5419940a0c64736f6c63430008040033a2646970667358221220117cd0bb6d0743bbd7e5ad2f0344e97331ba70ed2ed014d6050a548ab7713e7d64736f6c63430008040033",
  "linkReferences": {},
  "deployedLinkReferences": {}
}