{
  "_format": "hh-sol-artifact-1",
  "contractName": "PokemonFactory",
  "sourceName": "contracts/Pokemon/PokemonFactory.sol",
  "abi": [
    {
      "anonymous": false,
      "inputs": [
        {
          "indexed": false,
          "internalType": "uint256",
          "name": "level",
          "type": "uint256"
        },
        {
          "components": [
            {
              "internalType": "uint256",
              "name": "hp",
              "type": "uint256"
            },
            {
              "internalType": "uint256",
              "name": "maxHp",
              "type": "uint256"
            },
            {
              "internalType": "uint256",
              "name": "attack",
              "type": "uint256"
            }
          ],
          "indexed": false,
          "internalType": "struct LPokemonData.Stats",
          "name": "stats",
          "type": "tuple"
        },
        {
          "indexed": false,
          "internalType": "address",
          "name": "sender",
          "type": "address"
        },
        {
          "indexed": false,
          "internalType": "uint256",
          "name": "timestamp",
          "type": "uint256"
        }
      ],
      "name": "LevelUp",
      "type": "event"
    },
    {
      "anonymous": false,
      "inputs": [
        {
          "indexed": true,
          "internalType": "address",
          "name": "previousOwner",
          "type": "address"
        },
        {
          "indexed": true,
          "internalType": "address",
          "name": "newOwner",
          "type": "address"
        }
      ],
      "name": "OwnershipTransferred",
      "type": "event"
    },
    {
      "inputs": [
        {
          "internalType": "uint256",
          "name": "",
          "type": "uint256"
        }
      ],
      "name": "bosses",
      "outputs": [
        {
          "internalType": "contract PokemonData",
          "name": "",
          "type": "address"
        }
      ],
      "stateMutability": "view",
      "type": "function"
    },
    {
      "inputs": [
        {
          "internalType": "uint256",
          "name": "pokemonIndex",
          "type": "uint256"
        },
        {
          "internalType": "address",
          "name": "account",
          "type": "address"
        },
        {
          "internalType": "uint256",
          "name": "hp",
          "type": "uint256"
        },
        {
          "internalType": "bool",
          "name": "isIncrement",
          "type": "bool"
        }
      ],
      "name": "changeHpOf",
      "outputs": [],
      "stateMutability": "nonpayable",
      "type": "function"
    },
    {
      "inputs": [
        {
          "internalType": "uint256[]",
          "name": "bossesIds",
          "type": "uint256[]"
        },
        {
          "internalType": "uint256[]",
          "name": "bossesLevel",
          "type": "uint256[]"
        }
      ],
      "name": "createBossesData",
      "outputs": [],
      "stateMutability": "nonpayable",
      "type": "function"
    },
    {
      "inputs": [
        {
          "internalType": "uint256[]",
          "name": "pokemonIndexes",
          "type": "uint256[]"
        },
        {
          "internalType": "string[]",
          "name": "pokemonNames",
          "type": "string[]"
        },
        {
          "internalType": "string[]",
          "name": "pokemonImageURIs",
          "type": "string[]"
        },
        {
          "internalType": "uint256[]",
          "name": "pokemonHp",
          "type": "uint256[]"
        },
        {
          "internalType": "uint256[]",
          "name": "pokemonAttack",
          "type": "uint256[]"
        }
      ],
      "name": "createPokemonsData",
      "outputs": [],
      "stateMutability": "nonpayable",
      "type": "function"
    },
    {
      "inputs": [],
      "name": "getAllPokemons",
      "outputs": [
        {
          "internalType": "contract PokemonData[]",
          "name": "",
          "type": "address[]"
        }
      ],
      "stateMutability": "view",
      "type": "function"
    },
    {
      "inputs": [
        {
          "internalType": "uint256",
          "name": "id",
          "type": "uint256"
        }
      ],
      "name": "getBoss",
      "outputs": [
        {
          "internalType": "contract PokemonData",
          "name": "",
          "type": "address"
        }
      ],
      "stateMutability": "view",
      "type": "function"
    },
    {
      "inputs": [
        {
          "internalType": "uint256",
          "name": "id",
          "type": "uint256"
        }
      ],
      "name": "getPokemon",
      "outputs": [
        {
          "internalType": "contract PokemonData",
          "name": "",
          "type": "address"
        }
      ],
      "stateMutability": "view",
      "type": "function"
    },
    {
      "inputs": [
        {
          "internalType": "uint256",
          "name": "pokemonIndex",
          "type": "uint256"
        },
        {
          "internalType": "address",
          "name": "sender",
          "type": "address"
        }
      ],
      "name": "getPokemonByIndexOf",
      "outputs": [
        {
          "internalType": "contract PokemonData",
          "name": "",
          "type": "address"
        }
      ],
      "stateMutability": "view",
      "type": "function"
    },
    {
      "inputs": [
        {
          "internalType": "uint256",
          "name": "tokenId",
          "type": "uint256"
        }
      ],
      "name": "getPokemonNft",
      "outputs": [
        {
          "internalType": "contract PokemonData",
          "name": "",
          "type": "address"
        }
      ],
      "stateMutability": "view",
      "type": "function"
    },
    {
      "inputs": [
        {
          "internalType": "contract PokemonData",
          "name": "pokemonData",
          "type": "address"
        }
      ],
      "name": "getPokemonReadable",
      "outputs": [
        {
          "components": [
            {
              "components": [
                {
                  "internalType": "uint256",
                  "name": "id",
                  "type": "uint256"
                },
                {
                  "internalType": "string",
                  "name": "name",
                  "type": "string"
                },
                {
                  "internalType": "string",
                  "name": "imageURI",
                  "type": "string"
                }
              ],
              "internalType": "struct LPokemonData.Info",
              "name": "info",
              "type": "tuple"
            },
            {
              "components": [
                {
                  "internalType": "uint256",
                  "name": "hp",
                  "type": "uint256"
                },
                {
                  "internalType": "uint256",
                  "name": "maxHp",
                  "type": "uint256"
                },
                {
                  "internalType": "uint256",
                  "name": "attack",
                  "type": "uint256"
                }
              ],
              "internalType": "struct LPokemonData.Stats",
              "name": "stats",
              "type": "tuple"
            },
            {
              "internalType": "uint256",
              "name": "level",
              "type": "uint256"
            },
            {
              "internalType": "uint256",
              "name": "experience",
              "type": "uint256"
            },
            {
              "internalType": "uint256",
              "name": "totalExperience",
              "type": "uint256"
            }
          ],
          "internalType": "struct LPokemonData.Data",
          "name": "",
          "type": "tuple"
        }
      ],
      "stateMutability": "view",
      "type": "function"
    },
    {
      "inputs": [
        {
          "internalType": "address",
          "name": "sender",
          "type": "address"
        },
        {
          "internalType": "uint256",
          "name": "pokemonIndex",
          "type": "uint256"
        }
      ],
      "name": "getPokemonSelected",
      "outputs": [
        {
          "components": [
            {
              "components": [
                {
                  "internalType": "uint256",
                  "name": "id",
                  "type": "uint256"
                },
                {
                  "internalType": "string",
                  "name": "name",
                  "type": "string"
                },
                {
                  "internalType": "string",
                  "name": "imageURI",
                  "type": "string"
                }
              ],
              "internalType": "struct LPokemonData.Info",
              "name": "info",
              "type": "tuple"
            },
            {
              "components": [
                {
                  "internalType": "uint256",
                  "name": "hp",
                  "type": "uint256"
                },
                {
                  "internalType": "uint256",
                  "name": "maxHp",
                  "type": "uint256"
                },
                {
                  "internalType": "uint256",
                  "name": "attack",
                  "type": "uint256"
                }
              ],
              "internalType": "struct LPokemonData.Stats",
              "name": "stats",
              "type": "tuple"
            },
            {
              "internalType": "uint256",
              "name": "level",
              "type": "uint256"
            },
            {
              "internalType": "uint256",
              "name": "experience",
              "type": "uint256"
            },
            {
              "internalType": "uint256",
              "name": "totalExperience",
              "type": "uint256"
            }
          ],
          "internalType": "struct LPokemonData.Data",
          "name": "",
          "type": "tuple"
        }
      ],
      "stateMutability": "view",
      "type": "function"
    },
    {
      "inputs": [
        {
          "internalType": "address",
          "name": "sender",
          "type": "address"
        }
      ],
      "name": "getPokemonsOf",
      "outputs": [
        {
          "components": [
            {
              "components": [
                {
                  "internalType": "uint256",
                  "name": "id",
                  "type": "uint256"
                },
                {
                  "internalType": "string",
                  "name": "name",
                  "type": "string"
                },
                {
                  "internalType": "string",
                  "name": "imageURI",
                  "type": "string"
                }
              ],
              "internalType": "struct LPokemonData.Info",
              "name": "info",
              "type": "tuple"
            },
            {
              "components": [
                {
                  "internalType": "uint256",
                  "name": "hp",
                  "type": "uint256"
                },
                {
                  "internalType": "uint256",
                  "name": "maxHp",
                  "type": "uint256"
                },
                {
                  "internalType": "uint256",
                  "name": "attack",
                  "type": "uint256"
                }
              ],
              "internalType": "struct LPokemonData.Stats",
              "name": "stats",
              "type": "tuple"
            },
            {
              "internalType": "uint256",
              "name": "level",
              "type": "uint256"
            },
            {
              "internalType": "uint256",
              "name": "experience",
              "type": "uint256"
            },
            {
              "internalType": "uint256",
              "name": "totalExperience",
              "type": "uint256"
            }
          ],
          "internalType": "struct LPokemonData.Data[]",
          "name": "",
          "type": "tuple[]"
        }
      ],
      "stateMutability": "view",
      "type": "function"
    },
    {
      "inputs": [],
      "name": "getTotalPokemons",
      "outputs": [
        {
          "internalType": "uint256",
          "name": "",
          "type": "uint256"
        }
      ],
      "stateMutability": "view",
      "type": "function"
    },
    {
      "inputs": [],
      "name": "hasNft",
      "outputs": [
        {
          "components": [
            {
              "components": [
                {
                  "internalType": "uint256",
                  "name": "id",
                  "type": "uint256"
                },
                {
                  "internalType": "string",
                  "name": "name",
                  "type": "string"
                },
                {
                  "internalType": "string",
                  "name": "imageURI",
                  "type": "string"
                }
              ],
              "internalType": "struct LPokemonData.Info",
              "name": "info",
              "type": "tuple"
            },
            {
              "components": [
                {
                  "internalType": "uint256",
                  "name": "hp",
                  "type": "uint256"
                },
                {
                  "internalType": "uint256",
                  "name": "maxHp",
                  "type": "uint256"
                },
                {
                  "internalType": "uint256",
                  "name": "attack",
                  "type": "uint256"
                }
              ],
              "internalType": "struct LPokemonData.Stats",
              "name": "stats",
              "type": "tuple"
            },
            {
              "internalType": "uint256",
              "name": "level",
              "type": "uint256"
            },
            {
              "internalType": "uint256",
              "name": "experience",
              "type": "uint256"
            },
            {
              "internalType": "uint256",
              "name": "totalExperience",
              "type": "uint256"
            }
          ],
          "internalType": "struct LPokemonData.Data",
          "name": "",
          "type": "tuple"
        }
      ],
      "stateMutability": "view",
      "type": "function"
    },
    {
      "inputs": [
        {
          "internalType": "uint256",
          "name": "",
          "type": "uint256"
        }
      ],
      "name": "holders",
      "outputs": [
        {
          "internalType": "address",
          "name": "",
          "type": "address"
        }
      ],
      "stateMutability": "view",
      "type": "function"
    },
    {
      "inputs": [],
      "name": "itemAddress",
      "outputs": [
        {
          "internalType": "address",
          "name": "",
          "type": "address"
        }
      ],
      "stateMutability": "view",
      "type": "function"
    },
    {
      "inputs": [
        {
          "internalType": "address",
          "name": "",
          "type": "address"
        },
        {
          "internalType": "uint256",
          "name": "",
          "type": "uint256"
        }
      ],
      "name": "nftsOfHolder",
      "outputs": [
        {
          "internalType": "uint256",
          "name": "",
          "type": "uint256"
        }
      ],
      "stateMutability": "view",
      "type": "function"
    },
    {
      "inputs": [],
      "name": "owner",
      "outputs": [
        {
          "internalType": "address",
          "name": "",
          "type": "address"
        }
      ],
      "stateMutability": "view",
      "type": "function"
    },
    {
      "inputs": [
        {
          "internalType": "uint256",
          "name": "",
          "type": "uint256"
        }
      ],
      "name": "pokemons",
      "outputs": [
        {
          "internalType": "contract PokemonData",
          "name": "",
          "type": "address"
        }
      ],
      "stateMutability": "view",
      "type": "function"
    },
    {
      "inputs": [
        {
          "internalType": "uint256",
          "name": "",
          "type": "uint256"
        }
      ],
      "name": "pokemonsNft",
      "outputs": [
        {
          "internalType": "contract PokemonData",
          "name": "",
          "type": "address"
        }
      ],
      "stateMutability": "view",
      "type": "function"
    },
    {
      "inputs": [],
      "name": "renounceOwnership",
      "outputs": [],
      "stateMutability": "nonpayable",
      "type": "function"
    },
    {
      "inputs": [
        {
          "internalType": "address",
          "name": "newOwner",
          "type": "address"
        }
      ],
      "name": "transferOwnership",
      "outputs": [],
      "stateMutability": "nonpayable",
      "type": "function"
    },
    {
      "inputs": [
        {
          "internalType": "address",
          "name": "_itemAddress",
          "type": "address"
        }
      ],
      "name": "updateItemAddress",
      "outputs": [],
      "stateMutability": "nonpayable",
      "type": "function"
    }
  ],
  "bytecode": "0x608060405234801561001057600080fd5b5061001a3361001f565b61006f565b600080546001600160a01b038381166001600160a01b0319831681178455604051919092169283917f8be0079c531659141344cd1fd0a4f28419497f9722a3daafe3b4186f6b6457e09190a35050565b6133e78061007e6000396000f3fe60806040523480156200001157600080fd5b5060043610620001ad5760003560e01c80638da5cb5b11620000f5578063eb8146711162000097578063f2fde38b116200006e578063f2fde38b146200040a578063f8b8158a1462000421578063f962c56c146200044d57600080fd5b8063eb81467114620003b0578063f0b305db14620003c7578063f246f6c914620003f357600080fd5b8063c704781511620000cc578063c7047815146200035c578063e0714ffa1462000373578063e89f8a43146200039957600080fd5b80638da5cb5b146200031f5780639744256b1462000331578063a67fcf46146200034557600080fd5b80635e916790116200015f578063792300f41162000136578063792300f414620002b05780637ec5995614620002c75780638583107914620002f357600080fd5b80635e916790146200027a578063628a13101462000293578063715018a614620002a657600080fd5b8063204597e01162000194578063204597e0146200020f5780632a11ced0146200023b5780634e4b7dcd146200026157600080fd5b806308cd3abc14620001b25780630e63c7ad14620001cb575b600080fd5b620001c9620001c336600462001920565b62000464565b005b620001f7620001dc36600462001b33565b6000908152600760205260409020546001600160a01b031690565b60405162000206919062001f78565b60405180910390f35b620001f76200022036600462001b33565b6007602052600090815260409020546001600160a01b031681565b620002526200024c36600462001b33565b620004c9565b60405162000206919062001f42565b6200026b620004f4565b60405162000206919062001fd0565b6200028462000602565b60405162000206919062001f52565b6002545b60405162000206919062001fe3565b620001c9620006ed565b620001f7620002c136600462001b73565b62000728565b620001f7620002d836600462001b33565b6000908152600460205260409020546001600160a01b031690565b620001f76200030436600462001b33565b6003602052600090815260409020546001600160a01b031681565b6000546001600160a01b031662000252565b60015462000252906001600160a01b031681565b620001c9620003563660046200197d565b6200079c565b620002976200036d36600462001940565b620009bc565b6200038a6200038436600462001920565b620009ee565b60405162000206919062001f65565b620001c9620003aa36600462001ba6565b62000be5565b6200026b620003c136600462001ada565b62000d2d565b620001f7620003d836600462001b33565b6000908152600360205260409020546001600160a01b031690565b620001c96200040436600462001a75565b62000db9565b620001c96200041b36600462001920565b62000e69565b620001f76200043236600462001b33565b6004602052600090815260409020546001600160a01b031681565b6200026b6200045e36600462001940565b62000ecd565b6000546001600160a01b031633146200049a5760405162461bcd60e51b8152600401620004919062001fac565b60405180910390fd5b6001805473ffffffffffffffffffffffffffffffffffffffff19166001600160a01b0392909216919091179055565b60068181548110620004da57600080fd5b6000918252602090912001546001600160a01b0316905081565b620004fe620014ea565b336000908152600560205260409020548015620005f257336000908152600560205260408120805482906200054357634e487b7160e01b600052603260045260246000fd5b90600052602060002001549050600062000572826000908152600460205260409020546001600160a01b031690565b6001600160a01b0316633bc5de306040518163ffffffff1660e01b815260040160006040518083038186803b158015620005ab57600080fd5b505afa158015620005c0573d6000803e3d6000fd5b505050506040513d6000823e601f3d908101601f19168201604052620005ea919081019062001afa565b949350505050565b620005fc620014ea565b92915050565b606060006200061060025490565b905060008167ffffffffffffffff8111156200063c57634e487b7160e01b600052604160045260246000fd5b60405190808252806020026020018201604052801562000666578160200160208202803683370190505b50905060015b828111620006e6576000818152600360205260409020546001600160a01b0316826200069a60018462002245565b81518110620006b957634e487b7160e01b600052603260045260246000fd5b6001600160a01b039092166020928302919091019091015280620006dd81620022ed565b9150506200066c565b5092915050565b6000546001600160a01b031633146200071a5760405162461bcd60e51b8152600401620004919062001fac565b62000726600062000ffd565b565b6001600160a01b03811660009081526005602052604081208054829190859081106200076457634e487b7160e01b600052603260045260246000fd5b90600052602060002001549050600062000793826000908152600460205260409020546001600160a01b031690565b95945050505050565b6000546001600160a01b03163314620007c95760405162461bcd60e51b8152600401620004919062001fac565b60005b85518110156200099a576000868281518110620007f957634e487b7160e01b600052603260045260246000fd5b602002602001015190508682815181106200082457634e487b7160e01b600052603260045260246000fd5b60200260200101518683815181106200084d57634e487b7160e01b600052603260045260246000fd5b60200260200101518684815181106200087657634e487b7160e01b600052603260045260246000fd5b60200260200101516040518060600160405280888781518110620008aa57634e487b7160e01b600052603260045260246000fd5b60200260200101518152602001888781518110620008d857634e487b7160e01b600052603260045260246000fd5b602002602001015181526020018787815181106200090657634e487b7160e01b600052603260045260246000fd5b60200260200101518152506040516200091f9062001554565b6200092e949392919062001ff3565b604051809103906000f0801580156200094b573d6000803e3d6000fd5b50600091825260036020526040909120805473ffffffffffffffffffffffffffffffffffffffff19166001600160a01b03909216919091179055806200099181620022ed565b915050620007cc565b50845160026000828254620009b09190620020b2565b90915550505050505050565b60056020528160005260406000208181548110620009d957600080fd5b90600052602060002001600091509150505481565b6001600160a01b038116600090815260056020908152604080832080548251818502810185019093528083526060949383018282801562000a4f57602002820191906000526020600020905b81548152602001906001019080831162000a3a575b505050505090506000815167ffffffffffffffff81111562000a8157634e487b7160e01b600052604160045260246000fd5b60405190808252806020026020018201604052801562000abe57816020015b62000aaa620014ea565b81526020019060019003908162000aa05790505b50905060005b825181101562000bdd57600083828151811062000af157634e487b7160e01b600052603260045260246000fd5b602002602001015190506004600082815260200190815260200160002060009054906101000a90046001600160a01b03166001600160a01b0316633bc5de306040518163ffffffff1660e01b815260040160006040518083038186803b15801562000b5b57600080fd5b505afa15801562000b70573d6000803e3d6000fd5b505050506040513d6000823e601f3d908101601f1916820160405262000b9a919081019062001afa565b83838151811062000bbb57634e487b7160e01b600052603260045260246000fd5b602002602001018190525050808062000bd490620022ed565b91505062000ac4565b509392505050565b6001546001600160a01b0316331462000c125760405162461bcd60e51b8152600401620004919062001f9a565b600062000c20858562000728565b9050811562000caa576040517fb2823c9f0000000000000000000000000000000000000000000000000000000081526001600160a01b0382169063b2823c9f9062000c7090869060040162001fe3565b600060405180830381600087803b15801562000c8b57600080fd5b505af115801562000ca0573d6000803e3d6000fd5b5050505062000d26565b6040517fe2b767360000000000000000000000000000000000000000000000000000000081526001600160a01b0382169063e2b767369062000cf190869060040162001fe3565b600060405180830381600087803b15801562000d0c57600080fd5b505af115801562000d21573d6000803e3d6000fd5b505050505b5050505050565b62000d37620014ea565b6000826001600160a01b0316633bc5de306040518163ffffffff1660e01b815260040160006040518083038186803b15801562000d7357600080fd5b505afa15801562000d88573d6000803e3d6000fd5b505050506040513d6000823e601f3d908101601f1916820160405262000db2919081019062001afa565b9392505050565b6000546001600160a01b0316331462000de65760405162461bcd60e51b8152600401620004919062001fac565b60005b825181101562000e645762000e4f83828151811062000e1857634e487b7160e01b600052603260045260246000fd5b602002602001015183838151811062000e4157634e487b7160e01b600052603260045260246000fd5b60200260200101516200105a565b8062000e5b81620022ed565b91505062000de9565b505050565b6000546001600160a01b0316331462000e965760405162461bcd60e51b8152600401620004919062001fac565b6001600160a01b03811662000ebf5760405162461bcd60e51b8152600401620004919062001f88565b62000eca8162000ffd565b50565b62000ed7620014ea565b6001600160a01b03831660009081526005602052604090205482111562000f125760405162461bcd60e51b8152600401620004919062001fbe565b6001600160a01b038316600090815260056020526040812080548490811062000f4b57634e487b7160e01b600052603260045260246000fd5b600091825260208083209091015480835260049182905260408084205481517f3bc5de3000000000000000000000000000000000000000000000000000000000815291519295506001600160a01b031692633bc5de309282820192869290829003018186803b15801562000fbe57600080fd5b505afa15801562000fd3573d6000803e3d6000fd5b505050506040513d6000823e601f3d908101601f1916820160405262000793919081019062001afa565b600080546001600160a01b0383811673ffffffffffffffffffffffffffffffffffffffff19831681178455604051919092169283917f8be0079c531659141344cd1fd0a4f28419497f9722a3daafe3b4186f6b6457e09190a35050565b6000828152600360205260408120546001600160a01b03166040517f0b5270a70000000000000000000000000000000000000000000000000000000081529091506001600160a01b03821690630b5270a790620010bc90859060040162001fe3565b600060405180830381600087803b158015620010d757600080fd5b505af1158015620010ec573d6000803e3d6000fd5b50505050806001600160a01b03166306d8652f83836001600160a01b031663296f23f96040518163ffffffff1660e01b815260040160206040518083038186803b1580156200113a57600080fd5b505afa1580156200114f573d6000803e3d6000fd5b505050506040513d601f19601f8201168201806040525081019062001175919062001b53565b620011819190620020b2565b6040518263ffffffff1660e01b81526004016200119f919062001fe3565b600060405180830381600087803b158015620011ba57600080fd5b505af1158015620011cf573d6000803e3d6000fd5b50505050806001600160a01b0316635143e01a83836001600160a01b031663f6a0e8676040518163ffffffff1660e01b815260040160206040518083038186803b1580156200121d57600080fd5b505afa15801562001232573d6000803e3d6000fd5b505050506040513d601f19601f8201168201806040525081019062001258919062001b53565b620012649190620020b2565b6040518263ffffffff1660e01b815260040162001282919062001fe3565b600060405180830381600087803b1580156200129d57600080fd5b505af1158015620012b2573d6000803e3d6000fd5b50505050806001600160a01b031663e2b76736826001600160a01b031663296f23f96040518163ffffffff1660e01b815260040160206040518083038186803b158015620012ff57600080fd5b505afa15801562001314573d6000803e3d6000fd5b505050506040513d601f19601f820116820180604052508101906200133a919062001b53565b6040518263ffffffff1660e01b815260040162001358919062001fe3565b600060405180830381600087803b1580156200137357600080fd5b505af115801562001388573d6000803e3d6000fd5b50505050806001600160a01b0316639be55e00620013a68462001435565b6040518263ffffffff1660e01b8152600401620013c4919062001fe3565b600060405180830381600087803b158015620013df57600080fd5b505af1158015620013f4573d6000803e3d6000fd5b50505060009384525060076020526040909220805473ffffffffffffffffffffffffffffffffffffffff19166001600160a01b039093169290921790915550565b60008060015b83811015620006e6576200144f8162001472565b6200145b9083620020b2565b9150806200146981620022ed565b9150506200143b565b6000806200148283600262002223565b600a6200149160028662002133565b6200149e90600862002223565b620014aa9190620020cd565b6064620014b960038762002133565b620014c690600462002223565b620014d29190620020cd565b620014de9190620020b2565b62000db29190620020b2565b604080516101008101909152600060a08201908152606060c0830181905260e0830152819081526020016200153960405180606001604052806000815260200160008152602001600081525090565b81526020016000815260200160008152602001600081525090565b611032806200238083390190565b60006200157962001573846200205d565b6200203e565b905080838252602082019050828560208602850111156200159957600080fd5b60005b85811015620015e257813567ffffffffffffffff811115620015bd57600080fd5b8501620015cb888262001726565b84525060209283019291909101906001016200159c565b5050509392505050565b6000620015fd62001573846200205d565b905080838252602082019050828560208602850111156200161d57600080fd5b60005b85811015620015e25762001635878362001906565b8352602092830192919091019060010162001620565b60006200165c620015738462002084565b9050828152602081018484840111156200167557600080fd5b62000bdd8482856200227e565b600062001693620015738462002084565b905082815260208101848484011115620016ac57600080fd5b62000bdd8482856200228a565b8035620005fc816200234d565b600082601f830112620016d7578081fd5b8135620005ea84826020860162001562565b600082601f830112620016fa578081fd5b8135620005ea848260208601620015ec565b8035620005fc8162002364565b8035620005fc816200236d565b600082601f83011262001737578081fd5b8135620005ea8482602086016200164b565b600082601f8301126200175a578081fd5b8151620005ea84826020860162001682565b600060e082840312156200177e578081fd5b6200178a60a06200203e565b825190915067ffffffffffffffff811115620017a557600080fd5b620017b38482850162001811565b8252506020620017c684848301620018a6565b908201526080620017da8484830162001913565b604083015260a0620017ef8582860162001913565b60608401525060c0620018058582860162001913565b82840152505092915050565b60006060828403121562001823578081fd5b6200182f60606200203e565b905060006200183f848462001913565b81830152602083015167ffffffffffffffff8111156200185d578182fd5b6200186b8582860162001749565b602084015250604083015167ffffffffffffffff8111156200188b578182fd5b620018998582860162001749565b6040840152505092915050565b600060608284031215620018b8578081fd5b620018c460606200203e565b90506000620018d4848462001913565b908201526020620018e88484830162001913565b908201526040620018fc8484830162001913565b9082015292915050565b8035620005fc8162002378565b8051620005fc8162002378565b60006020828403121562001932578081fd5b62000db283828401620016b9565b6000806040838503121562001953578081fd5b6200196184828501620016b9565b91506020620019738582860162001906565b9150509250929050565b600080600080600060a0868803121562001995578081fd5b8086013567ffffffffffffffff811115620019ae578182fd5b620019bc88828901620016e9565b955050602086013567ffffffffffffffff811115620019d9578182fd5b620019e788828901620016c6565b945050604086013567ffffffffffffffff81111562001a04578182fd5b62001a1288828901620016c6565b935050606086013567ffffffffffffffff81111562001a2f578182fd5b62001a3d88828901620016e9565b925050608086013567ffffffffffffffff81111562001a5a578182fd5b62001a6888828901620016e9565b9150509295509295909350565b6000806040838503121562001a88578182fd5b8183013567ffffffffffffffff81111562001aa1578283fd5b62001aaf85828601620016e9565b925050602083013567ffffffffffffffff81111562001acc578182fd5b6200197385828601620016e9565b60006020828403121562001aec578081fd5b62000db28382840162001719565b60006020828403121562001b0c578081fd5b8082015167ffffffffffffffff81111562001b25578182fd5b620005ea848285016200176c565b60006020828403121562001b45578081fd5b62000db28382840162001906565b60006020828403121562001b65578081fd5b62000db28382840162001913565b6000806040838503121562001b86578182fd5b62001b948483850162001906565b915060206200197385828601620016b9565b6000806000806080858703121562001bbc578182fd5b62001bca8683870162001906565b9350602062001bdc87828801620016b9565b935050604062001bef8782880162001906565b925050606062001c02878288016200170c565b91505092959194509250565b62001c1a828262001cf4565b5060200190565b600062000db2838362001e4c565b62001c3a816200225f565b82525050565b600062001c4b825190565b8084526020938401938301825b8281101562001c8157815162001c6f878262001c0e565b96505060208201915060010162001c58565b5093949350505050565b600062001c96825190565b8084526020840193508360208202850162001cb18560200190565b845b8481101562001ce8578383038852815162001ccf848262001c21565b9350506020820160209890980197915060010162001cb3565b50909695505050505050565b62001c3a8162002271565b600062001d0a825190565b80845260208401935062001d238185602086016200228a565b601f01601f19169290920192915050565b60268152602081017f4f776e61626c653a206e6577206f776e657220697320746865207a65726f206181527f6464726573730000000000000000000000000000000000000000000000000000602082015290505b60400190565b602d8152602081017f506f6b656d6f6e466163746f72793a2063616c6c6572206973206e6f7420746881527f65206974656d41646472657373000000000000000000000000000000000000006020820152905062001d88565b60208082527f4f776e61626c653a2063616c6c6572206973206e6f7420746865206f776e657291019081525b60200190565b60028152602081017f47540000000000000000000000000000000000000000000000000000000000008152905062001e13565b805160e08084526000919084019062001e66828262001ebc565b915050602083015162001e7d602086018262001f08565b50604083015162001e92608086018262001f3b565b50606083015162001ea760a086018262001f3b565b50608083015162000bdd60c086018262001f3b565b8051600090606084019062001ed2858262001f3b565b506020830151848203602086015262001eec828262001cff565b9150506040830151848203604086015262000793828262001cff565b805162001f16838262001f3b565b50602081015162001f2b602084018262001f3b565b50604081015162000e6460408401825b8062001c3a565b60208101620005fc828462001c2f565b6020808252810162000db2818462001c40565b6020808252810162000db2818462001c8b565b60208101620005fc828462001cf4565b60208082528101620005fc8162001d34565b60208082528101620005fc8162001d8e565b60208082528101620005fc8162001de7565b60208082528101620005fc8162001e19565b6020808252810162000db2818462001e4c565b60208101620005fc828462001f3b565b60c0810162002003828762001f3b565b818103602083015262002017818662001cff565b905081810360408301526200202d818562001cff565b905062000793606083018462001f08565b60006200204a60405190565b9050620020588282620022bd565b919050565b600067ffffffffffffffff8211156200207a576200207a62002337565b5060209081020190565b600067ffffffffffffffff821115620020a157620020a162002337565b601f19601f83011660200192915050565b60008219821115620020c857620020c86200230b565b500190565b600082620020df57620020df62002321565b500490565b80825b60018511156200212a578086048111156200210657620021066200230b565b60018516156200211557908102905b8002620021228560011c90565b9450620020e7565b94509492505050565b60ff82169150600062000db26000198484600082620021555750600162000db2565b81620021645750600062000db2565b81600181146200217d57600281146200218857620021bc565b600191505062000db2565b60ff8411156200219c576200219c6200230b565b8360020a915084821115620021b557620021b56200230b565b5062000db2565b5060208310610133831016604e8410600b8410161715620021f4575081810a83811115620021ee57620021ee6200230b565b62000db2565b620022038484846001620020e4565b925090508184048111156200221c576200221c6200230b565b0292915050565b60008160001904831182151516156200224057620022406200230b565b500290565b6000828210156200225a576200225a6200230b565b500390565b60006001600160a01b038216620005fc565b6000620005fc826200225f565b82818337506000910152565b60005b83811015620022a75781810151838201526020016200228d565b83811115620022b7576000848401525b50505050565b601f19601f830116810181811067ffffffffffffffff82111715620022e657620022e662002337565b6040525050565b60006000198214156200230457620023046200230b565b5060010190565b634e487b7160e01b600052601160045260246000fd5b634e487b7160e01b600052601260045260246000fd5b634e487b7160e01b600052604160045260246000fd5b62002358816200225f565b811462000eca57600080fd5b80151562002358565b620023588162002271565b806200235856fe60806040523480156200001157600080fd5b5060405162001032380380620010328339810160408190526200003491620001fa565b62000042848484846200004c565b5050505062000394565b6000849055825162000066906001906020860190620000a5565b5081516200007c906002906020850190620000a5565b508051600355604081015160055560200151600455505060016006555060006007819055600855565b828054620000b39062000308565b90600052602060002090601f016020900481019282620000d7576000855562000122565b82601f10620000f257805160ff191683800117855562000122565b8280016001018555821562000122579182015b828111156200012257825182559160200191906001019062000105565b506200013092915062000134565b5090565b5b8082111562000130576000815560010162000135565b6000620001626200015c84620002a8565b62000289565b9050828152602081018484840111156200017b57600080fd5b62000188848285620002d5565b509392505050565b600082601f830112620001a1578081fd5b8151620001b38482602086016200014b565b949350505050565b600060608284031215620001cd578081fd5b620001d9606062000289565b82518152602080840151908201526040928301519281019290925250919050565b60008060008060c0858703121562000210578384fd5b8484015160208601519094506001600160401b0381111562000230578384fd5b6200023e8782880162000190565b604087015190945090506001600160401b038111156200025c578283fd5b6200026a8782880162000190565b92505060606200027d87828801620001bb565b91505092959194509250565b60006200029560405190565b9050620002a3828262000339565b919050565b60006001600160401b03821115620002c457620002c46200037e565b601f19601f83011660200192915050565b60005b83811015620002f2578181015183820152602001620002d8565b8381111562000302576000848401525b50505050565b6002810460018216806200031d57607f821691505b6020821081141562000333576200033362000368565b50919050565b601f19601f83011681016001600160401b03811182821017156200036157620003616200037e565b6040525050565b634e487b7160e01b600052602260045260246000fd5b634e487b7160e01b600052604160045260246000fd5b610c8e80620003a46000396000f3fe608060405234801561001057600080fd5b50600436106101775760003560e01c80638ce802e0116100d8578063c59d48471161008c578063ed73fc4b11610066578063ed73fc4b146102c3578063ede641a4146102cb578063f6a0e867146102de57600080fd5b8063c59d484714610293578063cdb986cc146102a8578063e2b76736146102b057600080fd5b8063a5985e8c116100bd578063a5985e8c14610270578063abd708ef14610278578063b2823c9f1461028057600080fd5b80638ce802e0146102395780639be55e001461025d57600080fd5b806346bd9a661161012f5780635a9b0b89116101145780635a9b0b89146102035780635d1ca6311461021857806373d4a13a1461022057600080fd5b806346bd9a66146101e85780635143e01a146101f057600080fd5b806317d7de7c1161016057806317d7de7c146101a4578063296f23f9146101c25780633bc5de30146101d357600080fd5b806306d8652f1461017c5780630b5270a714610191575b600080fd5b61018f61018a366004610983565b600455565b005b61018f61019f366004610983565b600655565b6101ac6102e6565b6040516101b99190610a96565b60405180910390f35b6004545b6040516101b99190610b4c565b6101db61037a565b6040516101b99190610aa7565b6101ac61051e565b61018f6101fe366004610983565b600555565b61020b61052f565b6040516101b99190610ab8565b6000546101c6565b610228610690565b6040516101b9959493929190610ac9565b61018f61024736600461095f565b8051600355602081015160045560400151600555565b61018f61026b366004610983565b600855565b6006546101c6565b6003546101c6565b61018f61028e366004610983565b610810565b61029b61084d565b6040516101b99190610b2b565b6007546101c6565b61018f6102be366004610983565b600355565b6008546101c6565b61018f6102d9366004610983565b600755565b6005546101c6565b60018054606091906102f790610bbc565b80601f016020809104026020016040519081016040528092919081815260200182805461032390610bbc565b80156103705780601f1061034557610100808354040283529160200191610370565b820191906000526020600020905b81548152906001019060200180831161035357829003601f168201915b5050505050905090565b610382610896565b6040805161010081019091526000805460a0830190815260018054849291849160c0850191906103b190610bbc565b80601f01602080910402602001604051908101604052809291908181526020018280546103dd90610bbc565b801561042a5780601f106103ff5761010080835404028352916020019161042a565b820191906000526020600020905b81548152906001019060200180831161040d57829003601f168201915b5050505050815260200160028201805461044390610bbc565b80601f016020809104026020016040519081016040528092919081815260200182805461046f90610bbc565b80156104bc5780601f10610491576101008083540402835291602001916104bc565b820191906000526020600020905b81548152906001019060200180831161049f57829003601f168201915b505050505081525050815260200160038201604051806060016040529081600082015481526020016001820154815260200160028201548152505081526020016006820154815260200160078201548152602001600882015481525050905090565b60028054606091906102f790610bbc565b61055360405180606001604052806000815260200160608152602001606081525090565b60408051606081019091526000805482526001805460208401919061057790610bbc565b80601f01602080910402602001604051908101604052809291908181526020018280546105a390610bbc565b80156105f05780601f106105c5576101008083540402835291602001916105f0565b820191906000526020600020905b8154815290600101906020018083116105d357829003601f168201915b5050505050815260200160028201805461060990610bbc565b80601f016020809104026020016040519081016040528092919081815260200182805461063590610bbc565b80156106825780601f1061065757610100808354040283529160200191610682565b820191906000526020600020905b81548152906001019060200180831161066557829003601f168201915b505050505081525050905090565b600080600001604051806060016040529081600082015481526020016001820180546106bb90610bbc565b80601f01602080910402602001604051908101604052809291908181526020018280546106e790610bbc565b80156107345780601f1061070957610100808354040283529160200191610734565b820191906000526020600020905b81548152906001019060200180831161071757829003601f168201915b5050505050815260200160028201805461074d90610bbc565b80601f016020809104026020016040519081016040528092919081815260200182805461077990610bbc565b80156107c65780601f1061079b576101008083540402835291602001916107c6565b820191906000526020600020905b8154815290600101906020018083116107a957829003601f168201915b505050919092525050604080516060810182526003850154815260048501546020820152600585015491810191909152600684015460078501546008909501549394919390925085565b600454600354610821908390610b74565b11156108305760045460035550565b60038054829190600090610845908490610b74565b909155505050565b61087160405180606001604052806000815260200160008152602001600081525090565b5060408051606081018252600354815260045460208201526005549181019190915290565b604080516101008101909152600060a08201908152606060c0830181905260e0830152819081526020016108e460405180606001604052806000815260200160008152602001600081525090565b81526020016000815260200160008152602001600081525090565b600060608284031215610910578081fd5b61091a6060610b58565b905060006109288484610956565b90820152602061093a84848301610956565b90820152604061094c84848301610956565b9082015292915050565b80355b92915050565b600060608284031215610970578081fd5b61097c838284016108ff565b9392505050565b600060208284031215610994578081fd5b61097c83828401610956565b60006109aa825190565b8084526020840193506109c1818560208601610b8c565b601f01601f19169290920192915050565b805160e0808452600091908401906109ea8282610a51565b9150506020830151610a1360208601828051825260208082015190830152604090810151910152565b506040830151610a2560808601829052565b506060830151610a3760a08601829052565b506080830151610a4960c08601829052565b509392505050565b805182526020808201516060918401829052600091840190610a7382826109a0565b91505060408301518482036040860152610a8d82826109a0565b95945050505050565b6020808252810161097c81846109a0565b6020808252810161097c81846109d2565b6020808252810161097c8184610a51565b60e08082528101610ada8188610a51565b9050610afd60208301878051825260208082015190830152604090810151910152565b610b0960808301869052565b610b1560a08301859052565b610b2160c08301849052565b9695505050505050565b81518152602080830151908201526040808301519082015260608101610959565b81815260208101610959565b6000610b6360405190565b9050610b6f8282610be9565b919050565b60008219821115610b8757610b87610c16565b500190565b60005b83811015610ba7578181015183820152602001610b8f565b83811115610bb6576000848401525b50505050565b600281046001821680610bd057607f821691505b60208210811415610be357610be3610c2c565b50919050565b601f19601f830116810181811067ffffffffffffffff82111715610c0f57610c0f610c42565b6040525050565b634e487b7160e01b600052601160045260246000fd5b634e487b7160e01b600052602260045260246000fd5b634e487b7160e01b600052604160045260246000fdfea26469706673582212207655b06cba78ea27b04919a2ce7b54bcfc2052ee52986a7eb1548b5419940a0c64736f6c63430008040033a2646970667358221220230eed48efb55aab9937e790c83f6d05956ae3327072577168755ec6b1ce7ac264736f6c63430008040033",
  "linkReferences": {},
  "deployedLinkReferences": {}
}