{
  "_format": "hh-sol-artifact-1",
  "contractName": "ItemData",
  "sourceName": "contracts/Item/ItemData.sol",
  "abi": [
    {
      "inputs": [
        {
          "internalType": "uint256",
          "name": "id",
          "type": "uint256"
        },
        {
          "internalType": "string",
          "name": "category",
          "type": "string"
        },
        {
          "internalType": "string",
          "name": "name",
          "type": "string"
        },
        {
          "internalType": "string",
          "name": "description",
          "type": "string"
        },
        {
          "internalType": "string",
          "name": "imageURI",
          "type": "string"
        },
        {
          "internalType": "uint256",
          "name": "cost",
          "type": "uint256"
        },
        {
          "internalType": "uint256",
          "name": "effect",
          "type": "uint256"
        }
      ],
      "stateMutability": "nonpayable",
      "type": "constructor"
    },
    {
      "inputs": [
        {
          "internalType": "uint256",
          "name": "cost",
          "type": "uint256"
        }
      ],
      "name": "changeCost",
      "outputs": [],
      "stateMutability": "nonpayable",
      "type": "function"
    },
    {
      "inputs": [
        {
          "internalType": "uint256",
          "name": "id",
          "type": "uint256"
        },
        {
          "internalType": "string",
          "name": "category",
          "type": "string"
        },
        {
          "internalType": "string",
          "name": "name",
          "type": "string"
        },
        {
          "internalType": "string",
          "name": "description",
          "type": "string"
        },
        {
          "internalType": "string",
          "name": "imageURI",
          "type": "string"
        },
        {
          "internalType": "uint256",
          "name": "cost",
          "type": "uint256"
        },
        {
          "internalType": "uint256",
          "name": "effect",
          "type": "uint256"
        }
      ],
      "name": "createItemData",
      "outputs": [],
      "stateMutability": "nonpayable",
      "type": "function"
    },
    {
      "inputs": [],
      "name": "data",
      "outputs": [
        {
          "components": [
            {
              "internalType": "uint256",
              "name": "id",
              "type": "uint256"
            },
            {
              "internalType": "string",
              "name": "category",
              "type": "string"
            },
            {
              "internalType": "string",
              "name": "name",
              "type": "string"
            },
            {
              "internalType": "string",
              "name": "description",
              "type": "string"
            },
            {
              "internalType": "string",
              "name": "imageURI",
              "type": "string"
            },
            {
              "internalType": "uint256",
              "name": "effect",
              "type": "uint256"
            }
          ],
          "internalType": "struct LItemData.Info",
          "name": "info",
          "type": "tuple"
        },
        {
          "internalType": "uint256",
          "name": "cost",
          "type": "uint256"
        },
        {
          "internalType": "uint256",
          "name": "amount",
          "type": "uint256"
        }
      ],
      "stateMutability": "view",
      "type": "function"
    },
    {
      "inputs": [],
      "name": "getCategory",
      "outputs": [
        {
          "internalType": "string",
          "name": "",
          "type": "string"
        }
      ],
      "stateMutability": "view",
      "type": "function"
    },
    {
      "inputs": [],
      "name": "getCost",
      "outputs": [
        {
          "internalType": "uint256",
          "name": "",
          "type": "uint256"
        }
      ],
      "stateMutability": "view",
      "type": "function"
    },
    {
      "inputs": [],
      "name": "getData",
      "outputs": [
        {
          "components": [
            {
              "components": [
                {
                  "internalType": "uint256",
                  "name": "id",
                  "type": "uint256"
                },
                {
                  "internalType": "string",
                  "name": "category",
                  "type": "string"
                },
                {
                  "internalType": "string",
                  "name": "name",
                  "type": "string"
                },
                {
                  "internalType": "string",
                  "name": "description",
                  "type": "string"
                },
                {
                  "internalType": "string",
                  "name": "imageURI",
                  "type": "string"
                },
                {
                  "internalType": "uint256",
                  "name": "effect",
                  "type": "uint256"
                }
              ],
              "internalType": "struct LItemData.Info",
              "name": "info",
              "type": "tuple"
            },
            {
              "internalType": "uint256",
              "name": "cost",
              "type": "uint256"
            },
            {
              "internalType": "uint256",
              "name": "amount",
              "type": "uint256"
            }
          ],
          "internalType": "struct LItemData.Data",
          "name": "",
          "type": "tuple"
        }
      ],
      "stateMutability": "view",
      "type": "function"
    },
    {
      "inputs": [],
      "name": "getDescription",
      "outputs": [
        {
          "internalType": "string",
          "name": "",
          "type": "string"
        }
      ],
      "stateMutability": "view",
      "type": "function"
    },
    {
      "inputs": [],
      "name": "getEffect",
      "outputs": [
        {
          "internalType": "uint256",
          "name": "",
          "type": "uint256"
        }
      ],
      "stateMutability": "view",
      "type": "function"
    },
    {
      "inputs": [],
      "name": "getId",
      "outputs": [
        {
          "internalType": "uint256",
          "name": "",
          "type": "uint256"
        }
      ],
      "stateMutability": "view",
      "type": "function"
    },
    {
      "inputs": [],
      "name": "getImageUri",
      "outputs": [
        {
          "internalType": "string",
          "name": "",
          "type": "string"
        }
      ],
      "stateMutability": "view",
      "type": "function"
    },
    {
      "inputs": [],
      "name": "getInfo",
      "outputs": [
        {
          "components": [
            {
              "internalType": "uint256",
              "name": "id",
              "type": "uint256"
            },
            {
              "internalType": "string",
              "name": "category",
              "type": "string"
            },
            {
              "internalType": "string",
              "name": "name",
              "type": "string"
            },
            {
              "internalType": "string",
              "name": "description",
              "type": "string"
            },
            {
              "internalType": "string",
              "name": "imageURI",
              "type": "string"
            },
            {
              "internalType": "uint256",
              "name": "effect",
              "type": "uint256"
            }
          ],
          "internalType": "struct LItemData.Info",
          "name": "",
          "type": "tuple"
        }
      ],
      "stateMutability": "view",
      "type": "function"
    },
    {
      "inputs": [],
      "name": "getName",
      "outputs": [
        {
          "internalType": "string",
          "name": "",
          "type": "string"
        }
      ],
      "stateMutability": "view",
      "type": "function"
    }
  ],
  "bytecode": "0x60806040523480156200001157600080fd5b50604051620013a7380380620013a78339810160408190526200003491620001d7565b620000458787878787878762000052565b50505050505050620003cf565b600087905585516200006c906001906020890190620000c1565b50845162000082906002906020880190620000c1565b50835162000098906003906020870190620000c1565b508251620000ae906004906020860190620000c1565b5060055560065550506000600755505050565b828054620000cf9062000343565b90600052602060002090601f016020900481019282620000f357600085556200013e565b82601f106200010e57805160ff19168380011785556200013e565b828001600101855582156200013e579182015b828111156200013e57825182559160200191906001019062000121565b506200014c92915062000150565b5090565b5b808211156200014c576000815560010162000151565b60006200017e6200017884620002e3565b620002c4565b9050828152602081018484840111156200019757600080fd5b620001a484828562000310565b509392505050565b600082601f830112620001bd578081fd5b8151620001cf84826020860162000167565b949350505050565b600080600080600080600060e0888a031215620001f2578283fd5b8783015160208901519097506001600160401b0381111562000212578384fd5b620002208a828b01620001ac565b60408a015190975090506001600160401b038111156200023e578384fd5b6200024c8a828b01620001ac565b60608a015190965090506001600160401b038111156200026a578384fd5b620002788a828b01620001ac565b60808a015190955090506001600160401b0381111562000296578384fd5b620002a48a828b01620001ac565b60a08a015160c0909a0151989b979a509598949795969495949350505050565b6000620002d060405190565b9050620002de828262000374565b919050565b60006001600160401b03821115620002ff57620002ff620003b9565b601f19601f83011660200192915050565b60005b838110156200032d57818101518382015260200162000313565b838111156200033d576000848401525b50505050565b6002810460018216806200035857607f821691505b602082108114156200036e576200036e620003a3565b50919050565b601f19601f83011681016001600160401b03811182821017156200039c576200039c620003b9565b6040525050565b634e487b7160e01b600052602260045260246000fd5b634e487b7160e01b600052604160045260246000fd5b610fc880620003df6000396000f3fe608060405234801561001057600080fd5b50600436106100d45760003560e01c80635d1ca631116100815780638e41a9cf1161005b5780638e41a9cf14610176578063bd3e19d41461017e578063eb9770b61461018657600080fd5b80635d1ca6311461014657806373d4a13a1461015757806380258e471461016e57600080fd5b806346bd9a66116100b257806346bd9a66146101145780635a9b0b891461011c5780635cb85cd21461013157600080fd5b806317d7de7c146100d95780631a092541146100f75780633bc5de30146100ff575b600080fd5b6100e1610199565b6040516100ee9190610ded565b60405180910390f35b6100e161022d565b61010761023e565b6040516100ee9190610dfe565b6100e16104d4565b6101246104e5565b6040516100ee9190610e0f565b61014461013f366004610bdf565b600655565b005b6000545b6040516100ee9190610e4b565b61015f610789565b6040516100ee93929190610e20565b6100e1610a07565b60055461014a565b60065461014a565b610144610194366004610c03565b610a18565b60028054606091906101aa90610eda565b80601f01602080910402602001604051908101604052809291908181526020018280546101d690610eda565b80156102235780601f106101f857610100808354040283529160200191610223565b820191906000526020600020905b81548152906001019060200180831161020657829003601f168201915b5050505050905090565b60038054606091906101aa90610eda565b610246610a7f565b604080516101208101909152600080546060830190815260018054849291849160808501919061027590610eda565b80601f01602080910402602001604051908101604052809291908181526020018280546102a190610eda565b80156102ee5780601f106102c3576101008083540402835291602001916102ee565b820191906000526020600020905b8154815290600101906020018083116102d157829003601f168201915b5050505050815260200160028201805461030790610eda565b80601f016020809104026020016040519081016040528092919081815260200182805461033390610eda565b80156103805780601f1061035557610100808354040283529160200191610380565b820191906000526020600020905b81548152906001019060200180831161036357829003601f168201915b5050505050815260200160038201805461039990610eda565b80601f01602080910402602001604051908101604052809291908181526020018280546103c590610eda565b80156104125780601f106103e757610100808354040283529160200191610412565b820191906000526020600020905b8154815290600101906020018083116103f557829003601f168201915b5050505050815260200160048201805461042b90610eda565b80601f016020809104026020016040519081016040528092919081815260200182805461045790610eda565b80156104a45780601f10610479576101008083540402835291602001916104a4565b820191906000526020600020905b81548152906001019060200180831161048757829003601f168201915b50505050508152602001600582015481525050815260200160068201548152602001600782015481525050905090565b60048054606091906101aa90610eda565b61051e6040518060c001604052806000815260200160608152602001606081526020016060815260200160608152602001600081525090565b6040805160c081019091526000805482526001805460208401919061054290610eda565b80601f016020809104026020016040519081016040528092919081815260200182805461056e90610eda565b80156105bb5780601f10610590576101008083540402835291602001916105bb565b820191906000526020600020905b81548152906001019060200180831161059e57829003601f168201915b505050505081526020016002820180546105d490610eda565b80601f016020809104026020016040519081016040528092919081815260200182805461060090610eda565b801561064d5780601f106106225761010080835404028352916020019161064d565b820191906000526020600020905b81548152906001019060200180831161063057829003601f168201915b5050505050815260200160038201805461066690610eda565b80601f016020809104026020016040519081016040528092919081815260200182805461069290610eda565b80156106df5780601f106106b4576101008083540402835291602001916106df565b820191906000526020600020905b8154815290600101906020018083116106c257829003601f168201915b505050505081526020016004820180546106f890610eda565b80601f016020809104026020016040519081016040528092919081815260200182805461072490610eda565b80156107715780601f1061074657610100808354040283529160200191610771565b820191906000526020600020905b81548152906001019060200180831161075457829003601f168201915b50505050508152602001600582015481525050905090565b6000806000016040518060c0016040529081600082015481526020016001820180546107b490610eda565b80601f01602080910402602001604051908101604052809291908181526020018280546107e090610eda565b801561082d5780601f106108025761010080835404028352916020019161082d565b820191906000526020600020905b81548152906001019060200180831161081057829003601f168201915b5050505050815260200160028201805461084690610eda565b80601f016020809104026020016040519081016040528092919081815260200182805461087290610eda565b80156108bf5780601f10610894576101008083540402835291602001916108bf565b820191906000526020600020905b8154815290600101906020018083116108a257829003601f168201915b505050505081526020016003820180546108d890610eda565b80601f016020809104026020016040519081016040528092919081815260200182805461090490610eda565b80156109515780601f1061092657610100808354040283529160200191610951565b820191906000526020600020905b81548152906001019060200180831161093457829003601f168201915b5050505050815260200160048201805461096a90610eda565b80601f016020809104026020016040519081016040528092919081815260200182805461099690610eda565b80156109e35780601f106109b8576101008083540402835291602001916109e3565b820191906000526020600020905b8154815290600101906020018083116109c657829003601f168201915b50505050508152602001600582015481525050908060060154908060070154905083565b60018054606091906101aa90610eda565b60008790558551610a30906001906020890190610ad7565b508451610a44906002906020880190610ad7565b508351610a58906003906020870190610ad7565b508251610a6c906004906020860190610ad7565b5060055560065550506000600755505050565b6040518060600160405280610ac36040518060c001604052806000815260200160608152602001606081526020016060815260200160608152602001600081525090565b815260200160008152602001600081525090565b828054610ae390610eda565b90600052602060002090601f016020900481019282610b055760008555610b4b565b82601f10610b1e57805160ff1916838001178555610b4b565b82800160010185558215610b4b579182015b82811115610b4b578251825591602001919060010190610b30565b50610b57929150610b5b565b5090565b5b80821115610b575760008155600101610b5c565b6000610b83610b7e84610e73565b610e57565b905082815260208101848484011115610b9b57600080fd5b610ba6848285610e9e565b509392505050565b600082601f830112610bbe578081fd5b8135610bce848260208601610b70565b949350505050565b80355b92915050565b600060208284031215610bf0578081fd5b610bfc83828401610bd6565b9392505050565b600080600080600080600060e0888a031215610c1d578283fd5b610c2989848a01610bd6565b9650602088013567ffffffffffffffff811115610c44578384fd5b610c508a828b01610bae565b965050604088013567ffffffffffffffff811115610c6c578384fd5b610c788a828b01610bae565b955050606088013567ffffffffffffffff811115610c94578384fd5b610ca08a828b01610bae565b945050608088013567ffffffffffffffff811115610cbc578384fd5b610cc88a828b01610bae565b93505060a0610cd98a828b01610bd6565b92505060c0610cea8a828b01610bd6565b91505092959891949750929550565b6000610d03825190565b808452602084019350610d1a818560208601610eaa565b601f01601f19169290920192915050565b8051606080845260009190840190610d438282610d69565b9150506020830151610d5760208601829052565b506040830151610ba660408601829052565b8051825260208082015160c0918401829052600091840190610d8b8282610cf9565b91505060408301518482036040860152610da58282610cf9565b91505060608301518482036060860152610dbf8282610cf9565b91505060808301518482036080860152610dd98282610cf9565b91505060a0830151610ba660a08601829052565b60208082528101610bfc8184610cf9565b60208082528101610bfc8184610d2b565b60208082528101610bfc8184610d69565b60608082528101610e318186610d69565b9050610e3f60208301859052565b610bce60408301849052565b81815260208101610bd9565b6000610e6260405190565b9050610e6e8282610f07565b919050565b600067ffffffffffffffff821115610e8d57610e8d610f63565b601f19601f83011660200192915050565b82818337506000910152565b60005b83811015610ec5578181015183820152602001610ead565b83811115610ed4576000848401525b50505050565b600281046001821680610eee57607f821691505b60208210811415610f0157610f01610f34565b50919050565b601f19601f830116810181811067ffffffffffffffff82111715610f2d57610f2d610f63565b6040525050565b7f4e487b7100000000000000000000000000000000000000000000000000000000600052602260045260246000fd5b7f4e487b7100000000000000000000000000000000000000000000000000000000600052604160045260246000fdfea26469706673582212201c55f38692e233af5944616b69b16412db889957ac4e9e26027e478456be2b9c64736f6c63430008040033",
  "linkReferences": {},
  "deployedLinkReferences": {}
}