{
  "_format": "hh-sol-artifact-1",
  "contractName": "Item",
  "sourceName": "contracts/Item/Item.sol",
  "abi": [
    {
      "inputs": [
        {
          "internalType": "uint256[]",
          "name": "itemsIndexes",
          "type": "uint256[]"
        },
        {
          "internalType": "string[]",
          "name": "itemsNames",
          "type": "string[]"
        },
        {
          "internalType": "string[]",
          "name": "itemsDescription",
          "type": "string[]"
        },
        {
          "internalType": "string[]",
          "name": "itemsImageURIs",
          "type": "string[]"
        },
        {
          "internalType": "string[]",
          "name": "itemsCategory",
          "type": "string[]"
        },
        {
          "internalType": "uint256[]",
          "name": "itemsCost",
          "type": "uint256[]"
        },
        {
          "internalType": "uint256[]",
          "name": "itemsEffect",
          "type": "uint256[]"
        }
      ],
      "stateMutability": "nonpayable",
      "type": "constructor"
    },
    {
      "anonymous": false,
      "inputs": [
        {
          "indexed": true,
          "internalType": "address",
          "name": "account",
          "type": "address"
        },
        {
          "indexed": true,
          "internalType": "address",
          "name": "operator",
          "type": "address"
        },
        {
          "indexed": false,
          "internalType": "bool",
          "name": "approved",
          "type": "bool"
        }
      ],
      "name": "ApprovalForAll",
      "type": "event"
    },
    {
      "anonymous": false,
      "inputs": [
        {
          "indexed": true,
          "internalType": "address",
          "name": "previousOwner",
          "type": "address"
        },
        {
          "indexed": true,
          "internalType": "address",
          "name": "newOwner",
          "type": "address"
        }
      ],
      "name": "OwnershipTransferred",
      "type": "event"
    },
    {
      "anonymous": false,
      "inputs": [
        {
          "indexed": true,
          "internalType": "address",
          "name": "operator",
          "type": "address"
        },
        {
          "indexed": true,
          "internalType": "address",
          "name": "from",
          "type": "address"
        },
        {
          "indexed": true,
          "internalType": "address",
          "name": "to",
          "type": "address"
        },
        {
          "indexed": false,
          "internalType": "uint256[]",
          "name": "ids",
          "type": "uint256[]"
        },
        {
          "indexed": false,
          "internalType": "uint256[]",
          "name": "values",
          "type": "uint256[]"
        }
      ],
      "name": "TransferBatch",
      "type": "event"
    },
    {
      "anonymous": false,
      "inputs": [
        {
          "indexed": true,
          "internalType": "address",
          "name": "operator",
          "type": "address"
        },
        {
          "indexed": true,
          "internalType": "address",
          "name": "from",
          "type": "address"
        },
        {
          "indexed": true,
          "internalType": "address",
          "name": "to",
          "type": "address"
        },
        {
          "indexed": false,
          "internalType": "uint256",
          "name": "id",
          "type": "uint256"
        },
        {
          "indexed": false,
          "internalType": "uint256",
          "name": "value",
          "type": "uint256"
        }
      ],
      "name": "TransferSingle",
      "type": "event"
    },
    {
      "anonymous": false,
      "inputs": [
        {
          "indexed": false,
          "internalType": "string",
          "name": "value",
          "type": "string"
        },
        {
          "indexed": true,
          "internalType": "uint256",
          "name": "id",
          "type": "uint256"
        }
      ],
      "name": "URI",
      "type": "event"
    },
    {
      "anonymous": false,
      "inputs": [
        {
          "components": [
            {
              "components": [
                {
                  "internalType": "uint256",
                  "name": "id",
                  "type": "uint256"
                },
                {
                  "internalType": "string",
                  "name": "name",
                  "type": "string"
                },
                {
                  "internalType": "string",
                  "name": "imageURI",
                  "type": "string"
                }
              ],
              "internalType": "struct LPokemonData.Info",
              "name": "info",
              "type": "tuple"
            },
            {
              "components": [
                {
                  "internalType": "uint256",
                  "name": "hp",
                  "type": "uint256"
                },
                {
                  "internalType": "uint256",
                  "name": "maxHp",
                  "type": "uint256"
                },
                {
                  "internalType": "uint256",
                  "name": "attack",
                  "type": "uint256"
                }
              ],
              "internalType": "struct LPokemonData.Stats",
              "name": "stats",
              "type": "tuple"
            },
            {
              "internalType": "uint256",
              "name": "level",
              "type": "uint256"
            },
            {
              "internalType": "uint256",
              "name": "experience",
              "type": "uint256"
            },
            {
              "internalType": "uint256",
              "name": "totalExperience",
              "type": "uint256"
            }
          ],
          "indexed": false,
          "internalType": "struct LPokemonData.Data",
          "name": "pokemon",
          "type": "tuple"
        },
        {
          "components": [
            {
              "components": [
                {
                  "internalType": "uint256",
                  "name": "id",
                  "type": "uint256"
                },
                {
                  "internalType": "string",
                  "name": "category",
                  "type": "string"
                },
                {
                  "internalType": "string",
                  "name": "name",
                  "type": "string"
                },
                {
                  "internalType": "string",
                  "name": "description",
                  "type": "string"
                },
                {
                  "internalType": "string",
                  "name": "imageURI",
                  "type": "string"
                },
                {
                  "internalType": "uint256",
                  "name": "effect",
                  "type": "uint256"
                }
              ],
              "internalType": "struct LItemData.Info",
              "name": "info",
              "type": "tuple"
            },
            {
              "internalType": "uint256",
              "name": "cost",
              "type": "uint256"
            },
            {
              "internalType": "uint256",
              "name": "amount",
              "type": "uint256"
            }
          ],
          "indexed": false,
          "internalType": "struct LItemData.Data",
          "name": "item",
          "type": "tuple"
        },
        {
          "indexed": false,
          "internalType": "address",
          "name": "sender",
          "type": "address"
        },
        {
          "indexed": false,
          "internalType": "uint256",
          "name": "timestamp",
          "type": "uint256"
        }
      ],
      "name": "UseItem",
      "type": "event"
    },
    {
      "inputs": [
        {
          "internalType": "address",
          "name": "",
          "type": "address"
        },
        {
          "internalType": "uint256",
          "name": "",
          "type": "uint256"
        }
      ],
      "name": "_itemsOfHolder",
      "outputs": [
        {
          "internalType": "uint256",
          "name": "id",
          "type": "uint256"
        },
        {
          "internalType": "uint256",
          "name": "amount",
          "type": "uint256"
        }
      ],
      "stateMutability": "view",
      "type": "function"
    },
    {
      "inputs": [
        {
          "internalType": "address",
          "name": "account",
          "type": "address"
        },
        {
          "internalType": "uint256",
          "name": "id",
          "type": "uint256"
        }
      ],
      "name": "balanceOf",
      "outputs": [
        {
          "internalType": "uint256",
          "name": "",
          "type": "uint256"
        }
      ],
      "stateMutability": "view",
      "type": "function"
    },
    {
      "inputs": [
        {
          "internalType": "address[]",
          "name": "accounts",
          "type": "address[]"
        },
        {
          "internalType": "uint256[]",
          "name": "ids",
          "type": "uint256[]"
        }
      ],
      "name": "balanceOfBatch",
      "outputs": [
        {
          "internalType": "uint256[]",
          "name": "",
          "type": "uint256[]"
        }
      ],
      "stateMutability": "view",
      "type": "function"
    },
    {
      "inputs": [
        {
          "internalType": "address",
          "name": "account",
          "type": "address"
        },
        {
          "internalType": "uint256",
          "name": "id",
          "type": "uint256"
        },
        {
          "internalType": "uint256",
          "name": "value",
          "type": "uint256"
        }
      ],
      "name": "burn",
      "outputs": [],
      "stateMutability": "nonpayable",
      "type": "function"
    },
    {
      "inputs": [
        {
          "internalType": "address",
          "name": "account",
          "type": "address"
        },
        {
          "internalType": "uint256[]",
          "name": "ids",
          "type": "uint256[]"
        },
        {
          "internalType": "uint256[]",
          "name": "values",
          "type": "uint256[]"
        }
      ],
      "name": "burnBatch",
      "outputs": [],
      "stateMutability": "nonpayable",
      "type": "function"
    },
    {
      "inputs": [],
      "name": "getAllItems",
      "outputs": [
        {
          "components": [
            {
              "components": [
                {
                  "internalType": "uint256",
                  "name": "id",
                  "type": "uint256"
                },
                {
                  "internalType": "string",
                  "name": "category",
                  "type": "string"
                },
                {
                  "internalType": "string",
                  "name": "name",
                  "type": "string"
                },
                {
                  "internalType": "string",
                  "name": "description",
                  "type": "string"
                },
                {
                  "internalType": "string",
                  "name": "imageURI",
                  "type": "string"
                },
                {
                  "internalType": "uint256",
                  "name": "effect",
                  "type": "uint256"
                }
              ],
              "internalType": "struct LItemData.Info",
              "name": "info",
              "type": "tuple"
            },
            {
              "internalType": "uint256",
              "name": "cost",
              "type": "uint256"
            },
            {
              "internalType": "uint256",
              "name": "amount",
              "type": "uint256"
            }
          ],
          "internalType": "struct LItemData.Data[]",
          "name": "",
          "type": "tuple[]"
        }
      ],
      "stateMutability": "view",
      "type": "function"
    },
    {
      "inputs": [
        {
          "internalType": "uint256",
          "name": "id",
          "type": "uint256"
        }
      ],
      "name": "getItem",
      "outputs": [
        {
          "internalType": "contract ItemData",
          "name": "",
          "type": "address"
        }
      ],
      "stateMutability": "view",
      "type": "function"
    },
    {
      "inputs": [
        {
          "internalType": "uint256",
          "name": "tokenId",
          "type": "uint256"
        }
      ],
      "name": "getItemNft",
      "outputs": [
        {
          "internalType": "contract ItemData",
          "name": "",
          "type": "address"
        }
      ],
      "stateMutability": "view",
      "type": "function"
    },
    {
      "inputs": [
        {
          "internalType": "contract ItemData",
          "name": "itemData",
          "type": "address"
        }
      ],
      "name": "getItemReadable",
      "outputs": [
        {
          "components": [
            {
              "components": [
                {
                  "internalType": "uint256",
                  "name": "id",
                  "type": "uint256"
                },
                {
                  "internalType": "string",
                  "name": "category",
                  "type": "string"
                },
                {
                  "internalType": "string",
                  "name": "name",
                  "type": "string"
                },
                {
                  "internalType": "string",
                  "name": "description",
                  "type": "string"
                },
                {
                  "internalType": "string",
                  "name": "imageURI",
                  "type": "string"
                },
                {
                  "internalType": "uint256",
                  "name": "effect",
                  "type": "uint256"
                }
              ],
              "internalType": "struct LItemData.Info",
              "name": "info",
              "type": "tuple"
            },
            {
              "internalType": "uint256",
              "name": "cost",
              "type": "uint256"
            },
            {
              "internalType": "uint256",
              "name": "amount",
              "type": "uint256"
            }
          ],
          "internalType": "struct LItemData.Data",
          "name": "",
          "type": "tuple"
        }
      ],
      "stateMutability": "view",
      "type": "function"
    },
    {
      "inputs": [
        {
          "internalType": "address",
          "name": "sender",
          "type": "address"
        }
      ],
      "name": "getItemsOf",
      "outputs": [
        {
          "components": [
            {
              "components": [
                {
                  "internalType": "uint256",
                  "name": "id",
                  "type": "uint256"
                },
                {
                  "internalType": "string",
                  "name": "category",
                  "type": "string"
                },
                {
                  "internalType": "string",
                  "name": "name",
                  "type": "string"
                },
                {
                  "internalType": "string",
                  "name": "description",
                  "type": "string"
                },
                {
                  "internalType": "string",
                  "name": "imageURI",
                  "type": "string"
                },
                {
                  "internalType": "uint256",
                  "name": "effect",
                  "type": "uint256"
                }
              ],
              "internalType": "struct LItemData.Info",
              "name": "info",
              "type": "tuple"
            },
            {
              "internalType": "uint256",
              "name": "cost",
              "type": "uint256"
            },
            {
              "internalType": "uint256",
              "name": "amount",
              "type": "uint256"
            }
          ],
          "internalType": "struct LItemData.Data[]",
          "name": "",
          "type": "tuple[]"
        }
      ],
      "stateMutability": "view",
      "type": "function"
    },
    {
      "inputs": [],
      "name": "getTotalItems",
      "outputs": [
        {
          "internalType": "uint256",
          "name": "",
          "type": "uint256"
        }
      ],
      "stateMutability": "view",
      "type": "function"
    },
    {
      "inputs": [
        {
          "internalType": "address",
          "name": "account",
          "type": "address"
        },
        {
          "internalType": "address",
          "name": "operator",
          "type": "address"
        }
      ],
      "name": "isApprovedForAll",
      "outputs": [
        {
          "internalType": "bool",
          "name": "",
          "type": "bool"
        }
      ],
      "stateMutability": "view",
      "type": "function"
    },
    {
      "inputs": [
        {
          "internalType": "address",
          "name": "account",
          "type": "address"
        },
        {
          "internalType": "uint256",
          "name": "id",
          "type": "uint256"
        },
        {
          "internalType": "uint256",
          "name": "amount",
          "type": "uint256"
        }
      ],
      "name": "mint",
      "outputs": [],
      "stateMutability": "nonpayable",
      "type": "function"
    },
    {
      "inputs": [
        {
          "internalType": "address",
          "name": "account",
          "type": "address"
        },
        {
          "internalType": "uint256[]",
          "name": "ids",
          "type": "uint256[]"
        },
        {
          "internalType": "uint256[]",
          "name": "amounts",
          "type": "uint256[]"
        }
      ],
      "name": "mintBatch",
      "outputs": [],
      "stateMutability": "nonpayable",
      "type": "function"
    },
    {
      "inputs": [],
      "name": "owner",
      "outputs": [
        {
          "internalType": "address",
          "name": "",
          "type": "address"
        }
      ],
      "stateMutability": "view",
      "type": "function"
    },
    {
      "inputs": [],
      "name": "renounceOwnership",
      "outputs": [],
      "stateMutability": "nonpayable",
      "type": "function"
    },
    {
      "inputs": [
        {
          "internalType": "address",
          "name": "from",
          "type": "address"
        },
        {
          "internalType": "address",
          "name": "to",
          "type": "address"
        },
        {
          "internalType": "uint256[]",
          "name": "ids",
          "type": "uint256[]"
        },
        {
          "internalType": "uint256[]",
          "name": "amounts",
          "type": "uint256[]"
        },
        {
          "internalType": "bytes",
          "name": "data",
          "type": "bytes"
        }
      ],
      "name": "safeBatchTransferFrom",
      "outputs": [],
      "stateMutability": "nonpayable",
      "type": "function"
    },
    {
      "inputs": [
        {
          "internalType": "address",
          "name": "from",
          "type": "address"
        },
        {
          "internalType": "address",
          "name": "to",
          "type": "address"
        },
        {
          "internalType": "uint256",
          "name": "id",
          "type": "uint256"
        },
        {
          "internalType": "uint256",
          "name": "amount",
          "type": "uint256"
        },
        {
          "internalType": "bytes",
          "name": "data",
          "type": "bytes"
        }
      ],
      "name": "safeTransferFrom",
      "outputs": [],
      "stateMutability": "nonpayable",
      "type": "function"
    },
    {
      "inputs": [
        {
          "internalType": "address",
          "name": "operator",
          "type": "address"
        },
        {
          "internalType": "bool",
          "name": "approved",
          "type": "bool"
        }
      ],
      "name": "setApprovalForAll",
      "outputs": [],
      "stateMutability": "nonpayable",
      "type": "function"
    },
    {
      "inputs": [
        {
          "internalType": "string",
          "name": "newuri",
          "type": "string"
        }
      ],
      "name": "setURI",
      "outputs": [],
      "stateMutability": "nonpayable",
      "type": "function"
    },
    {
      "inputs": [
        {
          "internalType": "bytes4",
          "name": "interfaceId",
          "type": "bytes4"
        }
      ],
      "name": "supportsInterface",
      "outputs": [
        {
          "internalType": "bool",
          "name": "",
          "type": "bool"
        }
      ],
      "stateMutability": "view",
      "type": "function"
    },
    {
      "inputs": [
        {
          "internalType": "address",
          "name": "newOwner",
          "type": "address"
        }
      ],
      "name": "transferOwnership",
      "outputs": [],
      "stateMutability": "nonpayable",
      "type": "function"
    },
    {
      "inputs": [
        {
          "internalType": "uint256",
          "name": "_tokenId",
          "type": "uint256"
        }
      ],
      "name": "uri",
      "outputs": [
        {
          "internalType": "string",
          "name": "",
          "type": "string"
        }
      ],
      "stateMutability": "view",
      "type": "function"
    },
    {
      "inputs": [
        {
          "internalType": "address",
          "name": "_contractAddress",
          "type": "address"
        },
        {
          "internalType": "uint256",
          "name": "pokemonIndex",
          "type": "uint256"
        },
        {
          "internalType": "uint256",
          "name": "itemId",
          "type": "uint256"
        }
      ],
      "name": "useItem",
      "outputs": [],
      "stateMutability": "nonpayable",
      "type": "function"
    }
  ],
  "bytecode": "0x60806040523480156200001157600080fd5b50604051620062fe380380620062fe833981016040819052620000349162000b4a565b6040805160208101909152600081526200004e81620002ed565b506200005a3362000306565b60005b87518110156200027a578781815181106200008857634e487b7160e01b600052603260045260246000fd5b6020026020010151848281518110620000b157634e487b7160e01b600052603260045260246000fd5b6020026020010151888381518110620000da57634e487b7160e01b600052603260045260246000fd5b60200260200101518884815181106200010357634e487b7160e01b600052603260045260246000fd5b60200260200101518885815181106200012c57634e487b7160e01b600052603260045260246000fd5b60200260200101518786815181106200015557634e487b7160e01b600052603260045260246000fd5b60200260200101518787815181106200017e57634e487b7160e01b600052603260045260246000fd5b6020026020010151604051620001949062000775565b620001a6979695949392919062000f09565b604051809103906000f080158015620001c3573d6000803e3d6000fd5b50600460008a8481518110620001e957634e487b7160e01b600052603260045260246000fd5b6020026020010151815260200190815260200160002060006101000a8154816001600160a01b0302191690836001600160a01b0316021790555060058882815181106200024657634e487b7160e01b600052603260045260246000fd5b60209081029190910181015182546001810184556000938452919092200155806200027181620010ec565b9150506200005d565b5060005b8751811015620002df576000888281518110620002ab57634e487b7160e01b600052603260045260246000fd5b602090810291909101015190506064620002c733838362000358565b50508080620002d690620010ec565b9150506200027e565b505050505050505062001209565b80516200030290600290602084019062000783565b5050565b600380546001600160a01b038381166001600160a01b0319831681179093556040519116919082907f8be0079c531659141344cd1fd0a4f28419497f9722a3daafe3b4186f6b6457e090600090a35050565b6003546001600160a01b031633146200038e5760405162461bcd60e51b8152600401620003859062000ebc565b60405180910390fd5b620003bc83838360405180604001604052806002815260200161060f60f31b815250620004c060201b60201c565b600082815260046020818152604080842054600690925280842080546001600160a01b0319166001600160a01b03909316928317905580516303bc5de360e41b8152905185949293633bc5de30938382019390929190829003018186803b1580156200042757600080fd5b505afa1580156200043c573d6000803e3d6000fd5b505050506040513d6000823e601f3d908101601f1916820160405262000466919081019062000cc9565b6040018181516200047891906200102c565b9052506001600160a01b038316600090815260076020908152604080832085845290915281208381556001018054839290620004b69084906200102c565b9091555050505050565b6001600160a01b038416620004e95760405162461bcd60e51b8152600401620003859062000ef7565b336200050f81600087620004fd88620005b3565b6200050888620005b3565b5050505050565b6000848152602081815260408083206001600160a01b038916845290915281208054859290620005419084906200102c565b92505081905550846001600160a01b031660006001600160a01b0316826001600160a01b03167fc3d58168c5ae7397731d063d5bbf3d657854427343f4c083240f7aacaa2d0f6287876040516200059a92919062000f9b565b60405180910390a4620005088160008787878762000615565b60408051600180825281830190925260609160009190602080830190803683370190505090508281600081518110620005fc57634e487b7160e01b600052603260045260246000fd5b602090810291909101015292915050565b505050505050565b62000634846001600160a01b03166200076660201b620016d31760201c565b156200060d5760405163f23a6e6160e01b81526001600160a01b0385169063f23a6e619062000670908990899088908890889060040162000e29565b602060405180830381600087803b1580156200068b57600080fd5b505af1925050508015620006be575060408051601f3d908101601f19168201909252620006bb9181019062000ca2565b60015b6200072a57620006cd6200114c565b806308c379a014156200070e5750620006e562001165565b80620006f2575062000710565b8060405162461bcd60e51b815260040162000385919062000e85565b505b60405162461bcd60e51b8152600401620003859062000e98565b6001600160e01b0319811663f23a6e6160e01b146200075d5760405162461bcd60e51b8152600401620003859062000eaa565b50505050505050565b6001600160a01b03163b151590565b6113a78062004f5783390190565b82805462000791906200108c565b90600052602060002090601f016020900481019282620007b5576000855562000800565b82601f10620007d057805160ff191683800117855562000800565b8280016001018555821562000800579182015b8281111562000800578251825591602001919060010190620007e3565b506200080e92915062000812565b5090565b5b808211156200080e576000815560010162000813565b6000620008406200083a8462000fd9565b62000fba565b905080838252602082019050828560208602850111156200086057600080fd5b60005b85811015620008a85781516001600160401b038111156200088357600080fd5b8501620008918882620009b1565b845250602092830192919091019060010162000863565b5050509392505050565b6000620008c36200083a8462000fd9565b90508083825260208201905082856020860285011115620008e357600080fd5b60005b85811015620008a857620008fb878362000b3d565b83526020928301929190910190600101620008e6565b6000620009226200083a8462000fff565b9050828152602081018484840111156200093b57600080fd5b6200094884828562001059565b509392505050565b600082601f83011262000961578081fd5b81516200097384826020860162000829565b949350505050565b600082601f8301126200098c578081fd5b815162000973848260208601620008b2565b8051620009ab81620011e7565b92915050565b600082601f830112620009c2578081fd5b81516200097384826020860162000911565b600060608284031215620009e6578081fd5b620009f2606062000fba565b82519091506001600160401b0381111562000a0c57600080fd5b62000a1a8482850162000a4b565b825250602062000a2d8484830162000b3d565b90820152604062000a418484830162000b3d565b9082015292915050565b600060c0828403121562000a5d578081fd5b62000a6960c062000fba565b9050600062000a79848462000b3d565b8282015260208301516001600160401b0381111562000a96578182fd5b62000aa485828601620009b1565b60208401525060408301516001600160401b0381111562000ac3578182fd5b62000ad185828601620009b1565b60408401525060608301516001600160401b0381111562000af0578182fd5b62000afe85828601620009b1565b60608401525060808301516001600160401b0381111562000b1d578182fd5b62000b2b85828601620009b1565b6080840152505060a062000a41848285015b8051620009ab8162001202565b600080600080600080600060e0888a03121562000b65578283fd5b878301516001600160401b0381111562000b7d578384fd5b62000b8b8a828b016200097b565b60208a015190985090506001600160401b0381111562000ba9578384fd5b62000bb78a828b0162000950565b60408a015190975090506001600160401b0381111562000bd5578384fd5b62000be38a828b0162000950565b60608a015190965090506001600160401b0381111562000c01578384fd5b62000c0f8a828b0162000950565b60808a015190955090506001600160401b0381111562000c2d578384fd5b62000c3b8a828b0162000950565b60a08a015190945090506001600160401b0381111562000c59578283fd5b62000c678a828b016200097b565b60c08a015190935090506001600160401b0381111562000c85578182fd5b62000c938a828b016200097b565b91505092959891949750929550565b60006020828403121562000cb4578081fd5b62000cc2838284016200099e565b9392505050565b60006020828403121562000cdb578081fd5b818101516001600160401b0381111562000cf3578182fd5b6200097384828501620009d4565b62000d0c8162001047565b82525050565b600062000d1d825190565b80845260208401935062000d3681856020860162001059565b601f01601f19169290920192915050565b60348152602081017f455243313135353a207472616e7366657220746f206e6f6e204552433131353581527f526563656976657220696d706c656d656e746572000000000000000000000000602082015290505b60400190565b60288152602081017f455243313135353a204552433131353552656365697665722072656a656374658152676420746f6b656e7360c01b6020820152905062000d9b565b60218152602081017f455243313135353a206d696e7420746f20746865207a65726f206164647265738152607360f81b6020820152905062000d9b565b8062000d0c565b60a0810162000e39828862000d01565b62000e48602083018762000d01565b62000e57604083018662000e22565b62000e66606083018562000e22565b818103608083015262000e7a818462000d12565b979650505050505050565b6020808252810162000cc2818462000d12565b60208082528101620009ab8162000d47565b60208082528101620009ab8162000da1565b60208082528181019081527f4f776e61626c653a2063616c6c6572206973206e6f7420746865206f776e6572604083015260608201620009ab565b60208082528101620009ab8162000de5565b60e0810162000f19828a62000e22565b818103602083015262000f2d818962000d12565b9050818103604083015262000f43818862000d12565b9050818103606083015262000f59818762000d12565b9050818103608083015262000f6f818662000d12565b905062000f8060a083018562000e22565b62000f8f60c083018462000e22565b98975050505050505050565b6040810162000fab828562000e22565b62000cc2602083018462000e22565b600062000fc660405190565b905062000fd48282620010bd565b919050565b60006001600160401b0382111562000ff55762000ff562001136565b5060209081020190565b60006001600160401b038211156200101b576200101b62001136565b601f19601f83011660200192915050565b600082198211156200104257620010426200110a565b500190565b60006001600160a01b038216620009ab565b60005b83811015620010765781810151838201526020016200105c565b8381111562001086576000848401525b50505050565b600281046001821680620010a157607f821691505b60208210811415620010b757620010b762001120565b50919050565b601f19601f83011681016001600160401b0381118282101715620010e557620010e562001136565b6040525050565b60006000198214156200110357620011036200110a565b5060010190565b634e487b7160e01b600052601160045260246000fd5b634e487b7160e01b600052602260045260246000fd5b634e487b7160e01b600052604160045260246000fd5b600060033d11156200116257600481823e5160e01c5b90565b600060443d1015620011745790565b60405160043d036004823e80516001600160401b0381113d602483011117156200119d57505090565b81810180516001600160401b03811115620011b9575050505090565b80602083010160043d038501811115620011d557505050505090565b506200094881602001840185620010bd565b6001600160e01b031981165b8114620011ff57600080fd5b50565b80620011f3565b613d3e80620012196000396000f3fe608060405234801561001057600080fd5b50600436106101975760003560e01c806351ad5795116100e3578063e08e67d51161008c578063f242432a11610066578063f242432a146103f8578063f2fde38b1461040b578063f5298aca1461041e57600080fd5b8063e08e67d51461035c578063e985e9c51461037c578063ef885334146103b857600080fd5b80638da5cb5b116100bd5780638da5cb5b1461031d578063a22cb46514610336578063d81d0a151461034957600080fd5b806351ad5795146102d95780636b20c45414610302578063715018a61461031557600080fd5b80632eb2c2d611610145578063345cad7e1161011f578063345cad7e1461029e5780634ba1d6aa146102b15780634e1273f4146102b957600080fd5b80632eb2c2d61461024d578063310aac69146102605780633129e7731461026857600080fd5b80630e89341c116101765780630e89341c146101fa578063156e29f61461021a5780631d22af5f1461022d57600080fd5b8062fdd58e1461019c57806301ffc9a7146101c557806302fe5305146101e5575b600080fd5b6101af6101aa366004612baf565b610431565b6040516101bc91906139b7565b60405180910390f35b6101d86101d3366004612c7c565b61048b565b6040516101bc919061381e565b6101f86101f3366004612cd3565b61056e565b005b61020d610208366004612da7565b6105a4565b6040516101bc919061383a565b6101f8610228366004612bdd565b610704565b61024061023b3660046129a6565b610891565b6040516101bc91906137d7565b6101f861025b3660046129fb565b610b16565b6005546101af565b610291610276366004612da7565b6000908152600460205260409020546001600160a01b031690565b6040516101bc919061382c565b6101f86102ac366004612bdd565b610b62565b610240610ef8565b6102cc6102c7366004612c1e565b611080565b6040516101bc91906137e8565b6102916102e7366004612da7565b6000908152600660205260409020546001600160a01b031690565b6101f8610310366004612b08565b6111a0565b6101f86111e8565b6003546001600160a01b03166040516101bc9190613707565b6101f8610344366004612b81565b61121e565b6101f8610357366004612b08565b61122d565b61036f61036a366004612cb6565b61156c565b6040516101bc9190613965565b6101d861038a3660046129c3565b6001600160a01b03918216600090815260016020908152604080832093909416825291909152205460ff1690565b6103ea6103c6366004612baf565b60076020908152600092835260408084209091529082529020805460019091015482565b6040516101bc9291906139fa565b6101f8610406366004612ab3565b6115f2565b6101f86104193660046129a6565b611637565b6101f861042c366004612bdd565b611690565b60006001600160a01b0383166104625760405162461bcd60e51b81526004016104599061386b565b60405180910390fd5b506000818152602081815260408083206001600160a01b03861684529091529020545b92915050565b60007fffffffff0000000000000000000000000000000000000000000000000000000082167fd9b67a2600000000000000000000000000000000000000000000000000000000148061051e57507fffffffff0000000000000000000000000000000000000000000000000000000082167f0e89341c00000000000000000000000000000000000000000000000000000000145b8061048557507f01ffc9a7000000000000000000000000000000000000000000000000000000007fffffffff00000000000000000000000000000000000000000000000000000000831614610485565b6003546001600160a01b031633146105985760405162461bcd60e51b8152600401610459906138eb565b6105a1816116e2565b50565b600081815260066020526040812054606091906001600160a01b0316905060006106d6826001600160a01b03166317d7de7c6040518163ffffffff1660e01b815260040160006040518083038186803b15801561060057600080fd5b505afa158015610614573d6000803e3d6000fd5b505050506040513d6000823e601f3d908101601f1916820160405261063c9190810190612d08565b836001600160a01b03166346bd9a666040518163ffffffff1660e01b815260040160006040518083038186803b15801561067557600080fd5b505afa158015610689573d6000803e3d6000fd5b505050506040513d6000823e601f3d908101601f191682016040526106b19190810190612d08565b6040516020016106c2929190613649565b6040516020818303038152906040526116f5565b90506000816040516020016106eb91906136d7565b60408051601f1981840301815291905295945050505050565b6003546001600160a01b0316331461072e5760405162461bcd60e51b8152600401610459906138eb565b61076f8383836040518060400160405280600281526020017f3078000000000000000000000000000000000000000000000000000000000000815250611857565b6000828152600460208181526040808420546006909252808420805473ffffffffffffffffffffffffffffffffffffffff19166001600160a01b03909316928317905580517f3bc5de30000000000000000000000000000000000000000000000000000000008152905185949293633bc5de30938382019390929190829003018186803b1580156107ff57600080fd5b505afa158015610813573d6000803e3d6000fd5b505050506040513d6000823e601f3d908101601f1916820160405261083b9190810190612d3d565b60400181815161084b9190613a73565b9052506001600160a01b038316600090815260076020908152604080832085845290915281208381556001018054839290610887908490613a73565b9091555050505050565b6060600061089e60055490565b905060008060005b8381101561090b5760006108e587600584815481106108d557634e487b7160e01b600052603260045260246000fd5b9060005260206000200154610431565b11156108f957826108f581613b6c565b9350505b8061090381613b6c565b9150506108a6565b5060008267ffffffffffffffff81111561093557634e487b7160e01b600052604160045260246000fd5b60405190808252806020026020018201604052801561096e57816020015b61095b61240f565b8152602001906001900390816109535790505b50905060005b84811015610b0c5760006109a388600584815481106108d557634e487b7160e01b600052603260045260246000fd5b1115610afa576000600582815481106109cc57634e487b7160e01b600052603260045260246000fd5b906000526020600020015490506109f8816000908152600460205260409020546001600160a01b031690565b6001600160a01b0316633bc5de306040518163ffffffff1660e01b815260040160006040518083038186803b158015610a3057600080fd5b505afa158015610a44573d6000803e3d6000fd5b505050506040513d6000823e601f3d908101601f19168201604052610a6c9190810190612d3d565b838581518110610a8c57634e487b7160e01b600052603260045260246000fd5b6020026020010181905250610abc88600584815481106108d557634e487b7160e01b600052603260045260246000fd5b838581518110610adc57634e487b7160e01b600052603260045260246000fd5b60209081029190910101516040015283610af581613b6c565b945050505b80610b0481613b6c565b915050610974565b5095945050505050565b6001600160a01b038516331480610b325750610b32853361038a565b610b4e5760405162461bcd60e51b8152600401610459906138bb565b610b5b8585858585611935565b5050505050565b6000818152600660205260408120546001600160a01b0316905060006201869f905080826001600160a01b0316638e41a9cf6040518163ffffffff1660e01b815260040160206040518083038186803b158015610bbe57600080fd5b505afa158015610bd2573d6000803e3d6000fd5b505050506040513d601f19601f82011682018060405250810190610bf69190612dc4565b1415610d0f576040517ff962c56c0000000000000000000000000000000000000000000000000000000081526000906001600160a01b0387169063f962c56c90610c4690339089906004016137bc565b60006040518083038186803b158015610c5e57600080fd5b505afa158015610c72573d6000803e3d6000fd5b505050506040513d6000823e601f3d908101601f19168201604052610c9a9190810190612d72565b60200151602001519050856001600160a01b031663e89f8a4386338460006040518563ffffffff1660e01b8152600401610cd794939291906139c5565b600060405180830381600087803b158015610cf157600080fd5b505af1158015610d05573d6000803e3d6000fd5b5050505050610e05565b6000826001600160a01b0316638e41a9cf6040518163ffffffff1660e01b815260040160206040518083038186803b158015610d4a57600080fd5b505afa158015610d5e573d6000803e3d6000fd5b505050506040513d601f19601f82011682018060405250810190610d829190612dc4565b6040517fe89f8a430000000000000000000000000000000000000000000000000000000081529091506001600160a01b0387169063e89f8a4390610dd1908890339086906001906004016139c5565b600060405180830381600087803b158015610deb57600080fd5b505af1158015610dff573d6000803e3d6000fd5b50505050505b610e1133846001611aed565b6040517ff962c56c0000000000000000000000000000000000000000000000000000000081527f513c7a182104214d8ea061b936bb9060bfa27c51fef4941d1b80f798a86de942906001600160a01b0387169063f962c56c90610e7a90339089906004016137bc565b60006040518083038186803b158015610e9257600080fd5b505afa158015610ea6573d6000803e3d6000fd5b505050506040513d6000823e601f3d908101601f19168201604052610ece9190810190612d72565b610ed78461156c565b3342604051610ee99493929190613976565b60405180910390a15050505050565b60606000610f0560055490565b905060008167ffffffffffffffff811115610f3057634e487b7160e01b600052604160045260246000fd5b604051908082528060200260200182016040528015610f6957816020015b610f5661240f565b815260200190600190039081610f4e5790505b50905060005b8281101561107957600060058281548110610f9a57634e487b7160e01b600052603260045260246000fd5b90600052602060002001549050610fc6816000908152600460205260409020546001600160a01b031690565b6001600160a01b0316633bc5de306040518163ffffffff1660e01b815260040160006040518083038186803b158015610ffe57600080fd5b505afa158015611012573d6000803e3d6000fd5b505050506040513d6000823e601f3d908101601f1916820160405261103a9190810190612d3d565b83838151811061105a57634e487b7160e01b600052603260045260246000fd5b602002602001018190525050808061107190613b6c565b915050610f6f565b5092915050565b606081518351146110a35760405162461bcd60e51b815260040161045990613935565b6000835167ffffffffffffffff8111156110cd57634e487b7160e01b600052604160045260246000fd5b6040519080825280602002602001820160405280156110f6578160200160208202803683370190505b50905060005b84518110156111985761115d85828151811061112857634e487b7160e01b600052603260045260246000fd5b602002602001015185838151811061115057634e487b7160e01b600052603260045260246000fd5b6020026020010151610431565b82828151811061117d57634e487b7160e01b600052603260045260246000fd5b602090810291909101015261119181613b6c565b90506110fc565b509392505050565b6001600160a01b0383163314806111bc57506111bc833361038a565b6111d85760405162461bcd60e51b81526004016104599061389b565b6111e3838383611bf2565b505050565b6003546001600160a01b031633146112125760405162461bcd60e51b8152600401610459906138eb565b61121c6000611d8a565b565b611229338383611de9565b5050565b6003546001600160a01b031633146112575760405162461bcd60e51b8152600401610459906138eb565b6112988383836040518060400160405280600281526020017f3078000000000000000000000000000000000000000000000000000000000000815250611eaa565b60005b82518110156115665760008382815181106112c657634e487b7160e01b600052603260045260246000fd5b602002602001015190506113168483815181106112f357634e487b7160e01b600052603260045260246000fd5b60200260200101516000908152600460205260409020546001600160a01b031690565b6000828152600660205260409020805473ffffffffffffffffffffffffffffffffffffffff19166001600160a01b0392909216919091179055825183908390811061137157634e487b7160e01b600052603260045260246000fd5b60200260200101516006600083815260200190815260200160002060009054906101000a90046001600160a01b03166001600160a01b0316633bc5de306040518163ffffffff1660e01b815260040160006040518083038186803b1580156113d857600080fd5b505afa1580156113ec573d6000803e3d6000fd5b505050506040513d6000823e601f3d908101601f191682016040526114149190810190612d3d565b6040018181516114249190613a73565b905250835184908390811061144957634e487b7160e01b600052603260045260246000fd5b602002602001015160076000876001600160a01b03166001600160a01b03168152602001908152602001600020600086858151811061149857634e487b7160e01b600052603260045260246000fd5b60200260200101518152602001908152602001600020600001819055508282815181106114d557634e487b7160e01b600052603260045260246000fd5b602002602001015160076000876001600160a01b03166001600160a01b03168152602001908152602001600020600086858151811061152457634e487b7160e01b600052603260045260246000fd5b60200260200101518152602001908152602001600020600101600082825461154c9190613a73565b9091555082915061155e905081613b6c565b91505061129b565b50505050565b61157461240f565b6000826001600160a01b0316633bc5de306040518163ffffffff1660e01b815260040160006040518083038186803b1580156115af57600080fd5b505afa1580156115c3573d6000803e3d6000fd5b505050506040513d6000823e601f3d908101601f191682016040526115eb9190810190612d3d565b9392505050565b6001600160a01b03851633148061160e575061160e853361038a565b61162a5760405162461bcd60e51b81526004016104599061389b565b610b5b8585858585612011565b6003546001600160a01b031633146116615760405162461bcd60e51b8152600401610459906138eb565b6001600160a01b0381166116875760405162461bcd60e51b81526004016104599061387b565b6105a181611d8a565b6001600160a01b0383163314806116ac57506116ac833361038a565b6116c85760405162461bcd60e51b81526004016104599061389b565b6111e3838383611aed565b6001600160a01b03163b151590565b8051611229906002906020840190612467565b606081516000141561171557505060408051602081019091526000815290565b6000604051806060016040528060408152602001613cc960409139905060006003845160026117449190613a73565b61174e9190613a8b565b611759906004613a9f565b67ffffffffffffffff81111561177f57634e487b7160e01b600052604160045260246000fd5b6040519080825280601f01601f1916602001820160405280156117a9576020820181803683370190505b509050600182016020820185865187015b80821015611815576003820191508151603f8160121c168501518453600184019350603f81600c1c168501518453600184019350603f8160061c168501518453600184019350603f81168501518453506001830192506117ba565b505060038651066001811461183157600281146118445761184c565b603d6001830353603d600283035361184c565b603d60018303535b509195945050505050565b6001600160a01b03841661187d5760405162461bcd60e51b815260040161045990613955565b336118978160008761188e8861213a565b610b5b8861213a565b6000848152602081815260408083206001600160a01b0389168452909152812080548592906118c7908490613a73565b92505081905550846001600160a01b031660006001600160a01b0316826001600160a01b03167fc3d58168c5ae7397731d063d5bbf3d657854427343f4c083240f7aacaa2d0f62878760405161191e9291906139fa565b60405180910390a4610b5b81600087878787612193565b81518351146119565760405162461bcd60e51b815260040161045990613945565b6001600160a01b03841661197c5760405162461bcd60e51b8152600401610459906138ab565b3360005b8451811015611a7f5760008582815181106119ab57634e487b7160e01b600052603260045260246000fd5b6020026020010151905060008583815181106119d757634e487b7160e01b600052603260045260246000fd5b602090810291909101810151600084815280835260408082206001600160a01b038e168352909352919091205490915081811015611a275760405162461bcd60e51b8152600401610459906138db565b6000838152602081815260408083206001600160a01b038e8116855292528083208585039055908b16825281208054849290611a64908490613a73565b9250508190555050505080611a7890613b6c565b9050611980565b50846001600160a01b0316866001600160a01b0316826001600160a01b03167f4a39dc06d4c0dbc64b70af90fd698a233a518aa5d07e595d983b8c0526c8f7fb8787604051611acf9291906137f9565b60405180910390a4611ae58187878787876122fb565b505050505050565b6001600160a01b038316611b135760405162461bcd60e51b8152600401610459906138cb565b33611b4381856000611b248761213a565b611b2d8761213a565b5050604080516020810190915260009052505050565b6000838152602081815260408083206001600160a01b038816845290915290205482811015611b845760405162461bcd60e51b81526004016104599061388b565b6000848152602081815260408083206001600160a01b03808a16808652919093528184208786039055905190918516907fc3d58168c5ae7397731d063d5bbf3d657854427343f4c083240f7aacaa2d0f6290611be390899089906139fa565b60405180910390a45050505050565b6001600160a01b038316611c185760405162461bcd60e51b8152600401610459906138cb565b8051825114611c395760405162461bcd60e51b815260040161045990613945565b604080516020810190915260009081905233905b8351811015611d2b576000848281518110611c7857634e487b7160e01b600052603260045260246000fd5b602002602001015190506000848381518110611ca457634e487b7160e01b600052603260045260246000fd5b602090810291909101810151600084815280835260408082206001600160a01b038c168352909352919091205490915081811015611cf45760405162461bcd60e51b81526004016104599061388b565b6000928352602083815260408085206001600160a01b038b1686529091529092209103905580611d2381613b6c565b915050611c4d565b5060006001600160a01b0316846001600160a01b0316826001600160a01b03167f4a39dc06d4c0dbc64b70af90fd698a233a518aa5d07e595d983b8c0526c8f7fb8686604051611d7c9291906137f9565b60405180910390a450505050565b600380546001600160a01b0383811673ffffffffffffffffffffffffffffffffffffffff19831681179093556040519116919082907f8be0079c531659141344cd1fd0a4f28419497f9722a3daafe3b4186f6b6457e090600090a35050565b816001600160a01b0316836001600160a01b03161415611e1b5760405162461bcd60e51b815260040161045990613925565b6001600160a01b038381166000818152600160209081526040808320948716808452949091529081902080547fffffffffffffffffffffffffffffffffffffffffffffffffffffffffffffff0016851515179055517f17307eab39ab6107e8899845ad3d59bd9653f200f220920489ca2b5937696c3190611e9d90859061381e565b60405180910390a3505050565b6001600160a01b038416611ed05760405162461bcd60e51b815260040161045990613955565b8151835114611ef15760405162461bcd60e51b815260040161045990613945565b3360005b8451811015611fa957838181518110611f1e57634e487b7160e01b600052603260045260246000fd5b6020026020010151600080878481518110611f4957634e487b7160e01b600052603260045260246000fd5b602002602001015181526020019081526020016000206000886001600160a01b03166001600160a01b031681526020019081526020016000206000828254611f919190613a73565b90915550819050611fa181613b6c565b915050611ef5565b50846001600160a01b031660006001600160a01b0316826001600160a01b03167f4a39dc06d4c0dbc64b70af90fd698a233a518aa5d07e595d983b8c0526c8f7fb8787604051611ffa9291906137f9565b60405180910390a4610b5b816000878787876122fb565b6001600160a01b0384166120375760405162461bcd60e51b8152600401610459906138ab565b3361204781878761188e8861213a565b6000848152602081815260408083206001600160a01b038a168452909152902054838110156120885760405162461bcd60e51b8152600401610459906138db565b6000858152602081815260408083206001600160a01b038b81168552925280832087850390559088168252812080548692906120c5908490613a73565b92505081905550856001600160a01b0316876001600160a01b0316836001600160a01b03167fc3d58168c5ae7397731d063d5bbf3d657854427343f4c083240f7aacaa2d0f62888860405161211b9291906139fa565b60405180910390a4612131828888888888612193565b50505050505050565b6040805160018082528183019092526060916000919060208083019080368337019050509050828160008151811061218257634e487b7160e01b600052603260045260246000fd5b602090810291909101015292915050565b6001600160a01b0384163b15611ae5576040517ff23a6e610000000000000000000000000000000000000000000000000000000081526001600160a01b0385169063f23a6e61906121f09089908990889088908890600401613775565b602060405180830381600087803b15801561220a57600080fd5b505af192505050801561223a575060408051601f3d908101601f1916820190925261223791810190612c99565b60015b61229a57612246613bdf565b806308c379a01415612280575061225b613bf7565b806122665750612282565b8060405162461bcd60e51b8152600401610459919061383a565b505b60405162461bcd60e51b81526004016104599061384b565b7fffffffff0000000000000000000000000000000000000000000000000000000081167ff23a6e6100000000000000000000000000000000000000000000000000000000146121315760405162461bcd60e51b81526004016104599061385b565b6001600160a01b0384163b15611ae5576040517fbc197c810000000000000000000000000000000000000000000000000000000081526001600160a01b0385169063bc197c81906123589089908990889088908890600401613715565b602060405180830381600087803b15801561237257600080fd5b505af19250505080156123a2575060408051601f3d908101601f1916820190925261239f91810190612c99565b60015b6123ae57612246613bdf565b7fffffffff0000000000000000000000000000000000000000000000000000000081167fbc197c8100000000000000000000000000000000000000000000000000000000146121315760405162461bcd60e51b81526004016104599061385b565b60405180606001604052806124536040518060c001604052806000815260200160608152602001606081526020016060815260200160608152602001600081525090565b815260200160008152602001600081525090565b82805461247390613b12565b90600052602060002090601f01602090048101928261249557600085556124db565b82601f106124ae57805160ff19168380011785556124db565b828001600101855582156124db579182015b828111156124db5782518255916020019190600101906124c0565b506124e79291506124eb565b5090565b5b808211156124e757600081556001016124ec565b600061251361250e84613a24565b613a08565b9050808382526020820190508285602086028501111561253257600080fd5b60005b8581101561255c57612547878361261f565b83526020928301929190910190600101612535565b5050509392505050565b600061257461250e84613a24565b9050808382526020820190508285602086028501111561259357600080fd5b60005b8581101561255c576125a88783612990565b83526020928301929190910190600101612596565b60006125cb61250e84613a48565b9050828152602081018484840111156125e357600080fd5b611198848285613ada565b60006125fc61250e84613a48565b90508281526020810184848401111561261457600080fd5b611198848285613ae6565b803561048581613c75565b600082601f83011261263a578081fd5b813561264a848260208601612500565b949350505050565b600082601f830112612662578081fd5b813561264a848260208601612566565b803561048581613c89565b803561048581613c91565b805161048581613c91565b600082601f8301126126a3578081fd5b813561264a8482602086016125bd565b803561048581613cb9565b600082601f8301126126ce578081fd5b815161264a8482602086016125ee565b6000606082840312156126ef578081fd5b6126f96060613a08565b825190915067ffffffffffffffff81111561271357600080fd5b61271f848285016127e3565b82525060206127308484830161299b565b9082015260406127428484830161299b565b9082015292915050565b600060e0828403121561275d578081fd5b61276760a0613a08565b825190915067ffffffffffffffff81111561278157600080fd5b61278d848285016128cb565b825250602061279e84848301612955565b9082015260806127b08484830161299b565b604083015260a06127c38582860161299b565b60608401525060c06127d78582860161299b565b82840152505092915050565b600060c082840312156127f4578081fd5b6127fe60c0613a08565b9050600061280c848461299b565b81830152602083015167ffffffffffffffff811115612829578182fd5b612835858286016126be565b602084015250604083015167ffffffffffffffff811115612854578182fd5b612860858286016126be565b604084015250606083015167ffffffffffffffff81111561287f578182fd5b61288b858286016126be565b606084015250608083015167ffffffffffffffff8111156128aa578182fd5b6128b6858286016126be565b6080840152505060a06127428482850161299b565b6000606082840312156128dc578081fd5b6128e66060613a08565b905060006128f4848461299b565b81830152602083015167ffffffffffffffff811115612911578182fd5b61291d858286016126be565b602084015250604083015167ffffffffffffffff81111561293c578182fd5b612948858286016126be565b6040840152505092915050565b600060608284031215612966578081fd5b6129706060613a08565b9050600061297e848461299b565b9082015260206127308484830161299b565b803561048581613cc2565b805161048581613cc2565b6000602082840312156129b7578081fd5b6115eb8382840161261f565b600080604083850312156129d5578081fd5b6129e18482850161261f565b915060206129f18582860161261f565b9150509250929050565b600080600080600060a08688031215612a12578081fd5b612a1e8782880161261f565b94506020612a2e8882890161261f565b945050604086013567ffffffffffffffff811115612a4a578182fd5b612a5688828901612652565b935050606086013567ffffffffffffffff811115612a72578182fd5b612a7e88828901612652565b925050608086013567ffffffffffffffff811115612a9a578182fd5b612aa688828901612693565b9150509295509295909350565b600080600080600060a08688031215612aca578283fd5b612ad68784880161261f565b94506020612ae68882890161261f565b9450506040612af788828901612990565b9350506060612a7e88828901612990565b600080600060608486031215612b1c578081fd5b612b288582860161261f565b9250602084013567ffffffffffffffff811115612b43578182fd5b612b4f86828701612652565b925050604084013567ffffffffffffffff811115612b6b578182fd5b612b7786828701612652565b9150509250925092565b60008060408385031215612b93578182fd5b612b9f8483850161261f565b915060206129f185828601612672565b60008060408385031215612bc1578182fd5b612bcd8483850161261f565b915060206129f185828601612990565b600080600060608486031215612bf1578081fd5b612bfd8582860161261f565b92506020612c0d86828701612990565b9250506040612b7786828701612990565b60008060408385031215612c30578182fd5b8183013567ffffffffffffffff811115612c48578283fd5b612c548582860161262a565b925050602083013567ffffffffffffffff811115612c70578182fd5b6129f185828601612652565b600060208284031215612c8d578081fd5b6115eb8382840161267d565b600060208284031215612caa578081fd5b6115eb83828401612688565b600060208284031215612cc7578081fd5b6115eb838284016126b3565b600060208284031215612ce4578081fd5b8082013567ffffffffffffffff811115612cfc578182fd5b61264a84828501612693565b600060208284031215612d19578081fd5b8082015167ffffffffffffffff811115612d31578182fd5b61264a848285016126be565b600060208284031215612d4e578081fd5b8082015167ffffffffffffffff811115612d66578182fd5b61264a848285016126de565b600060208284031215612d83578081fd5b8082015167ffffffffffffffff811115612d9b578182fd5b61264a8482850161274c565b600060208284031215612db8578081fd5b6115eb83828401612990565b600060208284031215612dd5578081fd5b6115eb8382840161299b565b60006115eb8383613491565b612df78282613643565b5060200190565b612e0781613abe565b82525050565b6000612e17825190565b80845260208401935083602082028501612e318560200190565b845b84811015612e645783830388528151612e4c8482612de1565b93505060208201602098909801979150600101612e33565b50909695505050505050565b6000612e7a825190565b8084526020938401938301825b82811015612eac578151612e9b8782612ded565b965050602082019150600101612e87565b5093949350505050565b801515612e07565b6000612ec8825190565b808452602084019350612edf818560208601613ae6565b601f01601f19169290920192915050565b612e0781613acf565b6000612f03825190565b612f11818560208601613ae6565b9290920192915050565b60348152602081017f455243313135353a207472616e7366657220746f206e6f6e204552433131353581527f526563656976657220696d706c656d656e746572000000000000000000000000602082015290505b60400190565b60288152602081017f455243313135353a204552433131353552656365697665722072656a6563746581527f6420746f6b656e7300000000000000000000000000000000000000000000000060208201529050612f6f565b602b8152602081017f455243313135353a2062616c616e636520717565727920666f7220746865207a81527f65726f206164647265737300000000000000000000000000000000000000000060208201529050612f6f565b60268152602081017f4f776e61626c653a206e6577206f776e657220697320746865207a65726f206181527f646472657373000000000000000000000000000000000000000000000000000060208201529050612f6f565b7f222c00000000000000000000000000000000000000000000000000000000000081525b60020190565b60248152602081017f455243313135353a206275726e20616d6f756e7420657863656564732062616c81527f616e63650000000000000000000000000000000000000000000000000000000060208201529050612f6f565b60298152602081017f455243313135353a2063616c6c6572206973206e6f74206f776e6572206e6f7281527f20617070726f766564000000000000000000000000000000000000000000000060208201529050612f6f565b60258152602081017f455243313135353a207472616e7366657220746f20746865207a65726f20616481527f647265737300000000000000000000000000000000000000000000000000000060208201529050612f6f565b60328152602081017f455243313135353a207472616e736665722063616c6c6572206973206e6f742081527f6f776e6572206e6f7220617070726f766564000000000000000000000000000060208201529050612f6f565b7f227d00000000000000000000000000000000000000000000000000000000000081526130a1565b60238152602081017f455243313135353a206275726e2066726f6d20746865207a65726f206164647281527f657373000000000000000000000000000000000000000000000000000000000060208201529050612f6f565b602a8152602081017f455243313135353a20696e73756666696369656e742062616c616e636520666f81527f72207472616e736665720000000000000000000000000000000000000000000060208201529050612f6f565b7f7b226e616d65223a20220000000000000000000000000000000000000000000081525b600a0190565b7f22696d616765223a2022000000000000000000000000000000000000000000008152613303565b60298152602081017f455243313135353a2073657474696e6720617070726f76616c2073746174757381527f20666f722073656c66000000000000000000000000000000000000000000000060208201529050612f6f565b60298152602081017f455243313135353a206163636f756e747320616e6420696473206c656e67746881527f206d69736d61746368000000000000000000000000000000000000000000000060208201529050612f6f565b60288152602081017f455243313135353a2069647320616e6420616d6f756e7473206c656e6774682081527f6d69736d6174636800000000000000000000000000000000000000000000000060208201529050612f6f565b60218152602081017f455243313135353a206d696e7420746f20746865207a65726f2061646472657381527f730000000000000000000000000000000000000000000000000000000000000060208201529050612f6f565b80516060808452600091908401906134a98282613537565b91505060208301516134be6020860182613643565b5060408301516111986040860182613643565b805160e0808452600091908401906134e982826135c6565b91505060208301516134fe6020860182613615565b5060408301516135116080860182613643565b50606083015161352460a0860182613643565b50608083015161119860c0860182613643565b805160009060c084019061354b8582613643565b50602083015184820360208601526135638282612ebe565b9150506040830151848203604086015261357d8282612ebe565b915050606083015184820360608601526135978282612ebe565b915050608083015184820360808601526135b18282612ebe565b91505060a083015161119860a0860182613643565b805160009060608401906135da8582613643565b50602083015184820360208601526135f28282612ebe565b9150506040830151848203604086015261360c8282612ebe565b95945050505050565b80516136218382613643565b5060208101516136346020840182613643565b5060408101516111e360408401825b80612e07565b613652816132df565b905061365e8184612ef9565b90506136698161307d565b7f226465736372697074696f6e223a20225468697320697320616e204974656d2081527f6f662067616d6520506f6b656d6f6e204e465421222c00000000000000000000602082015260360190506136c081613309565b90506136cc8183612ef9565b90506115eb81613207565b7f646174613a6170706c69636174696f6e2f6a736f6e3b6261736536342c0000008152601d016104858183612ef9565b602081016104858284612dfe565b60a081016137238288612dfe565b6137306020830187612dfe565b81810360408301526137428186612e70565b905081810360608301526137568185612e70565b9050818103608083015261376a8184612ebe565b979650505050505050565b60a081016137838288612dfe565b6137906020830187612dfe565b61379d6040830186613643565b6137aa6060830185613643565b818103608083015261376a8184612ebe565b604081016137ca8285612dfe565b6115eb6020830184613643565b602080825281016115eb8184612e0d565b602080825281016115eb8184612e70565b6040808252810161380a8185612e70565b9050818103602083015261264a8184612e70565b602081016104858284612eb6565b602081016104858284612ef0565b602080825281016115eb8184612ebe565b6020808252810161048581612f1b565b6020808252810161048581612f75565b6020808252810161048581612fcd565b6020808252810161048581613025565b60208082528101610485816130a7565b60208082528101610485816130ff565b6020808252810161048581613157565b60208082528101610485816131af565b602080825281016104858161322f565b6020808252810161048581613287565b60208082528181019081527f4f776e61626c653a2063616c6c6572206973206e6f7420746865206f776e6572604083015260608201610485565b6020808252810161048581613331565b6020808252810161048581613389565b60208082528101610485816133e1565b6020808252810161048581613439565b602080825281016115eb8184613491565b6080808252810161398781876134d1565b9050818103602083015261399b8186613491565b90506139aa6040830185612dfe565b61360c6060830184613643565b602081016104858284613643565b608081016139d38287613643565b6139e06020830186612dfe565b6139ed6040830185613643565b61360c6060830184612eb6565b604081016137ca8285613643565b6000613a1360405190565b9050613a1f8282613b3f565b919050565b600067ffffffffffffffff821115613a3e57613a3e613bc9565b5060209081020190565b600067ffffffffffffffff821115613a6257613a62613bc9565b601f19601f83011660200192915050565b60008219821115613a8657613a86613b87565b500190565b600082613a9a57613a9a613b9d565b500490565b6000816000190483118215151615613ab957613ab9613b87565b500290565b60006001600160a01b038216610485565b600061048582613abe565b82818337506000910152565b60005b83811015613b01578181015183820152602001613ae9565b838111156115665750506000910152565b600281046001821680613b2657607f821691505b60208210811415613b3957613b39613bb3565b50919050565b601f19601f830116810181811067ffffffffffffffff82111715613b6557613b65613bc9565b6040525050565b6000600019821415613b8057613b80613b87565b5060010190565b634e487b7160e01b600052601160045260246000fd5b634e487b7160e01b600052601260045260246000fd5b634e487b7160e01b600052602260045260246000fd5b634e487b7160e01b600052604160045260246000fd5b600060033d1115613bf457600481823e5160e01c5b90565b600060443d1015613c055790565b60405160043d036004823e80513d602482011167ffffffffffffffff82111715613c2e57505090565b808201805167ffffffffffffffff811115613c4a575050505090565b80602083010160043d038501811115613c6557505050505090565b5061119881602001840185613b3f565b613c7e81613abe565b81146105a157600080fd5b801515613c7e565b7fffffffff000000000000000000000000000000000000000000000000000000008116613c7e565b613c7e81613acf565b80613c7e56fe4142434445464748494a4b4c4d4e4f505152535455565758595a6162636465666768696a6b6c6d6e6f707172737475767778797a303132333435363738392b2fa264697066735822122046fe0c713d72df55265d5890a3ea1032ba32c08381c8e36c0d7d2aae67e82eb264736f6c6343000804003360806040523480156200001157600080fd5b50604051620013a7380380620013a78339810160408190526200003491620001d7565b620000458787878787878762000052565b50505050505050620003cf565b600087905585516200006c906001906020890190620000c1565b50845162000082906002906020880190620000c1565b50835162000098906003906020870190620000c1565b508251620000ae906004906020860190620000c1565b5060055560065550506000600755505050565b828054620000cf9062000343565b90600052602060002090601f016020900481019282620000f357600085556200013e565b82601f106200010e57805160ff19168380011785556200013e565b828001600101855582156200013e579182015b828111156200013e57825182559160200191906001019062000121565b506200014c92915062000150565b5090565b5b808211156200014c576000815560010162000151565b60006200017e6200017884620002e3565b620002c4565b9050828152602081018484840111156200019757600080fd5b620001a484828562000310565b509392505050565b600082601f830112620001bd578081fd5b8151620001cf84826020860162000167565b949350505050565b600080600080600080600060e0888a031215620001f2578283fd5b8783015160208901519097506001600160401b0381111562000212578384fd5b620002208a828b01620001ac565b60408a015190975090506001600160401b038111156200023e578384fd5b6200024c8a828b01620001ac565b60608a015190965090506001600160401b038111156200026a578384fd5b620002788a828b01620001ac565b60808a015190955090506001600160401b0381111562000296578384fd5b620002a48a828b01620001ac565b60a08a015160c0909a0151989b979a509598949795969495949350505050565b6000620002d060405190565b9050620002de828262000374565b919050565b60006001600160401b03821115620002ff57620002ff620003b9565b601f19601f83011660200192915050565b60005b838110156200032d57818101518382015260200162000313565b838111156200033d576000848401525b50505050565b6002810460018216806200035857607f821691505b602082108114156200036e576200036e620003a3565b50919050565b601f19601f83011681016001600160401b03811182821017156200039c576200039c620003b9565b6040525050565b634e487b7160e01b600052602260045260246000fd5b634e487b7160e01b600052604160045260246000fd5b610fc880620003df6000396000f3fe608060405234801561001057600080fd5b50600436106100d45760003560e01c80635d1ca631116100815780638e41a9cf1161005b5780638e41a9cf14610176578063bd3e19d41461017e578063eb9770b61461018657600080fd5b80635d1ca6311461014657806373d4a13a1461015757806380258e471461016e57600080fd5b806346bd9a66116100b257806346bd9a66146101145780635a9b0b891461011c5780635cb85cd21461013157600080fd5b806317d7de7c146100d95780631a092541146100f75780633bc5de30146100ff575b600080fd5b6100e1610199565b6040516100ee9190610ded565b60405180910390f35b6100e161022d565b61010761023e565b6040516100ee9190610dfe565b6100e16104d4565b6101246104e5565b6040516100ee9190610e0f565b61014461013f366004610bdf565b600655565b005b6000545b6040516100ee9190610e4b565b61015f610789565b6040516100ee93929190610e20565b6100e1610a07565b60055461014a565b60065461014a565b610144610194366004610c03565b610a18565b60028054606091906101aa90610eda565b80601f01602080910402602001604051908101604052809291908181526020018280546101d690610eda565b80156102235780601f106101f857610100808354040283529160200191610223565b820191906000526020600020905b81548152906001019060200180831161020657829003601f168201915b5050505050905090565b60038054606091906101aa90610eda565b610246610a7f565b604080516101208101909152600080546060830190815260018054849291849160808501919061027590610eda565b80601f01602080910402602001604051908101604052809291908181526020018280546102a190610eda565b80156102ee5780601f106102c3576101008083540402835291602001916102ee565b820191906000526020600020905b8154815290600101906020018083116102d157829003601f168201915b5050505050815260200160028201805461030790610eda565b80601f016020809104026020016040519081016040528092919081815260200182805461033390610eda565b80156103805780601f1061035557610100808354040283529160200191610380565b820191906000526020600020905b81548152906001019060200180831161036357829003601f168201915b5050505050815260200160038201805461039990610eda565b80601f01602080910402602001604051908101604052809291908181526020018280546103c590610eda565b80156104125780601f106103e757610100808354040283529160200191610412565b820191906000526020600020905b8154815290600101906020018083116103f557829003601f168201915b5050505050815260200160048201805461042b90610eda565b80601f016020809104026020016040519081016040528092919081815260200182805461045790610eda565b80156104a45780601f10610479576101008083540402835291602001916104a4565b820191906000526020600020905b81548152906001019060200180831161048757829003601f168201915b50505050508152602001600582015481525050815260200160068201548152602001600782015481525050905090565b60048054606091906101aa90610eda565b61051e6040518060c001604052806000815260200160608152602001606081526020016060815260200160608152602001600081525090565b6040805160c081019091526000805482526001805460208401919061054290610eda565b80601f016020809104026020016040519081016040528092919081815260200182805461056e90610eda565b80156105bb5780601f10610590576101008083540402835291602001916105bb565b820191906000526020600020905b81548152906001019060200180831161059e57829003601f168201915b505050505081526020016002820180546105d490610eda565b80601f016020809104026020016040519081016040528092919081815260200182805461060090610eda565b801561064d5780601f106106225761010080835404028352916020019161064d565b820191906000526020600020905b81548152906001019060200180831161063057829003601f168201915b5050505050815260200160038201805461066690610eda565b80601f016020809104026020016040519081016040528092919081815260200182805461069290610eda565b80156106df5780601f106106b4576101008083540402835291602001916106df565b820191906000526020600020905b8154815290600101906020018083116106c257829003601f168201915b505050505081526020016004820180546106f890610eda565b80601f016020809104026020016040519081016040528092919081815260200182805461072490610eda565b80156107715780601f1061074657610100808354040283529160200191610771565b820191906000526020600020905b81548152906001019060200180831161075457829003601f168201915b50505050508152602001600582015481525050905090565b6000806000016040518060c0016040529081600082015481526020016001820180546107b490610eda565b80601f01602080910402602001604051908101604052809291908181526020018280546107e090610eda565b801561082d5780601f106108025761010080835404028352916020019161082d565b820191906000526020600020905b81548152906001019060200180831161081057829003601f168201915b5050505050815260200160028201805461084690610eda565b80601f016020809104026020016040519081016040528092919081815260200182805461087290610eda565b80156108bf5780601f10610894576101008083540402835291602001916108bf565b820191906000526020600020905b8154815290600101906020018083116108a257829003601f168201915b505050505081526020016003820180546108d890610eda565b80601f016020809104026020016040519081016040528092919081815260200182805461090490610eda565b80156109515780601f1061092657610100808354040283529160200191610951565b820191906000526020600020905b81548152906001019060200180831161093457829003601f168201915b5050505050815260200160048201805461096a90610eda565b80601f016020809104026020016040519081016040528092919081815260200182805461099690610eda565b80156109e35780601f106109b8576101008083540402835291602001916109e3565b820191906000526020600020905b8154815290600101906020018083116109c657829003601f168201915b50505050508152602001600582015481525050908060060154908060070154905083565b60018054606091906101aa90610eda565b60008790558551610a30906001906020890190610ad7565b508451610a44906002906020880190610ad7565b508351610a58906003906020870190610ad7565b508251610a6c906004906020860190610ad7565b5060055560065550506000600755505050565b6040518060600160405280610ac36040518060c001604052806000815260200160608152602001606081526020016060815260200160608152602001600081525090565b815260200160008152602001600081525090565b828054610ae390610eda565b90600052602060002090601f016020900481019282610b055760008555610b4b565b82601f10610b1e57805160ff1916838001178555610b4b565b82800160010185558215610b4b579182015b82811115610b4b578251825591602001919060010190610b30565b50610b57929150610b5b565b5090565b5b80821115610b575760008155600101610b5c565b6000610b83610b7e84610e73565b610e57565b905082815260208101848484011115610b9b57600080fd5b610ba6848285610e9e565b509392505050565b600082601f830112610bbe578081fd5b8135610bce848260208601610b70565b949350505050565b80355b92915050565b600060208284031215610bf0578081fd5b610bfc83828401610bd6565b9392505050565b600080600080600080600060e0888a031215610c1d578283fd5b610c2989848a01610bd6565b9650602088013567ffffffffffffffff811115610c44578384fd5b610c508a828b01610bae565b965050604088013567ffffffffffffffff811115610c6c578384fd5b610c788a828b01610bae565b955050606088013567ffffffffffffffff811115610c94578384fd5b610ca08a828b01610bae565b945050608088013567ffffffffffffffff811115610cbc578384fd5b610cc88a828b01610bae565b93505060a0610cd98a828b01610bd6565b92505060c0610cea8a828b01610bd6565b91505092959891949750929550565b6000610d03825190565b808452602084019350610d1a818560208601610eaa565b601f01601f19169290920192915050565b8051606080845260009190840190610d438282610d69565b9150506020830151610d5760208601829052565b506040830151610ba660408601829052565b8051825260208082015160c0918401829052600091840190610d8b8282610cf9565b91505060408301518482036040860152610da58282610cf9565b91505060608301518482036060860152610dbf8282610cf9565b91505060808301518482036080860152610dd98282610cf9565b91505060a0830151610ba660a08601829052565b60208082528101610bfc8184610cf9565b60208082528101610bfc8184610d2b565b60208082528101610bfc8184610d69565b60608082528101610e318186610d69565b9050610e3f60208301859052565b610bce60408301849052565b81815260208101610bd9565b6000610e6260405190565b9050610e6e8282610f07565b919050565b600067ffffffffffffffff821115610e8d57610e8d610f63565b601f19601f83011660200192915050565b82818337506000910152565b60005b83811015610ec5578181015183820152602001610ead565b83811115610ed4576000848401525b50505050565b600281046001821680610eee57607f821691505b60208210811415610f0157610f01610f34565b50919050565b601f19601f830116810181811067ffffffffffffffff82111715610f2d57610f2d610f63565b6040525050565b7f4e487b7100000000000000000000000000000000000000000000000000000000600052602260045260246000fd5b7f4e487b7100000000000000000000000000000000000000000000000000000000600052604160045260246000fdfea26469706673582212201c55f38692e233af5944616b69b16412db889957ac4e9e26027e478456be2b9c64736f6c63430008040033",
  "linkReferences": {},
  "deployedLinkReferences": {}
}