{
  "_format": "hh-sol-artifact-1",
  "contractName": "ItemMarket",
  "sourceName": "contracts/ItemMarket.sol",
  "abi": [
    {
      "anonymous": false,
      "inputs": [
        {
          "indexed": true,
          "internalType": "address",
          "name": "buyer",
          "type": "address"
        },
        {
          "indexed": true,
          "internalType": "address",
          "name": "seller",
          "type": "address"
        },
        {
          "indexed": true,
          "internalType": "address",
          "name": "tokenAddress",
          "type": "address"
        },
        {
          "indexed": false,
          "internalType": "uint256",
          "name": "id",
          "type": "uint256"
        },
        {
          "indexed": false,
          "internalType": "uint256",
          "name": "amount",
          "type": "uint256"
        },
        {
          "indexed": false,
          "internalType": "uint256",
          "name": "price",
          "type": "uint256"
        }
      ],
      "name": "BuyItem",
      "type": "event"
    },
    {
      "anonymous": false,
      "inputs": [
        {
          "indexed": true,
          "internalType": "address",
          "name": "seller",
          "type": "address"
        },
        {
          "indexed": true,
          "internalType": "address",
          "name": "tokenAddress",
          "type": "address"
        },
        {
          "indexed": false,
          "internalType": "uint256",
          "name": "id",
          "type": "uint256"
        },
        {
          "indexed": false,
          "internalType": "uint256",
          "name": "amount",
          "type": "uint256"
        },
        {
          "indexed": false,
          "internalType": "uint256",
          "name": "price",
          "type": "uint256"
        }
      ],
      "name": "ListItem",
      "type": "event"
    },
    {
      "anonymous": false,
      "inputs": [
        {
          "indexed": true,
          "internalType": "address",
          "name": "seller",
          "type": "address"
        },
        {
          "indexed": true,
          "internalType": "address",
          "name": "tokenAddress",
          "type": "address"
        },
        {
          "indexed": false,
          "internalType": "uint256",
          "name": "id",
          "type": "uint256"
        },
        {
          "indexed": false,
          "internalType": "uint256",
          "name": "amount",
          "type": "uint256"
        }
      ],
      "name": "RemoveItem",
      "type": "event"
    },
    {
      "inputs": [
        {
          "internalType": "address",
          "name": "_tokenAddress",
          "type": "address"
        },
        {
          "internalType": "uint256",
          "name": "_id",
          "type": "uint256"
        },
        {
          "internalType": "uint256",
          "name": "_amount",
          "type": "uint256"
        }
      ],
      "name": "buyItem",
      "outputs": [],
      "stateMutability": "payable",
      "type": "function"
    },
    {
      "inputs": [],
      "name": "getAllItems",
      "outputs": [
        {
          "components": [
            {
              "internalType": "address payable",
              "name": "seller",
              "type": "address"
            },
            {
              "internalType": "uint256",
              "name": "id",
              "type": "uint256"
            },
            {
              "internalType": "uint256",
              "name": "amount",
              "type": "uint256"
            },
            {
              "internalType": "uint256",
              "name": "price",
              "type": "uint256"
            }
          ],
          "internalType": "struct ItemMarket.SaleInfo[]",
          "name": "",
          "type": "tuple[]"
        }
      ],
      "stateMutability": "view",
      "type": "function"
    },
    {
      "inputs": [],
      "name": "getTotalItems",
      "outputs": [
        {
          "internalType": "uint256",
          "name": "",
          "type": "uint256"
        }
      ],
      "stateMutability": "view",
      "type": "function"
    },
    {
      "inputs": [
        {
          "internalType": "uint16",
          "name": "",
          "type": "uint16"
        }
      ],
      "name": "inventory",
      "outputs": [
        {
          "internalType": "address payable",
          "name": "seller",
          "type": "address"
        },
        {
          "internalType": "uint256",
          "name": "id",
          "type": "uint256"
        },
        {
          "internalType": "uint256",
          "name": "amount",
          "type": "uint256"
        },
        {
          "internalType": "uint256",
          "name": "price",
          "type": "uint256"
        }
      ],
      "stateMutability": "view",
      "type": "function"
    },
    {
      "inputs": [
        {
          "internalType": "address",
          "name": "_tokenAddress",
          "type": "address"
        },
        {
          "internalType": "uint256",
          "name": "_id",
          "type": "uint256"
        },
        {
          "internalType": "uint256",
          "name": "_amount",
          "type": "uint256"
        },
        {
          "internalType": "uint256",
          "name": "_price",
          "type": "uint256"
        }
      ],
      "name": "listItem",
      "outputs": [],
      "stateMutability": "nonpayable",
      "type": "function"
    },
    {
      "inputs": [
        {
          "internalType": "address",
          "name": "",
          "type": "address"
        },
        {
          "internalType": "address",
          "name": "",
          "type": "address"
        },
        {
          "internalType": "uint256[]",
          "name": "",
          "type": "uint256[]"
        },
        {
          "internalType": "uint256[]",
          "name": "",
          "type": "uint256[]"
        },
        {
          "internalType": "bytes",
          "name": "",
          "type": "bytes"
        }
      ],
      "name": "onERC1155BatchReceived",
      "outputs": [
        {
          "internalType": "bytes4",
          "name": "",
          "type": "bytes4"
        }
      ],
      "stateMutability": "nonpayable",
      "type": "function"
    },
    {
      "inputs": [
        {
          "internalType": "address",
          "name": "",
          "type": "address"
        },
        {
          "internalType": "address",
          "name": "",
          "type": "address"
        },
        {
          "internalType": "uint256",
          "name": "",
          "type": "uint256"
        },
        {
          "internalType": "uint256",
          "name": "",
          "type": "uint256"
        },
        {
          "internalType": "bytes",
          "name": "",
          "type": "bytes"
        }
      ],
      "name": "onERC1155Received",
      "outputs": [
        {
          "internalType": "bytes4",
          "name": "",
          "type": "bytes4"
        }
      ],
      "stateMutability": "nonpayable",
      "type": "function"
    },
    {
      "inputs": [
        {
          "internalType": "address",
          "name": "_tokenAddress",
          "type": "address"
        },
        {
          "internalType": "uint256",
          "name": "_id",
          "type": "uint256"
        },
        {
          "internalType": "uint256",
          "name": "_amount",
          "type": "uint256"
        }
      ],
      "name": "removeItem",
      "outputs": [],
      "stateMutability": "nonpayable",
      "type": "function"
    },
    {
      "inputs": [
        {
          "internalType": "bytes4",
          "name": "interfaceId",
          "type": "bytes4"
        }
      ],
      "name": "supportsInterface",
      "outputs": [
        {
          "internalType": "bool",
          "name": "",
          "type": "bool"
        }
      ],
      "stateMutability": "view",
      "type": "function"
    }
  ],
  "bytecode": "0x608060405234801561001057600080fd5b506001600081905550611db9806100286000396000f3fe6080604052600436106100965760003560e01c8063bc197c8111610069578063be63f7821161004e578063be63f782146101bd578063f23a6e61146101fd578063f6b45c461461023a57610096565b8063bc197c8114610157578063bcb143ef1461019457610096565b806301ffc9a71461009b578063310aac69146100d85780634ba1d6aa1461010357806366de6ebb1461012e575b600080fd5b3480156100a757600080fd5b506100c260048036038101906100bd9190611206565b610256565b6040516100cf91906115f9565b60405180910390f35b3480156100e457600080fd5b506100ed6102d0565b6040516100fa919061179f565b60405180910390f35b34801561010f57600080fd5b506101186102dd565b60405161012591906115d7565b60405180910390f35b34801561013a57600080fd5b506101556004803603810190610150919061115c565b6104db565b005b34801561016357600080fd5b5061017e6004803603810190610179919061101a565b610680565b60405161018b9190611614565b60405180910390f35b3480156101a057600080fd5b506101bb60048036038101906101b691906111a7565b610695565b005b3480156101c957600080fd5b506101e460048036038101906101df919061122b565b610911565b6040516101f4949392919061153a565b60405180910390f35b34801561020957600080fd5b50610224600480360381019061021f91906110d2565b610961565b6040516102319190611614565b60405180910390f35b610254600480360381019061024f919061115c565b610976565b005b60007f4e2312e0000000000000000000000000000000000000000000000000000000007bffffffffffffffffffffffffffffffffffffffffffffffffffffffff1916827bffffffffffffffffffffffffffffffffffffffffffffffffffffffff191614806102c957506102c882610d5f565b5b9050919050565b6000600280549050905090565b606060006102e96102d0565b905060008167ffffffffffffffff81111561032d577f4e487b7100000000000000000000000000000000000000000000000000000000600052604160045260246000fd5b60405190808252806020026020018201604052801561036657816020015b610353610e8e565b81526020019060019003908161034b5790505b50905060005b828110156104d2576000819050600060028261ffff16815481106103b9577f4e487b7100000000000000000000000000000000000000000000000000000000600052603260045260246000fd5b90600052602060002090601091828204019190066002029054906101000a900461ffff169050600160008261ffff1661ffff1681526020019081526020016000206040518060800160405290816000820160009054906101000a900473ffffffffffffffffffffffffffffffffffffffff1673ffffffffffffffffffffffffffffffffffffffff1673ffffffffffffffffffffffffffffffffffffffff16815260200160018201548152602001600282015481526020016003820154815250508484815181106104b2577f4e487b7100000000000000000000000000000000000000000000000000000000600052603260045260246000fd5b6020026020010181905250505080806104ca90611a63565b91505061036c565b50809250505090565b600081141561051f576040517f08c379a00000000000000000000000000000000000000000000000000000000081526004016105169061165f565b60405180910390fd5b60008290506000600160008361ffff1661ffff1681526020019081526020016000209050828160020154101561058a576040517f08c379a00000000000000000000000000000000000000000000000000000000081526004016105819061171f565b60405180910390fd5b82816002015461059a919061193a565b81600201819055508473ffffffffffffffffffffffffffffffffffffffff1663f242432a303387876040518563ffffffff1660e01b81526004016105e1949392919061157f565b600060405180830381600087803b1580156105fb57600080fd5b505af115801561060f573d6000803e3d6000fd5b505050508473ffffffffffffffffffffffffffffffffffffffff163373ffffffffffffffffffffffffffffffffffffffff167e217e26650c4967b729231fe20b51f925d29551961ca00166a67709c094871a86866040516106719291906117ba565b60405180910390a35050505050565b600063bc197c8160e01b905095945050505050565b600081116106d8576040517f08c379a00000000000000000000000000000000000000000000000000000000081526004016106cf9061175f565b60405180910390fd5b600082141561071c576040517f08c379a0000000000000000000000000000000000000000000000000000000008152600401610713906116ff565b60405180910390fd5b60008390506000600160008361ffff1661ffff16815260200190815260200160002090506000816002015414610787576040517f08c379a000000000000000000000000000000000000000000000000000000000815260040161077e906116bf565b60405180910390fd5b848160010181905550838160020181905550828160030181905550338160000160006101000a81548173ffffffffffffffffffffffffffffffffffffffff021916908373ffffffffffffffffffffffffffffffffffffffff16021790555060028290806001815401808255809150506001900390600052602060002090601091828204019190066002029091909190916101000a81548161ffff021916908361ffff1602179055508573ffffffffffffffffffffffffffffffffffffffff1663f242432a333088886040518563ffffffff1660e01b815260040161086e949392919061157f565b600060405180830381600087803b15801561088857600080fd5b505af115801561089c573d6000803e3d6000fd5b505050508573ffffffffffffffffffffffffffffffffffffffff163373ffffffffffffffffffffffffffffffffffffffff167f63dae334df4ed88251ae019d58f6e1d070bc2ce749a4d5d8670852420323dc09878787604051610901939291906117e3565b60405180910390a3505050505050565b60016020528060005260406000206000915090508060000160009054906101000a900473ffffffffffffffffffffffffffffffffffffffff16908060010154908060020154908060030154905084565b600063f23a6e6160e01b905095945050505050565b600260005414156109bc576040517f08c379a00000000000000000000000000000000000000000000000000000000081526004016109b39061173f565b60405180910390fd5b60026000819055506000811415610a08576040517f08c379a00000000000000000000000000000000000000000000000000000000081526004016109ff9061167f565b60405180910390fd5b60008290506000600160008361ffff1661ffff16815260200190815260200160002090508281600201541015610a73576040517f08c379a0000000000000000000000000000000000000000000000000000000008152600401610a6a9061177f565b60405180910390fd5b600081600301549050610abb6040518060400160405280600581526020017f707269636500000000000000000000000000000000000000000000000000000081525082610dc9565b610afa6040518060400160405280600681526020017f616d6f756e74000000000000000000000000000000000000000000000000000081525085610dc9565b60008482610b0891906118e0565b905080341015610b4d576040517f08c379a0000000000000000000000000000000000000000000000000000000008152600401610b44906116df565b60405180910390fd5b84836002016000828254610b61919061193a565b9250508190555060008360000160009054906101000a900473ffffffffffffffffffffffffffffffffffffffff1673ffffffffffffffffffffffffffffffffffffffff1634604051610bb290611525565b60006040518083038185875af1925050503d8060008114610bef576040519150601f19603f3d011682016040523d82523d6000602084013e610bf4565b606091505b5050905080610c38576040517f08c379a0000000000000000000000000000000000000000000000000000000008152600401610c2f9061169f565b60405180910390fd5b8773ffffffffffffffffffffffffffffffffffffffff1663f242432a30338a8a6040518563ffffffff1660e01b8152600401610c77949392919061157f565b600060405180830381600087803b158015610c9157600080fd5b505af1158015610ca5573d6000803e3d6000fd5b505050508773ffffffffffffffffffffffffffffffffffffffff168460000160009054906101000a900473ffffffffffffffffffffffffffffffffffffffff1673ffffffffffffffffffffffffffffffffffffffff163373ffffffffffffffffffffffffffffffffffffffff167fb10ea0416ebf85c36e0ba132a99151eb95174ec53fb76bbbba5058de53074c918a8a88604051610d45939291906117e3565b60405180910390a450505050506001600081905550505050565b60007f01ffc9a7000000000000000000000000000000000000000000000000000000007bffffffffffffffffffffffffffffffffffffffffffffffffffffffff1916827bffffffffffffffffffffffffffffffffffffffffffffffffffffffff1916149050919050565b610e618282604051602401610ddf92919061162f565b6040516020818303038152906040527f9710a9d0000000000000000000000000000000000000000000000000000000007bffffffffffffffffffffffffffffffffffffffffffffffffffffffff19166020820180517bffffffffffffffffffffffffffffffffffffffffffffffffffffffff8381831617835250505050610e65565b5050565b60008151905060006a636f6e736f6c652e6c6f679050602083016000808483855afa5050505050565b6040518060800160405280600073ffffffffffffffffffffffffffffffffffffffff1681526020016000815260200160008152602001600081525090565b6000610edf610eda8461183f565b61181a565b90508083825260208201905082856020860285011115610efe57600080fd5b60005b85811015610f2c57610f138783611005565b8352602083019250602082019150600181019050610f01565b5050509392505050565b6000610f49610f448461186b565b61181a565b905082815260208101848484011115610f6157600080fd5b610f6c8482856119f0565b509392505050565b600081359050610f8381611d27565b92915050565b600082601f830112610f99578081fd5b8135610fa9848260208601610ecc565b91505092915050565b600081359050610fc181611d3e565b92915050565b600082601f830112610fd7578081fd5b8135610fe7848260208601610f36565b91505092915050565b600081359050610fff81611d55565b92915050565b60008135905061101481611d6c565b92915050565b600080600080600060a08688031215611031578081fd5b61103d87828801610f74565b9450602061104d88828901610f74565b945050604086013567ffffffffffffffff811115611069578182fd5b61107588828901610f89565b935050606086013567ffffffffffffffff811115611091578182fd5b61109d88828901610f89565b925050608086013567ffffffffffffffff8111156110b9578182fd5b6110c588828901610fc7565b9150509295509295909350565b600080600080600060a086880312156110e9578081fd5b6110f587828801610f74565b9450602061110588828901610f74565b945050604061111688828901611005565b935050606061112788828901611005565b925050608086013567ffffffffffffffff811115611143578182fd5b61114f88828901610fc7565b9150509295509295909350565b600080600060608486031215611170578283fd5b61117c85848601610f74565b9250602061118c86828701611005565b925050604061119d86828701611005565b9150509250925092565b600080600080608085870312156111bc578384fd5b6111c886858701610f74565b935060206111d887828801611005565b93505060406111e987828801611005565b92505060606111fa87828801611005565b91505092959194509250565b600060208284031215611217578081fd5b61122383828401610fb2565b905092915050565b60006020828403121561123c578081fd5b61124883828401610ff0565b905092915050565b61125a82826114c6565b506000608082019050919050565b6112718161196e565b82525050565b6112808161196e565b82525050565b6000611291826118ac565b61129b81856118c4565b93506112a68361189c565b825b828110156112d55781516112bc8782611250565b9650506112c8826118b7565b91506001810190506112a8565b50505082905092915050565b6112ea81611980565b82525050565b6112f98161198c565b82525050565b600061130a826118ac565b61131481856118c4565b93506113248185602086016119ff565b61132d81611b0a565b840191505092915050565b611343601f826118c4565b905061134e81611b1b565b6000602082019050919050565b611366601c826118c4565b905061137181611b44565b6000602082019050919050565b6113896014826118c4565b905061139481611b6d565b6000602082019050919050565b6113ac602b826118c4565b90506113b781611b96565b6000604082019050919050565b6113cf6032826118c4565b90506113da81611be5565b6000604082019050919050565b6113f2601d826118c4565b90506113fd81611c34565b6000602082019050919050565b6114156022826118c4565b905061142081611c5d565b6000604082019050919050565b600061143981836118c4565b91508082019050919050565b600061145181836118d5565b91508082019050919050565b611468601f826118c4565b905061147381611cac565b6000602082019050919050565b61148b601c826118c4565b905061149681611cd5565b6000602082019050919050565b6114ae6020826118c4565b90506114b981611cfe565b6000602082019050919050565b60008101516114d86000840182611268565b5060208101516114eb6020840182611516565b5060408101516114fe6040840182611516565b5060608101516115116060840182611516565b505050565b61151f816119e6565b82525050565b61152e81611445565b90506000819050919050565b600060808201905061154f6000830187611268565b61155c6020830186611516565b6115696040830185611516565b6115766060830184611516565b95945050505050565b600060a0820190506115946000830187611277565b6115a16020830186611277565b6115ae6040830185611516565b6115bb6060830184611516565b81810360808301526115cc8161142d565b905095945050505050565b600060208201905081810360008301526115f18184611286565b905092915050565b600060208201905061160e60008301846112e1565b92915050565b600060208201905061162960008301846112f0565b92915050565b6000604082019050818103600083015261164981856112ff565b90506116586020830184611516565b9392505050565b6000602082019050818103600083015261167881611338565b9050919050565b600060208201905081810360008301526116988161135b565b9050919050565b600060208201905081810360008301526116b88161137e565b9050919050565b600060208201905081810360008301526116d8816113a1565b9050919050565b600060208201905081810360008301526116f8816113c4565b9050919050565b60006020820190508181036000830152611718816113e7565b9050919050565b600060208201905081810360008301526117388161140a565b9050919050565b600060208201905081810360008301526117588161145d565b9050919050565b6000602082019050818103600083015261177881611480565b9050919050565b60006020820190508181036000830152611798816114a3565b9050919050565b60006020820190506117b46000830184611516565b92915050565b60006040820190506117cf6000830185611516565b6117dc6020830184611516565b9392505050565b60006060820190506117f86000830186611516565b6118056020830185611516565b6118126040830184611516565b949350505050565b6000611824611835565b90506118308282611a32565b919050565b6000604051905090565b600067ffffffffffffffff82111561185a57611859611adb565b5b602082029050602081019050919050565b600067ffffffffffffffff82111561188657611885611adb565b5b61188f82611b0a565b9050602081019050919050565b6000819050602082019050919050565b600081519050919050565b6000602082019050919050565b818152600060208201905092915050565b600081905092915050565b6118e9816119e6565b90506118f4826119e6565b91506000817fffffffffffffffffffffffffffffffffffffffffffffffffffffffffffffffff048311821515161561192f5761192e611aac565b5b828202905092915050565b611943816119e6565b905061194e826119e6565b915060008282101561196357611962611aac565b5b828203905092915050565b6000611979826119c6565b9050919050565b60008115159050919050565b60007fffffffff0000000000000000000000000000000000000000000000000000000082169050919050565b600061ffff82169050919050565b600073ffffffffffffffffffffffffffffffffffffffff82169050919050565b6000819050919050565b82818337600083830152505050565b60005b83811015611a1d578082015181840152602081019050611a02565b83811115611a2c576000848401525b50505050565b611a3b82611b0a565b810181811067ffffffffffffffff82111715611a5a57611a59611adb565b5b80604052505050565b611a6c816119e6565b905060007fffffffffffffffffffffffffffffffffffffffffffffffffffffffffffffffff821415611aa157611aa0611aac565b5b600182019050919050565b7f4e487b7100000000000000000000000000000000000000000000000000000000600052601160045260246000fd5b7f4e487b7100000000000000000000000000000000000000000000000000000000600052604160045260246000fd5b6000601f19601f8301169050919050565b7f4d61726b6574506c6163653a206e6f7468696e6720746f2072656d6f76652e00600082015250565b7f4d61726b6574506c6163653a206e6f7468696e6720746f206275792e00000000600082015250565b7f4661696c656420746f2073656e64204574686572000000000000000000000000600082015250565b7f4d61726b6574506c6163653a2063616e63656c206578697374696e67206c697360008201527f74696e672066697273742e000000000000000000000000000000000000000000602082015250565b7f4d61726b6574506c6163653a206e6f7420656e6f756768742045544820746f2060008201527f636f76657220746f74616c2070726963652e0000000000000000000000000000602082015250565b7f4d61726b6574506c6163653a206e6f7468696e6720746f206c6973742e000000600082015250565b7f4d61726b6574506c6163653a206e6f7420656e6f75676820746f2072656d6f7660008201527f652e000000000000000000000000000000000000000000000000000000000000602082015250565b7f5265656e7472616e637947756172643a207265656e7472616e742063616c6c00600082015250565b7f5072696365206d757374206265206174206c6561737420312077656900000000600082015250565b7f4d61726b6574506c6163653a206e6f7420656e6f75676820746f2073656c6c2e600082015250565b611d308161196e565b8114611d3b57600080fd5b50565b611d478161198c565b8114611d5257600080fd5b50565b611d5e816119b8565b8114611d6957600080fd5b50565b611d75816119e6565b8114611d8057600080fd5b5056fea26469706673582212203937229acc5844114f713ce4d868ac5493e4ca230b9117172cea4ba176f3435964736f6c63430008040033",
  "linkReferences": {},
  "deployedLinkReferences": {}
}