{
  "_format": "hh-sol-artifact-1",
  "contractName": "PokemonGame",
  "sourceName": "contracts/PokemonGame.sol",
  "abi": [
    {
      "inputs": [
        {
          "internalType": "uint256[]",
          "name": "pokemonIndexes",
          "type": "uint256[]"
        },
        {
          "internalType": "string[]",
          "name": "pokemonNames",
          "type": "string[]"
        },
        {
          "internalType": "string[]",
          "name": "pokemonImageURIs",
          "type": "string[]"
        },
        {
          "internalType": "uint256[]",
          "name": "pokemonHp",
          "type": "uint256[]"
        },
        {
          "internalType": "uint256[]",
          "name": "pokemonAttack",
          "type": "uint256[]"
        },
        {
          "internalType": "uint256[]",
          "name": "bossData",
          "type": "uint256[]"
        }
      ],
      "stateMutability": "nonpayable",
      "type": "constructor"
    },
    {
      "anonymous": false,
      "inputs": [
        {
          "indexed": true,
          "internalType": "address",
          "name": "owner",
          "type": "address"
        },
        {
          "indexed": true,
          "internalType": "address",
          "name": "approved",
          "type": "address"
        },
        {
          "indexed": true,
          "internalType": "uint256",
          "name": "tokenId",
          "type": "uint256"
        }
      ],
      "name": "Approval",
      "type": "event"
    },
    {
      "anonymous": false,
      "inputs": [
        {
          "indexed": true,
          "internalType": "address",
          "name": "owner",
          "type": "address"
        },
        {
          "indexed": true,
          "internalType": "address",
          "name": "operator",
          "type": "address"
        },
        {
          "indexed": false,
          "internalType": "bool",
          "name": "approved",
          "type": "bool"
        }
      ],
      "name": "ApprovalForAll",
      "type": "event"
    },
    {
      "anonymous": false,
      "inputs": [
        {
          "indexed": false,
          "internalType": "uint256",
          "name": "newBossHp",
          "type": "uint256"
        },
        {
          "indexed": false,
          "internalType": "uint256",
          "name": "newPokemonHp",
          "type": "uint256"
        }
      ],
      "name": "AttackComplete",
      "type": "event"
    },
    {
      "anonymous": false,
      "inputs": [
        {
          "indexed": false,
          "internalType": "enum PokemonGame.BattleStatus",
          "name": "status",
          "type": "uint8"
        }
      ],
      "name": "BattleComplete",
      "type": "event"
    },
    {
      "anonymous": false,
      "inputs": [
        {
          "indexed": false,
          "internalType": "uint256",
          "name": "level",
          "type": "uint256"
        },
        {
          "components": [
            {
              "internalType": "uint256",
              "name": "hp",
              "type": "uint256"
            },
            {
              "internalType": "uint256",
              "name": "maxHp",
              "type": "uint256"
            },
            {
              "internalType": "uint256",
              "name": "attack",
              "type": "uint256"
            }
          ],
          "indexed": false,
          "internalType": "struct LPokemonData.Stats",
          "name": "stats",
          "type": "tuple"
        }
      ],
      "name": "LevelUp",
      "type": "event"
    },
    {
      "anonymous": false,
      "inputs": [
        {
          "indexed": false,
          "internalType": "address",
          "name": "sender",
          "type": "address"
        },
        {
          "indexed": false,
          "internalType": "uint256",
          "name": "tokenId",
          "type": "uint256"
        },
        {
          "indexed": false,
          "internalType": "uint256",
          "name": "pokemonId",
          "type": "uint256"
        }
      ],
      "name": "PokemonNFTMinted",
      "type": "event"
    },
    {
      "anonymous": false,
      "inputs": [
        {
          "indexed": true,
          "internalType": "address",
          "name": "from",
          "type": "address"
        },
        {
          "indexed": true,
          "internalType": "address",
          "name": "to",
          "type": "address"
        },
        {
          "indexed": true,
          "internalType": "uint256",
          "name": "tokenId",
          "type": "uint256"
        }
      ],
      "name": "Transfer",
      "type": "event"
    },
    {
      "inputs": [
        {
          "internalType": "address",
          "name": "to",
          "type": "address"
        },
        {
          "internalType": "uint256",
          "name": "tokenId",
          "type": "uint256"
        }
      ],
      "name": "approve",
      "outputs": [],
      "stateMutability": "nonpayable",
      "type": "function"
    },
    {
      "inputs": [
        {
          "internalType": "uint256",
          "name": "pokemonIndex",
          "type": "uint256"
        }
      ],
      "name": "attackBoss",
      "outputs": [],
      "stateMutability": "nonpayable",
      "type": "function"
    },
    {
      "inputs": [
        {
          "internalType": "address",
          "name": "owner",
          "type": "address"
        }
      ],
      "name": "balanceOf",
      "outputs": [
        {
          "internalType": "uint256",
          "name": "",
          "type": "uint256"
        }
      ],
      "stateMutability": "view",
      "type": "function"
    },
    {
      "inputs": [],
      "name": "boss",
      "outputs": [
        {
          "internalType": "contract PokemonData",
          "name": "",
          "type": "address"
        }
      ],
      "stateMutability": "view",
      "type": "function"
    },
    {
      "inputs": [],
      "name": "getAllPokemons",
      "outputs": [
        {
          "internalType": "contract PokemonData[]",
          "name": "",
          "type": "address[]"
        }
      ],
      "stateMutability": "view",
      "type": "function"
    },
    {
      "inputs": [
        {
          "internalType": "uint256",
          "name": "tokenId",
          "type": "uint256"
        }
      ],
      "name": "getApproved",
      "outputs": [
        {
          "internalType": "address",
          "name": "",
          "type": "address"
        }
      ],
      "stateMutability": "view",
      "type": "function"
    },
    {
      "inputs": [],
      "name": "getBoss",
      "outputs": [
        {
          "internalType": "contract PokemonData",
          "name": "",
          "type": "address"
        }
      ],
      "stateMutability": "view",
      "type": "function"
    },
    {
      "inputs": [
        {
          "internalType": "uint256",
          "name": "id",
          "type": "uint256"
        }
      ],
      "name": "getPokemon",
      "outputs": [
        {
          "internalType": "contract PokemonData",
          "name": "",
          "type": "address"
        }
      ],
      "stateMutability": "view",
      "type": "function"
    },
    {
      "inputs": [
        {
          "internalType": "uint256",
          "name": "pokemonIndex",
          "type": "uint256"
        },
        {
          "internalType": "address",
          "name": "sender",
          "type": "address"
        }
      ],
      "name": "getPokemonByIndexOf",
      "outputs": [
        {
          "internalType": "contract PokemonData",
          "name": "",
          "type": "address"
        }
      ],
      "stateMutability": "view",
      "type": "function"
    },
    {
      "inputs": [
        {
          "internalType": "uint256",
          "name": "tokenId",
          "type": "uint256"
        }
      ],
      "name": "getPokemonNft",
      "outputs": [
        {
          "internalType": "contract PokemonData",
          "name": "",
          "type": "address"
        }
      ],
      "stateMutability": "view",
      "type": "function"
    },
    {
      "inputs": [
        {
          "internalType": "contract PokemonData",
          "name": "pokemonData",
          "type": "address"
        }
      ],
      "name": "getPokemonReadable",
      "outputs": [
        {
          "components": [
            {
              "components": [
                {
                  "internalType": "uint256",
                  "name": "id",
                  "type": "uint256"
                },
                {
                  "internalType": "string",
                  "name": "name",
                  "type": "string"
                },
                {
                  "internalType": "string",
                  "name": "imageURI",
                  "type": "string"
                }
              ],
              "internalType": "struct LPokemonData.Info",
              "name": "info",
              "type": "tuple"
            },
            {
              "components": [
                {
                  "internalType": "uint256",
                  "name": "hp",
                  "type": "uint256"
                },
                {
                  "internalType": "uint256",
                  "name": "maxHp",
                  "type": "uint256"
                },
                {
                  "internalType": "uint256",
                  "name": "attack",
                  "type": "uint256"
                }
              ],
              "internalType": "struct LPokemonData.Stats",
              "name": "stats",
              "type": "tuple"
            },
            {
              "internalType": "uint256",
              "name": "level",
              "type": "uint256"
            },
            {
              "internalType": "uint256",
              "name": "experience",
              "type": "uint256"
            },
            {
              "internalType": "uint256",
              "name": "totalExperience",
              "type": "uint256"
            }
          ],
          "internalType": "struct LPokemonData.Data",
          "name": "",
          "type": "tuple"
        }
      ],
      "stateMutability": "view",
      "type": "function"
    },
    {
      "inputs": [
        {
          "internalType": "address",
          "name": "sender",
          "type": "address"
        },
        {
          "internalType": "uint256",
          "name": "pokemonIndex",
          "type": "uint256"
        }
      ],
      "name": "getPokemonSelected",
      "outputs": [
        {
          "components": [
            {
              "components": [
                {
                  "internalType": "uint256",
                  "name": "id",
                  "type": "uint256"
                },
                {
                  "internalType": "string",
                  "name": "name",
                  "type": "string"
                },
                {
                  "internalType": "string",
                  "name": "imageURI",
                  "type": "string"
                }
              ],
              "internalType": "struct LPokemonData.Info",
              "name": "info",
              "type": "tuple"
            },
            {
              "components": [
                {
                  "internalType": "uint256",
                  "name": "hp",
                  "type": "uint256"
                },
                {
                  "internalType": "uint256",
                  "name": "maxHp",
                  "type": "uint256"
                },
                {
                  "internalType": "uint256",
                  "name": "attack",
                  "type": "uint256"
                }
              ],
              "internalType": "struct LPokemonData.Stats",
              "name": "stats",
              "type": "tuple"
            },
            {
              "internalType": "uint256",
              "name": "level",
              "type": "uint256"
            },
            {
              "internalType": "uint256",
              "name": "experience",
              "type": "uint256"
            },
            {
              "internalType": "uint256",
              "name": "totalExperience",
              "type": "uint256"
            }
          ],
          "internalType": "struct LPokemonData.Data",
          "name": "",
          "type": "tuple"
        }
      ],
      "stateMutability": "view",
      "type": "function"
    },
    {
      "inputs": [
        {
          "internalType": "address",
          "name": "sender",
          "type": "address"
        }
      ],
      "name": "getPokemonsOf",
      "outputs": [
        {
          "components": [
            {
              "components": [
                {
                  "internalType": "uint256",
                  "name": "id",
                  "type": "uint256"
                },
                {
                  "internalType": "string",
                  "name": "name",
                  "type": "string"
                },
                {
                  "internalType": "string",
                  "name": "imageURI",
                  "type": "string"
                }
              ],
              "internalType": "struct LPokemonData.Info",
              "name": "info",
              "type": "tuple"
            },
            {
              "components": [
                {
                  "internalType": "uint256",
                  "name": "hp",
                  "type": "uint256"
                },
                {
                  "internalType": "uint256",
                  "name": "maxHp",
                  "type": "uint256"
                },
                {
                  "internalType": "uint256",
                  "name": "attack",
                  "type": "uint256"
                }
              ],
              "internalType": "struct LPokemonData.Stats",
              "name": "stats",
              "type": "tuple"
            },
            {
              "internalType": "uint256",
              "name": "level",
              "type": "uint256"
            },
            {
              "internalType": "uint256",
              "name": "experience",
              "type": "uint256"
            },
            {
              "internalType": "uint256",
              "name": "totalExperience",
              "type": "uint256"
            }
          ],
          "internalType": "struct LPokemonData.Data[]",
          "name": "",
          "type": "tuple[]"
        }
      ],
      "stateMutability": "view",
      "type": "function"
    },
    {
      "inputs": [],
      "name": "getTotalPokemons",
      "outputs": [
        {
          "internalType": "uint256",
          "name": "",
          "type": "uint256"
        }
      ],
      "stateMutability": "view",
      "type": "function"
    },
    {
      "inputs": [],
      "name": "getTotalPokemonsMinted",
      "outputs": [
        {
          "internalType": "uint256",
          "name": "",
          "type": "uint256"
        }
      ],
      "stateMutability": "view",
      "type": "function"
    },
    {
      "inputs": [],
      "name": "hasNft",
      "outputs": [
        {
          "components": [
            {
              "components": [
                {
                  "internalType": "uint256",
                  "name": "id",
                  "type": "uint256"
                },
                {
                  "internalType": "string",
                  "name": "name",
                  "type": "string"
                },
                {
                  "internalType": "string",
                  "name": "imageURI",
                  "type": "string"
                }
              ],
              "internalType": "struct LPokemonData.Info",
              "name": "info",
              "type": "tuple"
            },
            {
              "components": [
                {
                  "internalType": "uint256",
                  "name": "hp",
                  "type": "uint256"
                },
                {
                  "internalType": "uint256",
                  "name": "maxHp",
                  "type": "uint256"
                },
                {
                  "internalType": "uint256",
                  "name": "attack",
                  "type": "uint256"
                }
              ],
              "internalType": "struct LPokemonData.Stats",
              "name": "stats",
              "type": "tuple"
            },
            {
              "internalType": "uint256",
              "name": "level",
              "type": "uint256"
            },
            {
              "internalType": "uint256",
              "name": "experience",
              "type": "uint256"
            },
            {
              "internalType": "uint256",
              "name": "totalExperience",
              "type": "uint256"
            }
          ],
          "internalType": "struct LPokemonData.Data",
          "name": "",
          "type": "tuple"
        }
      ],
      "stateMutability": "view",
      "type": "function"
    },
    {
      "inputs": [
        {
          "internalType": "uint256",
          "name": "",
          "type": "uint256"
        }
      ],
      "name": "holders",
      "outputs": [
        {
          "internalType": "address",
          "name": "",
          "type": "address"
        }
      ],
      "stateMutability": "view",
      "type": "function"
    },
    {
      "inputs": [
        {
          "internalType": "address",
          "name": "owner",
          "type": "address"
        },
        {
          "internalType": "address",
          "name": "operator",
          "type": "address"
        }
      ],
      "name": "isApprovedForAll",
      "outputs": [
        {
          "internalType": "bool",
          "name": "",
          "type": "bool"
        }
      ],
      "stateMutability": "view",
      "type": "function"
    },
    {
      "inputs": [
        {
          "internalType": "uint256",
          "name": "_pokemonId",
          "type": "uint256"
        }
      ],
      "name": "mint",
      "outputs": [],
      "stateMutability": "nonpayable",
      "type": "function"
    },
    {
      "inputs": [],
      "name": "name",
      "outputs": [
        {
          "internalType": "string",
          "name": "",
          "type": "string"
        }
      ],
      "stateMutability": "view",
      "type": "function"
    },
    {
      "inputs": [
        {
          "internalType": "address",
          "name": "",
          "type": "address"
        },
        {
          "internalType": "uint256",
          "name": "",
          "type": "uint256"
        }
      ],
      "name": "nftsOfHolder",
      "outputs": [
        {
          "internalType": "uint256",
          "name": "",
          "type": "uint256"
        }
      ],
      "stateMutability": "view",
      "type": "function"
    },
    {
      "inputs": [
        {
          "internalType": "uint256",
          "name": "tokenId",
          "type": "uint256"
        }
      ],
      "name": "ownerOf",
      "outputs": [
        {
          "internalType": "address",
          "name": "",
          "type": "address"
        }
      ],
      "stateMutability": "view",
      "type": "function"
    },
    {
      "inputs": [
        {
          "internalType": "address",
          "name": "from",
          "type": "address"
        },
        {
          "internalType": "address",
          "name": "to",
          "type": "address"
        },
        {
          "internalType": "uint256",
          "name": "tokenId",
          "type": "uint256"
        }
      ],
      "name": "safeTransferFrom",
      "outputs": [],
      "stateMutability": "nonpayable",
      "type": "function"
    },
    {
      "inputs": [
        {
          "internalType": "address",
          "name": "from",
          "type": "address"
        },
        {
          "internalType": "address",
          "name": "to",
          "type": "address"
        },
        {
          "internalType": "uint256",
          "name": "tokenId",
          "type": "uint256"
        },
        {
          "internalType": "bytes",
          "name": "_data",
          "type": "bytes"
        }
      ],
      "name": "safeTransferFrom",
      "outputs": [],
      "stateMutability": "nonpayable",
      "type": "function"
    },
    {
      "inputs": [
        {
          "internalType": "address",
          "name": "operator",
          "type": "address"
        },
        {
          "internalType": "bool",
          "name": "approved",
          "type": "bool"
        }
      ],
      "name": "setApprovalForAll",
      "outputs": [],
      "stateMutability": "nonpayable",
      "type": "function"
    },
    {
      "inputs": [
        {
          "internalType": "bytes4",
          "name": "interfaceId",
          "type": "bytes4"
        }
      ],
      "name": "supportsInterface",
      "outputs": [
        {
          "internalType": "bool",
          "name": "",
          "type": "bool"
        }
      ],
      "stateMutability": "view",
      "type": "function"
    },
    {
      "inputs": [],
      "name": "symbol",
      "outputs": [
        {
          "internalType": "string",
          "name": "",
          "type": "string"
        }
      ],
      "stateMutability": "view",
      "type": "function"
    },
    {
      "inputs": [
        {
          "internalType": "uint256",
          "name": "_tokenId",
          "type": "uint256"
        }
      ],
      "name": "tokenURI",
      "outputs": [
        {
          "internalType": "string",
          "name": "",
          "type": "string"
        }
      ],
      "stateMutability": "view",
      "type": "function"
    },
    {
      "inputs": [
        {
          "internalType": "address",
          "name": "from",
          "type": "address"
        },
        {
          "internalType": "address",
          "name": "to",
          "type": "address"
        },
        {
          "internalType": "uint256",
          "name": "tokenId",
          "type": "uint256"
        }
      ],
      "name": "transferFrom",
      "outputs": [],
      "stateMutability": "nonpayable",
      "type": "function"
    }
  ],
  "bytecode": "0x60806040523480156200001157600080fd5b506040516200896538038062008965833981810160405281019062000037919062000d1b565b6040518060400160405280600781526020017f506f6b656d6f6e000000000000000000000000000000000000000000000000008152506040518060400160405280600381526020017f504b4d00000000000000000000000000000000000000000000000000000000008152508160009080519060200190620000bb92919062000a75565b508060019080519060200190620000d492919062000a75565b50505060005b865181101562000339578681815181106200011e577f4e487b7100000000000000000000000000000000000000000000000000000000600052603260045260246000fd5b602002602001015186828151811062000160577f4e487b7100000000000000000000000000000000000000000000000000000000600052603260045260246000fd5b6020026020010151868381518110620001a2577f4e487b7100000000000000000000000000000000000000000000000000000000600052603260045260246000fd5b60200260200101516040518060600160405280888681518110620001ef577f4e487b7100000000000000000000000000000000000000000000000000000000600052603260045260246000fd5b6020026020010151815260200188868151811062000236577f4e487b7100000000000000000000000000000000000000000000000000000000600052603260045260246000fd5b602002602001015181526020018786815181106200027d577f4e487b7100000000000000000000000000000000000000000000000000000000600052603260045260246000fd5b6020026020010151815250604051620002969062000b06565b620002a5949392919062000f3b565b604051809103906000f080158015620002c2573d6000803e3d6000fd5b5060086000600184620002d691906200106f565b815260200190815260200160002060006101000a81548173ffffffffffffffffffffffffffffffffffffffff021916908373ffffffffffffffffffffffffffffffffffffffff1602179055506001816200033191906200106f565b9050620000da565b5085516007819055506000816000815181106200037f577f4e487b7100000000000000000000000000000000000000000000000000000000600052603260045260246000fd5b60200260200101519050600082600181518110620003c6577f4e487b7100000000000000000000000000000000000000000000000000000000600052603260045260246000fd5b60200260200101519050620003e282826200040760201b60201c565b620003f960066200094460201b62001dca1760201c565b5050505050505050620014f8565b62000418826200095a60201b60201c565b600c60006101000a81548173ffffffffffffffffffffffffffffffffffffffff021916908373ffffffffffffffffffffffffffffffffffffffff160217905550600c60009054906101000a900473ffffffffffffffffffffffffffffffffffffffff1673ffffffffffffffffffffffffffffffffffffffff16630b5270a7826040518263ffffffff1660e01b8152600401620004b5919062000f1e565b600060405180830381600087803b158015620004d057600080fd5b505af1158015620004e5573d6000803e3d6000fd5b50505050600c60009054906101000a900473ffffffffffffffffffffffffffffffffffffffff1673ffffffffffffffffffffffffffffffffffffffff166306d8652f82600c60009054906101000a900473ffffffffffffffffffffffffffffffffffffffff1673ffffffffffffffffffffffffffffffffffffffff1663296f23f96040518163ffffffff1660e01b815260040160206040518083038186803b1580156200059157600080fd5b505afa158015620005a6573d6000803e3d6000fd5b505050506040513d601f19601f82011682018060405250810190620005cc919062000e47565b620005d891906200106f565b6040518263ffffffff1660e01b8152600401620005f6919062000f1e565b600060405180830381600087803b1580156200061157600080fd5b505af115801562000626573d6000803e3d6000fd5b50505050600c60009054906101000a900473ffffffffffffffffffffffffffffffffffffffff1673ffffffffffffffffffffffffffffffffffffffff16635143e01a82600c60009054906101000a900473ffffffffffffffffffffffffffffffffffffffff1673ffffffffffffffffffffffffffffffffffffffff1663f6a0e8676040518163ffffffff1660e01b815260040160206040518083038186803b158015620006d257600080fd5b505afa158015620006e7573d6000803e3d6000fd5b505050506040513d601f19601f820116820180604052508101906200070d919062000e47565b6200071991906200106f565b6040518263ffffffff1660e01b815260040162000737919062000f1e565b600060405180830381600087803b1580156200075257600080fd5b505af115801562000767573d6000803e3d6000fd5b50505050600c60009054906101000a900473ffffffffffffffffffffffffffffffffffffffff1673ffffffffffffffffffffffffffffffffffffffff1663e2b76736600c60009054906101000a900473ffffffffffffffffffffffffffffffffffffffff1673ffffffffffffffffffffffffffffffffffffffff1663296f23f96040518163ffffffff1660e01b815260040160206040518083038186803b1580156200081257600080fd5b505afa15801562000827573d6000803e3d6000fd5b505050506040513d601f19601f820116820180604052508101906200084d919062000e47565b6040518263ffffffff1660e01b81526004016200086b919062000f1e565b600060405180830381600087803b1580156200088657600080fd5b505af11580156200089b573d6000803e3d6000fd5b50505050600c60009054906101000a900473ffffffffffffffffffffffffffffffffffffffff1673ffffffffffffffffffffffffffffffffffffffff16639be55e00620008ee836200099760201b60201c565b6040518263ffffffff1660e01b81526004016200090c919062000f1e565b600060405180830381600087803b1580156200092757600080fd5b505af11580156200093c573d6000803e3d6000fd5b505050505050565b6001816000016000828254019250508190555050565b60006008600083815260200190815260200160002060009054906101000a900473ffffffffffffffffffffffffffffffffffffffff169050919050565b6000806000600190505b83811015620009e057620009bb81620009ea60201b60201c565b82620009c891906200106f565b91508080620009d790620013b6565b915050620009a1565b5080915050919050565b600080826002620009fc91906200129c565b600a60028562000a0d91906200115f565b600862000a1b91906200129c565b62000a279190620010cc565b606460038662000a3891906200115f565b600462000a4691906200129c565b62000a529190620010cc565b62000a5e91906200106f565b62000a6a91906200106f565b905080915050919050565b82805462000a83906200134a565b90600052602060002090601f01602090048101928262000aa7576000855562000af3565b82601f1062000ac257805160ff191683800117855562000af3565b8280016001018555821562000af3579182015b8281111562000af257825182559160200191906001019062000ad5565b5b50905062000b02919062000b14565b5090565b6117e9806200717c83390190565b5b8082111562000b2f57600081600090555060010162000b15565b5090565b600062000b4a62000b448462000fbf565b62000f96565b9050808382526020820190508285602086028201111562000b6a57600080fd5b60005b8581101562000bb957815167ffffffffffffffff81111562000b8e57600080fd5b80860162000b9d898262000cd7565b8552602085019450602084019350505060018101905062000b6d565b5050509392505050565b600062000bda62000bd48462000fee565b62000f96565b9050808382526020820190508285602086028201111562000bfa57600080fd5b60005b8581101562000c2e578162000c13888262000d04565b84526020840193506020830192505060018101905062000bfd565b5050509392505050565b600062000c4f62000c49846200101d565b62000f96565b90508281526020810184848401111562000c6857600080fd5b62000c7584828562001314565b509392505050565b600082601f83011262000c8f57600080fd5b815162000ca184826020860162000b33565b91505092915050565b600082601f83011262000cbc57600080fd5b815162000cce84826020860162000bc3565b91505092915050565b600082601f83011262000ce957600080fd5b815162000cfb84826020860162000c38565b91505092915050565b60008151905062000d1581620014de565b92915050565b60008060008060008060c0878903121562000d3557600080fd5b600087015167ffffffffffffffff81111562000d5057600080fd5b62000d5e89828a0162000caa565b965050602087015167ffffffffffffffff81111562000d7c57600080fd5b62000d8a89828a0162000c7d565b955050604087015167ffffffffffffffff81111562000da857600080fd5b62000db689828a0162000c7d565b945050606087015167ffffffffffffffff81111562000dd457600080fd5b62000de289828a0162000caa565b935050608087015167ffffffffffffffff81111562000e0057600080fd5b62000e0e89828a0162000caa565b92505060a087015167ffffffffffffffff81111562000e2c57600080fd5b62000e3a89828a0162000caa565b9150509295509295509295565b60006020828403121562000e5a57600080fd5b600062000e6a8482850162000d04565b91505092915050565b600062000e808262001053565b62000e8c81856200105e565b935062000e9e81856020860162001314565b62000ea981620014c0565b840191505092915050565b60608201600082015162000ecc600085018262000efc565b50602082015162000ee1602085018262000efc565b50604082015162000ef6604085018262000efc565b50505050565b62000f0781620012fd565b82525050565b62000f1881620012fd565b82525050565b600060208201905062000f35600083018462000f0d565b92915050565b600060c08201905062000f52600083018762000f0d565b818103602083015262000f66818662000e73565b9050818103604083015262000f7c818562000e73565b905062000f8d606083018462000eb4565b95945050505050565b600062000fa262000fb5565b905062000fb0828262001380565b919050565b6000604051905090565b600067ffffffffffffffff82111562000fdd5762000fdc62001491565b5b602082029050602081019050919050565b600067ffffffffffffffff8211156200100c576200100b62001491565b5b602082029050602081019050919050565b600067ffffffffffffffff8211156200103b576200103a62001491565b5b6200104682620014c0565b9050602081019050919050565b600081519050919050565b600082825260208201905092915050565b60006200107c82620012fd565b91506200108983620012fd565b9250827fffffffffffffffffffffffffffffffffffffffffffffffffffffffffffffffff03821115620010c157620010c062001404565b5b828201905092915050565b6000620010d982620012fd565b9150620010e683620012fd565b925082620010f957620010f862001433565b5b828204905092915050565b6000808291508390505b600185111562001156578086048111156200112e576200112d62001404565b5b60018516156200113e5780820291505b80810290506200114e85620014d1565b94506200110e565b94509492505050565b60006200116c82620012fd565b9150620011798362001307565b9250620011a87fffffffffffffffffffffffffffffffffffffffffffffffffffffffffffffffff8484620011b0565b905092915050565b600082620011c2576001905062001295565b81620011d2576000905062001295565b8160018114620011eb5760028114620011f6576200122c565b600191505062001295565b60ff8411156200120b576200120a62001404565b5b8360020a91508482111562001225576200122462001404565b5b5062001295565b5060208310610133831016604e8410600b8410161715620012665782820a90508381111562001260576200125f62001404565b5b62001295565b62001275848484600162001104565b925090508184048111156200128f576200128e62001404565b5b81810290505b9392505050565b6000620012a982620012fd565b9150620012b683620012fd565b9250817fffffffffffffffffffffffffffffffffffffffffffffffffffffffffffffffff0483118215151615620012f257620012f162001404565b5b828202905092915050565b6000819050919050565b600060ff82169050919050565b60005b838110156200133457808201518184015260208101905062001317565b8381111562001344576000848401525b50505050565b600060028204905060018216806200136357607f821691505b602082108114156200137a576200137962001462565b5b50919050565b6200138b82620014c0565b810181811067ffffffffffffffff82111715620013ad57620013ac62001491565b5b80604052505050565b6000620013c382620012fd565b91507fffffffffffffffffffffffffffffffffffffffffffffffffffffffffffffffff821415620013f957620013f862001404565b5b600182019050919050565b7f4e487b7100000000000000000000000000000000000000000000000000000000600052601160045260246000fd5b7f4e487b7100000000000000000000000000000000000000000000000000000000600052601260045260246000fd5b7f4e487b7100000000000000000000000000000000000000000000000000000000600052602260045260246000fd5b7f4e487b7100000000000000000000000000000000000000000000000000000000600052604160045260246000fd5b6000601f19601f8301169050919050565b60008160011c9050919050565b620014e981620012fd565b8114620014f557600080fd5b50565b615c7480620015086000396000f3fe608060405234801561001057600080fd5b50600436106101cf5760003560e01c80637ec5995611610104578063c76d9e7d116100a2578063e985e9c511610071578063e985e9c514610568578063eb81467114610598578063f0b305db146105c8578063f962c56c146105f8576101cf565b8063c76d9e7d146104cc578063c772af39146104ea578063c87b56dd14610508578063e0714ffa14610538576101cf565b8063a0712d68116100de578063a0712d6814610448578063a22cb46514610464578063b88d4fde14610480578063c70478151461049c576101cf565b80637ec59956146103dc578063935b52cf1461040c57806395d89b411461042a576101cf565b806342842e0e11610171578063628a13101161014b578063628a13101461032e5780636352211e1461034c57806370a082311461037c578063792300f4146103ac576101cf565b806342842e0e146102d65780634e4b7dcd146102f25780635e91679014610310576101cf565b8063081812fc116101ad578063081812fc1461023e578063095ea7b31461026e57806323b872dd1461028a5780632a11ced0146102a6576101cf565b806301ffc9a7146101d45780630619f9321461020457806306fdde0314610220575b600080fd5b6101ee60048036038101906101e99190613ec1565b610628565b6040516101fb9190614a89565b60405180910390f35b61021e60048036038101906102199190613fe7565b61070a565b005b6102286108e3565b6040516102359190614af5565b60405180910390f35b61025860048036038101906102539190613fe7565b610975565b60405161026591906149a7565b60405180910390f35b61028860048036038101906102839190613e85565b6109fa565b005b6102a4600480360381019061029f9190613d7f565b610b12565b005b6102c060048036038101906102bb9190613fe7565b610b72565b6040516102cd91906149a7565b60405180910390f35b6102f060048036038101906102eb9190613d7f565b610bb1565b005b6102fa610bd1565b6040516103079190614cd7565b60405180910390f35b610318610d5b565b6040516103259190614a45565b60405180910390f35b610336610eb9565b6040516103439190614cf9565b60405180910390f35b61036660048036038101906103619190613fe7565b610ec3565b60405161037391906149a7565b60405180910390f35b61039660048036038101906103919190613d1a565b610f75565b6040516103a39190614cf9565b60405180910390f35b6103c660048036038101906103c19190614039565b61102d565b6040516103d39190614aa4565b60405180910390f35b6103f660048036038101906103f19190613fe7565b6110cc565b6040516104039190614aa4565b60405180910390f35b610414611109565b6040516104219190614cf9565b60405180910390f35b61043261111f565b60405161043f9190614af5565b60405180910390f35b610462600480360381019061045d9190613fe7565b6111b1565b005b61047e60048036038101906104799190613e49565b6112d2565b005b61049a60048036038101906104959190613dce565b6112e8565b005b6104b660048036038101906104b19190613e85565b61134a565b6040516104c39190614cf9565b60405180910390f35b6104d461137b565b6040516104e19190614aa4565b60405180910390f35b6104f26113a5565b6040516104ff9190614aa4565b60405180910390f35b610522600480360381019061051d9190613fe7565b6113cb565b60405161052f9190614af5565b60405180910390f35b610552600480360381019061054d9190613d1a565b61180c565b60405161055f9190614a67565b60405180910390f35b610582600480360381019061057d9190613d43565b611a89565b60405161058f9190614a89565b60405180910390f35b6105b260048036038101906105ad9190613f13565b611b1d565b6040516105bf9190614cd7565b60405180910390f35b6105e260048036038101906105dd9190613fe7565b611bb5565b6040516105ef9190614aa4565b60405180910390f35b610612600480360381019061060d9190613e85565b611bf2565b60405161061f9190614cd7565b60405180910390f35b60007f80ac58cd000000000000000000000000000000000000000000000000000000007bffffffffffffffffffffffffffffffffffffffffffffffffffffffff1916827bffffffffffffffffffffffffffffffffffffffffffffffffffffffff191614806106f357507f5b5e139f000000000000000000000000000000000000000000000000000000007bffffffffffffffffffffffffffffffffffffffffffffffffffffffff1916827bffffffffffffffffffffffffffffffffffffffffffffffffffffffff1916145b80610703575061070282611de0565b5b9050919050565b6000610716823361102d565b905060006001905061074d82600c60009054906101000a900473ffffffffffffffffffffffffffffffffffffffff16600084611e4a565b60009050610780600c60009054906101000a900473ffffffffffffffffffffffffffffffffffffffff1683600184611e4a565b61078982612402565b7f838ab28464562786a6c4ab2311964b82fa60bd9b14aa7e856af1f3f18d41a414600c60009054906101000a900473ffffffffffffffffffffffffffffffffffffffff1673ffffffffffffffffffffffffffffffffffffffff1663abd708ef6040518163ffffffff1660e01b815260040160206040518083038186803b15801561081257600080fd5b505afa158015610826573d6000803e3d6000fd5b505050506040513d601f19601f8201168201806040525081019061084a9190614010565b8373ffffffffffffffffffffffffffffffffffffffff1663abd708ef6040518163ffffffff1660e01b815260040160206040518083038186803b15801561089057600080fd5b505afa1580156108a4573d6000803e3d6000fd5b505050506040513d601f19601f820116820180604052508101906108c89190614010565b6040516108d6929190614d3d565b60405180910390a1505050565b6060600080546108f290615269565b80601f016020809104026020016040519081016040528092919081815260200182805461091e90615269565b801561096b5780601f106109405761010080835404028352916020019161096b565b820191906000526020600020905b81548152906001019060200180831161094e57829003601f168201915b5050505050905090565b600061098082612b9a565b6109bf576040517f08c379a00000000000000000000000000000000000000000000000000000000081526004016109b690614c57565b60405180910390fd5b6004600083815260200190815260200160002060009054906101000a900473ffffffffffffffffffffffffffffffffffffffff169050919050565b6000610a0582610ec3565b90508073ffffffffffffffffffffffffffffffffffffffff168373ffffffffffffffffffffffffffffffffffffffff161415610a76576040517f08c379a0000000000000000000000000000000000000000000000000000000008152600401610a6d90614c77565b60405180910390fd5b8073ffffffffffffffffffffffffffffffffffffffff16610a95612c06565b73ffffffffffffffffffffffffffffffffffffffff161480610ac45750610ac381610abe612c06565b611a89565b5b610b03576040517f08c379a0000000000000000000000000000000000000000000000000000000008152600401610afa90614bd7565b60405180910390fd5b610b0d8383612c0e565b505050565b610b23610b1d612c06565b82612cc7565b610b62576040517f08c379a0000000000000000000000000000000000000000000000000000000008152600401610b5990614c97565b60405180910390fd5b610b6d838383612da5565b505050565b600b8181548110610b8257600080fd5b906000526020600020016000915054906101000a900473ffffffffffffffffffffffffffffffffffffffff1681565b610bcc838383604051806020016040528060008152506112e8565b505050565b610bd96139aa565b6000600a60003373ffffffffffffffffffffffffffffffffffffffff1673ffffffffffffffffffffffffffffffffffffffff1681526020019081526020016000208054905090506000811115610d4a576000600a60003373ffffffffffffffffffffffffffffffffffffffff1673ffffffffffffffffffffffffffffffffffffffff168152602001908152602001600020600081548110610ca3577f4e487b7100000000000000000000000000000000000000000000000000000000600052603260045260246000fd5b906000526020600020015490506000610cbb826110cc565b73ffffffffffffffffffffffffffffffffffffffff16633bc5de306040518163ffffffff1660e01b815260040160006040518083038186803b158015610d0057600080fd5b505afa158015610d14573d6000803e3d6000fd5b505050506040513d6000823e3d601f19601f82011682018060405250810190610d3d9190613f7d565b9050809350505050610d58565b610d526139aa565b80925050505b90565b60606000610d67610eb9565b905060008167ffffffffffffffff811115610dab577f4e487b7100000000000000000000000000000000000000000000000000000000600052604160045260246000fd5b604051908082528060200260200182016040528015610dd95781602001602082028036833780820191505090505b5090506000600190505b828111610eb0576008600082815260200190815260200160002060009054906101000a900473ffffffffffffffffffffffffffffffffffffffff1682600183610e2c9190615105565b81518110610e63577f4e487b7100000000000000000000000000000000000000000000000000000000600052603260045260246000fd5b602002602001019073ffffffffffffffffffffffffffffffffffffffff16908173ffffffffffffffffffffffffffffffffffffffff16815250508080610ea8906152cc565b915050610de3565b50809250505090565b6000600754905090565b6000806002600084815260200190815260200160002060009054906101000a900473ffffffffffffffffffffffffffffffffffffffff169050600073ffffffffffffffffffffffffffffffffffffffff168173ffffffffffffffffffffffffffffffffffffffff161415610f6c576040517f08c379a0000000000000000000000000000000000000000000000000000000008152600401610f6390614c17565b60405180910390fd5b80915050919050565b60008073ffffffffffffffffffffffffffffffffffffffff168273ffffffffffffffffffffffffffffffffffffffff161415610fe6576040517f08c379a0000000000000000000000000000000000000000000000000000000008152600401610fdd90614bf7565b60405180910390fd5b600360008373ffffffffffffffffffffffffffffffffffffffff1673ffffffffffffffffffffffffffffffffffffffff168152602001908152602001600020549050919050565b600080600a60008473ffffffffffffffffffffffffffffffffffffffff1673ffffffffffffffffffffffffffffffffffffffff16815260200190815260200160002084815481106110a7577f4e487b7100000000000000000000000000000000000000000000000000000000600052603260045260246000fd5b9060005260206000200154905060006110bf826110cc565b9050809250505092915050565b60006009600083815260200190815260200160002060009054906101000a900473ffffffffffffffffffffffffffffffffffffffff169050919050565b600080611116600661300c565b90508091505090565b60606001805461112e90615269565b80601f016020809104026020016040519081016040528092919081815260200182805461115a90615269565b80156111a75780601f1061117c576101008083540402835291602001916111a7565b820191906000526020600020905b81548152906001019060200180831161118a57829003601f168201915b5050505050905090565b60006111bd600661300c565b90506111c9338261301a565b6111d282611bb5565b6009600083815260200190815260200160002060006101000a81548173ffffffffffffffffffffffffffffffffffffffff021916908373ffffffffffffffffffffffffffffffffffffffff160217905550600a60003373ffffffffffffffffffffffffffffffffffffffff1673ffffffffffffffffffffffffffffffffffffffff1681526020019081526020016000208190806001815401808255809150506001900390600052602060002001600090919091909150556112936006611dca565b7f60e1f0c62ae107984ff8409b83c23d1025c9e003037cf8d4fb479c49645b31403382846040516112c693929190614a0e565b60405180910390a15050565b6112e46112dd612c06565b8383613038565b5050565b6112f96112f3612c06565b83612cc7565b611338576040517f08c379a000000000000000000000000000000000000000000000000000000000815260040161132f90614c97565b60405180910390fd5b611344848484846131a5565b50505050565b600a602052816000526040600020818154811061136657600080fd5b90600052602060002001600091509150505481565b6000600c60009054906101000a900473ffffffffffffffffffffffffffffffffffffffff16905090565b600c60009054906101000a900473ffffffffffffffffffffffffffffffffffffffff1681565b606060006113d8836110cc565b905060006114628273ffffffffffffffffffffffffffffffffffffffff1663abd708ef6040518163ffffffff1660e01b815260040160206040518083038186803b15801561142557600080fd5b505afa158015611439573d6000803e3d6000fd5b505050506040513d601f19601f8201168201806040525081019061145d9190614010565b613201565b905060006114ec8373ffffffffffffffffffffffffffffffffffffffff1663296f23f96040518163ffffffff1660e01b815260040160206040518083038186803b1580156114af57600080fd5b505afa1580156114c3573d6000803e3d6000fd5b505050506040513d601f19601f820116820180604052508101906114e79190614010565b613201565b905060006115768473ffffffffffffffffffffffffffffffffffffffff1663f6a0e8676040518163ffffffff1660e01b815260040160206040518083038186803b15801561153957600080fd5b505afa15801561154d573d6000803e3d6000fd5b505050506040513d601f19601f820116820180604052508101906115719190614010565b613201565b905060006116008573ffffffffffffffffffffffffffffffffffffffff1663a5985e8c6040518163ffffffff1660e01b815260040160206040518083038186803b1580156115c357600080fd5b505afa1580156115d7573d6000803e3d6000fd5b505050506040513d601f19601f820116820180604052508101906115fb9190614010565b613201565b9050600061168a8673ffffffffffffffffffffffffffffffffffffffff1663ed73fc4b6040518163ffffffff1660e01b815260040160206040518083038186803b15801561164d57600080fd5b505afa158015611661573d6000803e3d6000fd5b505050506040513d601f19601f820116820180604052508101906116859190614010565b613201565b9050600061169789613201565b905060006117d58873ffffffffffffffffffffffffffffffffffffffff166317d7de7c6040518163ffffffff1660e01b815260040160006040518083038186803b1580156116e457600080fd5b505afa1580156116f8573d6000803e3d6000fd5b505050506040513d6000823e3d601f19601f820116820180604052508101906117219190613f3c565b838a73ffffffffffffffffffffffffffffffffffffffff166346bd9a666040518163ffffffff1660e01b815260040160006040518083038186803b15801561176857600080fd5b505afa15801561177c573d6000803e3d6000fd5b505050506040513d6000823e3d601f19601f820116820180604052508101906117a59190613f3c565b8a8a8a898b6040516020016117c1989796959493929190614863565b6040516020818303038152906040526133ae565b90506000816040516020016117ea9190614985565b6040516020818303038152906040529050809950505050505050505050919050565b60606000600a60008473ffffffffffffffffffffffffffffffffffffffff1673ffffffffffffffffffffffffffffffffffffffff16815260200190815260200160002080548060200260200160405190810160405280929190818152602001828054801561189957602002820191906000526020600020905b815481526020019060010190808311611885575b505050505090506000815167ffffffffffffffff8111156118e3577f4e487b7100000000000000000000000000000000000000000000000000000000600052604160045260246000fd5b60405190808252806020026020018201604052801561191c57816020015b6119096139aa565b8152602001906001900390816119015790505b50905060005b8251811015611a7e576000838281518110611966577f4e487b7100000000000000000000000000000000000000000000000000000000600052603260045260246000fd5b602002602001015190506009600082815260200190815260200160002060009054906101000a900473ffffffffffffffffffffffffffffffffffffffff1673ffffffffffffffffffffffffffffffffffffffff16633bc5de306040518163ffffffff1660e01b815260040160006040518083038186803b1580156119e957600080fd5b505afa1580156119fd573d6000803e3d6000fd5b505050506040513d6000823e3d601f19601f82011682018060405250810190611a269190613f7d565b838381518110611a5f577f4e487b7100000000000000000000000000000000000000000000000000000000600052603260045260246000fd5b6020026020010181905250508080611a76906152cc565b915050611922565b508092505050919050565b6000600560008473ffffffffffffffffffffffffffffffffffffffff1673ffffffffffffffffffffffffffffffffffffffff16815260200190815260200160002060008373ffffffffffffffffffffffffffffffffffffffff1673ffffffffffffffffffffffffffffffffffffffff16815260200190815260200160002060009054906101000a900460ff16905092915050565b611b256139aa565b60008273ffffffffffffffffffffffffffffffffffffffff16633bc5de306040518163ffffffff1660e01b815260040160006040518083038186803b158015611b6d57600080fd5b505afa158015611b81573d6000803e3d6000fd5b505050506040513d6000823e3d601f19601f82011682018060405250810190611baa9190613f7d565b905080915050919050565b60006008600083815260200190815260200160002060009054906101000a900473ffffffffffffffffffffffffffffffffffffffff169050919050565b611bfa6139aa565b81600a60008573ffffffffffffffffffffffffffffffffffffffff1673ffffffffffffffffffffffffffffffffffffffff168152602001908152602001600020805490501015611c7f576040517f08c379a0000000000000000000000000000000000000000000000000000000008152600401611c7690614cb7565b60405180910390fd5b6000600a60008573ffffffffffffffffffffffffffffffffffffffff1673ffffffffffffffffffffffffffffffffffffffff1681526020019081526020016000208381548110611cf8577f4e487b7100000000000000000000000000000000000000000000000000000000600052603260045260246000fd5b9060005260206000200154905060006009600083815260200190815260200160002060009054906101000a900473ffffffffffffffffffffffffffffffffffffffff1673ffffffffffffffffffffffffffffffffffffffff16633bc5de306040518163ffffffff1660e01b815260040160006040518083038186803b158015611d8057600080fd5b505afa158015611d94573d6000803e3d6000fd5b505050506040513d6000823e3d601f19601f82011682018060405250810190611dbd9190613f7d565b9050809250505092915050565b6001816000016000828254019250508190555050565b60007f01ffc9a7000000000000000000000000000000000000000000000000000000007bffffffffffffffffffffffffffffffffffffffffffffffffffffffff1916827bffffffffffffffffffffffffffffffffffffffffffffffffffffffff1916149050919050565b60008473ffffffffffffffffffffffffffffffffffffffff1663abd708ef6040518163ffffffff1660e01b815260040160206040518083038186803b158015611e9257600080fd5b505afa158015611ea6573d6000803e3d6000fd5b505050506040513d601f19601f82011682018060405250810190611eca9190614010565b11611ed4576123fc565b60008373ffffffffffffffffffffffffffffffffffffffff1663abd708ef6040518163ffffffff1660e01b815260040160206040518083038186803b158015611f1c57600080fd5b505afa158015611f30573d6000803e3d6000fd5b505050506040513d601f19601f82011682018060405250810190611f549190614010565b11611f5e576123fc565b8373ffffffffffffffffffffffffffffffffffffffff1663f6a0e8676040518163ffffffff1660e01b815260040160206040518083038186803b158015611fa457600080fd5b505afa158015611fb8573d6000803e3d6000fd5b505050506040513d601f19601f82011682018060405250810190611fdc9190614010565b8373ffffffffffffffffffffffffffffffffffffffff1663abd708ef6040518163ffffffff1660e01b815260040160206040518083038186803b15801561202257600080fd5b505afa158015612036573d6000803e3d6000fd5b505050506040513d601f19601f8201168201806040525081019061205a9190614010565b11612107578273ffffffffffffffffffffffffffffffffffffffff1663e2b7673660006040518263ffffffff1660e01b81526004016120999190614ada565b600060405180830381600087803b1580156120b357600080fd5b505af11580156120c7573d6000803e3d6000fd5b505050507f6f7961d3b2cbfd3abdbb42b52f39a43c3b6620563a3b5fc73f7b9fd69da46311826040516120fa9190614abf565b60405180910390a1612278565b8273ffffffffffffffffffffffffffffffffffffffff1663e2b767368573ffffffffffffffffffffffffffffffffffffffff1663f6a0e8676040518163ffffffff1660e01b815260040160206040518083038186803b15801561216957600080fd5b505afa15801561217d573d6000803e3d6000fd5b505050506040513d601f19601f820116820180604052508101906121a19190614010565b8573ffffffffffffffffffffffffffffffffffffffff1663abd708ef6040518163ffffffff1660e01b815260040160206040518083038186803b1580156121e757600080fd5b505afa1580156121fb573d6000803e3d6000fd5b505050506040513d601f19601f8201168201806040525081019061221f9190614010565b6122299190615105565b6040518263ffffffff1660e01b81526004016122459190614cf9565b600060405180830381600087803b15801561225f57600080fd5b505af1158015612273573d6000803e3d6000fd5b505050505b80156123fb578373ffffffffffffffffffffffffffffffffffffffff1663ede641a48473ffffffffffffffffffffffffffffffffffffffff1663a5985e8c6040518163ffffffff1660e01b815260040160206040518083038186803b1580156122e057600080fd5b505afa1580156122f4573d6000803e3d6000fd5b505050506040513d601f19601f820116820180604052508101906123189190614010565b600861232491906150ab565b8673ffffffffffffffffffffffffffffffffffffffff1663cdb986cc6040518163ffffffff1660e01b815260040160206040518083038186803b15801561236a57600080fd5b505afa15801561237e573d6000803e3d6000fd5b505050506040513d601f19601f820116820180604052508101906123a29190614010565b6123ac9190614eb3565b6040518263ffffffff1660e01b81526004016123c89190614cf9565b600060405180830381600087803b1580156123e257600080fd5b505af11580156123f6573d6000803e3d6000fd5b505050505b5b50505050565b8073ffffffffffffffffffffffffffffffffffffffff16639be55e008273ffffffffffffffffffffffffffffffffffffffff1663cdb986cc6040518163ffffffff1660e01b815260040160206040518083038186803b15801561246457600080fd5b505afa158015612478573d6000803e3d6000fd5b505050506040513d601f19601f8201168201806040525081019061249c9190614010565b8373ffffffffffffffffffffffffffffffffffffffff1663ed73fc4b6040518163ffffffff1660e01b815260040160206040518083038186803b1580156124e257600080fd5b505afa1580156124f6573d6000803e3d6000fd5b505050506040513d601f19601f8201168201806040525081019061251a9190614010565b6125249190614eb3565b6040518263ffffffff1660e01b81526004016125409190614cf9565b600060405180830381600087803b15801561255a57600080fd5b505af115801561256e573d6000803e3d6000fd5b505050505b6125f98173ffffffffffffffffffffffffffffffffffffffff1663a5985e8c6040518163ffffffff1660e01b815260040160206040518083038186803b1580156125bc57600080fd5b505afa1580156125d0573d6000803e3d6000fd5b505050506040513d601f19601f820116820180604052508101906125f49190614010565b613538565b8173ffffffffffffffffffffffffffffffffffffffff1663cdb986cc6040518163ffffffff1660e01b815260040160206040518083038186803b15801561263f57600080fd5b505afa158015612653573d6000803e3d6000fd5b505050506040513d601f19601f820116820180604052508101906126779190614010565b10612b975760008173ffffffffffffffffffffffffffffffffffffffff1663a5985e8c6040518163ffffffff1660e01b815260040160206040518083038186803b1580156126c457600080fd5b505afa1580156126d8573d6000803e3d6000fd5b505050506040513d601f19601f820116820180604052508101906126fc9190614010565b905060008273ffffffffffffffffffffffffffffffffffffffff1663cdb986cc6040518163ffffffff1660e01b815260040160206040518083038186803b15801561274657600080fd5b505afa15801561275a573d6000803e3d6000fd5b505050506040513d601f19601f8201168201806040525081019061277e9190614010565b90508273ffffffffffffffffffffffffffffffffffffffff1663ede641a46127a584613538565b836127b09190615105565b6040518263ffffffff1660e01b81526004016127cc9190614cf9565b600060405180830381600087803b1580156127e657600080fd5b505af11580156127fa573d6000803e3d6000fd5b505050508273ffffffffffffffffffffffffffffffffffffffff166306d8652f60018573ffffffffffffffffffffffffffffffffffffffff1663296f23f96040518163ffffffff1660e01b815260040160206040518083038186803b15801561286257600080fd5b505afa158015612876573d6000803e3d6000fd5b505050506040513d601f19601f8201168201806040525081019061289a9190614010565b6128a49190614eb3565b6040518263ffffffff1660e01b81526004016128c09190614cf9565b600060405180830381600087803b1580156128da57600080fd5b505af11580156128ee573d6000803e3d6000fd5b505050508273ffffffffffffffffffffffffffffffffffffffff16635143e01a60018573ffffffffffffffffffffffffffffffffffffffff1663f6a0e8676040518163ffffffff1660e01b815260040160206040518083038186803b15801561295657600080fd5b505afa15801561296a573d6000803e3d6000fd5b505050506040513d601f19601f8201168201806040525081019061298e9190614010565b6129989190614eb3565b6040518263ffffffff1660e01b81526004016129b49190614cf9565b600060405180830381600087803b1580156129ce57600080fd5b505af11580156129e2573d6000803e3d6000fd5b505050508273ffffffffffffffffffffffffffffffffffffffff16630b5270a7600184612a0f9190614eb3565b6040518263ffffffff1660e01b8152600401612a2b9190614cf9565b600060405180830381600087803b158015612a4557600080fd5b505af1158015612a59573d6000803e3d6000fd5b505050507fa87a80ea79b656bea107606e74d5a36679824dd6de89c8bafc5174f999a99ab98373ffffffffffffffffffffffffffffffffffffffff1663a5985e8c6040518163ffffffff1660e01b815260040160206040518083038186803b158015612ac457600080fd5b505afa158015612ad8573d6000803e3d6000fd5b505050506040513d601f19601f82011682018060405250810190612afc9190614010565b8473ffffffffffffffffffffffffffffffffffffffff1663c59d48476040518163ffffffff1660e01b815260040160606040518083038186803b158015612b4257600080fd5b505afa158015612b56573d6000803e3d6000fd5b505050506040513d601f19601f82011682018060405250810190612b7a9190613fbe565b604051612b88929190614d14565b60405180910390a15050612573565b50565b60008073ffffffffffffffffffffffffffffffffffffffff166002600084815260200190815260200160002060009054906101000a900473ffffffffffffffffffffffffffffffffffffffff1673ffffffffffffffffffffffffffffffffffffffff1614159050919050565b600033905090565b816004600083815260200190815260200160002060006101000a81548173ffffffffffffffffffffffffffffffffffffffff021916908373ffffffffffffffffffffffffffffffffffffffff160217905550808273ffffffffffffffffffffffffffffffffffffffff16612c8183610ec3565b73ffffffffffffffffffffffffffffffffffffffff167f8c5be1e5ebec7d5bd14f71427d1e84f3dd0314c0f7b2291e5b200ac8c7c3b92560405160405180910390a45050565b6000612cd282612b9a565b612d11576040517f08c379a0000000000000000000000000000000000000000000000000000000008152600401612d0890614bb7565b60405180910390fd5b6000612d1c83610ec3565b90508073ffffffffffffffffffffffffffffffffffffffff168473ffffffffffffffffffffffffffffffffffffffff161480612d8b57508373ffffffffffffffffffffffffffffffffffffffff16612d7384610975565b73ffffffffffffffffffffffffffffffffffffffff16145b80612d9c5750612d9b8185611a89565b5b91505092915050565b8273ffffffffffffffffffffffffffffffffffffffff16612dc582610ec3565b73ffffffffffffffffffffffffffffffffffffffff1614612e1b576040517f08c379a0000000000000000000000000000000000000000000000000000000008152600401612e1290614b37565b60405180910390fd5b600073ffffffffffffffffffffffffffffffffffffffff168273ffffffffffffffffffffffffffffffffffffffff161415612e8b576040517f08c379a0000000000000000000000000000000000000000000000000000000008152600401612e8290614b77565b60405180910390fd5b612e968383836135b1565b612ea1600082612c0e565b6001600360008573ffffffffffffffffffffffffffffffffffffffff1673ffffffffffffffffffffffffffffffffffffffff1681526020019081526020016000206000828254612ef19190615105565b925050819055506001600360008473ffffffffffffffffffffffffffffffffffffffff1673ffffffffffffffffffffffffffffffffffffffff1681526020019081526020016000206000828254612f489190614eb3565b92505081905550816002600083815260200190815260200160002060006101000a81548173ffffffffffffffffffffffffffffffffffffffff021916908373ffffffffffffffffffffffffffffffffffffffff160217905550808273ffffffffffffffffffffffffffffffffffffffff168473ffffffffffffffffffffffffffffffffffffffff167fddf252ad1be2c89b69c2b068fc378daa952ba7f163c4a11628f55a4df523b3ef60405160405180910390a46130078383836135b6565b505050565b600081600001549050919050565b6130348282604051806020016040528060008152506135bb565b5050565b8173ffffffffffffffffffffffffffffffffffffffff168373ffffffffffffffffffffffffffffffffffffffff1614156130a7576040517f08c379a000000000000000000000000000000000000000000000000000000000815260040161309e90614b97565b60405180910390fd5b80600560008573ffffffffffffffffffffffffffffffffffffffff1673ffffffffffffffffffffffffffffffffffffffff16815260200190815260200160002060008473ffffffffffffffffffffffffffffffffffffffff1673ffffffffffffffffffffffffffffffffffffffff16815260200190815260200160002060006101000a81548160ff0219169083151502179055508173ffffffffffffffffffffffffffffffffffffffff168373ffffffffffffffffffffffffffffffffffffffff167f17307eab39ab6107e8899845ad3d59bd9653f200f220920489ca2b5937696c31836040516131989190614a89565b60405180910390a3505050565b6131b0848484612da5565b6131bc84848484613616565b6131fb576040517f08c379a00000000000000000000000000000000000000000000000000000000081526004016131f290614b17565b60405180910390fd5b50505050565b60606000821415613249576040518060400160405280600181526020017f300000000000000000000000000000000000000000000000000000000000000081525090506133a9565b600082905060005b6000821461327b578080613264906152cc565b915050600a826132749190614f09565b9150613251565b60008167ffffffffffffffff8111156132bd577f4e487b7100000000000000000000000000000000000000000000000000000000600052604160045260246000fd5b6040519080825280601f01601f1916602001820160405280156132ef5781602001600182028036833780820191505090505b5090505b600085146133a2576001826133089190615105565b9150600a856133179190615315565b60306133239190614eb3565b60f81b81838151811061335f577f4e487b7100000000000000000000000000000000000000000000000000000000600052603260045260246000fd5b60200101907effffffffffffffffffffffffffffffffffffffffffffffffffffffffffffff1916908160001a905350600a8561339b9190614f09565b94506132f3565b8093505050505b919050565b60606000825114156133d157604051806020016040528060008152509050613533565b6000604051806060016040528060408152602001615bff60409139905060006003600285516134009190614eb3565b61340a9190614f09565b600461341691906150ab565b67ffffffffffffffff811115613455577f4e487b7100000000000000000000000000000000000000000000000000000000600052604160045260246000fd5b6040519080825280601f01601f1916602001820160405280156134875781602001600182028036833780820191505090505b509050600182016020820185865187015b808210156134f3576003820191508151603f8160121c168501518453600184019350603f81600c1c168501518453600184019350603f8160061c168501518453600184019350603f8116850151845360018401935050613498565b505060038651066001811461350f57600281146135225761352a565b603d6001830353603d600283035361352a565b603d60018303535b50505080925050505b919050565b60008082600261354891906150ab565b600a6002856135579190614f8d565b600861356391906150ab565b61356d9190614f09565b606460038661357c9190614f8d565b600461358891906150ab565b6135929190614f09565b61359c9190614eb3565b6135a69190614eb3565b905080915050919050565b505050565b505050565b6135c583836137ad565b6135d26000848484613616565b613611576040517f08c379a000000000000000000000000000000000000000000000000000000000815260040161360890614b17565b60405180910390fd5b505050565b60006136378473ffffffffffffffffffffffffffffffffffffffff16613987565b156137a0578373ffffffffffffffffffffffffffffffffffffffff1663150b7a02613660612c06565b8786866040518563ffffffff1660e01b815260040161368294939291906149c2565b602060405180830381600087803b15801561369c57600080fd5b505af19250505080156136cd57506040513d601f19601f820116820180604052508101906136ca9190613eea565b60015b613750573d80600081146136fd576040519150601f19603f3d011682016040523d82523d6000602084013e613702565b606091505b50600081511415613748576040517f08c379a000000000000000000000000000000000000000000000000000000000815260040161373f90614b17565b60405180910390fd5b805181602001fd5b63150b7a0260e01b7bffffffffffffffffffffffffffffffffffffffffffffffffffffffff1916817bffffffffffffffffffffffffffffffffffffffffffffffffffffffff1916149150506137a5565b600190505b949350505050565b600073ffffffffffffffffffffffffffffffffffffffff168273ffffffffffffffffffffffffffffffffffffffff16141561381d576040517f08c379a000000000000000000000000000000000000000000000000000000000815260040161381490614c37565b60405180910390fd5b61382681612b9a565b15613866576040517f08c379a000000000000000000000000000000000000000000000000000000000815260040161385d90614b57565b60405180910390fd5b613872600083836135b1565b6001600360008473ffffffffffffffffffffffffffffffffffffffff1673ffffffffffffffffffffffffffffffffffffffff16815260200190815260200160002060008282546138c29190614eb3565b92505081905550816002600083815260200190815260200160002060006101000a81548173ffffffffffffffffffffffffffffffffffffffff021916908373ffffffffffffffffffffffffffffffffffffffff160217905550808273ffffffffffffffffffffffffffffffffffffffff16600073ffffffffffffffffffffffffffffffffffffffff167fddf252ad1be2c89b69c2b068fc378daa952ba7f163c4a11628f55a4df523b3ef60405160405180910390a4613983600083836135b6565b5050565b6000808273ffffffffffffffffffffffffffffffffffffffff163b119050919050565b6040518060a001604052806139bd6139e5565b81526020016139ca613a06565b81526020016000815260200160008152602001600081525090565b60405180606001604052806000815260200160608152602001606081525090565b60405180606001604052806000815260200160008152602001600081525090565b6000613a3a613a3584614d8b565b614d66565b905082815260208101848484011115613a5257600080fd5b613a5d848285615227565b509392505050565b6000613a78613a7384614dbc565b614d66565b905082815260208101848484011115613a9057600080fd5b613a9b848285615236565b509392505050565b600081359050613ab281615b8b565b92915050565b600081359050613ac781615ba2565b92915050565b600081359050613adc81615bb9565b92915050565b600081519050613af181615bb9565b92915050565b600082601f830112613b0857600080fd5b8135613b18848260208601613a27565b91505092915050565b600081359050613b3081615bd0565b92915050565b600082601f830112613b4757600080fd5b8151613b57848260208601613a65565b91505092915050565b600060e08284031215613b7257600080fd5b613b7c60a0614d66565b9050600082015167ffffffffffffffff811115613b9857600080fd5b613ba484828501613c00565b6000830152506020613bb884828501613c90565b6020830152506080613bcc84828501613d05565b60408301525060a0613be084828501613d05565b60608301525060c0613bf484828501613d05565b60808301525092915050565b600060608284031215613c1257600080fd5b613c1c6060614d66565b90506000613c2c84828501613d05565b600083015250602082015167ffffffffffffffff811115613c4c57600080fd5b613c5884828501613b36565b602083015250604082015167ffffffffffffffff811115613c7857600080fd5b613c8484828501613b36565b60408301525092915050565b600060608284031215613ca257600080fd5b613cac6060614d66565b90506000613cbc84828501613d05565b6000830152506020613cd084828501613d05565b6020830152506040613ce484828501613d05565b60408301525092915050565b600081359050613cff81615be7565b92915050565b600081519050613d1481615be7565b92915050565b600060208284031215613d2c57600080fd5b6000613d3a84828501613aa3565b91505092915050565b60008060408385031215613d5657600080fd5b6000613d6485828601613aa3565b9250506020613d7585828601613aa3565b9150509250929050565b600080600060608486031215613d9457600080fd5b6000613da286828701613aa3565b9350506020613db386828701613aa3565b9250506040613dc486828701613cf0565b9150509250925092565b60008060008060808587031215613de457600080fd5b6000613df287828801613aa3565b9450506020613e0387828801613aa3565b9350506040613e1487828801613cf0565b925050606085013567ffffffffffffffff811115613e3157600080fd5b613e3d87828801613af7565b91505092959194509250565b60008060408385031215613e5c57600080fd5b6000613e6a85828601613aa3565b9250506020613e7b85828601613ab8565b9150509250929050565b60008060408385031215613e9857600080fd5b6000613ea685828601613aa3565b9250506020613eb785828601613cf0565b9150509250929050565b600060208284031215613ed357600080fd5b6000613ee184828501613acd565b91505092915050565b600060208284031215613efc57600080fd5b6000613f0a84828501613ae2565b91505092915050565b600060208284031215613f2557600080fd5b6000613f3384828501613b21565b91505092915050565b600060208284031215613f4e57600080fd5b600082015167ffffffffffffffff811115613f6857600080fd5b613f7484828501613b36565b91505092915050565b600060208284031215613f8f57600080fd5b600082015167ffffffffffffffff811115613fa957600080fd5b613fb584828501613b60565b91505092915050565b600060608284031215613fd057600080fd5b6000613fde84828501613c90565b91505092915050565b600060208284031215613ff957600080fd5b600061400784828501613cf0565b91505092915050565b60006020828403121561402257600080fd5b600061403084828501613d05565b91505092915050565b6000806040838503121561404c57600080fd5b600061405a85828601613cf0565b925050602061406b85828601613aa3565b9150509250929050565b600061408183836141cb565b60208301905092915050565b6000614099838361467e565b905092915050565b6140aa81615139565b82525050565b60006140bb82614e0d565b6140c58185614e53565b93506140d083614ded565b8060005b838110156141015781516140e88882614075565b97506140f383614e39565b9250506001810190506140d4565b5085935050505092915050565b600061411982614e18565b6141238185614e64565b93508360208202850161413585614dfd565b8060005b858110156141715784840389528151614152858261408d565b945061415d83614e46565b925060208a01995050600181019050614139565b50829750879550505050505092915050565b61418c8161514b565b82525050565b600061419d82614e23565b6141a78185614e75565b93506141b7818560208601615236565b6141c081615431565b840191505092915050565b6141d4816151df565b82525050565b6141e3816151df565b82525050565b6141f281615203565b82525050565b61420181615215565b82525050565b600061421282614e2e565b61421c8185614e86565b935061422c818560208601615236565b61423581615431565b840191505092915050565b600061424b82614e2e565b6142558185614e97565b9350614265818560208601615236565b61426e81615431565b840191505092915050565b600061428482614e2e565b61428e8185614ea8565b935061429e818560208601615236565b80840191505092915050565b60006142b7600283614ea8565b91506142c28261544f565b600282019050919050565b60006142da603283614e97565b91506142e582615478565b604082019050919050565b60006142fd602a83614ea8565b9150614308826154c7565b602a82019050919050565b6000614320600283614ea8565b915061432b82615516565b600282019050919050565b6000614343602583614e97565b915061434e8261553f565b604082019050919050565b6000614366601c83614e97565b91506143718261558e565b602082019050919050565b6000614389600e83614ea8565b9150614394826155b7565b600e82019050919050565b60006143ac602483614e97565b91506143b7826155e0565b604082019050919050565b60006143cf601983614e97565b91506143da8261562f565b602082019050919050565b60006143f2602c83614e97565b91506143fd82615658565b604082019050919050565b6000614415602a83614ea8565b9150614420826156a7565b602a82019050919050565b6000614438603883614e97565b9150614443826156f6565b604082019050919050565b600061445b604f83614ea8565b915061446682615745565b604f82019050919050565b600061447e602a83614e97565b9150614489826157ba565b604082019050919050565b60006144a1602983614e97565b91506144ac82615809565b604082019050919050565b60006144c4600483614ea8565b91506144cf82615858565b600482019050919050565b60006144e7602083614e97565b91506144f282615881565b602082019050919050565b600061450a602d83614ea8565b9150614515826158aa565b602d82019050919050565b600061452d602c83614e97565b9150614538826158f9565b604082019050919050565b6000614550600a83614ea8565b915061455b82615948565b600a82019050919050565b6000614573600f83614ea8565b915061457e82615971565b600f82019050919050565b6000614596600483614ea8565b91506145a18261599a565b600482019050919050565b60006145b9602183614e97565b91506145c4826159c3565b604082019050919050565b60006145dc601d83614ea8565b91506145e782615a12565b601d82019050919050565b60006145ff603183614e97565b915061460a82615a3b565b604082019050919050565b6000614622602183614ea8565b915061462d82615a8a565b602182019050919050565b6000614645600a83614ea8565b915061465082615ad9565b600a82019050919050565b6000614668604483614e97565b915061467382615b02565b606082019050919050565b600060e083016000830151848203600086015261469b828261476a565b91505060208301516146b060208601826147c1565b5060408301516146c36080860182614845565b5060608301516146d660a0860182614845565b5060808301516146e960c0860182614845565b508091505092915050565b600060e0830160008301518482036000860152614711828261476a565b915050602083015161472660208601826147c1565b5060408301516147396080860182614845565b50606083015161474c60a0860182614845565b50608083015161475f60c0860182614845565b508091505092915050565b60006060830160008301516147826000860182614845565b506020830151848203602086015261479a8282614207565b915050604083015184820360408601526147b48282614207565b9150508091505092915050565b6060820160008201516147d76000850182614845565b5060208201516147ea6020850182614845565b5060408201516147fd6040850182614845565b50505050565b6060820160008201516148196000850182614845565b50602082015161482c6020850182614845565b50604082015161483f6040850182614845565b50505050565b61484e816151c8565b82525050565b61485d816151c8565b82525050565b600061486e82614543565b915061487a828b614279565b915061488582614589565b9150614891828a614279565b915061489c82614313565b91506148a78261444e565b91506148b282614638565b91506148be8289614279565b91506148c982614313565b91506148d482614566565b91506148df826142f0565b91506148eb8288614279565b91506148f68261437c565b91506149028287614279565b915061490d826142aa565b915061491882614408565b91506149248286614279565b915061492f826142aa565b915061493a826144fd565b91506149468285614279565b9150614951826142aa565b915061495c82614615565b91506149688284614279565b9150614973826144b7565b91508190509998505050505050505050565b6000614990826145cf565b915061499c8284614279565b915081905092915050565b60006020820190506149bc60008301846140a1565b92915050565b60006080820190506149d760008301876140a1565b6149e460208301866140a1565b6149f16040830185614854565b8181036060830152614a038184614192565b905095945050505050565b6000606082019050614a2360008301866140a1565b614a306020830185614854565b614a3d6040830184614854565b949350505050565b60006020820190508181036000830152614a5f81846140b0565b905092915050565b60006020820190508181036000830152614a81818461410e565b905092915050565b6000602082019050614a9e6000830184614183565b92915050565b6000602082019050614ab960008301846141da565b92915050565b6000602082019050614ad460008301846141e9565b92915050565b6000602082019050614aef60008301846141f8565b92915050565b60006020820190508181036000830152614b0f8184614240565b905092915050565b60006020820190508181036000830152614b30816142cd565b9050919050565b60006020820190508181036000830152614b5081614336565b9050919050565b60006020820190508181036000830152614b7081614359565b9050919050565b60006020820190508181036000830152614b908161439f565b9050919050565b60006020820190508181036000830152614bb0816143c2565b9050919050565b60006020820190508181036000830152614bd0816143e5565b9050919050565b60006020820190508181036000830152614bf08161442b565b9050919050565b60006020820190508181036000830152614c1081614471565b9050919050565b60006020820190508181036000830152614c3081614494565b9050919050565b60006020820190508181036000830152614c50816144da565b9050919050565b60006020820190508181036000830152614c7081614520565b9050919050565b60006020820190508181036000830152614c90816145ac565b9050919050565b60006020820190508181036000830152614cb0816145f2565b9050919050565b60006020820190508181036000830152614cd08161465b565b9050919050565b60006020820190508181036000830152614cf181846146f4565b905092915050565b6000602082019050614d0e6000830184614854565b92915050565b6000608082019050614d296000830185614854565b614d366020830184614803565b9392505050565b6000604082019050614d526000830185614854565b614d5f6020830184614854565b9392505050565b6000614d70614d81565b9050614d7c828261529b565b919050565b6000604051905090565b600067ffffffffffffffff821115614da657614da5615402565b5b614daf82615431565b9050602081019050919050565b600067ffffffffffffffff821115614dd757614dd6615402565b5b614de082615431565b9050602081019050919050565b6000819050602082019050919050565b6000819050602082019050919050565b600081519050919050565b600081519050919050565b600081519050919050565b600081519050919050565b6000602082019050919050565b6000602082019050919050565b600082825260208201905092915050565b600082825260208201905092915050565b600082825260208201905092915050565b600082825260208201905092915050565b600082825260208201905092915050565b600081905092915050565b6000614ebe826151c8565b9150614ec9836151c8565b9250827fffffffffffffffffffffffffffffffffffffffffffffffffffffffffffffffff03821115614efe57614efd615346565b5b828201905092915050565b6000614f14826151c8565b9150614f1f836151c8565b925082614f2f57614f2e615375565b5b828204905092915050565b6000808291508390505b6001851115614f8457808604811115614f6057614f5f615346565b5b6001851615614f6f5780820291505b8081029050614f7d85615442565b9450614f44565b94509492505050565b6000614f98826151c8565b9150614fa3836151d2565b9250614fd07fffffffffffffffffffffffffffffffffffffffffffffffffffffffffffffffff8484614fd8565b905092915050565b600082614fe857600190506150a4565b81614ff657600090506150a4565b816001811461500c576002811461501657615045565b60019150506150a4565b60ff84111561502857615027615346565b5b8360020a91508482111561503f5761503e615346565b5b506150a4565b5060208310610133831016604e8410600b841016171561507a5782820a90508381111561507557615074615346565b5b6150a4565b6150878484846001614f3a565b9250905081840481111561509e5761509d615346565b5b81810290505b9392505050565b60006150b6826151c8565b91506150c1836151c8565b9250817fffffffffffffffffffffffffffffffffffffffffffffffffffffffffffffffff04831182151516156150fa576150f9615346565b5b828202905092915050565b6000615110826151c8565b915061511b836151c8565b92508282101561512e5761512d615346565b5b828203905092915050565b6000615144826151a8565b9050919050565b60008115159050919050565b60007fffffffff0000000000000000000000000000000000000000000000000000000082169050919050565b600061518e82615139565b9050919050565b60008190506151a382615b77565b919050565b600073ffffffffffffffffffffffffffffffffffffffff82169050919050565b6000819050919050565b600060ff82169050919050565b60006151ea826151f1565b9050919050565b60006151fc826151a8565b9050919050565b600061520e82615195565b9050919050565b6000615220826151c8565b9050919050565b82818337600083830152505050565b60005b83811015615254578082015181840152602081019050615239565b83811115615263576000848401525b50505050565b6000600282049050600182168061528157607f821691505b60208210811415615295576152946153d3565b5b50919050565b6152a482615431565b810181811067ffffffffffffffff821117156152c3576152c2615402565b5b80604052505050565b60006152d7826151c8565b91507fffffffffffffffffffffffffffffffffffffffffffffffffffffffffffffffff82141561530a57615309615346565b5b600182019050919050565b6000615320826151c8565b915061532b836151c8565b92508261533b5761533a615375565b5b828206905092915050565b7f4e487b7100000000000000000000000000000000000000000000000000000000600052601160045260246000fd5b7f4e487b7100000000000000000000000000000000000000000000000000000000600052601260045260246000fd5b7f4e487b7100000000000000000000000000000000000000000000000000000000600052602160045260246000fd5b7f4e487b7100000000000000000000000000000000000000000000000000000000600052602260045260246000fd5b7f4e487b7100000000000000000000000000000000000000000000000000000000600052604160045260246000fd5b6000601f19601f8301169050919050565b60008160011c9050919050565b7f7d2c000000000000000000000000000000000000000000000000000000000000600082015250565b7f4552433732313a207472616e7366657220746f206e6f6e20455243373231526560008201527f63656976657220696d706c656d656e7465720000000000000000000000000000602082015250565b7f7b202274726169745f74797065223a20224865616c746820506f696e7473222c60008201527f202276616c7565223a2000000000000000000000000000000000000000000000602082015250565b7f222c000000000000000000000000000000000000000000000000000000000000600082015250565b7f4552433732313a207472616e736665722066726f6d20696e636f72726563742060008201527f6f776e6572000000000000000000000000000000000000000000000000000000602082015250565b7f4552433732313a20746f6b656e20616c7265616479206d696e74656400000000600082015250565b7f2c20226d61785f76616c7565223a000000000000000000000000000000000000600082015250565b7f4552433732313a207472616e7366657220746f20746865207a65726f2061646460008201527f7265737300000000000000000000000000000000000000000000000000000000602082015250565b7f4552433732313a20617070726f766520746f2063616c6c657200000000000000600082015250565b7f4552433732313a206f70657261746f7220717565727920666f72206e6f6e657860008201527f697374656e7420746f6b656e0000000000000000000000000000000000000000602082015250565b7f7b202274726169745f74797065223a202241747461636b2044616d616765222c60008201527f202276616c7565223a2000000000000000000000000000000000000000000000602082015250565b7f4552433732313a20617070726f76652063616c6c6572206973206e6f74206f7760008201527f6e6572206e6f7220617070726f76656420666f7220616c6c0000000000000000602082015250565b7f226465736372697074696f6e223a20225468697320697320616e204e4654207460008201527f686174206c6574732070656f706c6520706c617920696e207468652067616d6560208201527f20506f6b656d6f6e204e465421222c0000000000000000000000000000000000604082015250565b7f4552433732313a2062616c616e636520717565727920666f7220746865207a6560008201527f726f206164647265737300000000000000000000000000000000000000000000602082015250565b7f4552433732313a206f776e657220717565727920666f72206e6f6e657869737460008201527f656e7420746f6b656e0000000000000000000000000000000000000000000000602082015250565b7f7d205d7d00000000000000000000000000000000000000000000000000000000600082015250565b7f4552433732313a206d696e7420746f20746865207a65726f2061646472657373600082015250565b7f7b202274726169745f74797065223a2022546f74616c20457870657269656e6360008201527f65222c202276616c7565223a2000000000000000000000000000000000000000602082015250565b7f4552433732313a20617070726f76656420717565727920666f72206e6f6e657860008201527f697374656e7420746f6b656e0000000000000000000000000000000000000000602082015250565b7f7b226e616d65223a202200000000000000000000000000000000000000000000600082015250565b7f2261747472696275746573223a205b0000000000000000000000000000000000600082015250565b7f20233a2000000000000000000000000000000000000000000000000000000000600082015250565b7f4552433732313a20617070726f76616c20746f2063757272656e74206f776e6560008201527f7200000000000000000000000000000000000000000000000000000000000000602082015250565b7f646174613a6170706c69636174696f6e2f6a736f6e3b6261736536342c000000600082015250565b7f4552433732313a207472616e736665722063616c6c6572206973206e6f74206f60008201527f776e6572206e6f7220617070726f766564000000000000000000000000000000602082015250565b7f7b202274726169745f74797065223a20224c6576656c222c202276616c75652260008201527f3a00000000000000000000000000000000000000000000000000000000000000602082015250565b7f22696d616765223a202200000000000000000000000000000000000000000000600082015250565b7f4572726f722e20506f6b656d6f6e496e6465782073656c65637465642067726560008201527f61746572207468616e2073697a65206f6620706f6b656d6f6e7320617661696c60208201527f61626c6500000000000000000000000000000000000000000000000000000000604082015250565b60028110615b8857615b876153a4565b5b50565b615b9481615139565b8114615b9f57600080fd5b50565b615bab8161514b565b8114615bb657600080fd5b50565b615bc281615157565b8114615bcd57600080fd5b50565b615bd981615183565b8114615be457600080fd5b50565b615bf0816151c8565b8114615bfb57600080fd5b5056fe4142434445464748494a4b4c4d4e4f505152535455565758595a6162636465666768696a6b6c6d6e6f707172737475767778797a303132333435363738392b2fa26469706673582212203f22a34a1d920e30063f1c06aef617b5fe3d4fc023bf82bd1941b1eb5ce946f664736f6c6343000804003360806040523480156200001157600080fd5b50604051620017e9380380620017e9833981810160405281019062000037919062000297565b6200004b848484846200005560201b60201c565b50505050620004c9565b836000800160000181905550826000800160010190805190602001906200007e929190620000f5565b50816000800160020190805190602001906200009c929190620000f5565b508060000151600060030160000181905550806040015160006003016002018190555080602001516000600301600101819055506001600060060181905550600080600701819055506000806008018190555050505050565b8280546200010390620003d4565b90600052602060002090601f01602090048101928262000127576000855562000173565b82601f106200014257805160ff191683800117855562000173565b8280016001018555821562000173579182015b828111156200017257825182559160200191906001019062000155565b5b50905062000182919062000186565b5090565b5b80821115620001a157600081600090555060010162000187565b5090565b6000620001bc620001b6846200035e565b62000335565b905082815260208101848484011115620001d557600080fd5b620001e28482856200039e565b509392505050565b600082601f830112620001fc57600080fd5b81516200020e848260208601620001a5565b91505092915050565b6000606082840312156200022a57600080fd5b62000236606062000335565b90506000620002488482850162000280565b60008301525060206200025e8482850162000280565b6020830152506040620002748482850162000280565b60408301525092915050565b6000815190506200029181620004af565b92915050565b60008060008060c08587031215620002ae57600080fd5b6000620002be8782880162000280565b945050602085015167ffffffffffffffff811115620002dc57600080fd5b620002ea87828801620001ea565b935050604085015167ffffffffffffffff8111156200030857600080fd5b6200031687828801620001ea565b9250506060620003298782880162000217565b91505092959194509250565b60006200034162000354565b90506200034f82826200040a565b919050565b6000604051905090565b600067ffffffffffffffff8211156200037c576200037b6200046f565b5b62000387826200049e565b9050602081019050919050565b6000819050919050565b60005b83811015620003be578082015181840152602081019050620003a1565b83811115620003ce576000848401525b50505050565b60006002820490506001821680620003ed57607f821691505b6020821081141562000404576200040362000440565b5b50919050565b62000415826200049e565b810181811067ffffffffffffffff821117156200043757620004366200046f565b5b80604052505050565b7f4e487b7100000000000000000000000000000000000000000000000000000000600052602260045260246000fd5b7f4e487b7100000000000000000000000000000000000000000000000000000000600052604160045260246000fd5b6000601f19601f8301169050919050565b620004ba8162000394565b8114620004c657600080fd5b50565b61131080620004d96000396000f3fe608060405234801561001057600080fd5b50600436106101375760003560e01c80638ce802e0116100b8578063c59d48471161007c578063c59d4847146102f6578063cdb986cc14610314578063e2b7673614610332578063ed73fc4b1461034e578063ede641a41461036c578063f6a0e8671461038857610137565b80638ce802e0146102665780639be55e0014610282578063a5985e8c1461029e578063abd708ef146102bc578063c57e4a99146102da57610137565b806346bd9a66116100ff57806346bd9a66146101ce5780635143e01a146101ec5780635a9b0b89146102085780635d1ca6311461022657806373d4a13a1461024457610137565b806306d8652f1461013c5780630b5270a71461015857806317d7de7c14610174578063296f23f9146101925780633bc5de30146101b0575b600080fd5b61015660048036038101906101519190610d38565b6103a6565b005b610172600480360381019061016d9190610d38565b6103b6565b005b61017c6103c3565b604051610189919061102c565b60405180910390f35b61019a61045a565b6040516101a79190611107565b60405180910390f35b6101b8610469565b6040516101c5919061104e565b60405180910390f35b6101d6610615565b6040516101e3919061102c565b60405180910390f35b61020660048036038101906102019190610d38565b6106ac565b005b6102106106bc565b60405161021d9190611070565b60405180910390f35b61022e610806565b60405161023b9190611107565b60405180910390f35b61024c610815565b60405161025d959493929190611092565b60405180910390f35b610280600480360381019061027b9190610d0f565b610999565b005b61029c60048036038101906102979190610d38565b6109cf565b005b6102a66109dc565b6040516102b39190611107565b60405180910390f35b6102c46109e8565b6040516102d19190611107565b60405180910390f35b6102f460048036038101906102ef9190610d61565b6109f7565b005b6102fe610a93565b60405161030b91906110ec565b60405180910390f35b61031c610ace565b6040516103299190611107565b60405180910390f35b61034c60048036038101906103479190610d38565b610ada565b005b610356610aea565b6040516103639190611107565b60405180910390f35b61038660048036038101906103819190610d38565b610af6565b005b610390610b03565b60405161039d9190611107565b60405180910390f35b8060006003016001018190555050565b8060006006018190555050565b60606000800160010180546103d7906111f1565b80601f0160208091040260200160405190810160405280929190818152602001828054610403906111f1565b80156104505780601f1061042557610100808354040283529160200191610450565b820191906000526020600020905b81548152906001019060200180831161043357829003601f168201915b5050505050905090565b60008060030160010154905090565b610471610b12565b60006040518060a001604052908160008201604051806060016040529081600082015481526020016001820180546104a8906111f1565b80601f01602080910402602001604051908101604052809291908181526020018280546104d4906111f1565b80156105215780601f106104f657610100808354040283529160200191610521565b820191906000526020600020905b81548152906001019060200180831161050457829003601f168201915b5050505050815260200160028201805461053a906111f1565b80601f0160208091040260200160405190810160405280929190818152602001828054610566906111f1565b80156105b35780601f10610588576101008083540402835291602001916105b3565b820191906000526020600020905b81548152906001019060200180831161059657829003601f168201915b505050505081525050815260200160038201604051806060016040529081600082015481526020016001820154815260200160028201548152505081526020016006820154815260200160078201548152602001600882015481525050905090565b6060600080016002018054610629906111f1565b80601f0160208091040260200160405190810160405280929190818152602001828054610655906111f1565b80156106a25780601f10610677576101008083540402835291602001916106a2565b820191906000526020600020905b81548152906001019060200180831161068557829003601f168201915b5050505050905090565b8060006003016002018190555050565b6106c4610b4d565b60008001604051806060016040529081600082015481526020016001820180546106ed906111f1565b80601f0160208091040260200160405190810160405280929190818152602001828054610719906111f1565b80156107665780601f1061073b57610100808354040283529160200191610766565b820191906000526020600020905b81548152906001019060200180831161074957829003601f168201915b5050505050815260200160028201805461077f906111f1565b80601f01602080910402602001604051908101604052809291908181526020018280546107ab906111f1565b80156107f85780601f106107cd576101008083540402835291602001916107f8565b820191906000526020600020905b8154815290600101906020018083116107db57829003601f168201915b505050505081525050905090565b60008060000160000154905090565b60008060000160405180606001604052908160008201548152602001600182018054610840906111f1565b80601f016020809104026020016040519081016040528092919081815260200182805461086c906111f1565b80156108b95780601f1061088e576101008083540402835291602001916108b9565b820191906000526020600020905b81548152906001019060200180831161089c57829003601f168201915b505050505081526020016002820180546108d2906111f1565b80601f01602080910402602001604051908101604052809291908181526020018280546108fe906111f1565b801561094b5780601f106109205761010080835404028352916020019161094b565b820191906000526020600020905b81548152906001019060200180831161092e57829003601f168201915b50505050508152505090806003016040518060600160405290816000820154815260200160018201548152602001600282015481525050908060060154908060070154908060080154905085565b80600001516000600301600001819055508060200151600060030160010181905550806040015160006003016002018190555050565b8060006008018190555050565b60008060060154905090565b60008060030160000154905090565b83600080016000018190555082600080016001019080519060200190610a1e929190610b6e565b5081600080016002019080519060200190610a3a929190610b6e565b508060000151600060030160000181905550806040015160006003016002018190555080602001516000600301600101819055506001600060060181905550600080600701819055506000806008018190555050505050565b610a9b610bf4565b60006003016040518060600160405290816000820154815260200160018201548152602001600282015481525050905090565b60008060070154905090565b8060006003016000018190555050565b60008060080154905090565b8060006007018190555050565b60008060030160020154905090565b6040518060a00160405280610b25610b4d565b8152602001610b32610bf4565b81526020016000815260200160008152602001600081525090565b60405180606001604052806000815260200160608152602001606081525090565b828054610b7a906111f1565b90600052602060002090601f016020900481019282610b9c5760008555610be3565b82601f10610bb557805160ff1916838001178555610be3565b82800160010185558215610be3579182015b82811115610be2578251825591602001919060010190610bc7565b5b509050610bf09190610c15565b5090565b60405180606001604052806000815260200160008152602001600081525090565b5b80821115610c2e576000816000905550600101610c16565b5090565b6000610c45610c4084611147565b611122565b905082815260208101848484011115610c5d57600080fd5b610c688482856111af565b509392505050565b600082601f830112610c8157600080fd5b8135610c91848260208601610c32565b91505092915050565b600060608284031215610cac57600080fd5b610cb66060611122565b90506000610cc684828501610cfa565b6000830152506020610cda84828501610cfa565b6020830152506040610cee84828501610cfa565b60408301525092915050565b600081359050610d09816112c3565b92915050565b600060608284031215610d2157600080fd5b6000610d2f84828501610c9a565b91505092915050565b600060208284031215610d4a57600080fd5b6000610d5884828501610cfa565b91505092915050565b60008060008060c08587031215610d7757600080fd5b6000610d8587828801610cfa565b945050602085013567ffffffffffffffff811115610da257600080fd5b610dae87828801610c70565b935050604085013567ffffffffffffffff811115610dcb57600080fd5b610dd787828801610c70565b9250506060610de887828801610c9a565b91505092959194509250565b6000610dff82611178565b610e098185611183565b9350610e198185602086016111be565b610e22816112b2565b840191505092915050565b6000610e3882611178565b610e428185611194565b9350610e528185602086016111be565b610e5b816112b2565b840191505092915050565b600060e0830160008301518482036000860152610e838282610edc565b9150506020830151610e986020860182610f8a565b506040830151610eab608086018261100e565b506060830151610ebe60a086018261100e565b506080830151610ed160c086018261100e565b508091505092915050565b6000606083016000830151610ef4600086018261100e565b5060208301518482036020860152610f0c8282610df4565b91505060408301518482036040860152610f268282610df4565b9150508091505092915050565b6000606083016000830151610f4b600086018261100e565b5060208301518482036020860152610f638282610df4565b91505060408301518482036040860152610f7d8282610df4565b9150508091505092915050565b606082016000820151610fa0600085018261100e565b506020820151610fb3602085018261100e565b506040820151610fc6604085018261100e565b50505050565b606082016000820151610fe2600085018261100e565b506020820151610ff5602085018261100e565b506040820151611008604085018261100e565b50505050565b611017816111a5565b82525050565b611026816111a5565b82525050565b600060208201905081810360008301526110468184610e2d565b905092915050565b600060208201905081810360008301526110688184610e66565b905092915050565b6000602082019050818103600083015261108a8184610f33565b905092915050565b600060e08201905081810360008301526110ac8188610f33565b90506110bb6020830187610fcc565b6110c8608083018661101d565b6110d560a083018561101d565b6110e260c083018461101d565b9695505050505050565b60006060820190506111016000830184610fcc565b92915050565b600060208201905061111c600083018461101d565b92915050565b600061112c61113d565b90506111388282611223565b919050565b6000604051905090565b600067ffffffffffffffff82111561116257611161611283565b5b61116b826112b2565b9050602081019050919050565b600081519050919050565b600082825260208201905092915050565b600082825260208201905092915050565b6000819050919050565b82818337600083830152505050565b60005b838110156111dc5780820151818401526020810190506111c1565b838111156111eb576000848401525b50505050565b6000600282049050600182168061120957607f821691505b6020821081141561121d5761121c611254565b5b50919050565b61122c826112b2565b810181811067ffffffffffffffff8211171561124b5761124a611283565b5b80604052505050565b7f4e487b7100000000000000000000000000000000000000000000000000000000600052602260045260246000fd5b7f4e487b7100000000000000000000000000000000000000000000000000000000600052604160045260246000fd5b6000601f19601f8301169050919050565b6112cc816111a5565b81146112d757600080fd5b5056fea2646970667358221220d8654f20dfda0d252b4378063cb4a616cbf5ca2a8e3d8461c5d7018628c1e86f64736f6c63430008040033",
  "linkReferences": {},
  "deployedLinkReferences": {}
}