{
  "_format": "hh-sol-artifact-1",
  "contractName": "PokemonGame",
  "sourceName": "contracts/PokemonGame.sol",
  "abi": [
    {
      "inputs": [
        {
          "internalType": "uint256[]",
          "name": "pokemonIndexes",
          "type": "uint256[]"
        },
        {
          "internalType": "string[]",
          "name": "pokemonNames",
          "type": "string[]"
        },
        {
          "internalType": "string[]",
          "name": "pokemonImageURIs",
          "type": "string[]"
        },
        {
          "internalType": "uint256[]",
          "name": "pokemonHp",
          "type": "uint256[]"
        },
        {
          "internalType": "uint256[]",
          "name": "pokemonAttack",
          "type": "uint256[]"
        },
        {
          "internalType": "uint256[]",
          "name": "bossesIds",
          "type": "uint256[]"
        },
        {
          "internalType": "uint256[]",
          "name": "bossesLevel",
          "type": "uint256[]"
        }
      ],
      "stateMutability": "nonpayable",
      "type": "constructor"
    },
    {
      "anonymous": false,
      "inputs": [
        {
          "indexed": true,
          "internalType": "address",
          "name": "owner",
          "type": "address"
        },
        {
          "indexed": true,
          "internalType": "address",
          "name": "approved",
          "type": "address"
        },
        {
          "indexed": true,
          "internalType": "uint256",
          "name": "tokenId",
          "type": "uint256"
        }
      ],
      "name": "Approval",
      "type": "event"
    },
    {
      "anonymous": false,
      "inputs": [
        {
          "indexed": true,
          "internalType": "address",
          "name": "owner",
          "type": "address"
        },
        {
          "indexed": true,
          "internalType": "address",
          "name": "operator",
          "type": "address"
        },
        {
          "indexed": false,
          "internalType": "bool",
          "name": "approved",
          "type": "bool"
        }
      ],
      "name": "ApprovalForAll",
      "type": "event"
    },
    {
      "anonymous": false,
      "inputs": [
        {
          "indexed": false,
          "internalType": "uint256",
          "name": "newBossHp",
          "type": "uint256"
        },
        {
          "indexed": false,
          "internalType": "uint256",
          "name": "newPokemonHp",
          "type": "uint256"
        }
      ],
      "name": "AttackComplete",
      "type": "event"
    },
    {
      "anonymous": false,
      "inputs": [
        {
          "indexed": false,
          "internalType": "enum PokemonGame.BattleStatus",
          "name": "status",
          "type": "uint8"
        }
      ],
      "name": "BattleComplete",
      "type": "event"
    },
    {
      "anonymous": false,
      "inputs": [
        {
          "indexed": false,
          "internalType": "uint256",
          "name": "level",
          "type": "uint256"
        },
        {
          "components": [
            {
              "internalType": "uint256",
              "name": "hp",
              "type": "uint256"
            },
            {
              "internalType": "uint256",
              "name": "maxHp",
              "type": "uint256"
            },
            {
              "internalType": "uint256",
              "name": "attack",
              "type": "uint256"
            }
          ],
          "indexed": false,
          "internalType": "struct LPokemonData.Stats",
          "name": "stats",
          "type": "tuple"
        }
      ],
      "name": "LevelUp",
      "type": "event"
    },
    {
      "anonymous": false,
      "inputs": [
        {
          "indexed": false,
          "internalType": "address",
          "name": "sender",
          "type": "address"
        },
        {
          "indexed": false,
          "internalType": "uint256",
          "name": "tokenId",
          "type": "uint256"
        },
        {
          "indexed": false,
          "internalType": "uint256",
          "name": "pokemonId",
          "type": "uint256"
        }
      ],
      "name": "PokemonNFTMinted",
      "type": "event"
    },
    {
      "anonymous": false,
      "inputs": [
        {
          "indexed": true,
          "internalType": "address",
          "name": "from",
          "type": "address"
        },
        {
          "indexed": true,
          "internalType": "address",
          "name": "to",
          "type": "address"
        },
        {
          "indexed": true,
          "internalType": "uint256",
          "name": "tokenId",
          "type": "uint256"
        }
      ],
      "name": "Transfer",
      "type": "event"
    },
    {
      "inputs": [
        {
          "internalType": "address",
          "name": "to",
          "type": "address"
        },
        {
          "internalType": "uint256",
          "name": "tokenId",
          "type": "uint256"
        }
      ],
      "name": "approve",
      "outputs": [],
      "stateMutability": "nonpayable",
      "type": "function"
    },
    {
      "inputs": [
        {
          "internalType": "uint256",
          "name": "pokemonIndex",
          "type": "uint256"
        },
        {
          "internalType": "uint256",
          "name": "bossId",
          "type": "uint256"
        }
      ],
      "name": "attackBoss",
      "outputs": [],
      "stateMutability": "nonpayable",
      "type": "function"
    },
    {
      "inputs": [
        {
          "internalType": "address",
          "name": "owner",
          "type": "address"
        }
      ],
      "name": "balanceOf",
      "outputs": [
        {
          "internalType": "uint256",
          "name": "",
          "type": "uint256"
        }
      ],
      "stateMutability": "view",
      "type": "function"
    },
    {
      "inputs": [
        {
          "internalType": "uint256",
          "name": "",
          "type": "uint256"
        }
      ],
      "name": "bosses",
      "outputs": [
        {
          "internalType": "contract PokemonData",
          "name": "",
          "type": "address"
        }
      ],
      "stateMutability": "view",
      "type": "function"
    },
    {
      "inputs": [],
      "name": "getAllPokemons",
      "outputs": [
        {
          "internalType": "contract PokemonData[]",
          "name": "",
          "type": "address[]"
        }
      ],
      "stateMutability": "view",
      "type": "function"
    },
    {
      "inputs": [
        {
          "internalType": "uint256",
          "name": "tokenId",
          "type": "uint256"
        }
      ],
      "name": "getApproved",
      "outputs": [
        {
          "internalType": "address",
          "name": "",
          "type": "address"
        }
      ],
      "stateMutability": "view",
      "type": "function"
    },
    {
      "inputs": [
        {
          "internalType": "uint256",
          "name": "id",
          "type": "uint256"
        }
      ],
      "name": "getBoss",
      "outputs": [
        {
          "internalType": "contract PokemonData",
          "name": "",
          "type": "address"
        }
      ],
      "stateMutability": "view",
      "type": "function"
    },
    {
      "inputs": [
        {
          "internalType": "uint256",
          "name": "id",
          "type": "uint256"
        }
      ],
      "name": "getPokemon",
      "outputs": [
        {
          "internalType": "contract PokemonData",
          "name": "",
          "type": "address"
        }
      ],
      "stateMutability": "view",
      "type": "function"
    },
    {
      "inputs": [
        {
          "internalType": "uint256",
          "name": "pokemonIndex",
          "type": "uint256"
        },
        {
          "internalType": "address",
          "name": "sender",
          "type": "address"
        }
      ],
      "name": "getPokemonByIndexOf",
      "outputs": [
        {
          "internalType": "contract PokemonData",
          "name": "",
          "type": "address"
        }
      ],
      "stateMutability": "view",
      "type": "function"
    },
    {
      "inputs": [
        {
          "internalType": "uint256",
          "name": "tokenId",
          "type": "uint256"
        }
      ],
      "name": "getPokemonNft",
      "outputs": [
        {
          "internalType": "contract PokemonData",
          "name": "",
          "type": "address"
        }
      ],
      "stateMutability": "view",
      "type": "function"
    },
    {
      "inputs": [
        {
          "internalType": "contract PokemonData",
          "name": "pokemonData",
          "type": "address"
        }
      ],
      "name": "getPokemonReadable",
      "outputs": [
        {
          "components": [
            {
              "components": [
                {
                  "internalType": "uint256",
                  "name": "id",
                  "type": "uint256"
                },
                {
                  "internalType": "string",
                  "name": "name",
                  "type": "string"
                },
                {
                  "internalType": "string",
                  "name": "imageURI",
                  "type": "string"
                }
              ],
              "internalType": "struct LPokemonData.Info",
              "name": "info",
              "type": "tuple"
            },
            {
              "components": [
                {
                  "internalType": "uint256",
                  "name": "hp",
                  "type": "uint256"
                },
                {
                  "internalType": "uint256",
                  "name": "maxHp",
                  "type": "uint256"
                },
                {
                  "internalType": "uint256",
                  "name": "attack",
                  "type": "uint256"
                }
              ],
              "internalType": "struct LPokemonData.Stats",
              "name": "stats",
              "type": "tuple"
            },
            {
              "internalType": "uint256",
              "name": "level",
              "type": "uint256"
            },
            {
              "internalType": "uint256",
              "name": "experience",
              "type": "uint256"
            },
            {
              "internalType": "uint256",
              "name": "totalExperience",
              "type": "uint256"
            }
          ],
          "internalType": "struct LPokemonData.Data",
          "name": "",
          "type": "tuple"
        }
      ],
      "stateMutability": "view",
      "type": "function"
    },
    {
      "inputs": [
        {
          "internalType": "address",
          "name": "sender",
          "type": "address"
        },
        {
          "internalType": "uint256",
          "name": "pokemonIndex",
          "type": "uint256"
        }
      ],
      "name": "getPokemonSelected",
      "outputs": [
        {
          "components": [
            {
              "components": [
                {
                  "internalType": "uint256",
                  "name": "id",
                  "type": "uint256"
                },
                {
                  "internalType": "string",
                  "name": "name",
                  "type": "string"
                },
                {
                  "internalType": "string",
                  "name": "imageURI",
                  "type": "string"
                }
              ],
              "internalType": "struct LPokemonData.Info",
              "name": "info",
              "type": "tuple"
            },
            {
              "components": [
                {
                  "internalType": "uint256",
                  "name": "hp",
                  "type": "uint256"
                },
                {
                  "internalType": "uint256",
                  "name": "maxHp",
                  "type": "uint256"
                },
                {
                  "internalType": "uint256",
                  "name": "attack",
                  "type": "uint256"
                }
              ],
              "internalType": "struct LPokemonData.Stats",
              "name": "stats",
              "type": "tuple"
            },
            {
              "internalType": "uint256",
              "name": "level",
              "type": "uint256"
            },
            {
              "internalType": "uint256",
              "name": "experience",
              "type": "uint256"
            },
            {
              "internalType": "uint256",
              "name": "totalExperience",
              "type": "uint256"
            }
          ],
          "internalType": "struct LPokemonData.Data",
          "name": "",
          "type": "tuple"
        }
      ],
      "stateMutability": "view",
      "type": "function"
    },
    {
      "inputs": [
        {
          "internalType": "address",
          "name": "sender",
          "type": "address"
        }
      ],
      "name": "getPokemonsOf",
      "outputs": [
        {
          "components": [
            {
              "components": [
                {
                  "internalType": "uint256",
                  "name": "id",
                  "type": "uint256"
                },
                {
                  "internalType": "string",
                  "name": "name",
                  "type": "string"
                },
                {
                  "internalType": "string",
                  "name": "imageURI",
                  "type": "string"
                }
              ],
              "internalType": "struct LPokemonData.Info",
              "name": "info",
              "type": "tuple"
            },
            {
              "components": [
                {
                  "internalType": "uint256",
                  "name": "hp",
                  "type": "uint256"
                },
                {
                  "internalType": "uint256",
                  "name": "maxHp",
                  "type": "uint256"
                },
                {
                  "internalType": "uint256",
                  "name": "attack",
                  "type": "uint256"
                }
              ],
              "internalType": "struct LPokemonData.Stats",
              "name": "stats",
              "type": "tuple"
            },
            {
              "internalType": "uint256",
              "name": "level",
              "type": "uint256"
            },
            {
              "internalType": "uint256",
              "name": "experience",
              "type": "uint256"
            },
            {
              "internalType": "uint256",
              "name": "totalExperience",
              "type": "uint256"
            }
          ],
          "internalType": "struct LPokemonData.Data[]",
          "name": "",
          "type": "tuple[]"
        }
      ],
      "stateMutability": "view",
      "type": "function"
    },
    {
      "inputs": [],
      "name": "getTotalPokemons",
      "outputs": [
        {
          "internalType": "uint256",
          "name": "",
          "type": "uint256"
        }
      ],
      "stateMutability": "view",
      "type": "function"
    },
    {
      "inputs": [],
      "name": "getTotalPokemonsMinted",
      "outputs": [
        {
          "internalType": "uint256",
          "name": "",
          "type": "uint256"
        }
      ],
      "stateMutability": "view",
      "type": "function"
    },
    {
      "inputs": [],
      "name": "hasNft",
      "outputs": [
        {
          "components": [
            {
              "components": [
                {
                  "internalType": "uint256",
                  "name": "id",
                  "type": "uint256"
                },
                {
                  "internalType": "string",
                  "name": "name",
                  "type": "string"
                },
                {
                  "internalType": "string",
                  "name": "imageURI",
                  "type": "string"
                }
              ],
              "internalType": "struct LPokemonData.Info",
              "name": "info",
              "type": "tuple"
            },
            {
              "components": [
                {
                  "internalType": "uint256",
                  "name": "hp",
                  "type": "uint256"
                },
                {
                  "internalType": "uint256",
                  "name": "maxHp",
                  "type": "uint256"
                },
                {
                  "internalType": "uint256",
                  "name": "attack",
                  "type": "uint256"
                }
              ],
              "internalType": "struct LPokemonData.Stats",
              "name": "stats",
              "type": "tuple"
            },
            {
              "internalType": "uint256",
              "name": "level",
              "type": "uint256"
            },
            {
              "internalType": "uint256",
              "name": "experience",
              "type": "uint256"
            },
            {
              "internalType": "uint256",
              "name": "totalExperience",
              "type": "uint256"
            }
          ],
          "internalType": "struct LPokemonData.Data",
          "name": "",
          "type": "tuple"
        }
      ],
      "stateMutability": "view",
      "type": "function"
    },
    {
      "inputs": [
        {
          "internalType": "uint256",
          "name": "",
          "type": "uint256"
        }
      ],
      "name": "holders",
      "outputs": [
        {
          "internalType": "address",
          "name": "",
          "type": "address"
        }
      ],
      "stateMutability": "view",
      "type": "function"
    },
    {
      "inputs": [
        {
          "internalType": "address",
          "name": "owner",
          "type": "address"
        },
        {
          "internalType": "address",
          "name": "operator",
          "type": "address"
        }
      ],
      "name": "isApprovedForAll",
      "outputs": [
        {
          "internalType": "bool",
          "name": "",
          "type": "bool"
        }
      ],
      "stateMutability": "view",
      "type": "function"
    },
    {
      "inputs": [
        {
          "internalType": "uint256",
          "name": "_pokemonId",
          "type": "uint256"
        }
      ],
      "name": "mint",
      "outputs": [],
      "stateMutability": "nonpayable",
      "type": "function"
    },
    {
      "inputs": [],
      "name": "name",
      "outputs": [
        {
          "internalType": "string",
          "name": "",
          "type": "string"
        }
      ],
      "stateMutability": "view",
      "type": "function"
    },
    {
      "inputs": [
        {
          "internalType": "address",
          "name": "",
          "type": "address"
        },
        {
          "internalType": "uint256",
          "name": "",
          "type": "uint256"
        }
      ],
      "name": "nftsOfHolder",
      "outputs": [
        {
          "internalType": "uint256",
          "name": "",
          "type": "uint256"
        }
      ],
      "stateMutability": "view",
      "type": "function"
    },
    {
      "inputs": [
        {
          "internalType": "uint256",
          "name": "tokenId",
          "type": "uint256"
        }
      ],
      "name": "ownerOf",
      "outputs": [
        {
          "internalType": "address",
          "name": "",
          "type": "address"
        }
      ],
      "stateMutability": "view",
      "type": "function"
    },
    {
      "inputs": [
        {
          "internalType": "address",
          "name": "from",
          "type": "address"
        },
        {
          "internalType": "address",
          "name": "to",
          "type": "address"
        },
        {
          "internalType": "uint256",
          "name": "tokenId",
          "type": "uint256"
        }
      ],
      "name": "safeTransferFrom",
      "outputs": [],
      "stateMutability": "nonpayable",
      "type": "function"
    },
    {
      "inputs": [
        {
          "internalType": "address",
          "name": "from",
          "type": "address"
        },
        {
          "internalType": "address",
          "name": "to",
          "type": "address"
        },
        {
          "internalType": "uint256",
          "name": "tokenId",
          "type": "uint256"
        },
        {
          "internalType": "bytes",
          "name": "_data",
          "type": "bytes"
        }
      ],
      "name": "safeTransferFrom",
      "outputs": [],
      "stateMutability": "nonpayable",
      "type": "function"
    },
    {
      "inputs": [
        {
          "internalType": "address",
          "name": "operator",
          "type": "address"
        },
        {
          "internalType": "bool",
          "name": "approved",
          "type": "bool"
        }
      ],
      "name": "setApprovalForAll",
      "outputs": [],
      "stateMutability": "nonpayable",
      "type": "function"
    },
    {
      "inputs": [
        {
          "internalType": "bytes4",
          "name": "interfaceId",
          "type": "bytes4"
        }
      ],
      "name": "supportsInterface",
      "outputs": [
        {
          "internalType": "bool",
          "name": "",
          "type": "bool"
        }
      ],
      "stateMutability": "view",
      "type": "function"
    },
    {
      "inputs": [],
      "name": "symbol",
      "outputs": [
        {
          "internalType": "string",
          "name": "",
          "type": "string"
        }
      ],
      "stateMutability": "view",
      "type": "function"
    },
    {
      "inputs": [
        {
          "internalType": "uint256",
          "name": "_tokenId",
          "type": "uint256"
        }
      ],
      "name": "tokenURI",
      "outputs": [
        {
          "internalType": "string",
          "name": "",
          "type": "string"
        }
      ],
      "stateMutability": "view",
      "type": "function"
    },
    {
      "inputs": [
        {
          "internalType": "address",
          "name": "from",
          "type": "address"
        },
        {
          "internalType": "address",
          "name": "to",
          "type": "address"
        },
        {
          "internalType": "uint256",
          "name": "tokenId",
          "type": "uint256"
        }
      ],
      "name": "transferFrom",
      "outputs": [],
      "stateMutability": "nonpayable",
      "type": "function"
    }
  ],
  "bytecode": "0x60806040523480156200001157600080fd5b5060405162008aaa38038062008aaa833981810160405281019062000037919062000c39565b6040518060400160405280600781526020017f506f6b656d6f6e000000000000000000000000000000000000000000000000008152506040518060400160405280600381526020017f504b4d00000000000000000000000000000000000000000000000000000000008152508160009080519060200190620000bb92919062000993565b508060019080519060200190620000d492919062000993565b50505060005b875181101562000339578781815181106200011e577f4e487b7100000000000000000000000000000000000000000000000000000000600052603260045260246000fd5b602002602001015187828151811062000160577f4e487b7100000000000000000000000000000000000000000000000000000000600052603260045260246000fd5b6020026020010151878381518110620001a2577f4e487b7100000000000000000000000000000000000000000000000000000000600052603260045260246000fd5b60200260200101516040518060600160405280898681518110620001ef577f4e487b7100000000000000000000000000000000000000000000000000000000600052603260045260246000fd5b6020026020010151815260200189868151811062000236577f4e487b7100000000000000000000000000000000000000000000000000000000600052603260045260246000fd5b602002602001015181526020018886815181106200027d577f4e487b7100000000000000000000000000000000000000000000000000000000600052603260045260246000fd5b6020026020010151815250604051620002969062000a24565b620002a5949392919062000e89565b604051809103906000f080158015620002c2573d6000803e3d6000fd5b5060086000600184620002d6919062000fbd565b815260200190815260200160002060006101000a81548173ffffffffffffffffffffffffffffffffffffffff021916908373ffffffffffffffffffffffffffffffffffffffff16021790555060018162000331919062000fbd565b9050620000da565b50865160078190555060005b8251811015620003f957620003e38382815181106200038d577f4e487b7100000000000000000000000000000000000000000000000000000000600052603260045260246000fd5b6020026020010151838381518110620003cf577f4e487b7100000000000000000000000000000000000000000000000000000000600052603260045260246000fd5b60200260200101516200041e60201b60201c565b8080620003f09062001304565b91505062000345565b506200041160066200086260201b62001e421760201c565b5050505050505062001446565b600062000431836200087860201b60201c565b90508073ffffffffffffffffffffffffffffffffffffffff16630b5270a7836040518263ffffffff1660e01b81526004016200046e919062000e6c565b600060405180830381600087803b1580156200048957600080fd5b505af11580156200049e573d6000803e3d6000fd5b505050508073ffffffffffffffffffffffffffffffffffffffff166306d8652f838373ffffffffffffffffffffffffffffffffffffffff1663296f23f96040518163ffffffff1660e01b815260040160206040518083038186803b1580156200050657600080fd5b505afa1580156200051b573d6000803e3d6000fd5b505050506040513d601f19601f8201168201806040525081019062000541919062000d95565b6200054d919062000fbd565b6040518263ffffffff1660e01b81526004016200056b919062000e6c565b600060405180830381600087803b1580156200058657600080fd5b505af11580156200059b573d6000803e3d6000fd5b505050508073ffffffffffffffffffffffffffffffffffffffff16635143e01a838373ffffffffffffffffffffffffffffffffffffffff1663f6a0e8676040518163ffffffff1660e01b815260040160206040518083038186803b1580156200060357600080fd5b505afa15801562000618573d6000803e3d6000fd5b505050506040513d601f19601f820116820180604052508101906200063e919062000d95565b6200064a919062000fbd565b6040518263ffffffff1660e01b815260040162000668919062000e6c565b600060405180830381600087803b1580156200068357600080fd5b505af115801562000698573d6000803e3d6000fd5b505050508073ffffffffffffffffffffffffffffffffffffffff1663e2b767368273ffffffffffffffffffffffffffffffffffffffff1663296f23f96040518163ffffffff1660e01b815260040160206040518083038186803b158015620006ff57600080fd5b505afa15801562000714573d6000803e3d6000fd5b505050506040513d601f19601f820116820180604052508101906200073a919062000d95565b6040518263ffffffff1660e01b815260040162000758919062000e6c565b600060405180830381600087803b1580156200077357600080fd5b505af115801562000788573d6000803e3d6000fd5b505050508073ffffffffffffffffffffffffffffffffffffffff16639be55e00620007b984620008b560201b60201c565b6040518263ffffffff1660e01b8152600401620007d7919062000e6c565b600060405180830381600087803b158015620007f257600080fd5b505af115801562000807573d6000803e3d6000fd5b5050505080600c600085815260200190815260200160002060006101000a81548173ffffffffffffffffffffffffffffffffffffffff021916908373ffffffffffffffffffffffffffffffffffffffff160217905550505050565b6001816000016000828254019250508190555050565b60006008600083815260200190815260200160002060009054906101000a900473ffffffffffffffffffffffffffffffffffffffff169050919050565b6000806000600190505b83811015620008fe57620008d9816200090860201b60201c565b82620008e6919062000fbd565b91508080620008f59062001304565b915050620008bf565b5080915050919050565b6000808260026200091a9190620011ea565b600a6002856200092b9190620010ad565b6008620009399190620011ea565b6200094591906200101a565b6064600386620009569190620010ad565b6004620009649190620011ea565b6200097091906200101a565b6200097c919062000fbd565b62000988919062000fbd565b905080915050919050565b828054620009a19062001298565b90600052602060002090601f016020900481019282620009c5576000855562000a11565b82601f10620009e057805160ff191683800117855562000a11565b8280016001018555821562000a11579182015b8281111562000a10578251825591602001919060010190620009f3565b5b50905062000a20919062000a32565b5090565b6117e980620072c183390190565b5b8082111562000a4d57600081600090555060010162000a33565b5090565b600062000a6862000a628462000f0d565b62000ee4565b9050808382526020820190508285602086028201111562000a8857600080fd5b60005b8581101562000ad757815167ffffffffffffffff81111562000aac57600080fd5b80860162000abb898262000bf5565b8552602085019450602084019350505060018101905062000a8b565b5050509392505050565b600062000af862000af28462000f3c565b62000ee4565b9050808382526020820190508285602086028201111562000b1857600080fd5b60005b8581101562000b4c578162000b31888262000c22565b84526020840193506020830192505060018101905062000b1b565b5050509392505050565b600062000b6d62000b678462000f6b565b62000ee4565b90508281526020810184848401111562000b8657600080fd5b62000b9384828562001262565b509392505050565b600082601f83011262000bad57600080fd5b815162000bbf84826020860162000a51565b91505092915050565b600082601f83011262000bda57600080fd5b815162000bec84826020860162000ae1565b91505092915050565b600082601f83011262000c0757600080fd5b815162000c1984826020860162000b56565b91505092915050565b60008151905062000c33816200142c565b92915050565b600080600080600080600060e0888a03121562000c5557600080fd5b600088015167ffffffffffffffff81111562000c7057600080fd5b62000c7e8a828b0162000bc8565b975050602088015167ffffffffffffffff81111562000c9c57600080fd5b62000caa8a828b0162000b9b565b965050604088015167ffffffffffffffff81111562000cc857600080fd5b62000cd68a828b0162000b9b565b955050606088015167ffffffffffffffff81111562000cf457600080fd5b62000d028a828b0162000bc8565b945050608088015167ffffffffffffffff81111562000d2057600080fd5b62000d2e8a828b0162000bc8565b93505060a088015167ffffffffffffffff81111562000d4c57600080fd5b62000d5a8a828b0162000bc8565b92505060c088015167ffffffffffffffff81111562000d7857600080fd5b62000d868a828b0162000bc8565b91505092959891949750929550565b60006020828403121562000da857600080fd5b600062000db88482850162000c22565b91505092915050565b600062000dce8262000fa1565b62000dda818562000fac565b935062000dec81856020860162001262565b62000df7816200140e565b840191505092915050565b60608201600082015162000e1a600085018262000e4a565b50602082015162000e2f602085018262000e4a565b50604082015162000e44604085018262000e4a565b50505050565b62000e55816200124b565b82525050565b62000e66816200124b565b82525050565b600060208201905062000e83600083018462000e5b565b92915050565b600060c08201905062000ea0600083018762000e5b565b818103602083015262000eb4818662000dc1565b9050818103604083015262000eca818562000dc1565b905062000edb606083018462000e02565b95945050505050565b600062000ef062000f03565b905062000efe8282620012ce565b919050565b6000604051905090565b600067ffffffffffffffff82111562000f2b5762000f2a620013df565b5b602082029050602081019050919050565b600067ffffffffffffffff82111562000f5a5762000f59620013df565b5b602082029050602081019050919050565b600067ffffffffffffffff82111562000f895762000f88620013df565b5b62000f94826200140e565b9050602081019050919050565b600081519050919050565b600082825260208201905092915050565b600062000fca826200124b565b915062000fd7836200124b565b9250827fffffffffffffffffffffffffffffffffffffffffffffffffffffffffffffffff038211156200100f576200100e62001352565b5b828201905092915050565b600062001027826200124b565b915062001034836200124b565b92508262001047576200104662001381565b5b828204905092915050565b6000808291508390505b6001851115620010a4578086048111156200107c576200107b62001352565b5b60018516156200108c5780820291505b80810290506200109c856200141f565b94506200105c565b94509492505050565b6000620010ba826200124b565b9150620010c78362001255565b9250620010f67fffffffffffffffffffffffffffffffffffffffffffffffffffffffffffffffff8484620010fe565b905092915050565b600082620011105760019050620011e3565b81620011205760009050620011e3565b816001811462001139576002811462001144576200117a565b6001915050620011e3565b60ff84111562001159576200115862001352565b5b8360020a91508482111562001173576200117262001352565b5b50620011e3565b5060208310610133831016604e8410600b8410161715620011b45782820a905083811115620011ae57620011ad62001352565b5b620011e3565b620011c3848484600162001052565b92509050818404811115620011dd57620011dc62001352565b5b81810290505b9392505050565b6000620011f7826200124b565b915062001204836200124b565b9250817fffffffffffffffffffffffffffffffffffffffffffffffffffffffffffffffff048311821515161562001240576200123f62001352565b5b828202905092915050565b6000819050919050565b600060ff82169050919050565b60005b838110156200128257808201518184015260208101905062001265565b8381111562001292576000848401525b50505050565b60006002820490506001821680620012b157607f821691505b60208210811415620012c857620012c7620013b0565b5b50919050565b620012d9826200140e565b810181811067ffffffffffffffff82111715620012fb57620012fa620013df565b5b80604052505050565b600062001311826200124b565b91507fffffffffffffffffffffffffffffffffffffffffffffffffffffffffffffffff82141562001347576200134662001352565b5b600182019050919050565b7f4e487b7100000000000000000000000000000000000000000000000000000000600052601160045260246000fd5b7f4e487b7100000000000000000000000000000000000000000000000000000000600052601260045260246000fd5b7f4e487b7100000000000000000000000000000000000000000000000000000000600052602260045260246000fd5b7f4e487b7100000000000000000000000000000000000000000000000000000000600052604160045260246000fd5b6000601f19601f8301169050919050565b60008160011c9050919050565b62001437816200124b565b81146200144357600080fd5b50565b615e6b80620014566000396000f3fe608060405234801561001057600080fd5b50600436106101cf5760003560e01c8063792300f411610104578063b88d4fde116100a2578063e985e9c511610071578063e985e9c51461058c578063eb814671146105bc578063f0b305db146105ec578063f962c56c1461061c576101cf565b8063b88d4fde146104e0578063c7047815146104fc578063c87b56dd1461052c578063e0714ffa1461055c576101cf565b8063935b52cf116100de578063935b52cf1461046c57806395d89b411461048a578063a0712d68146104a8578063a22cb465146104c4576101cf565b8063792300f4146103f05780637ec59956146104205780638779b20814610450576101cf565b80632a11ced0116101715780635e9167901161014b5780635e91679014610354578063628a1310146103725780636352211e1461039057806370a08231146103c0576101cf565b80632a11ced0146102ea57806342842e0e1461031a5780634e4b7dcd14610336576101cf565b8063095ea7b3116101ad578063095ea7b3146102525780630e63c7ad1461026e578063204597e01461029e57806323b872dd146102ce576101cf565b806301ffc9a7146101d457806306fdde0314610204578063081812fc14610222575b600080fd5b6101ee60048036038101906101e99190613fa4565b61064c565b6040516101fb9190614bee565b60405180910390f35b61020c61072e565b6040516102199190614c5a565b60405180910390f35b61023c600480360381019061023791906140ca565b6107c0565b6040516102499190614b0c565b60405180910390f35b61026c60048036038101906102679190613f68565b610845565b005b610288600480360381019061028391906140ca565b61095d565b6040516102959190614c09565b60405180910390f35b6102b860048036038101906102b391906140ca565b61099a565b6040516102c59190614c09565b60405180910390f35b6102e860048036038101906102e39190613e62565b6109cd565b005b61030460048036038101906102ff91906140ca565b610a2d565b6040516103119190614b0c565b60405180910390f35b610334600480360381019061032f9190613e62565b610a6c565b005b61033e610a8c565b60405161034b9190614e7c565b60405180910390f35b61035c610c16565b6040516103699190614baa565b60405180910390f35b61037a610d74565b6040516103879190614e9e565b60405180910390f35b6103aa60048036038101906103a591906140ca565b610d7e565b6040516103b79190614b0c565b60405180910390f35b6103da60048036038101906103d59190613dfd565b610e30565b6040516103e79190614e9e565b60405180910390f35b61040a6004803603810190610405919061411c565b610ee8565b6040516104179190614c09565b60405180910390f35b61043a600480360381019061043591906140ca565b610f87565b6040516104479190614c09565b60405180910390f35b61046a60048036038101906104659190614158565b610fc4565b005b6104746111d1565b6040516104819190614e9e565b60405180910390f35b6104926111e7565b60405161049f9190614c5a565b60405180910390f35b6104c260048036038101906104bd91906140ca565b611279565b005b6104de60048036038101906104d99190613f2c565b61139a565b005b6104fa60048036038101906104f59190613eb1565b6113b0565b005b61051660048036038101906105119190613f68565b611412565b6040516105239190614e9e565b60405180910390f35b610546600480360381019061054191906140ca565b611443565b6040516105539190614c5a565b60405180910390f35b61057660048036038101906105719190613dfd565b611884565b6040516105839190614bcc565b60405180910390f35b6105a660048036038101906105a19190613e26565b611b01565b6040516105b39190614bee565b60405180910390f35b6105d660048036038101906105d19190613ff6565b611b95565b6040516105e39190614e7c565b60405180910390f35b610606600480360381019061060191906140ca565b611c2d565b6040516106139190614c09565b60405180910390f35b61063660048036038101906106319190613f68565b611c6a565b6040516106439190614e7c565b60405180910390f35b60007f80ac58cd000000000000000000000000000000000000000000000000000000007bffffffffffffffffffffffffffffffffffffffffffffffffffffffff1916827bffffffffffffffffffffffffffffffffffffffffffffffffffffffff1916148061071757507f5b5e139f000000000000000000000000000000000000000000000000000000007bffffffffffffffffffffffffffffffffffffffffffffffffffffffff1916827bffffffffffffffffffffffffffffffffffffffffffffffffffffffff1916145b80610727575061072682611e58565b5b9050919050565b60606000805461073d9061540e565b80601f01602080910402602001604051908101604052809291908181526020018280546107699061540e565b80156107b65780601f1061078b576101008083540402835291602001916107b6565b820191906000526020600020905b81548152906001019060200180831161079957829003601f168201915b5050505050905090565b60006107cb82611ec2565b61080a576040517f08c379a000000000000000000000000000000000000000000000000000000000815260040161080190614ddc565b60405180910390fd5b6004600083815260200190815260200160002060009054906101000a900473ffffffffffffffffffffffffffffffffffffffff169050919050565b600061085082610d7e565b90508073ffffffffffffffffffffffffffffffffffffffff168373ffffffffffffffffffffffffffffffffffffffff1614156108c1576040517f08c379a00000000000000000000000000000000000000000000000000000000081526004016108b890614dfc565b60405180910390fd5b8073ffffffffffffffffffffffffffffffffffffffff166108e0611f2e565b73ffffffffffffffffffffffffffffffffffffffff16148061090f575061090e81610909611f2e565b611b01565b5b61094e576040517f08c379a000000000000000000000000000000000000000000000000000000000815260040161094590614d5c565b60405180910390fd5b6109588383611f36565b505050565b6000600c600083815260200190815260200160002060009054906101000a900473ffffffffffffffffffffffffffffffffffffffff169050919050565b600c6020528060005260406000206000915054906101000a900473ffffffffffffffffffffffffffffffffffffffff1681565b6109de6109d8611f2e565b82611fef565b610a1d576040517f08c379a0000000000000000000000000000000000000000000000000000000008152600401610a1490614e3c565b60405180910390fd5b610a288383836120cd565b505050565b600b8181548110610a3d57600080fd5b906000526020600020016000915054906101000a900473ffffffffffffffffffffffffffffffffffffffff1681565b610a87838383604051806020016040528060008152506113b0565b505050565b610a94613a8d565b6000600a60003373ffffffffffffffffffffffffffffffffffffffff1673ffffffffffffffffffffffffffffffffffffffff1681526020019081526020016000208054905090506000811115610c05576000600a60003373ffffffffffffffffffffffffffffffffffffffff1673ffffffffffffffffffffffffffffffffffffffff168152602001908152602001600020600081548110610b5e577f4e487b7100000000000000000000000000000000000000000000000000000000600052603260045260246000fd5b906000526020600020015490506000610b7682610f87565b73ffffffffffffffffffffffffffffffffffffffff16633bc5de306040518163ffffffff1660e01b815260040160006040518083038186803b158015610bbb57600080fd5b505afa158015610bcf573d6000803e3d6000fd5b505050506040513d6000823e3d601f19601f82011682018060405250810190610bf89190614060565b9050809350505050610c13565b610c0d613a8d565b80925050505b90565b60606000610c22610d74565b905060008167ffffffffffffffff811115610c66577f4e487b7100000000000000000000000000000000000000000000000000000000600052604160045260246000fd5b604051908082528060200260200182016040528015610c945781602001602082028036833780820191505090505b5090506000600190505b828111610d6b576008600082815260200190815260200160002060009054906101000a900473ffffffffffffffffffffffffffffffffffffffff1682600183610ce791906152aa565b81518110610d1e577f4e487b7100000000000000000000000000000000000000000000000000000000600052603260045260246000fd5b602002602001019073ffffffffffffffffffffffffffffffffffffffff16908173ffffffffffffffffffffffffffffffffffffffff16815250508080610d6390615471565b915050610c9e565b50809250505090565b6000600754905090565b6000806002600084815260200190815260200160002060009054906101000a900473ffffffffffffffffffffffffffffffffffffffff169050600073ffffffffffffffffffffffffffffffffffffffff168173ffffffffffffffffffffffffffffffffffffffff161415610e27576040517f08c379a0000000000000000000000000000000000000000000000000000000008152600401610e1e90614d9c565b60405180910390fd5b80915050919050565b60008073ffffffffffffffffffffffffffffffffffffffff168273ffffffffffffffffffffffffffffffffffffffff161415610ea1576040517f08c379a0000000000000000000000000000000000000000000000000000000008152600401610e9890614d7c565b60405180910390fd5b600360008373ffffffffffffffffffffffffffffffffffffffff1673ffffffffffffffffffffffffffffffffffffffff168152602001908152602001600020549050919050565b600080600a60008473ffffffffffffffffffffffffffffffffffffffff1673ffffffffffffffffffffffffffffffffffffffff1681526020019081526020016000208481548110610f62577f4e487b7100000000000000000000000000000000000000000000000000000000600052603260045260246000fd5b906000526020600020015490506000610f7a82610f87565b9050809250505092915050565b60006009600083815260200190815260200160002060009054906101000a900473ffffffffffffffffffffffffffffffffffffffff169050919050565b6000610fd08333610ee8565b905060006001905061101882600c600086815260200190815260200160002060009054906101000a900473ffffffffffffffffffffffffffffffffffffffff16600084612334565b6000905061105c600c600085815260200190815260200160002060009054906101000a900473ffffffffffffffffffffffffffffffffffffffff1683600184612334565b61106582612957565b7f838ab28464562786a6c4ab2311964b82fa60bd9b14aa7e856af1f3f18d41a414600c600085815260200190815260200160002060009054906101000a900473ffffffffffffffffffffffffffffffffffffffff1673ffffffffffffffffffffffffffffffffffffffff1663abd708ef6040518163ffffffff1660e01b815260040160206040518083038186803b1580156110ff57600080fd5b505afa158015611113573d6000803e3d6000fd5b505050506040513d601f19601f8201168201806040525081019061113791906140f3565b8373ffffffffffffffffffffffffffffffffffffffff1663abd708ef6040518163ffffffff1660e01b815260040160206040518083038186803b15801561117d57600080fd5b505afa158015611191573d6000803e3d6000fd5b505050506040513d601f19601f820116820180604052508101906111b591906140f3565b6040516111c3929190614ee2565b60405180910390a150505050565b6000806111de60066130ef565b90508091505090565b6060600180546111f69061540e565b80601f01602080910402602001604051908101604052809291908181526020018280546112229061540e565b801561126f5780601f106112445761010080835404028352916020019161126f565b820191906000526020600020905b81548152906001019060200180831161125257829003601f168201915b5050505050905090565b600061128560066130ef565b905061129133826130fd565b61129a82611c2d565b6009600083815260200190815260200160002060006101000a81548173ffffffffffffffffffffffffffffffffffffffff021916908373ffffffffffffffffffffffffffffffffffffffff160217905550600a60003373ffffffffffffffffffffffffffffffffffffffff1673ffffffffffffffffffffffffffffffffffffffff16815260200190815260200160002081908060018154018082558091505060019003906000526020600020016000909190919091505561135b6006611e42565b7f60e1f0c62ae107984ff8409b83c23d1025c9e003037cf8d4fb479c49645b314033828460405161138e93929190614b73565b60405180910390a15050565b6113ac6113a5611f2e565b838361311b565b5050565b6113c16113bb611f2e565b83611fef565b611400576040517f08c379a00000000000000000000000000000000000000000000000000000000081526004016113f790614e3c565b60405180910390fd5b61140c84848484613288565b50505050565b600a602052816000526040600020818154811061142e57600080fd5b90600052602060002001600091509150505481565b6060600061145083610f87565b905060006114da8273ffffffffffffffffffffffffffffffffffffffff1663abd708ef6040518163ffffffff1660e01b815260040160206040518083038186803b15801561149d57600080fd5b505afa1580156114b1573d6000803e3d6000fd5b505050506040513d601f19601f820116820180604052508101906114d591906140f3565b6132e4565b905060006115648373ffffffffffffffffffffffffffffffffffffffff1663296f23f96040518163ffffffff1660e01b815260040160206040518083038186803b15801561152757600080fd5b505afa15801561153b573d6000803e3d6000fd5b505050506040513d601f19601f8201168201806040525081019061155f91906140f3565b6132e4565b905060006115ee8473ffffffffffffffffffffffffffffffffffffffff1663f6a0e8676040518163ffffffff1660e01b815260040160206040518083038186803b1580156115b157600080fd5b505afa1580156115c5573d6000803e3d6000fd5b505050506040513d601f19601f820116820180604052508101906115e991906140f3565b6132e4565b905060006116788573ffffffffffffffffffffffffffffffffffffffff1663a5985e8c6040518163ffffffff1660e01b815260040160206040518083038186803b15801561163b57600080fd5b505afa15801561164f573d6000803e3d6000fd5b505050506040513d601f19601f8201168201806040525081019061167391906140f3565b6132e4565b905060006117028673ffffffffffffffffffffffffffffffffffffffff1663ed73fc4b6040518163ffffffff1660e01b815260040160206040518083038186803b1580156116c557600080fd5b505afa1580156116d9573d6000803e3d6000fd5b505050506040513d601f19601f820116820180604052508101906116fd91906140f3565b6132e4565b9050600061170f896132e4565b9050600061184d8873ffffffffffffffffffffffffffffffffffffffff166317d7de7c6040518163ffffffff1660e01b815260040160006040518083038186803b15801561175c57600080fd5b505afa158015611770573d6000803e3d6000fd5b505050506040513d6000823e3d601f19601f82011682018060405250810190611799919061401f565b838a73ffffffffffffffffffffffffffffffffffffffff166346bd9a666040518163ffffffff1660e01b815260040160006040518083038186803b1580156117e057600080fd5b505afa1580156117f4573d6000803e3d6000fd5b505050506040513d6000823e3d601f19601f8201168201806040525081019061181d919061401f565b8a8a8a898b6040516020016118399897969594939291906149c8565b604051602081830303815290604052613491565b90506000816040516020016118629190614aea565b6040516020818303038152906040529050809950505050505050505050919050565b60606000600a60008473ffffffffffffffffffffffffffffffffffffffff1673ffffffffffffffffffffffffffffffffffffffff16815260200190815260200160002080548060200260200160405190810160405280929190818152602001828054801561191157602002820191906000526020600020905b8154815260200190600101908083116118fd575b505050505090506000815167ffffffffffffffff81111561195b577f4e487b7100000000000000000000000000000000000000000000000000000000600052604160045260246000fd5b60405190808252806020026020018201604052801561199457816020015b611981613a8d565b8152602001906001900390816119795790505b50905060005b8251811015611af65760008382815181106119de577f4e487b7100000000000000000000000000000000000000000000000000000000600052603260045260246000fd5b602002602001015190506009600082815260200190815260200160002060009054906101000a900473ffffffffffffffffffffffffffffffffffffffff1673ffffffffffffffffffffffffffffffffffffffff16633bc5de306040518163ffffffff1660e01b815260040160006040518083038186803b158015611a6157600080fd5b505afa158015611a75573d6000803e3d6000fd5b505050506040513d6000823e3d601f19601f82011682018060405250810190611a9e9190614060565b838381518110611ad7577f4e487b7100000000000000000000000000000000000000000000000000000000600052603260045260246000fd5b6020026020010181905250508080611aee90615471565b91505061199a565b508092505050919050565b6000600560008473ffffffffffffffffffffffffffffffffffffffff1673ffffffffffffffffffffffffffffffffffffffff16815260200190815260200160002060008373ffffffffffffffffffffffffffffffffffffffff1673ffffffffffffffffffffffffffffffffffffffff16815260200190815260200160002060009054906101000a900460ff16905092915050565b611b9d613a8d565b60008273ffffffffffffffffffffffffffffffffffffffff16633bc5de306040518163ffffffff1660e01b815260040160006040518083038186803b158015611be557600080fd5b505afa158015611bf9573d6000803e3d6000fd5b505050506040513d6000823e3d601f19601f82011682018060405250810190611c229190614060565b905080915050919050565b60006008600083815260200190815260200160002060009054906101000a900473ffffffffffffffffffffffffffffffffffffffff169050919050565b611c72613a8d565b81600a60008573ffffffffffffffffffffffffffffffffffffffff1673ffffffffffffffffffffffffffffffffffffffff168152602001908152602001600020805490501015611cf7576040517f08c379a0000000000000000000000000000000000000000000000000000000008152600401611cee90614e5c565b60405180910390fd5b6000600a60008573ffffffffffffffffffffffffffffffffffffffff1673ffffffffffffffffffffffffffffffffffffffff1681526020019081526020016000208381548110611d70577f4e487b7100000000000000000000000000000000000000000000000000000000600052603260045260246000fd5b9060005260206000200154905060006009600083815260200190815260200160002060009054906101000a900473ffffffffffffffffffffffffffffffffffffffff1673ffffffffffffffffffffffffffffffffffffffff16633bc5de306040518163ffffffff1660e01b815260040160006040518083038186803b158015611df857600080fd5b505afa158015611e0c573d6000803e3d6000fd5b505050506040513d6000823e3d601f19601f82011682018060405250810190611e359190614060565b9050809250505092915050565b6001816000016000828254019250508190555050565b60007f01ffc9a7000000000000000000000000000000000000000000000000000000007bffffffffffffffffffffffffffffffffffffffffffffffffffffffff1916827bffffffffffffffffffffffffffffffffffffffffffffffffffffffff1916149050919050565b60008073ffffffffffffffffffffffffffffffffffffffff166002600084815260200190815260200160002060009054906101000a900473ffffffffffffffffffffffffffffffffffffffff1673ffffffffffffffffffffffffffffffffffffffff1614159050919050565b600033905090565b816004600083815260200190815260200160002060006101000a81548173ffffffffffffffffffffffffffffffffffffffff021916908373ffffffffffffffffffffffffffffffffffffffff160217905550808273ffffffffffffffffffffffffffffffffffffffff16611fa983610d7e565b73ffffffffffffffffffffffffffffffffffffffff167f8c5be1e5ebec7d5bd14f71427d1e84f3dd0314c0f7b2291e5b200ac8c7c3b92560405160405180910390a45050565b6000611ffa82611ec2565b612039576040517f08c379a000000000000000000000000000000000000000000000000000000000815260040161203090614d1c565b60405180910390fd5b600061204483610d7e565b90508073ffffffffffffffffffffffffffffffffffffffff168473ffffffffffffffffffffffffffffffffffffffff1614806120b357508373ffffffffffffffffffffffffffffffffffffffff1661209b846107c0565b73ffffffffffffffffffffffffffffffffffffffff16145b806120c457506120c38185611b01565b5b91505092915050565b8273ffffffffffffffffffffffffffffffffffffffff166120ed82610d7e565b73ffffffffffffffffffffffffffffffffffffffff1614612143576040517f08c379a000000000000000000000000000000000000000000000000000000000815260040161213a90614c9c565b60405180910390fd5b600073ffffffffffffffffffffffffffffffffffffffff168273ffffffffffffffffffffffffffffffffffffffff1614156121b3576040517f08c379a00000000000000000000000000000000000000000000000000000000081526004016121aa90614cdc565b60405180910390fd5b6121be83838361361b565b6121c9600082611f36565b6001600360008573ffffffffffffffffffffffffffffffffffffffff1673ffffffffffffffffffffffffffffffffffffffff168152602001908152602001600020600082825461221991906152aa565b925050819055506001600360008473ffffffffffffffffffffffffffffffffffffffff1673ffffffffffffffffffffffffffffffffffffffff16815260200190815260200160002060008282546122709190615058565b92505081905550816002600083815260200190815260200160002060006101000a81548173ffffffffffffffffffffffffffffffffffffffff021916908373ffffffffffffffffffffffffffffffffffffffff160217905550808273ffffffffffffffffffffffffffffffffffffffff168473ffffffffffffffffffffffffffffffffffffffff167fddf252ad1be2c89b69c2b068fc378daa952ba7f163c4a11628f55a4df523b3ef60405160405180910390a461232f838383613620565b505050565b60008473ffffffffffffffffffffffffffffffffffffffff1663abd708ef6040518163ffffffff1660e01b815260040160206040518083038186803b15801561237c57600080fd5b505afa158015612390573d6000803e3d6000fd5b505050506040513d601f19601f820116820180604052508101906123b491906140f3565b116123f4576040517f08c379a00000000000000000000000000000000000000000000000000000000081526004016123eb90614e1c565b60405180910390fd5b60008373ffffffffffffffffffffffffffffffffffffffff1663abd708ef6040518163ffffffff1660e01b815260040160206040518083038186803b15801561243c57600080fd5b505afa158015612450573d6000803e3d6000fd5b505050506040513d601f19601f8201168201806040525081019061247491906140f3565b116124b4576040517f08c379a00000000000000000000000000000000000000000000000000000000081526004016124ab90614d3c565b60405180910390fd5b8373ffffffffffffffffffffffffffffffffffffffff1663f6a0e8676040518163ffffffff1660e01b815260040160206040518083038186803b1580156124fa57600080fd5b505afa15801561250e573d6000803e3d6000fd5b505050506040513d601f19601f8201168201806040525081019061253291906140f3565b8373ffffffffffffffffffffffffffffffffffffffff1663abd708ef6040518163ffffffff1660e01b815260040160206040518083038186803b15801561257857600080fd5b505afa15801561258c573d6000803e3d6000fd5b505050506040513d601f19601f820116820180604052508101906125b091906140f3565b1161265d578273ffffffffffffffffffffffffffffffffffffffff1663e2b7673660006040518263ffffffff1660e01b81526004016125ef9190614c3f565b600060405180830381600087803b15801561260957600080fd5b505af115801561261d573d6000803e3d6000fd5b505050507f6f7961d3b2cbfd3abdbb42b52f39a43c3b6620563a3b5fc73f7b9fd69da46311826040516126509190614c24565b60405180910390a16127ce565b8273ffffffffffffffffffffffffffffffffffffffff1663e2b767368573ffffffffffffffffffffffffffffffffffffffff1663f6a0e8676040518163ffffffff1660e01b815260040160206040518083038186803b1580156126bf57600080fd5b505afa1580156126d3573d6000803e3d6000fd5b505050506040513d601f19601f820116820180604052508101906126f791906140f3565b8573ffffffffffffffffffffffffffffffffffffffff1663abd708ef6040518163ffffffff1660e01b815260040160206040518083038186803b15801561273d57600080fd5b505afa158015612751573d6000803e3d6000fd5b505050506040513d601f19601f8201168201806040525081019061277591906140f3565b61277f91906152aa565b6040518263ffffffff1660e01b815260040161279b9190614e9e565b600060405180830381600087803b1580156127b557600080fd5b505af11580156127c9573d6000803e3d6000fd5b505050505b8015612951578373ffffffffffffffffffffffffffffffffffffffff1663ede641a48473ffffffffffffffffffffffffffffffffffffffff1663a5985e8c6040518163ffffffff1660e01b815260040160206040518083038186803b15801561283657600080fd5b505afa15801561284a573d6000803e3d6000fd5b505050506040513d601f19601f8201168201806040525081019061286e91906140f3565b600661287a9190615250565b8673ffffffffffffffffffffffffffffffffffffffff1663cdb986cc6040518163ffffffff1660e01b815260040160206040518083038186803b1580156128c057600080fd5b505afa1580156128d4573d6000803e3d6000fd5b505050506040513d601f19601f820116820180604052508101906128f891906140f3565b6129029190615058565b6040518263ffffffff1660e01b815260040161291e9190614e9e565b600060405180830381600087803b15801561293857600080fd5b505af115801561294c573d6000803e3d6000fd5b505050505b50505050565b8073ffffffffffffffffffffffffffffffffffffffff16639be55e008273ffffffffffffffffffffffffffffffffffffffff1663cdb986cc6040518163ffffffff1660e01b815260040160206040518083038186803b1580156129b957600080fd5b505afa1580156129cd573d6000803e3d6000fd5b505050506040513d601f19601f820116820180604052508101906129f191906140f3565b8373ffffffffffffffffffffffffffffffffffffffff1663ed73fc4b6040518163ffffffff1660e01b815260040160206040518083038186803b158015612a3757600080fd5b505afa158015612a4b573d6000803e3d6000fd5b505050506040513d601f19601f82011682018060405250810190612a6f91906140f3565b612a799190615058565b6040518263ffffffff1660e01b8152600401612a959190614e9e565b600060405180830381600087803b158015612aaf57600080fd5b505af1158015612ac3573d6000803e3d6000fd5b505050505b612b4e8173ffffffffffffffffffffffffffffffffffffffff1663a5985e8c6040518163ffffffff1660e01b815260040160206040518083038186803b158015612b1157600080fd5b505afa158015612b25573d6000803e3d6000fd5b505050506040513d601f19601f82011682018060405250810190612b4991906140f3565b613625565b8173ffffffffffffffffffffffffffffffffffffffff1663cdb986cc6040518163ffffffff1660e01b815260040160206040518083038186803b158015612b9457600080fd5b505afa158015612ba8573d6000803e3d6000fd5b505050506040513d601f19601f82011682018060405250810190612bcc91906140f3565b106130ec5760008173ffffffffffffffffffffffffffffffffffffffff1663a5985e8c6040518163ffffffff1660e01b815260040160206040518083038186803b158015612c1957600080fd5b505afa158015612c2d573d6000803e3d6000fd5b505050506040513d601f19601f82011682018060405250810190612c5191906140f3565b905060008273ffffffffffffffffffffffffffffffffffffffff1663cdb986cc6040518163ffffffff1660e01b815260040160206040518083038186803b158015612c9b57600080fd5b505afa158015612caf573d6000803e3d6000fd5b505050506040513d601f19601f82011682018060405250810190612cd391906140f3565b90508273ffffffffffffffffffffffffffffffffffffffff1663ede641a4612cfa84613625565b83612d0591906152aa565b6040518263ffffffff1660e01b8152600401612d219190614e9e565b600060405180830381600087803b158015612d3b57600080fd5b505af1158015612d4f573d6000803e3d6000fd5b505050508273ffffffffffffffffffffffffffffffffffffffff166306d8652f60018573ffffffffffffffffffffffffffffffffffffffff1663296f23f96040518163ffffffff1660e01b815260040160206040518083038186803b158015612db757600080fd5b505afa158015612dcb573d6000803e3d6000fd5b505050506040513d601f19601f82011682018060405250810190612def91906140f3565b612df99190615058565b6040518263ffffffff1660e01b8152600401612e159190614e9e565b600060405180830381600087803b158015612e2f57600080fd5b505af1158015612e43573d6000803e3d6000fd5b505050508273ffffffffffffffffffffffffffffffffffffffff16635143e01a60018573ffffffffffffffffffffffffffffffffffffffff1663f6a0e8676040518163ffffffff1660e01b815260040160206040518083038186803b158015612eab57600080fd5b505afa158015612ebf573d6000803e3d6000fd5b505050506040513d601f19601f82011682018060405250810190612ee391906140f3565b612eed9190615058565b6040518263ffffffff1660e01b8152600401612f099190614e9e565b600060405180830381600087803b158015612f2357600080fd5b505af1158015612f37573d6000803e3d6000fd5b505050508273ffffffffffffffffffffffffffffffffffffffff16630b5270a7600184612f649190615058565b6040518263ffffffff1660e01b8152600401612f809190614e9e565b600060405180830381600087803b158015612f9a57600080fd5b505af1158015612fae573d6000803e3d6000fd5b505050507fa87a80ea79b656bea107606e74d5a36679824dd6de89c8bafc5174f999a99ab98373ffffffffffffffffffffffffffffffffffffffff1663a5985e8c6040518163ffffffff1660e01b815260040160206040518083038186803b15801561301957600080fd5b505afa15801561302d573d6000803e3d6000fd5b505050506040513d601f19601f8201168201806040525081019061305191906140f3565b8473ffffffffffffffffffffffffffffffffffffffff1663c59d48476040518163ffffffff1660e01b815260040160606040518083038186803b15801561309757600080fd5b505afa1580156130ab573d6000803e3d6000fd5b505050506040513d601f19601f820116820180604052508101906130cf91906140a1565b6040516130dd929190614eb9565b60405180910390a15050612ac8565b50565b600081600001549050919050565b61311782826040518060200160405280600081525061369e565b5050565b8173ffffffffffffffffffffffffffffffffffffffff168373ffffffffffffffffffffffffffffffffffffffff16141561318a576040517f08c379a000000000000000000000000000000000000000000000000000000000815260040161318190614cfc565b60405180910390fd5b80600560008573ffffffffffffffffffffffffffffffffffffffff1673ffffffffffffffffffffffffffffffffffffffff16815260200190815260200160002060008473ffffffffffffffffffffffffffffffffffffffff1673ffffffffffffffffffffffffffffffffffffffff16815260200190815260200160002060006101000a81548160ff0219169083151502179055508173ffffffffffffffffffffffffffffffffffffffff168373ffffffffffffffffffffffffffffffffffffffff167f17307eab39ab6107e8899845ad3d59bd9653f200f220920489ca2b5937696c318360405161327b9190614bee565b60405180910390a3505050565b6132938484846120cd565b61329f848484846136f9565b6132de576040517f08c379a00000000000000000000000000000000000000000000000000000000081526004016132d590614c7c565b60405180910390fd5b50505050565b6060600082141561332c576040518060400160405280600181526020017f3000000000000000000000000000000000000000000000000000000000000000815250905061348c565b600082905060005b6000821461335e57808061334790615471565b915050600a8261335791906150ae565b9150613334565b60008167ffffffffffffffff8111156133a0577f4e487b7100000000000000000000000000000000000000000000000000000000600052604160045260246000fd5b6040519080825280601f01601f1916602001820160405280156133d25781602001600182028036833780820191505090505b5090505b60008514613485576001826133eb91906152aa565b9150600a856133fa91906154ba565b60306134069190615058565b60f81b818381518110613442577f4e487b7100000000000000000000000000000000000000000000000000000000600052603260045260246000fd5b60200101907effffffffffffffffffffffffffffffffffffffffffffffffffffffffffffff1916908160001a905350600a8561347e91906150ae565b94506133d6565b8093505050505b919050565b60606000825114156134b457604051806020016040528060008152509050613616565b6000604051806060016040528060408152602001615df660409139905060006003600285516134e39190615058565b6134ed91906150ae565b60046134f99190615250565b67ffffffffffffffff811115613538577f4e487b7100000000000000000000000000000000000000000000000000000000600052604160045260246000fd5b6040519080825280601f01601f19166020018201604052801561356a5781602001600182028036833780820191505090505b509050600182016020820185865187015b808210156135d6576003820191508151603f8160121c168501518453600184019350603f81600c1c168501518453600184019350603f8160061c168501518453600184019350603f811685015184536001840193505061357b565b50506003865106600181146135f257600281146136055761360d565b603d6001830353603d600283035361360d565b603d60018303535b50505080925050505b919050565b505050565b505050565b6000808260026136359190615250565b600a6002856136449190615132565b60086136509190615250565b61365a91906150ae565b60646003866136699190615132565b60046136759190615250565b61367f91906150ae565b6136899190615058565b6136939190615058565b905080915050919050565b6136a88383613890565b6136b560008484846136f9565b6136f4576040517f08c379a00000000000000000000000000000000000000000000000000000000081526004016136eb90614c7c565b60405180910390fd5b505050565b600061371a8473ffffffffffffffffffffffffffffffffffffffff16613a6a565b15613883578373ffffffffffffffffffffffffffffffffffffffff1663150b7a02613743611f2e565b8786866040518563ffffffff1660e01b81526004016137659493929190614b27565b602060405180830381600087803b15801561377f57600080fd5b505af19250505080156137b057506040513d601f19601f820116820180604052508101906137ad9190613fcd565b60015b613833573d80600081146137e0576040519150601f19603f3d011682016040523d82523d6000602084013e6137e5565b606091505b5060008151141561382b576040517f08c379a000000000000000000000000000000000000000000000000000000000815260040161382290614c7c565b60405180910390fd5b805181602001fd5b63150b7a0260e01b7bffffffffffffffffffffffffffffffffffffffffffffffffffffffff1916817bffffffffffffffffffffffffffffffffffffffffffffffffffffffff191614915050613888565b600190505b949350505050565b600073ffffffffffffffffffffffffffffffffffffffff168273ffffffffffffffffffffffffffffffffffffffff161415613900576040517f08c379a00000000000000000000000000000000000000000000000000000000081526004016138f790614dbc565b60405180910390fd5b61390981611ec2565b15613949576040517f08c379a000000000000000000000000000000000000000000000000000000000815260040161394090614cbc565b60405180910390fd5b6139556000838361361b565b6001600360008473ffffffffffffffffffffffffffffffffffffffff1673ffffffffffffffffffffffffffffffffffffffff16815260200190815260200160002060008282546139a59190615058565b92505081905550816002600083815260200190815260200160002060006101000a81548173ffffffffffffffffffffffffffffffffffffffff021916908373ffffffffffffffffffffffffffffffffffffffff160217905550808273ffffffffffffffffffffffffffffffffffffffff16600073ffffffffffffffffffffffffffffffffffffffff167fddf252ad1be2c89b69c2b068fc378daa952ba7f163c4a11628f55a4df523b3ef60405160405180910390a4613a6660008383613620565b5050565b6000808273ffffffffffffffffffffffffffffffffffffffff163b119050919050565b6040518060a00160405280613aa0613ac8565b8152602001613aad613ae9565b81526020016000815260200160008152602001600081525090565b60405180606001604052806000815260200160608152602001606081525090565b60405180606001604052806000815260200160008152602001600081525090565b6000613b1d613b1884614f30565b614f0b565b905082815260208101848484011115613b3557600080fd5b613b408482856153cc565b509392505050565b6000613b5b613b5684614f61565b614f0b565b905082815260208101848484011115613b7357600080fd5b613b7e8482856153db565b509392505050565b600081359050613b9581615d82565b92915050565b600081359050613baa81615d99565b92915050565b600081359050613bbf81615db0565b92915050565b600081519050613bd481615db0565b92915050565b600082601f830112613beb57600080fd5b8135613bfb848260208601613b0a565b91505092915050565b600081359050613c1381615dc7565b92915050565b600082601f830112613c2a57600080fd5b8151613c3a848260208601613b48565b91505092915050565b600060e08284031215613c5557600080fd5b613c5f60a0614f0b565b9050600082015167ffffffffffffffff811115613c7b57600080fd5b613c8784828501613ce3565b6000830152506020613c9b84828501613d73565b6020830152506080613caf84828501613de8565b60408301525060a0613cc384828501613de8565b60608301525060c0613cd784828501613de8565b60808301525092915050565b600060608284031215613cf557600080fd5b613cff6060614f0b565b90506000613d0f84828501613de8565b600083015250602082015167ffffffffffffffff811115613d2f57600080fd5b613d3b84828501613c19565b602083015250604082015167ffffffffffffffff811115613d5b57600080fd5b613d6784828501613c19565b60408301525092915050565b600060608284031215613d8557600080fd5b613d8f6060614f0b565b90506000613d9f84828501613de8565b6000830152506020613db384828501613de8565b6020830152506040613dc784828501613de8565b60408301525092915050565b600081359050613de281615dde565b92915050565b600081519050613df781615dde565b92915050565b600060208284031215613e0f57600080fd5b6000613e1d84828501613b86565b91505092915050565b60008060408385031215613e3957600080fd5b6000613e4785828601613b86565b9250506020613e5885828601613b86565b9150509250929050565b600080600060608486031215613e7757600080fd5b6000613e8586828701613b86565b9350506020613e9686828701613b86565b9250506040613ea786828701613dd3565b9150509250925092565b60008060008060808587031215613ec757600080fd5b6000613ed587828801613b86565b9450506020613ee687828801613b86565b9350506040613ef787828801613dd3565b925050606085013567ffffffffffffffff811115613f1457600080fd5b613f2087828801613bda565b91505092959194509250565b60008060408385031215613f3f57600080fd5b6000613f4d85828601613b86565b9250506020613f5e85828601613b9b565b9150509250929050565b60008060408385031215613f7b57600080fd5b6000613f8985828601613b86565b9250506020613f9a85828601613dd3565b9150509250929050565b600060208284031215613fb657600080fd5b6000613fc484828501613bb0565b91505092915050565b600060208284031215613fdf57600080fd5b6000613fed84828501613bc5565b91505092915050565b60006020828403121561400857600080fd5b600061401684828501613c04565b91505092915050565b60006020828403121561403157600080fd5b600082015167ffffffffffffffff81111561404b57600080fd5b61405784828501613c19565b91505092915050565b60006020828403121561407257600080fd5b600082015167ffffffffffffffff81111561408c57600080fd5b61409884828501613c43565b91505092915050565b6000606082840312156140b357600080fd5b60006140c184828501613d73565b91505092915050565b6000602082840312156140dc57600080fd5b60006140ea84828501613dd3565b91505092915050565b60006020828403121561410557600080fd5b600061411384828501613de8565b91505092915050565b6000806040838503121561412f57600080fd5b600061413d85828601613dd3565b925050602061414e85828601613b86565b9150509250929050565b6000806040838503121561416b57600080fd5b600061417985828601613dd3565b925050602061418a85828601613dd3565b9150509250929050565b60006141a083836142ea565b60208301905092915050565b60006141b883836147e3565b905092915050565b6141c9816152de565b82525050565b60006141da82614fb2565b6141e48185614ff8565b93506141ef83614f92565b8060005b838110156142205781516142078882614194565b975061421283614fde565b9250506001810190506141f3565b5085935050505092915050565b600061423882614fbd565b6142428185615009565b93508360208202850161425485614fa2565b8060005b85811015614290578484038952815161427185826141ac565b945061427c83614feb565b925060208a01995050600181019050614258565b50829750879550505050505092915050565b6142ab816152f0565b82525050565b60006142bc82614fc8565b6142c6818561501a565b93506142d68185602086016153db565b6142df816155d6565b840191505092915050565b6142f381615384565b82525050565b61430281615384565b82525050565b614311816153a8565b82525050565b614320816153ba565b82525050565b600061433182614fd3565b61433b818561502b565b935061434b8185602086016153db565b614354816155d6565b840191505092915050565b600061436a82614fd3565b614374818561503c565b93506143848185602086016153db565b61438d816155d6565b840191505092915050565b60006143a382614fd3565b6143ad818561504d565b93506143bd8185602086016153db565b80840191505092915050565b60006143d660028361504d565b91506143e1826155f4565b600282019050919050565b60006143f960328361503c565b91506144048261561d565b604082019050919050565b600061441c602a8361504d565b91506144278261566c565b602a82019050919050565b600061443f60028361504d565b915061444a826156bb565b600282019050919050565b600061446260258361503c565b915061446d826156e4565b604082019050919050565b6000614485601c8361503c565b915061449082615733565b602082019050919050565b60006144a8600e8361504d565b91506144b38261575c565b600e82019050919050565b60006144cb60248361503c565b91506144d682615785565b604082019050919050565b60006144ee60198361503c565b91506144f9826157d4565b602082019050919050565b6000614511602c8361503c565b915061451c826157fd565b604082019050919050565b6000614534601f8361503c565b915061453f8261584c565b602082019050919050565b6000614557602a8361504d565b915061456282615875565b602a82019050919050565b600061457a60388361503c565b9150614585826158c4565b604082019050919050565b600061459d604f8361504d565b91506145a882615913565b604f82019050919050565b60006145c0602a8361503c565b91506145cb82615988565b604082019050919050565b60006145e360298361503c565b91506145ee826159d7565b604082019050919050565b600061460660048361504d565b915061461182615a26565b600482019050919050565b600061462960208361503c565b915061463482615a4f565b602082019050919050565b600061464c602d8361504d565b915061465782615a78565b602d82019050919050565b600061466f602c8361503c565b915061467a82615ac7565b604082019050919050565b6000614692600a8361504d565b915061469d82615b16565b600a82019050919050565b60006146b5600f8361504d565b91506146c082615b3f565b600f82019050919050565b60006146d860048361504d565b91506146e382615b68565b600482019050919050565b60006146fb60218361503c565b915061470682615b91565b604082019050919050565b600061471e601d8361504d565b915061472982615be0565b601d82019050919050565b6000614741601f8361503c565b915061474c82615c09565b602082019050919050565b600061476460318361503c565b915061476f82615c32565b604082019050919050565b600061478760218361504d565b915061479282615c81565b602182019050919050565b60006147aa600a8361504d565b91506147b582615cd0565b600a82019050919050565b60006147cd60448361503c565b91506147d882615cf9565b606082019050919050565b600060e083016000830151848203600086015261480082826148cf565b91505060208301516148156020860182614926565b50604083015161482860808601826149aa565b50606083015161483b60a08601826149aa565b50608083015161484e60c08601826149aa565b508091505092915050565b600060e083016000830151848203600086015261487682826148cf565b915050602083015161488b6020860182614926565b50604083015161489e60808601826149aa565b5060608301516148b160a08601826149aa565b5060808301516148c460c08601826149aa565b508091505092915050565b60006060830160008301516148e760008601826149aa565b50602083015184820360208601526148ff8282614326565b915050604083015184820360408601526149198282614326565b9150508091505092915050565b60608201600082015161493c60008501826149aa565b50602082015161494f60208501826149aa565b50604082015161496260408501826149aa565b50505050565b60608201600082015161497e60008501826149aa565b50602082015161499160208501826149aa565b5060408201516149a460408501826149aa565b50505050565b6149b38161536d565b82525050565b6149c28161536d565b82525050565b60006149d382614685565b91506149df828b614398565b91506149ea826146cb565b91506149f6828a614398565b9150614a0182614432565b9150614a0c82614590565b9150614a178261479d565b9150614a238289614398565b9150614a2e82614432565b9150614a39826146a8565b9150614a448261440f565b9150614a508288614398565b9150614a5b8261449b565b9150614a678287614398565b9150614a72826143c9565b9150614a7d8261454a565b9150614a898286614398565b9150614a94826143c9565b9150614a9f8261463f565b9150614aab8285614398565b9150614ab6826143c9565b9150614ac18261477a565b9150614acd8284614398565b9150614ad8826145f9565b91508190509998505050505050505050565b6000614af582614711565b9150614b018284614398565b915081905092915050565b6000602082019050614b2160008301846141c0565b92915050565b6000608082019050614b3c60008301876141c0565b614b4960208301866141c0565b614b5660408301856149b9565b8181036060830152614b6881846142b1565b905095945050505050565b6000606082019050614b8860008301866141c0565b614b9560208301856149b9565b614ba260408301846149b9565b949350505050565b60006020820190508181036000830152614bc481846141cf565b905092915050565b60006020820190508181036000830152614be6818461422d565b905092915050565b6000602082019050614c0360008301846142a2565b92915050565b6000602082019050614c1e60008301846142f9565b92915050565b6000602082019050614c396000830184614308565b92915050565b6000602082019050614c546000830184614317565b92915050565b60006020820190508181036000830152614c74818461435f565b905092915050565b60006020820190508181036000830152614c95816143ec565b9050919050565b60006020820190508181036000830152614cb581614455565b9050919050565b60006020820190508181036000830152614cd581614478565b9050919050565b60006020820190508181036000830152614cf5816144be565b9050919050565b60006020820190508181036000830152614d15816144e1565b9050919050565b60006020820190508181036000830152614d3581614504565b9050919050565b60006020820190508181036000830152614d5581614527565b9050919050565b60006020820190508181036000830152614d758161456d565b9050919050565b60006020820190508181036000830152614d95816145b3565b9050919050565b60006020820190508181036000830152614db5816145d6565b9050919050565b60006020820190508181036000830152614dd58161461c565b9050919050565b60006020820190508181036000830152614df581614662565b9050919050565b60006020820190508181036000830152614e15816146ee565b9050919050565b60006020820190508181036000830152614e3581614734565b9050919050565b60006020820190508181036000830152614e5581614757565b9050919050565b60006020820190508181036000830152614e75816147c0565b9050919050565b60006020820190508181036000830152614e968184614859565b905092915050565b6000602082019050614eb360008301846149b9565b92915050565b6000608082019050614ece60008301856149b9565b614edb6020830184614968565b9392505050565b6000604082019050614ef760008301856149b9565b614f0460208301846149b9565b9392505050565b6000614f15614f26565b9050614f218282615440565b919050565b6000604051905090565b600067ffffffffffffffff821115614f4b57614f4a6155a7565b5b614f54826155d6565b9050602081019050919050565b600067ffffffffffffffff821115614f7c57614f7b6155a7565b5b614f85826155d6565b9050602081019050919050565b6000819050602082019050919050565b6000819050602082019050919050565b600081519050919050565b600081519050919050565b600081519050919050565b600081519050919050565b6000602082019050919050565b6000602082019050919050565b600082825260208201905092915050565b600082825260208201905092915050565b600082825260208201905092915050565b600082825260208201905092915050565b600082825260208201905092915050565b600081905092915050565b60006150638261536d565b915061506e8361536d565b9250827fffffffffffffffffffffffffffffffffffffffffffffffffffffffffffffffff038211156150a3576150a26154eb565b5b828201905092915050565b60006150b98261536d565b91506150c48361536d565b9250826150d4576150d361551a565b5b828204905092915050565b6000808291508390505b600185111561512957808604811115615105576151046154eb565b5b60018516156151145780820291505b8081029050615122856155e7565b94506150e9565b94509492505050565b600061513d8261536d565b915061514883615377565b92506151757fffffffffffffffffffffffffffffffffffffffffffffffffffffffffffffffff848461517d565b905092915050565b60008261518d5760019050615249565b8161519b5760009050615249565b81600181146151b157600281146151bb576151ea565b6001915050615249565b60ff8411156151cd576151cc6154eb565b5b8360020a9150848211156151e4576151e36154eb565b5b50615249565b5060208310610133831016604e8410600b841016171561521f5782820a90508381111561521a576152196154eb565b5b615249565b61522c84848460016150df565b92509050818404811115615243576152426154eb565b5b81810290505b9392505050565b600061525b8261536d565b91506152668361536d565b9250817fffffffffffffffffffffffffffffffffffffffffffffffffffffffffffffffff048311821515161561529f5761529e6154eb565b5b828202905092915050565b60006152b58261536d565b91506152c08361536d565b9250828210156152d3576152d26154eb565b5b828203905092915050565b60006152e98261534d565b9050919050565b60008115159050919050565b60007fffffffff0000000000000000000000000000000000000000000000000000000082169050919050565b6000615333826152de565b9050919050565b600081905061534882615d6e565b919050565b600073ffffffffffffffffffffffffffffffffffffffff82169050919050565b6000819050919050565b600060ff82169050919050565b600061538f82615396565b9050919050565b60006153a18261534d565b9050919050565b60006153b38261533a565b9050919050565b60006153c58261536d565b9050919050565b82818337600083830152505050565b60005b838110156153f95780820151818401526020810190506153de565b83811115615408576000848401525b50505050565b6000600282049050600182168061542657607f821691505b6020821081141561543a57615439615578565b5b50919050565b615449826155d6565b810181811067ffffffffffffffff82111715615468576154676155a7565b5b80604052505050565b600061547c8261536d565b91507fffffffffffffffffffffffffffffffffffffffffffffffffffffffffffffffff8214156154af576154ae6154eb565b5b600182019050919050565b60006154c58261536d565b91506154d08361536d565b9250826154e0576154df61551a565b5b828206905092915050565b7f4e487b7100000000000000000000000000000000000000000000000000000000600052601160045260246000fd5b7f4e487b7100000000000000000000000000000000000000000000000000000000600052601260045260246000fd5b7f4e487b7100000000000000000000000000000000000000000000000000000000600052602160045260246000fd5b7f4e487b7100000000000000000000000000000000000000000000000000000000600052602260045260246000fd5b7f4e487b7100000000000000000000000000000000000000000000000000000000600052604160045260246000fd5b6000601f19601f8301169050919050565b60008160011c9050919050565b7f7d2c000000000000000000000000000000000000000000000000000000000000600082015250565b7f4552433732313a207472616e7366657220746f206e6f6e20455243373231526560008201527f63656976657220696d706c656d656e7465720000000000000000000000000000602082015250565b7f7b202274726169745f74797065223a20224865616c746820506f696e7473222c60008201527f202276616c7565223a2000000000000000000000000000000000000000000000602082015250565b7f222c000000000000000000000000000000000000000000000000000000000000600082015250565b7f4552433732313a207472616e736665722066726f6d20696e636f72726563742060008201527f6f776e6572000000000000000000000000000000000000000000000000000000602082015250565b7f4552433732313a20746f6b656e20616c7265616479206d696e74656400000000600082015250565b7f2c20226d61785f76616c7565223a000000000000000000000000000000000000600082015250565b7f4552433732313a207472616e7366657220746f20746865207a65726f2061646460008201527f7265737300000000000000000000000000000000000000000000000000000000602082015250565b7f4552433732313a20617070726f766520746f2063616c6c657200000000000000600082015250565b7f4552433732313a206f70657261746f7220717565727920666f72206e6f6e657860008201527f697374656e7420746f6b656e0000000000000000000000000000000000000000602082015250565b7f4572726f722e20506f6b656d6f6e54776f20646f6e2774206861766520487000600082015250565b7f7b202274726169745f74797065223a202241747461636b2044616d616765222c60008201527f202276616c7565223a2000000000000000000000000000000000000000000000602082015250565b7f4552433732313a20617070726f76652063616c6c6572206973206e6f74206f7760008201527f6e6572206e6f7220617070726f76656420666f7220616c6c0000000000000000602082015250565b7f226465736372697074696f6e223a20225468697320697320616e204e4654207460008201527f686174206c6574732070656f706c6520706c617920696e207468652067616d6560208201527f20506f6b656d6f6e204e465421222c0000000000000000000000000000000000604082015250565b7f4552433732313a2062616c616e636520717565727920666f7220746865207a6560008201527f726f206164647265737300000000000000000000000000000000000000000000602082015250565b7f4552433732313a206f776e657220717565727920666f72206e6f6e657869737460008201527f656e7420746f6b656e0000000000000000000000000000000000000000000000602082015250565b7f7d205d7d00000000000000000000000000000000000000000000000000000000600082015250565b7f4552433732313a206d696e7420746f20746865207a65726f2061646472657373600082015250565b7f7b202274726169745f74797065223a2022546f74616c20457870657269656e6360008201527f65222c202276616c7565223a2000000000000000000000000000000000000000602082015250565b7f4552433732313a20617070726f76656420717565727920666f72206e6f6e657860008201527f697374656e7420746f6b656e0000000000000000000000000000000000000000602082015250565b7f7b226e616d65223a202200000000000000000000000000000000000000000000600082015250565b7f2261747472696275746573223a205b0000000000000000000000000000000000600082015250565b7f20233a2000000000000000000000000000000000000000000000000000000000600082015250565b7f4552433732313a20617070726f76616c20746f2063757272656e74206f776e6560008201527f7200000000000000000000000000000000000000000000000000000000000000602082015250565b7f646174613a6170706c69636174696f6e2f6a736f6e3b6261736536342c000000600082015250565b7f4572726f722e20506f6b656d6f6e4f6e6520646f6e2774206861766520487000600082015250565b7f4552433732313a207472616e736665722063616c6c6572206973206e6f74206f60008201527f776e6572206e6f7220617070726f766564000000000000000000000000000000602082015250565b7f7b202274726169745f74797065223a20224c6576656c222c202276616c75652260008201527f3a00000000000000000000000000000000000000000000000000000000000000602082015250565b7f22696d616765223a202200000000000000000000000000000000000000000000600082015250565b7f4572726f722e20506f6b656d6f6e496e6465782073656c65637465642067726560008201527f61746572207468616e2073697a65206f6620706f6b656d6f6e7320617661696c60208201527f61626c6500000000000000000000000000000000000000000000000000000000604082015250565b60028110615d7f57615d7e615549565b5b50565b615d8b816152de565b8114615d9657600080fd5b50565b615da2816152f0565b8114615dad57600080fd5b50565b615db9816152fc565b8114615dc457600080fd5b50565b615dd081615328565b8114615ddb57600080fd5b50565b615de78161536d565b8114615df257600080fd5b5056fe4142434445464748494a4b4c4d4e4f505152535455565758595a6162636465666768696a6b6c6d6e6f707172737475767778797a303132333435363738392b2fa264697066735822122084244b77b7404e223e4940368bde03b4a57e8712dade6a5db6268a4567d9212e64736f6c6343000804003360806040523480156200001157600080fd5b50604051620017e9380380620017e9833981810160405281019062000037919062000297565b6200004b848484846200005560201b60201c565b50505050620004c9565b836000800160000181905550826000800160010190805190602001906200007e929190620000f5565b50816000800160020190805190602001906200009c929190620000f5565b508060000151600060030160000181905550806040015160006003016002018190555080602001516000600301600101819055506001600060060181905550600080600701819055506000806008018190555050505050565b8280546200010390620003d4565b90600052602060002090601f01602090048101928262000127576000855562000173565b82601f106200014257805160ff191683800117855562000173565b8280016001018555821562000173579182015b828111156200017257825182559160200191906001019062000155565b5b50905062000182919062000186565b5090565b5b80821115620001a157600081600090555060010162000187565b5090565b6000620001bc620001b6846200035e565b62000335565b905082815260208101848484011115620001d557600080fd5b620001e28482856200039e565b509392505050565b600082601f830112620001fc57600080fd5b81516200020e848260208601620001a5565b91505092915050565b6000606082840312156200022a57600080fd5b62000236606062000335565b90506000620002488482850162000280565b60008301525060206200025e8482850162000280565b6020830152506040620002748482850162000280565b60408301525092915050565b6000815190506200029181620004af565b92915050565b60008060008060c08587031215620002ae57600080fd5b6000620002be8782880162000280565b945050602085015167ffffffffffffffff811115620002dc57600080fd5b620002ea87828801620001ea565b935050604085015167ffffffffffffffff8111156200030857600080fd5b6200031687828801620001ea565b9250506060620003298782880162000217565b91505092959194509250565b60006200034162000354565b90506200034f82826200040a565b919050565b6000604051905090565b600067ffffffffffffffff8211156200037c576200037b6200046f565b5b62000387826200049e565b9050602081019050919050565b6000819050919050565b60005b83811015620003be578082015181840152602081019050620003a1565b83811115620003ce576000848401525b50505050565b60006002820490506001821680620003ed57607f821691505b6020821081141562000404576200040362000440565b5b50919050565b62000415826200049e565b810181811067ffffffffffffffff821117156200043757620004366200046f565b5b80604052505050565b7f4e487b7100000000000000000000000000000000000000000000000000000000600052602260045260246000fd5b7f4e487b7100000000000000000000000000000000000000000000000000000000600052604160045260246000fd5b6000601f19601f8301169050919050565b620004ba8162000394565b8114620004c657600080fd5b50565b61131080620004d96000396000f3fe608060405234801561001057600080fd5b50600436106101375760003560e01c80638ce802e0116100b8578063c59d48471161007c578063c59d4847146102f6578063cdb986cc14610314578063e2b7673614610332578063ed73fc4b1461034e578063ede641a41461036c578063f6a0e8671461038857610137565b80638ce802e0146102665780639be55e0014610282578063a5985e8c1461029e578063abd708ef146102bc578063c57e4a99146102da57610137565b806346bd9a66116100ff57806346bd9a66146101ce5780635143e01a146101ec5780635a9b0b89146102085780635d1ca6311461022657806373d4a13a1461024457610137565b806306d8652f1461013c5780630b5270a71461015857806317d7de7c14610174578063296f23f9146101925780633bc5de30146101b0575b600080fd5b61015660048036038101906101519190610d38565b6103a6565b005b610172600480360381019061016d9190610d38565b6103b6565b005b61017c6103c3565b604051610189919061102c565b60405180910390f35b61019a61045a565b6040516101a79190611107565b60405180910390f35b6101b8610469565b6040516101c5919061104e565b60405180910390f35b6101d6610615565b6040516101e3919061102c565b60405180910390f35b61020660048036038101906102019190610d38565b6106ac565b005b6102106106bc565b60405161021d9190611070565b60405180910390f35b61022e610806565b60405161023b9190611107565b60405180910390f35b61024c610815565b60405161025d959493929190611092565b60405180910390f35b610280600480360381019061027b9190610d0f565b610999565b005b61029c60048036038101906102979190610d38565b6109cf565b005b6102a66109dc565b6040516102b39190611107565b60405180910390f35b6102c46109e8565b6040516102d19190611107565b60405180910390f35b6102f460048036038101906102ef9190610d61565b6109f7565b005b6102fe610a93565b60405161030b91906110ec565b60405180910390f35b61031c610ace565b6040516103299190611107565b60405180910390f35b61034c60048036038101906103479190610d38565b610ada565b005b610356610aea565b6040516103639190611107565b60405180910390f35b61038660048036038101906103819190610d38565b610af6565b005b610390610b03565b60405161039d9190611107565b60405180910390f35b8060006003016001018190555050565b8060006006018190555050565b60606000800160010180546103d7906111f1565b80601f0160208091040260200160405190810160405280929190818152602001828054610403906111f1565b80156104505780601f1061042557610100808354040283529160200191610450565b820191906000526020600020905b81548152906001019060200180831161043357829003601f168201915b5050505050905090565b60008060030160010154905090565b610471610b12565b60006040518060a001604052908160008201604051806060016040529081600082015481526020016001820180546104a8906111f1565b80601f01602080910402602001604051908101604052809291908181526020018280546104d4906111f1565b80156105215780601f106104f657610100808354040283529160200191610521565b820191906000526020600020905b81548152906001019060200180831161050457829003601f168201915b5050505050815260200160028201805461053a906111f1565b80601f0160208091040260200160405190810160405280929190818152602001828054610566906111f1565b80156105b35780601f10610588576101008083540402835291602001916105b3565b820191906000526020600020905b81548152906001019060200180831161059657829003601f168201915b505050505081525050815260200160038201604051806060016040529081600082015481526020016001820154815260200160028201548152505081526020016006820154815260200160078201548152602001600882015481525050905090565b6060600080016002018054610629906111f1565b80601f0160208091040260200160405190810160405280929190818152602001828054610655906111f1565b80156106a25780601f10610677576101008083540402835291602001916106a2565b820191906000526020600020905b81548152906001019060200180831161068557829003601f168201915b5050505050905090565b8060006003016002018190555050565b6106c4610b4d565b60008001604051806060016040529081600082015481526020016001820180546106ed906111f1565b80601f0160208091040260200160405190810160405280929190818152602001828054610719906111f1565b80156107665780601f1061073b57610100808354040283529160200191610766565b820191906000526020600020905b81548152906001019060200180831161074957829003601f168201915b5050505050815260200160028201805461077f906111f1565b80601f01602080910402602001604051908101604052809291908181526020018280546107ab906111f1565b80156107f85780601f106107cd576101008083540402835291602001916107f8565b820191906000526020600020905b8154815290600101906020018083116107db57829003601f168201915b505050505081525050905090565b60008060000160000154905090565b60008060000160405180606001604052908160008201548152602001600182018054610840906111f1565b80601f016020809104026020016040519081016040528092919081815260200182805461086c906111f1565b80156108b95780601f1061088e576101008083540402835291602001916108b9565b820191906000526020600020905b81548152906001019060200180831161089c57829003601f168201915b505050505081526020016002820180546108d2906111f1565b80601f01602080910402602001604051908101604052809291908181526020018280546108fe906111f1565b801561094b5780601f106109205761010080835404028352916020019161094b565b820191906000526020600020905b81548152906001019060200180831161092e57829003601f168201915b50505050508152505090806003016040518060600160405290816000820154815260200160018201548152602001600282015481525050908060060154908060070154908060080154905085565b80600001516000600301600001819055508060200151600060030160010181905550806040015160006003016002018190555050565b8060006008018190555050565b60008060060154905090565b60008060030160000154905090565b83600080016000018190555082600080016001019080519060200190610a1e929190610b6e565b5081600080016002019080519060200190610a3a929190610b6e565b508060000151600060030160000181905550806040015160006003016002018190555080602001516000600301600101819055506001600060060181905550600080600701819055506000806008018190555050505050565b610a9b610bf4565b60006003016040518060600160405290816000820154815260200160018201548152602001600282015481525050905090565b60008060070154905090565b8060006003016000018190555050565b60008060080154905090565b8060006007018190555050565b60008060030160020154905090565b6040518060a00160405280610b25610b4d565b8152602001610b32610bf4565b81526020016000815260200160008152602001600081525090565b60405180606001604052806000815260200160608152602001606081525090565b828054610b7a906111f1565b90600052602060002090601f016020900481019282610b9c5760008555610be3565b82601f10610bb557805160ff1916838001178555610be3565b82800160010185558215610be3579182015b82811115610be2578251825591602001919060010190610bc7565b5b509050610bf09190610c15565b5090565b60405180606001604052806000815260200160008152602001600081525090565b5b80821115610c2e576000816000905550600101610c16565b5090565b6000610c45610c4084611147565b611122565b905082815260208101848484011115610c5d57600080fd5b610c688482856111af565b509392505050565b600082601f830112610c8157600080fd5b8135610c91848260208601610c32565b91505092915050565b600060608284031215610cac57600080fd5b610cb66060611122565b90506000610cc684828501610cfa565b6000830152506020610cda84828501610cfa565b6020830152506040610cee84828501610cfa565b60408301525092915050565b600081359050610d09816112c3565b92915050565b600060608284031215610d2157600080fd5b6000610d2f84828501610c9a565b91505092915050565b600060208284031215610d4a57600080fd5b6000610d5884828501610cfa565b91505092915050565b60008060008060c08587031215610d7757600080fd5b6000610d8587828801610cfa565b945050602085013567ffffffffffffffff811115610da257600080fd5b610dae87828801610c70565b935050604085013567ffffffffffffffff811115610dcb57600080fd5b610dd787828801610c70565b9250506060610de887828801610c9a565b91505092959194509250565b6000610dff82611178565b610e098185611183565b9350610e198185602086016111be565b610e22816112b2565b840191505092915050565b6000610e3882611178565b610e428185611194565b9350610e528185602086016111be565b610e5b816112b2565b840191505092915050565b600060e0830160008301518482036000860152610e838282610edc565b9150506020830151610e986020860182610f8a565b506040830151610eab608086018261100e565b506060830151610ebe60a086018261100e565b506080830151610ed160c086018261100e565b508091505092915050565b6000606083016000830151610ef4600086018261100e565b5060208301518482036020860152610f0c8282610df4565b91505060408301518482036040860152610f268282610df4565b9150508091505092915050565b6000606083016000830151610f4b600086018261100e565b5060208301518482036020860152610f638282610df4565b91505060408301518482036040860152610f7d8282610df4565b9150508091505092915050565b606082016000820151610fa0600085018261100e565b506020820151610fb3602085018261100e565b506040820151610fc6604085018261100e565b50505050565b606082016000820151610fe2600085018261100e565b506020820151610ff5602085018261100e565b506040820151611008604085018261100e565b50505050565b611017816111a5565b82525050565b611026816111a5565b82525050565b600060208201905081810360008301526110468184610e2d565b905092915050565b600060208201905081810360008301526110688184610e66565b905092915050565b6000602082019050818103600083015261108a8184610f33565b905092915050565b600060e08201905081810360008301526110ac8188610f33565b90506110bb6020830187610fcc565b6110c8608083018661101d565b6110d560a083018561101d565b6110e260c083018461101d565b9695505050505050565b60006060820190506111016000830184610fcc565b92915050565b600060208201905061111c600083018461101d565b92915050565b600061112c61113d565b90506111388282611223565b919050565b6000604051905090565b600067ffffffffffffffff82111561116257611161611283565b5b61116b826112b2565b9050602081019050919050565b600081519050919050565b600082825260208201905092915050565b600082825260208201905092915050565b6000819050919050565b82818337600083830152505050565b60005b838110156111dc5780820151818401526020810190506111c1565b838111156111eb576000848401525b50505050565b6000600282049050600182168061120957607f821691505b6020821081141561121d5761121c611254565b5b50919050565b61122c826112b2565b810181811067ffffffffffffffff8211171561124b5761124a611283565b5b80604052505050565b7f4e487b7100000000000000000000000000000000000000000000000000000000600052602260045260246000fd5b7f4e487b7100000000000000000000000000000000000000000000000000000000600052604160045260246000fd5b6000601f19601f8301169050919050565b6112cc816111a5565b81146112d757600080fd5b5056fea2646970667358221220d8654f20dfda0d252b4378063cb4a616cbf5ca2a8e3d8461c5d7018628c1e86f64736f6c63430008040033",
  "linkReferences": {},
  "deployedLinkReferences": {}
}