{
  "_format": "hh-sol-artifact-1",
  "contractName": "PokemonAttack",
  "sourceName": "contracts/Pokemon/PokemonAttack.sol",
  "abi": [
    {
      "inputs": [
        {
          "internalType": "address",
          "name": "pokemonGameAddress_",
          "type": "address"
        }
      ],
      "stateMutability": "nonpayable",
      "type": "constructor"
    },
    {
      "anonymous": false,
      "inputs": [
        {
          "indexed": false,
          "internalType": "uint256",
          "name": "newBossHp",
          "type": "uint256"
        },
        {
          "indexed": false,
          "internalType": "uint256",
          "name": "newPokemonHp",
          "type": "uint256"
        },
        {
          "indexed": false,
          "internalType": "address",
          "name": "sender",
          "type": "address"
        },
        {
          "indexed": false,
          "internalType": "uint256",
          "name": "timestamp",
          "type": "uint256"
        }
      ],
      "name": "AttackComplete",
      "type": "event"
    },
    {
      "anonymous": false,
      "inputs": [
        {
          "indexed": false,
          "internalType": "enum PokemonAttack.BattleStatus",
          "name": "status",
          "type": "uint8"
        },
        {
          "indexed": false,
          "internalType": "address",
          "name": "sender",
          "type": "address"
        },
        {
          "indexed": false,
          "internalType": "uint256",
          "name": "timestamp",
          "type": "uint256"
        }
      ],
      "name": "BattleComplete",
      "type": "event"
    },
    {
      "anonymous": false,
      "inputs": [
        {
          "indexed": false,
          "internalType": "uint256",
          "name": "level",
          "type": "uint256"
        },
        {
          "components": [
            {
              "internalType": "uint256",
              "name": "hp",
              "type": "uint256"
            },
            {
              "internalType": "uint256",
              "name": "maxHp",
              "type": "uint256"
            },
            {
              "internalType": "uint256",
              "name": "attack",
              "type": "uint256"
            }
          ],
          "indexed": false,
          "internalType": "struct LPokemonData.Stats",
          "name": "stats",
          "type": "tuple"
        },
        {
          "indexed": false,
          "internalType": "address",
          "name": "sender",
          "type": "address"
        },
        {
          "indexed": false,
          "internalType": "uint256",
          "name": "timestamp",
          "type": "uint256"
        }
      ],
      "name": "LevelUp",
      "type": "event"
    },
    {
      "anonymous": false,
      "inputs": [
        {
          "indexed": true,
          "internalType": "address",
          "name": "previousOwner",
          "type": "address"
        },
        {
          "indexed": true,
          "internalType": "address",
          "name": "newOwner",
          "type": "address"
        }
      ],
      "name": "OwnershipTransferred",
      "type": "event"
    },
    {
      "inputs": [
        {
          "internalType": "uint256",
          "name": "pokemonIndex",
          "type": "uint256"
        },
        {
          "internalType": "uint256",
          "name": "bossId",
          "type": "uint256"
        }
      ],
      "name": "attackBoss",
      "outputs": [],
      "stateMutability": "nonpayable",
      "type": "function"
    },
    {
      "inputs": [],
      "name": "itemAddress",
      "outputs": [
        {
          "internalType": "address",
          "name": "",
          "type": "address"
        }
      ],
      "stateMutability": "view",
      "type": "function"
    },
    {
      "inputs": [],
      "name": "owner",
      "outputs": [
        {
          "internalType": "address",
          "name": "",
          "type": "address"
        }
      ],
      "stateMutability": "view",
      "type": "function"
    },
    {
      "inputs": [],
      "name": "pokemonGameAddress",
      "outputs": [
        {
          "internalType": "address",
          "name": "",
          "type": "address"
        }
      ],
      "stateMutability": "view",
      "type": "function"
    },
    {
      "inputs": [],
      "name": "renounceOwnership",
      "outputs": [],
      "stateMutability": "nonpayable",
      "type": "function"
    },
    {
      "inputs": [
        {
          "internalType": "address",
          "name": "newOwner",
          "type": "address"
        }
      ],
      "name": "transferOwnership",
      "outputs": [],
      "stateMutability": "nonpayable",
      "type": "function"
    },
    {
      "inputs": [
        {
          "internalType": "address",
          "name": "_itemAddress",
          "type": "address"
        }
      ],
      "name": "updateItemAddress",
      "outputs": [],
      "stateMutability": "nonpayable",
      "type": "function"
    }
  ],
  "bytecode": "0x60806040523480156200001157600080fd5b5060405162001cf838038062001cf88339810160408190526200003491620000c8565b6200003f3362000065565b600180546001600160a01b0319166001600160a01b03929092169190911790556200011b565b600080546001600160a01b038381166001600160a01b0319831681178455604051919092169283917f8be0079c531659141344cd1fd0a4f28419497f9722a3daafe3b4186f6b6457e09190a35050565b8051620000c28162000101565b92915050565b600060208284031215620000da578081fd5b620000e883828401620000b5565b9392505050565b60006001600160a01b038216620000c2565b6200010c81620000ef565b81146200011857600080fd5b50565b611bcd806200012b6000396000f3fe608060405234801561001057600080fd5b506004361061007d5760003560e01c80638da5cb5b1161005b5780638da5cb5b146100b25780639744256b146100d5578063b471a4b9146100e8578063f2fde38b146100fb57600080fd5b806308cd3abc14610082578063715018a6146100975780638779b2081461009f575b600080fd5b6100956100903660046115c8565b61010e565b005b61009561017b565b6100956100ad36600461163c565b6101b1565b6000546001600160a01b03165b6040516100cc919061175f565b60405180910390f35b6002546100bf906001600160a01b031681565b6001546100bf906001600160a01b031681565b6100956101093660046115c8565b610563565b6000546001600160a01b031633146101415760405162461bcd60e51b815260040161013890611854565b60405180910390fd5b600280547fffffffffffffffffffffffff0000000000000000000000000000000000000000166001600160a01b0392909216919091179055565b6000546001600160a01b031633146101a55760405162461bcd60e51b815260040161013890611854565b6101af60006105bf565b565b6001546040517f792300f40000000000000000000000000000000000000000000000000000000081526000916001600160a01b03169063792300f4906101fd9086903390600401611872565b60206040518083038186803b15801561021557600080fd5b505afa158015610229573d6000803e3d6000fd5b505050506040513d601f19601f8201168201806040525081019061024d91906115e5565b6001546040517f0e63c7ad0000000000000000000000000000000000000000000000000000000081529192506000916001600160a01b0390911690630e63c7ad9061029c908690600401611864565b60206040518083038186803b1580156102b457600080fd5b505afa1580156102c8573d6000803e3d6000fd5b505050506040513d601f19601f820116820180604052508101906102ec91906115e5565b90506000826001600160a01b031663abd708ef6040518163ffffffff1660e01b815260040160206040518083038186803b15801561032957600080fd5b505afa15801561033d573d6000803e3d6000fd5b505050506040513d601f19601f82011682018060405250810190610361919061161f565b1161037e5760405162461bcd60e51b815260040161013890611844565b6000816001600160a01b031663abd708ef6040518163ffffffff1660e01b815260040160206040518083038186803b1580156103b957600080fd5b505afa1580156103cd573d6000803e3d6000fd5b505050506040513d601f19601f820116820180604052508101906103f1919061161f565b1161040e5760405162461bcd60e51b8152600401610138906117d3565b600161041d8383600084610627565b50600061042d8284600184610627565b61043682610a71565b61043f83610dff565b7fab744f4842154b28648c8567b315cbfadacaf1f8979d8c718257de13bd60cd35826001600160a01b031663abd708ef6040518163ffffffff1660e01b815260040160206040518083038186803b15801561049957600080fd5b505afa1580156104ad573d6000803e3d6000fd5b505050506040513d601f19601f820116820180604052508101906104d1919061161f565b846001600160a01b031663abd708ef6040518163ffffffff1660e01b815260040160206040518083038186803b15801561050a57600080fd5b505afa15801561051e573d6000803e3d6000fd5b505050506040513d601f19601f82011682018060405250810190610542919061161f565b334260405161055494939291906118cb565b60405180910390a15050505050565b6000546001600160a01b0316331461058d5760405162461bcd60e51b815260040161013890611854565b6001600160a01b0381166105b35760405162461bcd60e51b8152600401610138906117e3565b6105bc816105bf565b50565b600080546001600160a01b038381167fffffffffffffffffffffffff0000000000000000000000000000000000000000831681178455604051919092169283917f8be0079c531659141344cd1fd0a4f28419497f9722a3daafe3b4186f6b6457e09190a35050565b836001600160a01b031663f6a0e8676040518163ffffffff1660e01b815260040160206040518083038186803b15801561066057600080fd5b505afa158015610674573d6000803e3d6000fd5b505050506040513d601f19601f82011682018060405250810190610698919061161f565b836001600160a01b031663abd708ef6040518163ffffffff1660e01b815260040160206040518083038186803b1580156106d157600080fd5b505afa1580156106e5573d6000803e3d6000fd5b505050506040513d601f19601f82011682018060405250810190610709919061161f565b116107c6576040517fe2b767360000000000000000000000000000000000000000000000000000000081526001600160a01b0384169063e2b7673690610754906000906004016117c5565b600060405180830381600087803b15801561076e57600080fd5b505af1158015610782573d6000803e3d6000fd5b505050507f581a3df9f15706e5afac3985577279bc862f6b1f1f41ea8f71c188b0406688948233426040516107b99392919061179d565b60405180910390a1610910565b826001600160a01b031663e2b76736856001600160a01b031663f6a0e8676040518163ffffffff1660e01b815260040160206040518083038186803b15801561080e57600080fd5b505afa158015610822573d6000803e3d6000fd5b505050506040513d601f19601f82011682018060405250810190610846919061161f565b856001600160a01b031663abd708ef6040518163ffffffff1660e01b815260040160206040518083038186803b15801561087f57600080fd5b505afa158015610893573d6000803e3d6000fd5b505050506040513d601f19601f820116820180604052508101906108b7919061161f565b6108c19190611a85565b6040518263ffffffff1660e01b81526004016108dd9190611864565b600060405180830381600087803b1580156108f757600080fd5b505af115801561090b573d6000803e3d6000fd5b505050505b8015610a6b57836001600160a01b031663ede641a4846001600160a01b031663a5985e8c6040518163ffffffff1660e01b815260040160206040518083038186803b15801561095e57600080fd5b505afa158015610972573d6000803e3d6000fd5b505050506040513d601f19601f82011682018060405250810190610996919061161f565b6109a1906006611a66565b866001600160a01b031663cdb986cc6040518163ffffffff1660e01b815260040160206040518083038186803b1580156109da57600080fd5b505afa1580156109ee573d6000803e3d6000fd5b505050506040513d601f19601f82011682018060405250810190610a12919061161f565b610a1c919061191c565b6040518263ffffffff1660e01b8152600401610a389190611864565b600060405180830381600087803b158015610a5257600080fd5b505af1158015610a66573d6000803e3d6000fd5b505050505b50505050565b600060119050600060199050826001600160a01b031663abd708ef6040518163ffffffff1660e01b815260040160206040518083038186803b158015610ab657600080fd5b505afa158015610aca573d6000803e3d6000fd5b505050506040513d601f19601f82011682018060405250810190610aee919061161f565b610dfa57826001600160a01b031663a5985e8c6040518163ffffffff1660e01b815260040160206040518083038186803b158015610b2b57600080fd5b505afa158015610b3f573d6000803e3d6000fd5b505050506040513d601f19601f82011682018060405250810190610b63919061161f565b60141415610bd357600254604051630ab714fb60e11b81526001600160a01b039091169063156e29f690610ba0903390869060019060040161176d565b600060405180830381600087803b158015610bba57600080fd5b505af1158015610bce573d6000803e3d6000fd5b505050505b826001600160a01b031663a5985e8c6040518163ffffffff1660e01b815260040160206040518083038186803b158015610c0c57600080fd5b505afa158015610c20573d6000803e3d6000fd5b505050506040513d601f19601f82011682018060405250810190610c44919061161f565b601e1415610cb35760028054604051630ab714fb60e11b81526001600160a01b039091169163156e29f691610c8091339187919060040161176d565b600060405180830381600087803b158015610c9a57600080fd5b505af1158015610cae573d6000803e3d6000fd5b505050505b826001600160a01b031663a5985e8c6040518163ffffffff1660e01b815260040160206040518083038186803b158015610cec57600080fd5b505afa158015610d00573d6000803e3d6000fd5b505050506040513d601f19601f82011682018060405250810190610d24919061161f565b60281415610dfa5760028054604051630ab714fb60e11b81526001600160a01b039091169163156e29f691610d6091339187919060040161176d565b600060405180830381600087803b158015610d7a57600080fd5b505af1158015610d8e573d6000803e3d6000fd5b5050600254604051630ab714fb60e11b81526001600160a01b03909116925063156e29f69150610dc7903390859060019060040161176d565b600060405180830381600087803b158015610de157600080fd5b505af1158015610df5573d6000803e3d6000fd5b505050505b505050565b806001600160a01b0316639be55e00826001600160a01b031663cdb986cc6040518163ffffffff1660e01b815260040160206040518083038186803b158015610e4757600080fd5b505afa158015610e5b573d6000803e3d6000fd5b505050506040513d601f19601f82011682018060405250810190610e7f919061161f565b836001600160a01b031663ed73fc4b6040518163ffffffff1660e01b815260040160206040518083038186803b158015610eb857600080fd5b505afa158015610ecc573d6000803e3d6000fd5b505050506040513d601f19601f82011682018060405250810190610ef0919061161f565b610efa919061191c565b6040518263ffffffff1660e01b8152600401610f169190611864565b600060405180830381600087803b158015610f3057600080fd5b505af1158015610f44573d6000803e3d6000fd5b505050505b610fc2816001600160a01b031663a5985e8c6040518163ffffffff1660e01b815260040160206040518083038186803b158015610f8557600080fd5b505afa158015610f99573d6000803e3d6000fd5b505050506040513d601f19601f82011682018060405250810190610fbd919061161f565b6114d2565b816001600160a01b031663cdb986cc6040518163ffffffff1660e01b815260040160206040518083038186803b158015610ffb57600080fd5b505afa15801561100f573d6000803e3d6000fd5b505050506040513d601f19601f82011682018060405250810190611033919061161f565b106105bc576000816001600160a01b031663a5985e8c6040518163ffffffff1660e01b815260040160206040518083038186803b15801561107357600080fd5b505afa158015611087573d6000803e3d6000fd5b505050506040513d601f19601f820116820180604052508101906110ab919061161f565b90506000826001600160a01b031663cdb986cc6040518163ffffffff1660e01b815260040160206040518083038186803b1580156110e857600080fd5b505afa1580156110fc573d6000803e3d6000fd5b505050506040513d601f19601f82011682018060405250810190611120919061161f565b9050826001600160a01b031663ede641a461113a846114d2565b6111449084611a85565b6040518263ffffffff1660e01b81526004016111609190611864565b600060405180830381600087803b15801561117a57600080fd5b505af115801561118e573d6000803e3d6000fd5b50505050826001600160a01b03166306d8652f846001600160a01b031663296f23f96040518163ffffffff1660e01b815260040160206040518083038186803b1580156111da57600080fd5b505afa1580156111ee573d6000803e3d6000fd5b505050506040513d601f19601f82011682018060405250810190611212919061161f565b61121d90600161191c565b6040518263ffffffff1660e01b81526004016112399190611864565b600060405180830381600087803b15801561125357600080fd5b505af1158015611267573d6000803e3d6000fd5b50505050826001600160a01b0316635143e01a846001600160a01b031663f6a0e8676040518163ffffffff1660e01b815260040160206040518083038186803b1580156112b357600080fd5b505afa1580156112c7573d6000803e3d6000fd5b505050506040513d601f19601f820116820180604052508101906112eb919061161f565b6112f690600161191c565b6040518263ffffffff1660e01b81526004016113129190611864565b600060405180830381600087803b15801561132c57600080fd5b505af1158015611340573d6000803e3d6000fd5b50505050826001600160a01b0316630b5270a7836001611360919061191c565b6040518263ffffffff1660e01b815260040161137c9190611864565b600060405180830381600087803b15801561139657600080fd5b505af11580156113aa573d6000803e3d6000fd5b505050507f96252af07f695ff3d9ede57abcbc27091d5b5f75d8e9f04944f40ffea6804a61836001600160a01b031663a5985e8c6040518163ffffffff1660e01b815260040160206040518083038186803b15801561140857600080fd5b505afa15801561141c573d6000803e3d6000fd5b505050506040513d601f19601f82011682018060405250810190611440919061161f565b846001600160a01b031663c59d48476040518163ffffffff1660e01b815260040160606040518083038186803b15801561147957600080fd5b505afa15801561148d573d6000803e3d6000fd5b505050506040513d601f19601f820116820180604052508101906114b19190611602565b33426040516114c3949392919061188d565b60405180910390a15050610f49565b6000806114e0836002611a66565b600a6114ed600286611990565b6114f8906008611a66565b6115029190611934565b606461150f600387611990565b61151a906004611a66565b6115249190611934565b61152e919061191c565b611538919061191c565b9392505050565b803561154a81611b7d565b92915050565b805161154a81611b7d565b60006060828403121561156c578081fd5b6115766060611900565b9050600061158484846115bd565b908201526020611596848483016115bd565b9082015260406115a8848483016115bd565b9082015292915050565b803561154a81611b91565b805161154a81611b91565b6000602082840312156115d9578081fd5b6115388382840161153f565b6000602082840312156115f6578081fd5b61153883828401611550565b600060608284031215611613578081fd5b6115388382840161155b565b600060208284031215611630578081fd5b611538838284016115bd565b6000806040838503121561164e578081fd5b61165a848285016115b2565b9150602061166a858286016115b2565b9150509250929050565b61167d81611a9c565b82525050565b61167d81611ab7565b61167d81611ac2565b60198152602081017f4572726f722e20426f737320646f6e2774206861766520487000000000000000815290505b60200190565b601b8152602081017f4572726f722e20506c6179657220646f6e277420686176652048700000000000815290506116c3565b60208082527f4f776e61626c653a2063616c6c6572206973206e6f7420746865206f776e657291019081526116c3565b80516117378382611759565b50602081015161174a6020840182611759565b506040810151610dfa60408401825b8061167d565b6020810161154a8284611674565b6060810161177b8286611674565b6117886020830185611759565b611795604083018461168c565b949350505050565b606081016117ab8286611683565b6117b86020830185611674565b6117956040830184611759565b6020810161154a828461168c565b6020808252810161154a81611695565b6020808252810161154a81602681527f4f776e61626c653a206e6577206f776e657220697320746865207a65726f206160208201527f6464726573730000000000000000000000000000000000000000000000000000604082015260600190565b6020808252810161154a816116c9565b6020808252810161154a816116fb565b6020810161154a8284611759565b604081016118808285611759565b6115386020830184611674565b60c0810161189b8287611759565b6118a8602083018661172b565b6118b56080830185611674565b6118c260a0830184611759565b95945050505050565b608081016118d98287611759565b6118e66020830186611759565b6118f36040830185611674565b6118c26060830184611759565b600061190b60405190565b90506119178282611aca565b919050565b6000821982111561192f5761192f611b15565b500190565b60008261194357611943611b2b565b500490565b80825b60018511156119875780860481111561196657611966611b15565b600185161561197457908102905b80026119808560011c90565b945061194b565b94509492505050565b60ff82169150600061153860001984846000826119af57506001611538565b816119bc57506000611538565b81600181146119d257600281146119dc57611a09565b6001915050611538565b60ff8411156119ed576119ed611b15565b8360020a915084821115611a0357611a03611b15565b50611538565b5060208310610133831016604e8410600b8410161715611a3c575081810a83811115611a3757611a37611b15565b611538565b611a498484846001611948565b92509050818404811115611a5f57611a5f611b15565b0292915050565b6000816000190483118215151615611a8057611a80611b15565b500290565b600082821015611a9757611a97611b15565b500390565b60006001600160a01b03821661154a565b8061191781611b6d565b600061154a82611aad565b60008161154a565b7fffffffffffffffffffffffffffffffffffffffffffffffffffffffffffffffe0601f830116810181811067ffffffffffffffff82111715611b0e57611b0e611b57565b6040525050565b634e487b7160e01b600052601160045260246000fd5b634e487b7160e01b600052601260045260246000fd5b634e487b7160e01b600052602160045260246000fd5b634e487b7160e01b600052604160045260246000fd5b600281106105bc576105bc611b41565b611b8681611a9c565b81146105bc57600080fd5b80611b8656fea2646970667358221220c7c6d78859b1d1c5154ce221a38c77dcb0b179adb3641a57ae609e0fce7b93e664736f6c63430008040033",
  "linkReferences": {},
  "deployedLinkReferences": {}
}