{
  "_format": "hh-sol-artifact-1",
  "contractName": "ItemData",
  "sourceName": "contracts/ItemData.sol",
  "abi": [
    {
      "inputs": [
        {
          "internalType": "uint256",
          "name": "id",
          "type": "uint256"
        },
        {
          "internalType": "string",
          "name": "category",
          "type": "string"
        },
        {
          "internalType": "string",
          "name": "name",
          "type": "string"
        },
        {
          "internalType": "string",
          "name": "description",
          "type": "string"
        },
        {
          "internalType": "string",
          "name": "imageURI",
          "type": "string"
        },
        {
          "internalType": "uint256",
          "name": "cost",
          "type": "uint256"
        },
        {
          "internalType": "uint256",
          "name": "effect",
          "type": "uint256"
        }
      ],
      "stateMutability": "nonpayable",
      "type": "constructor"
    },
    {
      "inputs": [
        {
          "internalType": "uint256",
          "name": "cost",
          "type": "uint256"
        }
      ],
      "name": "changeCost",
      "outputs": [],
      "stateMutability": "nonpayable",
      "type": "function"
    },
    {
      "inputs": [
        {
          "internalType": "uint256",
          "name": "id",
          "type": "uint256"
        },
        {
          "internalType": "string",
          "name": "category",
          "type": "string"
        },
        {
          "internalType": "string",
          "name": "name",
          "type": "string"
        },
        {
          "internalType": "string",
          "name": "description",
          "type": "string"
        },
        {
          "internalType": "string",
          "name": "imageURI",
          "type": "string"
        },
        {
          "internalType": "uint256",
          "name": "cost",
          "type": "uint256"
        },
        {
          "internalType": "uint256",
          "name": "effect",
          "type": "uint256"
        }
      ],
      "name": "createItemData",
      "outputs": [],
      "stateMutability": "nonpayable",
      "type": "function"
    },
    {
      "inputs": [],
      "name": "data",
      "outputs": [
        {
          "components": [
            {
              "internalType": "uint256",
              "name": "id",
              "type": "uint256"
            },
            {
              "internalType": "string",
              "name": "category",
              "type": "string"
            },
            {
              "internalType": "string",
              "name": "name",
              "type": "string"
            },
            {
              "internalType": "string",
              "name": "description",
              "type": "string"
            },
            {
              "internalType": "string",
              "name": "imageURI",
              "type": "string"
            },
            {
              "internalType": "uint256",
              "name": "effect",
              "type": "uint256"
            }
          ],
          "internalType": "struct LItemData.Info",
          "name": "info",
          "type": "tuple"
        },
        {
          "internalType": "uint256",
          "name": "cost",
          "type": "uint256"
        },
        {
          "internalType": "uint256",
          "name": "amount",
          "type": "uint256"
        }
      ],
      "stateMutability": "view",
      "type": "function"
    },
    {
      "inputs": [],
      "name": "getCategory",
      "outputs": [
        {
          "internalType": "string",
          "name": "",
          "type": "string"
        }
      ],
      "stateMutability": "view",
      "type": "function"
    },
    {
      "inputs": [],
      "name": "getCost",
      "outputs": [
        {
          "internalType": "uint256",
          "name": "",
          "type": "uint256"
        }
      ],
      "stateMutability": "view",
      "type": "function"
    },
    {
      "inputs": [],
      "name": "getData",
      "outputs": [
        {
          "components": [
            {
              "components": [
                {
                  "internalType": "uint256",
                  "name": "id",
                  "type": "uint256"
                },
                {
                  "internalType": "string",
                  "name": "category",
                  "type": "string"
                },
                {
                  "internalType": "string",
                  "name": "name",
                  "type": "string"
                },
                {
                  "internalType": "string",
                  "name": "description",
                  "type": "string"
                },
                {
                  "internalType": "string",
                  "name": "imageURI",
                  "type": "string"
                },
                {
                  "internalType": "uint256",
                  "name": "effect",
                  "type": "uint256"
                }
              ],
              "internalType": "struct LItemData.Info",
              "name": "info",
              "type": "tuple"
            },
            {
              "internalType": "uint256",
              "name": "cost",
              "type": "uint256"
            },
            {
              "internalType": "uint256",
              "name": "amount",
              "type": "uint256"
            }
          ],
          "internalType": "struct LItemData.Data",
          "name": "",
          "type": "tuple"
        }
      ],
      "stateMutability": "view",
      "type": "function"
    },
    {
      "inputs": [],
      "name": "getDescription",
      "outputs": [
        {
          "internalType": "string",
          "name": "",
          "type": "string"
        }
      ],
      "stateMutability": "view",
      "type": "function"
    },
    {
      "inputs": [],
      "name": "getEffect",
      "outputs": [
        {
          "internalType": "uint256",
          "name": "",
          "type": "uint256"
        }
      ],
      "stateMutability": "view",
      "type": "function"
    },
    {
      "inputs": [],
      "name": "getId",
      "outputs": [
        {
          "internalType": "uint256",
          "name": "",
          "type": "uint256"
        }
      ],
      "stateMutability": "view",
      "type": "function"
    },
    {
      "inputs": [],
      "name": "getImageUri",
      "outputs": [
        {
          "internalType": "string",
          "name": "",
          "type": "string"
        }
      ],
      "stateMutability": "view",
      "type": "function"
    },
    {
      "inputs": [],
      "name": "getInfo",
      "outputs": [
        {
          "components": [
            {
              "internalType": "uint256",
              "name": "id",
              "type": "uint256"
            },
            {
              "internalType": "string",
              "name": "category",
              "type": "string"
            },
            {
              "internalType": "string",
              "name": "name",
              "type": "string"
            },
            {
              "internalType": "string",
              "name": "description",
              "type": "string"
            },
            {
              "internalType": "string",
              "name": "imageURI",
              "type": "string"
            },
            {
              "internalType": "uint256",
              "name": "effect",
              "type": "uint256"
            }
          ],
          "internalType": "struct LItemData.Info",
          "name": "",
          "type": "tuple"
        }
      ],
      "stateMutability": "view",
      "type": "function"
    },
    {
      "inputs": [],
      "name": "getName",
      "outputs": [
        {
          "internalType": "string",
          "name": "",
          "type": "string"
        }
      ],
      "stateMutability": "view",
      "type": "function"
    }
  ],
  "bytecode": "0x60806040523480156200001157600080fd5b506040516200185838038062001858833981810160405281019062000037919062000240565b6200004e878787878787876200005b60201b60201c565b505050505050506200049f565b866000800160000181905550856000800160010190805190602001906200008492919062000108565b5084600080016002019080519060200190620000a292919062000108565b5083600080016003019080519060200190620000c092919062000108565b5082600080016004019080519060200190620000de92919062000108565b50806000800160050181905550816000600601819055506000806007018190555050505050505050565b8280546200011690620003de565b90600052602060002090601f0160209004810192826200013a576000855562000186565b82601f106200015557805160ff191683800117855562000186565b8280016001018555821562000186579182015b828111156200018557825182559160200191906001019062000168565b5b50905062000195919062000199565b5090565b5b80821115620001b45760008160009055506001016200019a565b5090565b6000620001cf620001c9846200036a565b62000341565b905082815260208101848484011115620001e857600080fd5b620001f5848285620003a8565b509392505050565b600082601f8301126200020e578081fd5b815162000220848260208601620001b8565b91505092915050565b6000815190506200023a8162000485565b92915050565b600080600080600080600060e0888a0312156200025b578283fd5b6200026989848a0162000229565b9650602088015160018060401b0381111562000283578384fd5b620002918a828b01620001fd565b965050604088015160018060401b03811115620002ac578384fd5b620002ba8a828b01620001fd565b955050606088015160018060401b03811115620002d5578384fd5b620002e38a828b01620001fd565b945050608088015160018060401b03811115620002fe578384fd5b6200030c8a828b01620001fd565b93505060a06200031f8a828b0162000229565b92505060c0620003328a828b0162000229565b91505092959891949750929550565b60006200034d62000360565b90506200035b828262000414565b919050565b6000604051905090565b600060018060401b038211156200038657620003856200045e565b5b620003918262000474565b9050602081019050919050565b6000819050919050565b60005b83811015620003c8578082015181840152602081019050620003ab565b83811115620003d8576000848401525b50505050565b60006002820490506001821680620003f757607f821691505b602082108114156200040e576200040d62000448565b5b50919050565b6200041f8262000474565b810181811060018060401b03821117156200043f576200043e6200045e565b5b80604052505050565b634e487b7160e01b600052602260045260246000fd5b634e487b7160e01b600052604160045260246000fd5b6000601f19601f8301169050919050565b62000490816200039e565b81146200049c57600080fd5b50565b6113a980620004af6000396000f3fe608060405234801561001057600080fd5b50600436106100d45760003560e01c80635d1ca631116100815780638e41a9cf1161005b5780638e41a9cf146101e7578063bd3e19d414610205578063eb9770b614610223576100d4565b80635d1ca6311461018b57806373d4a13a146101a957806380258e47146101c9576100d4565b806346bd9a66116100b257806346bd9a66146101335780635a9b0b89146101515780635cb85cd21461016f576100d4565b806317d7de7c146100d95780631a092541146100f75780633bc5de3014610115575b600080fd5b6100e161023f565b6040516100ee919061110d565b60405180910390f35b6100ff6102d6565b60405161010c919061110d565b60405180910390f35b61011d61036d565b60405161012a919061112f565b60405180910390f35b61013b61060b565b604051610148919061110d565b60405180910390f35b6101596106a2565b6040516101669190611151565b60405180910390f35b61018960048036038101906101849190610e87565b61091a565b005b610193610927565b6040516101a091906111b1565b60405180910390f35b6101b1610936565b6040516101c093929190611173565b60405180910390f35b6101d1610bb4565b6040516101de919061110d565b60405180910390f35b6101ef610c4b565b6040516101fc91906111b1565b60405180910390f35b61020d610c5a565b60405161021a91906111b1565b60405180910390f35b61023d60048036038101906102389190610eac565b610c66565b005b60606000800160020180546102539061128a565b80601f016020809104026020016040519081016040528092919081815260200182805461027f9061128a565b80156102cc5780601f106102a1576101008083540402835291602001916102cc565b820191906000526020600020905b8154815290600101906020018083116102af57829003601f168201915b5050505050905090565b60606000800160030180546102ea9061128a565b80601f01602080910402602001604051908101604052809291908181526020018280546103169061128a565b80156103635780601f1061033857610100808354040283529160200191610363565b820191906000526020600020905b81548152906001019060200180831161034657829003601f168201915b5050505050905090565b610375610d0b565b6000604051806060016040529081600082016040518060c0016040529081600082015481526020016001820180546103ac9061128a565b80601f01602080910402602001604051908101604052809291908181526020018280546103d89061128a565b80156104255780601f106103fa57610100808354040283529160200191610425565b820191906000526020600020905b81548152906001019060200180831161040857829003601f168201915b5050505050815260200160028201805461043e9061128a565b80601f016020809104026020016040519081016040528092919081815260200182805461046a9061128a565b80156104b75780601f1061048c576101008083540402835291602001916104b7565b820191906000526020600020905b81548152906001019060200180831161049a57829003601f168201915b505050505081526020016003820180546104d09061128a565b80601f01602080910402602001604051908101604052809291908181526020018280546104fc9061128a565b80156105495780601f1061051e57610100808354040283529160200191610549565b820191906000526020600020905b81548152906001019060200180831161052c57829003601f168201915b505050505081526020016004820180546105629061128a565b80601f016020809104026020016040519081016040528092919081815260200182805461058e9061128a565b80156105db5780601f106105b0576101008083540402835291602001916105db565b820191906000526020600020905b8154815290600101906020018083116105be57829003601f168201915b50505050508152602001600582015481525050815260200160068201548152602001600782015481525050905090565b606060008001600401805461061f9061128a565b80601f016020809104026020016040519081016040528092919081815260200182805461064b9061128a565b80156106985780601f1061066d57610100808354040283529160200191610698565b820191906000526020600020905b81548152906001019060200180831161067b57829003601f168201915b5050505050905090565b6106aa610d32565b600080016040518060c0016040529081600082015481526020016001820180546106d39061128a565b80601f01602080910402602001604051908101604052809291908181526020018280546106ff9061128a565b801561074c5780601f106107215761010080835404028352916020019161074c565b820191906000526020600020905b81548152906001019060200180831161072f57829003601f168201915b505050505081526020016002820180546107659061128a565b80601f01602080910402602001604051908101604052809291908181526020018280546107919061128a565b80156107de5780601f106107b3576101008083540402835291602001916107de565b820191906000526020600020905b8154815290600101906020018083116107c157829003601f168201915b505050505081526020016003820180546107f79061128a565b80601f01602080910402602001604051908101604052809291908181526020018280546108239061128a565b80156108705780601f1061084557610100808354040283529160200191610870565b820191906000526020600020905b81548152906001019060200180831161085357829003601f168201915b505050505081526020016004820180546108899061128a565b80601f01602080910402602001604051908101604052809291908181526020018280546108b59061128a565b80156109025780601f106108d757610100808354040283529160200191610902565b820191906000526020600020905b8154815290600101906020018083116108e557829003601f168201915b50505050508152602001600582015481525050905090565b8060006006018190555050565b60008060000160000154905090565b6000806000016040518060c0016040529081600082015481526020016001820180546109619061128a565b80601f016020809104026020016040519081016040528092919081815260200182805461098d9061128a565b80156109da5780601f106109af576101008083540402835291602001916109da565b820191906000526020600020905b8154815290600101906020018083116109bd57829003601f168201915b505050505081526020016002820180546109f39061128a565b80601f0160208091040260200160405190810160405280929190818152602001828054610a1f9061128a565b8015610a6c5780601f10610a4157610100808354040283529160200191610a6c565b820191906000526020600020905b815481529060010190602001808311610a4f57829003601f168201915b50505050508152602001600382018054610a859061128a565b80601f0160208091040260200160405190810160405280929190818152602001828054610ab19061128a565b8015610afe5780601f10610ad357610100808354040283529160200191610afe565b820191906000526020600020905b815481529060010190602001808311610ae157829003601f168201915b50505050508152602001600482018054610b179061128a565b80601f0160208091040260200160405190810160405280929190818152602001828054610b439061128a565b8015610b905780601f10610b6557610100808354040283529160200191610b90565b820191906000526020600020905b815481529060010190602001808311610b7357829003601f168201915b50505050508152602001600582015481525050908060060154908060070154905083565b6060600080016001018054610bc89061128a565b80601f0160208091040260200160405190810160405280929190818152602001828054610bf49061128a565b8015610c415780601f10610c1657610100808354040283529160200191610c41565b820191906000526020600020905b815481529060010190602001808311610c2457829003601f168201915b5050505050905090565b60008060000160050154905090565b60008060060154905090565b86600080016000018190555085600080016001019080519060200190610c8d929190610d68565b5084600080016002019080519060200190610ca9929190610d68565b5083600080016003019080519060200190610cc5929190610d68565b5082600080016004019080519060200190610ce1929190610d68565b50806000800160050181905550816000600601819055506000806007018190555050505050505050565b6040518060600160405280610d1e610d32565b815260200160008152602001600081525090565b6040518060c001604052806000815260200160608152602001606081526020016060815260200160608152602001600081525090565b828054610d749061128a565b90600052602060002090601f016020900481019282610d965760008555610ddd565b82601f10610daf57805160ff1916838001178555610ddd565b82800160010185558215610ddd579182015b82811115610ddc578251825591602001919060010190610dc1565b5b509050610dea9190610dee565b5090565b5b80821115610e07576000816000905550600101610def565b5090565b6000610e1e610e19846111f1565b6111cc565b905082815260208101848484011115610e3657600080fd5b610e41848285611248565b509392505050565b600082601f830112610e59578081fd5b8135610e69848260208601610e0b565b91505092915050565b600081359050610e818161135c565b92915050565b600060208284031215610e98578081fd5b610ea483828401610e72565b905092915050565b600080600080600080600060e0888a031215610ec6578283fd5b610ed289848a01610e72565b9650602088013567ffffffffffffffff811115610eed578384fd5b610ef98a828b01610e49565b965050604088013567ffffffffffffffff811115610f15578384fd5b610f218a828b01610e49565b955050606088013567ffffffffffffffff811115610f3d578384fd5b610f498a828b01610e49565b945050608088013567ffffffffffffffff811115610f65578384fd5b610f718a828b01610e49565b93505060a0610f828a828b01610e72565b92505060c0610f938a828b01610e72565b91505092959891949750929550565b6000610fad82611222565b610fb7818561122d565b9350610fc7818560208601611257565b610fd08161134b565b840191505092915050565b6000610fe682611222565b610ff0818561122d565b9350611000818560208601611257565b6110098161134b565b840191505092915050565b600060608301818301518482038386015261102f8282611062565b915050602083015161104460208601826110fe565b50604083015161105760408601826110fe565b508091505092915050565b600060c0830181830151611078838601826110fe565b50602083015184820360208601526110908282610fa2565b915050604083015184820360408601526110aa8282610fa2565b915050606083015184820360608601526110c48282610fa2565b915050608083015184820360808601526110de8282610fa2565b91505060a08301516110f360a08601826110fe565b508091505092915050565b6111078161123e565b82525050565b600060208201905081810360008301526111278184610fdb565b905092915050565b600060208201905081810360008301526111498184611014565b905092915050565b6000602082019050818103600083015261116b8184611062565b905092915050565b6000606082019050818103600083015261118d8186611062565b905061119c60208301856110fe565b6111a960408301846110fe565b949350505050565b60006020820190506111c660008301846110fe565b92915050565b60006111d66111e7565b90506111e282826112bc565b919050565b6000604051905090565b600067ffffffffffffffff82111561120c5761120b61131c565b5b6112158261134b565b9050602081019050919050565b600081519050919050565b818152600060208201905092915050565b6000819050919050565b82818337600083830152505050565b60005b8381101561127557808201518184015260208101905061125a565b83811115611284576000848401525b50505050565b600060028204905060018216806112a257607f821691505b602082108114156112b6576112b56112ed565b5b50919050565b6112c58261134b565b810181811067ffffffffffffffff821117156112e4576112e361131c565b5b80604052505050565b7f4e487b7100000000000000000000000000000000000000000000000000000000600052602260045260246000fd5b7f4e487b7100000000000000000000000000000000000000000000000000000000600052604160045260246000fd5b6000601f19601f8301169050919050565b6113658161123e565b811461137057600080fd5b5056fea2646970667358221220483df8554123009cbca330f8d7394b3bc88a19bd4ff08db7e6b34fb5472ddc1c64736f6c63430008040033",
  "linkReferences": {},
  "deployedLinkReferences": {}
}